{
  "address": "0x5C2Db857975da98B0a9cF02dD34cE780bB688fCE",
  "abi": [
    {
      "anonymous": false,
      "inputs": [
        {
          "indexed": true,
          "internalType": "address",
          "name": "winner",
          "type": "address"
        },
        {
          "indexed": false,
          "internalType": "uint256",
          "name": "livePrice",
          "type": "uint256"
        }
      ],
      "name": "Bid",
      "type": "event"
    },
    {
      "anonymous": false,
      "inputs": [
        {
          "indexed": true,
          "internalType": "address",
          "name": "who",
          "type": "address"
        },
        {
          "indexed": false,
          "internalType": "address",
          "name": "configAddress",
          "type": "address"
        }
      ],
      "name": "DobermanConfigUpdated",
      "type": "event"
    },
    {
      "anonymous": false,
      "inputs": [
        {
          "indexed": false,
          "internalType": "uint8",
          "name": "version",
          "type": "uint8"
        }
      ],
      "name": "Initialized",
      "type": "event"
    },
    {
      "anonymous": false,
      "inputs": [
        {
          "indexed": false,
          "internalType": "address",
          "name": "account",
          "type": "address"
        }
      ],
      "name": "Paused",
      "type": "event"
    },
    {
      "anonymous": false,
      "inputs": [
        {
          "indexed": true,
          "internalType": "bytes32",
          "name": "role",
          "type": "bytes32"
        },
        {
          "indexed": true,
          "internalType": "bytes32",
          "name": "previousAdminRole",
          "type": "bytes32"
        },
        {
          "indexed": true,
          "internalType": "bytes32",
          "name": "newAdminRole",
          "type": "bytes32"
        }
      ],
      "name": "RoleAdminChanged",
      "type": "event"
    },
    {
      "anonymous": false,
      "inputs": [
        {
          "indexed": true,
          "internalType": "bytes32",
          "name": "role",
          "type": "bytes32"
        },
        {
          "indexed": true,
          "internalType": "address",
          "name": "account",
          "type": "address"
        },
        {
          "indexed": true,
          "internalType": "address",
          "name": "sender",
          "type": "address"
        }
      ],
      "name": "RoleGranted",
      "type": "event"
    },
    {
      "anonymous": false,
      "inputs": [
        {
          "indexed": true,
          "internalType": "bytes32",
          "name": "role",
          "type": "bytes32"
        },
        {
          "indexed": true,
          "internalType": "address",
          "name": "account",
          "type": "address"
        },
        {
          "indexed": true,
          "internalType": "address",
          "name": "sender",
          "type": "address"
        }
      ],
      "name": "RoleRevoked",
      "type": "event"
    },
    {
      "anonymous": false,
      "inputs": [
        {
          "indexed": false,
          "internalType": "address",
          "name": "account",
          "type": "address"
        }
      ],
      "name": "Unpaused",
      "type": "event"
    },
    {
      "inputs": [],
      "name": "DEFAULT_ADMIN_ROLE",
      "outputs": [
        {
          "internalType": "bytes32",
          "name": "",
          "type": "bytes32"
        }
      ],
      "stateMutability": "view",
      "type": "function"
    },
    {
      "inputs": [],
      "name": "OWNER_ROLE",
      "outputs": [
        {
          "internalType": "bytes32",
          "name": "",
          "type": "bytes32"
        }
      ],
      "stateMutability": "view",
      "type": "function"
    },
    {
      "inputs": [],
      "name": "PAUSER_ROLE",
      "outputs": [
        {
          "internalType": "bytes32",
          "name": "",
          "type": "bytes32"
        }
      ],
      "stateMutability": "view",
      "type": "function"
    },
    {
      "inputs": [],
      "name": "SECONDS_PER_DAY",
      "outputs": [
        {
          "internalType": "uint256",
          "name": "",
          "type": "uint256"
        }
      ],
      "stateMutability": "view",
      "type": "function"
    },
    {
      "inputs": [
        {
          "internalType": "address",
          "name": "owner",
          "type": "address"
        }
      ],
      "name": "__BaseUpgradeablePausable__init",
      "outputs": [],
      "stateMutability": "nonpayable",
      "type": "function"
    },
    {
      "inputs": [],
      "name": "__PauserPausable__init",
      "outputs": [],
      "stateMutability": "nonpayable",
      "type": "function"
    },
    {
      "inputs": [],
      "name": "assess",
      "outputs": [
        {
          "internalType": "uint256",
          "name": "",
          "type": "uint256"
        },
        {
          "internalType": "uint256",
          "name": "",
          "type": "uint256"
        },
        {
          "internalType": "uint256",
          "name": "",
          "type": "uint256"
        }
      ],
      "stateMutability": "nonpayable",
      "type": "function"
    },
    {
      "inputs": [],
      "name": "auctionEnd",
      "outputs": [
        {
          "internalType": "uint256",
          "name": "",
          "type": "uint256"
        }
      ],
      "stateMutability": "view",
      "type": "function"
    },
    {
      "inputs": [],
      "name": "auctionLivePrice",
      "outputs": [
        {
          "internalType": "uint256",
          "name": "",
          "type": "uint256"
        }
      ],
      "stateMutability": "view",
      "type": "function"
    },
    {
      "inputs": [],
      "name": "auctionWinner",
      "outputs": [
        {
          "internalType": "address",
          "name": "",
          "type": "address"
        }
      ],
      "stateMutability": "view",
      "type": "function"
    },
    {
      "inputs": [],
      "name": "balance",
      "outputs": [
        {
          "internalType": "uint256",
          "name": "",
          "type": "uint256"
        }
      ],
      "stateMutability": "view",
      "type": "function"
    },
    {
      "inputs": [
        {
          "internalType": "uint256",
          "name": "amount",
          "type": "uint256"
        },
        {
          "internalType": "uint256",
          "name": "deadline",
          "type": "uint256"
        },
        {
          "internalType": "uint8",
          "name": "v",
          "type": "uint8"
        },
        {
          "internalType": "bytes32",
          "name": "r",
          "type": "bytes32"
        },
        {
          "internalType": "bytes32",
          "name": "s",
          "type": "bytes32"
        }
      ],
      "name": "bidWithPermit",
      "outputs": [],
      "stateMutability": "nonpayable",
      "type": "function"
    },
    {
      "inputs": [],
      "name": "borrower",
      "outputs": [
        {
          "internalType": "address",
          "name": "",
          "type": "address"
        }
      ],
      "stateMutability": "view",
      "type": "function"
    },
    {
      "inputs": [],
      "name": "calculateNextDueTime",
      "outputs": [
        {
          "internalType": "uint256",
          "name": "",
          "type": "uint256"
        }
      ],
      "stateMutability": "view",
      "type": "function"
    },
    {
      "inputs": [],
      "name": "config",
      "outputs": [
        {
          "internalType": "contract DobermanConfig",
          "name": "",
          "type": "address"
        }
      ],
      "stateMutability": "view",
      "type": "function"
    },
    {
      "inputs": [],
      "name": "currentLimit",
      "outputs": [
        {
          "internalType": "uint256",
          "name": "",
          "type": "uint256"
        }
      ],
      "stateMutability": "view",
      "type": "function"
    },
    {
      "inputs": [
        {
          "internalType": "uint256",
          "name": "amount",
          "type": "uint256"
        }
      ],
      "name": "drawdown",
      "outputs": [],
      "stateMutability": "nonpayable",
      "type": "function"
    },
    {
      "inputs": [],
      "name": "getInterestAndPrincipalOwedAsOfCurrent",
      "outputs": [
        {
          "internalType": "uint256",
          "name": "",
          "type": "uint256"
        },
        {
          "internalType": "uint256",
          "name": "",
          "type": "uint256"
        }
      ],
      "stateMutability": "view",
      "type": "function"
    },
    {
      "inputs": [
        {
          "internalType": "bytes32",
          "name": "role",
          "type": "bytes32"
        }
      ],
      "name": "getRoleAdmin",
      "outputs": [
        {
          "internalType": "bytes32",
          "name": "",
          "type": "bytes32"
        }
      ],
      "stateMutability": "view",
      "type": "function"
    },
    {
      "inputs": [
        {
          "internalType": "bytes32",
          "name": "role",
          "type": "bytes32"
        },
        {
          "internalType": "address",
          "name": "account",
          "type": "address"
        }
      ],
      "name": "grantRole",
      "outputs": [],
      "stateMutability": "nonpayable",
      "type": "function"
    },
    {
      "inputs": [
        {
          "internalType": "bytes32",
          "name": "role",
          "type": "bytes32"
        },
        {
          "internalType": "address",
          "name": "account",
          "type": "address"
        }
      ],
      "name": "hasRole",
      "outputs": [
        {
          "internalType": "bool",
          "name": "",
          "type": "bool"
        }
      ],
      "stateMutability": "view",
      "type": "function"
    },
    {
      "inputs": [
        {
          "internalType": "address",
          "name": "_config",
          "type": "address"
        },
        {
          "internalType": "address",
          "name": "owner",
          "type": "address"
        },
        {
          "internalType": "address",
          "name": "_borrower",
          "type": "address"
        },
        {
          "internalType": "uint256",
          "name": "_maxLimit",
          "type": "uint256"
        },
        {
          "internalType": "uint256",
          "name": "_interestApr",
          "type": "uint256"
        },
        {
          "internalType": "uint256",
          "name": "_paymentPeriodInDays",
          "type": "uint256"
        },
        {
          "internalType": "uint256",
          "name": "_termInDays",
          "type": "uint256"
        },
        {
          "internalType": "uint256",
          "name": "_lateFeeApr",
          "type": "uint256"
        },
        {
          "internalType": "uint256",
          "name": "_principalGracePeriodInDays",
          "type": "uint256"
        }
      ],
      "name": "initialize",
      "outputs": [],
      "stateMutability": "nonpayable",
      "type": "function"
    },
    {
      "inputs": [],
      "name": "interestAccruedAsOf",
      "outputs": [
        {
          "internalType": "uint256",
          "name": "",
          "type": "uint256"
        }
      ],
      "stateMutability": "view",
      "type": "function"
    },
    {
      "inputs": [],
      "name": "interestApr",
      "outputs": [
        {
          "internalType": "uint256",
          "name": "",
          "type": "uint256"
        }
      ],
      "stateMutability": "view",
      "type": "function"
    },
    {
      "inputs": [],
      "name": "interestOwed",
      "outputs": [
        {
          "internalType": "uint256",
          "name": "",
          "type": "uint256"
        }
      ],
      "stateMutability": "view",
      "type": "function"
    },
    {
      "inputs": [],
      "name": "isAdmin",
      "outputs": [
        {
          "internalType": "bool",
          "name": "",
          "type": "bool"
        }
      ],
      "stateMutability": "view",
      "type": "function"
    },
    {
      "inputs": [],
      "name": "isLate",
      "outputs": [
        {
          "internalType": "bool",
          "name": "",
          "type": "bool"
        }
      ],
      "stateMutability": "view",
      "type": "function"
    },
    {
      "inputs": [],
      "name": "lastFullPaymentTime",
      "outputs": [
        {
          "internalType": "uint256",
          "name": "",
          "type": "uint256"
        }
      ],
      "stateMutability": "view",
      "type": "function"
    },
    {
      "inputs": [],
      "name": "lateFeeApr",
      "outputs": [
        {
          "internalType": "uint256",
          "name": "",
          "type": "uint256"
        }
      ],
      "stateMutability": "view",
      "type": "function"
    },
    {
      "inputs": [],
      "name": "limit",
      "outputs": [
        {
          "internalType": "uint256",
          "name": "",
          "type": "uint256"
        }
      ],
      "stateMutability": "view",
      "type": "function"
    },
    {
      "inputs": [],
      "name": "maxLimit",
      "outputs": [
        {
          "internalType": "uint256",
          "name": "",
          "type": "uint256"
        }
      ],
      "stateMutability": "view",
      "type": "function"
    },
    {
      "inputs": [],
      "name": "nextDueTime",
      "outputs": [
        {
          "internalType": "uint256",
          "name": "",
          "type": "uint256"
        }
      ],
      "stateMutability": "view",
      "type": "function"
    },
    {
      "inputs": [],
      "name": "pause",
      "outputs": [],
      "stateMutability": "nonpayable",
      "type": "function"
    },
    {
      "inputs": [],
      "name": "paused",
      "outputs": [
        {
          "internalType": "bool",
          "name": "",
          "type": "bool"
        }
      ],
      "stateMutability": "view",
      "type": "function"
    },
    {
      "inputs": [],
      "name": "paymentPeriodInDays",
      "outputs": [
        {
          "internalType": "uint256",
          "name": "",
          "type": "uint256"
        }
      ],
      "stateMutability": "view",
      "type": "function"
    },
    {
      "inputs": [],
      "name": "principalGracePeriodInDays",
      "outputs": [
        {
          "internalType": "uint256",
          "name": "",
          "type": "uint256"
        }
      ],
      "stateMutability": "view",
      "type": "function"
    },
    {
      "inputs": [],
      "name": "principalOwed",
      "outputs": [
        {
          "internalType": "uint256",
          "name": "",
          "type": "uint256"
        }
      ],
      "stateMutability": "view",
      "type": "function"
    },
    {
      "inputs": [
        {
          "internalType": "bytes32",
          "name": "role",
          "type": "bytes32"
        },
        {
          "internalType": "address",
          "name": "account",
          "type": "address"
        }
      ],
      "name": "renounceRole",
      "outputs": [],
      "stateMutability": "nonpayable",
      "type": "function"
    },
    {
      "inputs": [
        {
          "internalType": "bytes32",
          "name": "role",
          "type": "bytes32"
        },
        {
          "internalType": "address",
          "name": "account",
          "type": "address"
        }
      ],
      "name": "revokeRole",
      "outputs": [],
      "stateMutability": "nonpayable",
      "type": "function"
    },
    {
      "inputs": [
        {
          "internalType": "uint256",
          "name": "newAuctionEnd",
          "type": "uint256"
        }
      ],
      "name": "setAuctionEnd",
      "outputs": [],
      "stateMutability": "nonpayable",
      "type": "function"
    },
    {
      "inputs": [
        {
          "internalType": "uint256",
          "name": "newAuctionLivePrice",
          "type": "uint256"
        }
      ],
      "name": "setAuctionLivePrice",
      "outputs": [],
      "stateMutability": "nonpayable",
      "type": "function"
    },
    {
      "inputs": [
        {
          "internalType": "address",
          "name": "newAuctionWinner",
          "type": "address"
        }
      ],
      "name": "setAuctionWinner",
      "outputs": [],
      "stateMutability": "nonpayable",
      "type": "function"
    },
    {
      "inputs": [
        {
          "internalType": "uint256",
          "name": "newBalance",
          "type": "uint256"
        }
      ],
      "name": "setBalance",
      "outputs": [],
      "stateMutability": "nonpayable",
      "type": "function"
    },
    {
      "inputs": [
        {
          "internalType": "uint256",
          "name": "newInterestAccruedAsOf",
          "type": "uint256"
        }
      ],
      "name": "setInterestAccruedAsOf",
      "outputs": [],
      "stateMutability": "nonpayable",
      "type": "function"
    },
    {
      "inputs": [
        {
          "internalType": "uint256",
          "name": "newInterestOwed",
          "type": "uint256"
        }
      ],
      "name": "setInterestOwed",
      "outputs": [],
      "stateMutability": "nonpayable",
      "type": "function"
    },
    {
      "inputs": [
        {
          "internalType": "uint256",
          "name": "newLastFullPaymentTime",
          "type": "uint256"
        }
      ],
      "name": "setLastFullPaymentTime",
      "outputs": [],
      "stateMutability": "nonpayable",
      "type": "function"
    },
    {
      "inputs": [
        {
          "internalType": "uint256",
          "name": "newLateFeeApr",
          "type": "uint256"
        }
      ],
      "name": "setLateFeeApr",
      "outputs": [],
      "stateMutability": "nonpayable",
      "type": "function"
    },
    {
      "inputs": [
        {
          "internalType": "uint256",
          "name": "newAmount",
          "type": "uint256"
        }
      ],
      "name": "setLimit",
      "outputs": [],
      "stateMutability": "nonpayable",
      "type": "function"
    },
    {
      "inputs": [
        {
          "internalType": "uint256",
          "name": "newAmount",
          "type": "uint256"
        }
      ],
      "name": "setMaxLimit",
      "outputs": [],
      "stateMutability": "nonpayable",
      "type": "function"
    },
    {
      "inputs": [
        {
          "internalType": "uint256",
          "name": "newNextDueTime",
          "type": "uint256"
        }
      ],
      "name": "setNextDueTime",
      "outputs": [],
      "stateMutability": "nonpayable",
      "type": "function"
    },
    {
      "inputs": [
        {
          "internalType": "uint256",
          "name": "newPrincipalOwed",
          "type": "uint256"
        }
      ],
      "name": "setPrincipalOwed",
      "outputs": [],
      "stateMutability": "nonpayable",
      "type": "function"
    },
    {
      "inputs": [
        {
          "internalType": "uint256",
          "name": "newTermEndTime",
          "type": "uint256"
        }
      ],
      "name": "setTermEndTime",
      "outputs": [],
      "stateMutability": "nonpayable",
      "type": "function"
    },
    {
      "inputs": [
        {
          "internalType": "uint256",
          "name": "_totalInterestAccrued",
          "type": "uint256"
        }
      ],
      "name": "setTotalInterestAccrued",
      "outputs": [],
      "stateMutability": "nonpayable",
      "type": "function"
    },
    {
      "inputs": [
        {
          "internalType": "bytes4",
          "name": "interfaceId",
          "type": "bytes4"
        }
      ],
      "name": "supportsInterface",
      "outputs": [
        {
          "internalType": "bool",
          "name": "",
          "type": "bool"
        }
      ],
      "stateMutability": "view",
      "type": "function"
    },
    {
      "inputs": [],
      "name": "termEndTime",
      "outputs": [
        {
          "internalType": "uint256",
          "name": "",
          "type": "uint256"
        }
      ],
      "stateMutability": "view",
      "type": "function"
    },
    {
      "inputs": [],
      "name": "termInDays",
      "outputs": [
        {
          "internalType": "uint256",
          "name": "",
          "type": "uint256"
        }
      ],
      "stateMutability": "view",
      "type": "function"
    },
    {
      "inputs": [],
      "name": "termStartTime",
      "outputs": [
        {
          "internalType": "uint256",
          "name": "",
          "type": "uint256"
        }
      ],
      "stateMutability": "view",
      "type": "function"
    },
    {
      "inputs": [],
      "name": "totalInterestAccrued",
      "outputs": [
        {
          "internalType": "uint256",
          "name": "",
          "type": "uint256"
        }
      ],
      "stateMutability": "view",
      "type": "function"
    },
    {
      "inputs": [],
      "name": "unpause",
      "outputs": [],
      "stateMutability": "nonpayable",
      "type": "function"
    },
    {
      "inputs": [],
      "name": "updateDobermanConfig",
      "outputs": [],
      "stateMutability": "nonpayable",
      "type": "function"
    },
    {
      "inputs": [],
      "name": "withinPrincipalGracePeriod",
      "outputs": [
        {
          "internalType": "bool",
          "name": "",
          "type": "bool"
        }
      ],
      "stateMutability": "view",
      "type": "function"
    }
  ],
  "transactionHash": "0xd5851dc95958d2f7fc25be632c1b05ab50fb0f32ba929a1ddd9b186191dfb266",
  "args": [],
  "numDeployments": 5,
  "solcInputHash": "5e320e9c9ceb684c8aee19a32b1e05d9",
  "bytecode": "0x608060405234801561001057600080fd5b50612c29806100206000396000f3fe608060405234801561001057600080fd5b506004361061032f5760003560e01c80637df1f1b9116101b4578063b6db75a0116100fa578063d28459771161009d578063d284597714610684578063d30a09111461068e578063d547741f14610696578063e58378bb146106a9578063e63ab1e9146106be578063eabd0ce1146106d3578063f0b25bde146106dd578063fb1669ca146106e757600080fd5b8063b6db75a014610609578063ba0bb69014610611578063bb4a250914610624578063bbafcb4014610637578063bf6edc3a14610641578063bf8bcee414610654578063ce78290d14610667578063cf1787e61461067157600080fd5b8063a217fddf11610162578063a217fddf14610587578063a4d66daf1461058f578063a6a25e8814610598578063a6b1ae0d146105bb578063b37a8be3146105ce578063b3969992146105e2578063b3b8a9c7146105ec578063b69ef8a8146105ff57600080fd5b80637df1f1b91461052057806381c17a15146105345780638456cb591461053c57806391d148541461054457806396c8df371461055757806399dd8df31461056a578063a079a4dd1461057457600080fd5b806336568abe116102795780635c975abb116102275780635c975abb146104ac578063645d6225146104b757806364fb2d95146104bf57806366916bd1146104c9578063738ce0ca146104d157806374f0314f146104e457806379502c55146104ec5780637ae14b091461050d57600080fd5b806336568abe1461045157806336d91494146104645780633bb63cf8146104775780633f4ba83a1461048a578063457147a71461049257806348e6f2961461049a578063526d81f6146104a457600080fd5b80631d1883b9116102e15780631d1883b9146103ba57806321856b36146103c4578063248a9ca3146103ce57806326a40e82146103f157806327ea6f2b146104045780632a24f46c146104175780632f2ff15d1461042157806333cac6211461043457600080fd5b806301ffc9a714610334578063033669cf1461035c578063097616a3146103715780630e347f8914610384578063193501141461039c5780631a861d26146103a65780631cd724ac146103b0575b600080fd5b610347610342366004612782565b6106fa565b60405190151581526020015b60405180910390f35b61036f61036a36600461273b565b610731565b005b61036f61037f366004612663565b610764565b61038e6101c95481565b604051908152602001610353565b61038e6101d05481565b61038e6101c55481565b61038e6101d55481565b61038e6101cd5481565b61038e6101cf5481565b61038e6103dc36600461273b565b60009081526065602052604090206001015490565b61036f6103ff36600461273b565b61086a565b61036f61041236600461273b565b610894565b61038e6101cb5481565b61036f61042f366004612753565b61091b565b61043c610945565b60408051928352602083019190915201610353565b61036f61045f366004612753565b610a52565b61036f61047236600461273b565b610ad0565b61036f61048536600461284c565b610afa565b61036f610e4a565b610347610e88565b61038e6101c85481565b61036f610ec4565b60975460ff16610347565b61038e610f8d565b61038e6101d15481565b61038e610f9c565b61036f6104df36600461273b565b6110d9565b61038e603c81565b6101d654610500906001600160a01b031681565b6040516103539190612908565b61036f61051b36600461273b565b611103565b6101c354610500906001600160a01b031681565b61034761112d565b61036f611138565b610347610552366004612753565b611174565b61036f61056536600461273b565b61119f565b61038e6101c75481565b61036f61058236600461273b565b6111c9565b61038e600081565b6101c45461038e565b6105a0611386565b60408051938452602084019290925290820152606001610353565b61036f6105c936600461273b565b611498565b6101cc54610500906001600160a01b031681565b61038e6101c65481565b61036f6105fa36600461273b565b6114c2565b61038e6101ce5481565b6103476114ec565b61036f61061f366004612663565b611506565b61036f61063236600461269b565b61154d565b61038e6101d35481565b61036f61064f36600461273b565b6117cd565b61036f61066236600461273b565b6117f7565b61038e6101d45481565b61036f61067f36600461273b565b611821565b61038e6101d25481565b61036f61184b565b61036f6106a4366004612753565b6118e0565b61038e600080516020612bb483398151915281565b61038e600080516020612bd483398151915281565b61038e6101c45481565b61038e6101ca5481565b61036f6106f536600461273b565b611905565b60006001600160e01b03198216637965db0b60e01b148061072b57506301ffc9a760e01b6001600160e01b03198316145b92915050565b6107396114ec565b61075e5760405162461bcd60e51b815260040161075590612a8c565b60405180910390fd5b6101d555565b600054610100900460ff1661078b5760405162461bcd60e51b815260040161075590612a41565b6001600160a01b0381166107e15760405162461bcd60e51b815260206004820181905260248201527f4f776e65722063616e6e6f7420626520746865207a65726f20616464726573736044820152606401610755565b6107e961192f565b6107f1611956565b6107f9611989565b610811600080516020612bb4833981519152826119b7565b610829600080516020612bd4833981519152826119b7565b61084f600080516020612bd4833981519152600080516020612bb48339815191526119c1565b610867600080516020612bb4833981519152806119c1565b50565b6108726114ec565b61088e5760405162461bcd60e51b815260040161075590612a8c565b6101d255565b61089c6114ec565b6108b85760405162461bcd60e51b815260040161075590612a8c565b6101c5548111156109155760405162461bcd60e51b815260206004820152602160248201527f43616e6e6f74206265206d6f7265207468616e20746865206d6178206c696d696044820152601d60fa1b6064820152608401610755565b6101c455565b60008281526065602052604090206001015461093681611a0c565b6109408383611a16565b505050565b6000806000610952610f9c565b90504281111561097e576101c75460009061096e90603c611a9c565b905061097a8282611aaf565b9150505b6101d6546000908190734B6B57604Cb5EffABDf3a8b9B54984bC83b61B069063101c843090309086906109b9906001600160a01b0316611abb565b6040518463ffffffff1660e01b81526004016109d79392919061291c565b604080518083038186803b1580156109ee57600080fd5b505af4158015610a02573d6000803e3d6000fd5b505050506040513d601f19601f82011682018060405250810190610a269190612829565b6101cf549193509150610a399083611b3d565b6101d054610a479083611b3d565b945094505050509091565b6001600160a01b0381163314610ac25760405162461bcd60e51b815260206004820152602f60248201527f416363657373436f6e74726f6c3a2063616e206f6e6c792072656e6f756e636560448201526e103937b632b9903337b91039b2b63360891b6064820152608401610755565b610acc8282611b49565b5050565b610ad86114ec565b610af45760405162461bcd60e51b815260040161075590612a8c565b6101d455565b6101c7544290610b0b90603c611a9c565b6101d154610b199190612ad7565b81118015610b2a575060006101ce54115b610b765760405162461bcd60e51b815260206004820181905260248201527f4c6f616e73206973206f6e2074696d65206f722066756c6c79207265706169646044820152606401610755565b6101cb54610c0e57610ba26104df610b9b6101c754603c611a9c90919063ffffffff16565b8390611b3d565b600080610bad610945565b9092509050610bbc8183612ad7565b881015610c075760405162461bcd60e51b815260206004820152601960248201527853746172742061756374696f6e2062696420746f6f206c6f7760381b6044820152606401610755565b5050610ccf565b6101cb54811115610c4f5760405162461bcd60e51b815260206004820152600b60248201526a105d58dd1a5bdb88195b9960aa1b6044820152606401610755565b6101d654600090610c68906001600160a01b0316611bb0565b610c7490612710612ad7565b9050806101cd54610c859190612b0f565b610c9188612710612b0f565b1015610ccd5760405162461bcd60e51b815260206004820152600b60248201526a42696420746f6f206c6f7760a81b6044820152606401610755565b505b601e816101cb54610ce09190612b2e565b11610cf857610cf86101cb54601e6104df9190612ad7565b6101cc546001600160a01b031615610d3d576101d654610d3d90610d24906001600160a01b0316611bc8565b6101cc546101cd546001600160a01b0390911690611bd3565b6101d654610d53906001600160a01b0316611c0f565b60405163d505accf60e01b8152336004820152306024820152604481018890526064810187905260ff8616608482015260a4810185905260c481018490526001600160a01b03919091169063d505accf9060e401600060405180830381600087803b158015610dc157600080fd5b505af1158015610dd5573d6000803e3d6000fd5b50506101d654610dfb9250610df391506001600160a01b0316611bc8565b333089611c91565b610e0433611506565b610e0d866117cd565b60405186815233907fe684a55f31b79eca403df938249029212a5925ec6be8012e099b45bc1019e5d29060200160405180910390a2505050505050565b610e62600080516020612bd483398151915233611174565b610e7e5760405162461bcd60e51b8152600401610755906129a7565b610e86611cd4565b565b60006101d15460001415610e9c5750600190565b6101c954610ebd90610eaf90603c611a9c565b610eb7611d20565b90611b3d565b4210905090565b600054610100900460ff1615808015610ee45750600054600160ff909116105b80610efe5750303b158015610efe575060005460ff166001145b610f1a5760405162461bcd60e51b8152600401610755906129f3565b6000805460ff191660011790558015610f3d576000805461ff0019166101001790555b610f45611956565b8015610867576000805461ff0019169055604051600181527f7f26b83ff96e1f2b6a682f133852f6798a09c465da95921460cefb38474024989060200160405180910390a150565b6000610f97611d20565b905090565b6101d2546101c754600091908290610fb590603c611a9c565b90504282158015610fc9575060006101ce54115b15610fe057610fd88183611b3d565b935050505090565b60006101ce54118015610ff35750828110155b1561104157600061101d836110176001610eb783611011888b611aaf565b90611d46565b90611a9c565b90506110298482611b3d565b9350611038846101d154611d52565b94505050505090565b6101ce5415801561105157508215155b15611060576000935050505090565b60006101ce5411801561107257508281105b1561107f57509092915050565b60405162461bcd60e51b815260206004820152602960248201527f4572726f723a20636f756c64206e6f742063616c63756c617465206e65787420604482015268323ab2903a34b6b29760b91b6064820152608401610755565b6110e16114ec565b6110fd5760405162461bcd60e51b815260040161075590612a8c565b6101cb55565b61110b6114ec565b6111275760405162461bcd60e51b815260040161075590612a8c565b6101d155565b6000610f9742611d68565b611150600080516020612bd483398151915233611174565b61116c5760405162461bcd60e51b8152600401610755906129a7565b610e86611da7565b60009182526065602090815260408084206001600160a01b0393909316845291905290205460ff1690565b6111a76114ec565b6111c35760405162461bcd60e51b815260040161075590612a8c565b6101cf55565b6111d16114ec565b6111ed5760405162461bcd60e51b815260040161075590612a8c565b6101c4546101ce54611200908390611b3d565b111561125a5760405162461bcd60e51b815260206004820152602360248201527f43616e6e6f742064726177646f776e206d6f7265207468616e20746865206c696044820152621b5a5d60ea1b6064820152608401610755565b600081116112a45760405162461bcd60e51b8152602060048201526017602482015276125b9d985b1a5908191c985dd91bdddb88185b5bdd5b9d604a1b6044820152606401610755565b6101ce5442906112e7576112b781611498565b6112c081610ad0565b6112ca6000610731565b6112e761051b610b9b6101c854603c611a9c90919063ffffffff16565b6000806112f383611de4565b6101ce5491935091506113069085611b3d565b6101ce819055611317908383611ee9565b61132083611d68565b156113805760405162461bcd60e51b815260206004820152602a60248201527f43616e6e6f742064726177646f776e207768656e207061796d656e74732061726044820152696520706173742064756560b01b6064820152608401610755565b50505050565b60008060006113936114ec565b6113af5760405162461bcd60e51b815260040161075590612a8c565b60006101ce54116114125760405162461bcd60e51b815260206004820152602760248201527f4d75737420686176652062616c616e636520746f2061737365737320637265646044820152666974206c696e6560c81b6064820152608401610755565b6101d2544210801561142a575061142842611d68565b155b1561143b5750600092839250829150565b6000611445610f9c565b90506114508161086a565b4281111561147a576101c75460009061146a90603c611a9c565b90506114768282611aaf565b9150505b61148c61148630611f76565b82611fba565b93509350935050909192565b6114a06114ec565b6114bc5760405162461bcd60e51b815260040161075590612a8c565b6101d355565b6114ca6114ec565b6114e65760405162461bcd60e51b815260040161075590612a8c565b6101d055565b6000610f97600080516020612bb483398151915233611174565b61150e6114ec565b61152a5760405162461bcd60e51b815260040161075590612a8c565b6101cc80546001600160a01b0319166001600160a01b0392909216919091179055565b600054610100900460ff161580801561156d5750600054600160ff909116105b806115875750303b158015611587575060005460ff166001145b6115a35760405162461bcd60e51b8152600401610755906129f3565b6000805460ff1916600117905580156115c6576000805461ff0019166101001790555b6001600160a01b038a16158015906115e657506001600160a01b03891615155b80156115fa57506001600160a01b03881615155b61163f5760405162461bcd60e51b81526020600482015260166024820152752d32b9379030b2323932b9b9903830b9b9b2b21034b760511b6044820152606401610755565b61164889610764565b6101d680546001600160a01b03808d166001600160a01b031992831681179093556101c38054918c16919092161790556101c58890556101c68790556101c78690556101c88590556101ca8490556101c9839055426101d3556000906116ad90611bc8565b60405163095ea7b360e01b81526001600160a01b038c811660048301526000196024830152919091169063095ea7b390604401602060405180830381600087803b1580156116fa57600080fd5b505af115801561170e573d6000803e3d6000fd5b505050506040513d601f19601f82011682018060405250810190611732919061271b565b90508061177a5760405162461bcd60e51b81526020600482015260166024820152754661696c656420746f20617070726f7665205553444360501b6044820152606401610755565b5080156117c1576000805461ff0019169055604051600181527f7f26b83ff96e1f2b6a682f133852f6798a09c465da95921460cefb38474024989060200160405180910390a15b50505050505050505050565b6117d56114ec565b6117f15760405162461bcd60e51b815260040161075590612a8c565b6101cd55565b6117ff6114ec565b61181b5760405162461bcd60e51b815260040161075590612a8c565b6101c555565b6118296114ec565b6118455760405162461bcd60e51b815260040161075590612a8c565b6101ca55565b6118536114ec565b61186f5760405162461bcd60e51b815260040161075590612a8c565b6101d654611885906001600160a01b0316612162565b6101d680546001600160a01b0319166001600160a01b0392909216918217905560405133917f8d003bc2e3965bd9d92389a8ae0ef8c601fa211ba9378150dde7dc3cf38c3a36916118d69190612908565b60405180910390a2565b6000828152606560205260409020600101546118fb81611a0c565b6109408383611b49565b61190d6114ec565b6119295760405162461bcd60e51b815260040161075590612a8c565b6101ce55565b600054610100900460ff16610e865760405162461bcd60e51b815260040161075590612a41565b600054610100900460ff1661197d5760405162461bcd60e51b815260040161075590612a41565b6097805460ff19169055565b600054610100900460ff166119b05760405162461bcd60e51b815260040161075590612a41565b600160c955565b610acc8282611a16565b600082815260656020526040808220600101805490849055905190918391839186917fbd79b86ffe0ab8e8776151514217cd7cacd52c909f66475c3af44e129f0b00ff9190a4505050565b610867813361217a565b611a208282611174565b610acc5760008281526065602090815260408083206001600160a01b03851684529091529020805460ff19166001179055611a583390565b6001600160a01b0316816001600160a01b0316837f2f8788117e7eff1d82e926ec794901d17c78024a50270940304540a733656f0d60405160405180910390a45050565b6000611aa88284612b0f565b9392505050565b6000611aa88284612b2e565b60006001600160a01b03821663fc56365860055b6040518263ffffffff1660e01b8152600401611aed91815260200190565b60206040518083038186803b158015611b0557600080fd5b505afa158015611b19573d6000803e3d6000fd5b505050506040513d601f19601f8201168201806040525081019061072b9190612811565b6000611aa88284612ad7565b611b538282611174565b15610acc5760008281526065602090815260408083206001600160a01b0385168085529252808320805460ff1916905551339285917ff6391f5c32d9c69d2a47ea670b442974b53935d1edc7fd64eb21e047a839171b9190a45050565b60006001600160a01b03821663fc563658600a611acf565b600061072b82611c0f565b6109408383836040518060400160405280601881526020017704661696c656420746f207472616e736665722045524332360441b8152506121d3565b60006001600160a01b03821663b93f9b0a60055b6040518263ffffffff1660e01b8152600401611c4191815260200190565b60206040518083038186803b158015611c5957600080fd5b505afa158015611c6d573d6000803e3d6000fd5b505050506040513d601f19601f8201168201806040525081019061072b919061267f565b60408051808201909152601881527704661696c656420746f207472616e736665722045524332360441b6020820152611ccd85858585856122a8565b5050505050565b611cdc612386565b6097805460ff191690557f5db9ee0a495bf2e6ff9c91a7834c1ba4fdd244a5e8aa4e537bd38aeae4b073aa335b604051611d169190612908565b60405180910390a1565b6000610f97611d3c6101c854603c611a9c90919063ffffffff16565b6101d15490611aaf565b6000611aa88284612aef565b6000818310611d615781611aa8565b5090919050565b600080611d816101d45484611aaf90919063ffffffff16565b905060006101ce54118015611aa857506101c754611da090603c611a9c565b1092915050565b611daf6123cf565b6097805460ff191660011790557f62e78cea01bee320cd4e420270b5ea74000d11b0c9f74754ebdbfc544b05a258611d093390565b600080600080734B6B57604Cb5EffABDf3a8b9B54984bC83b61B0663101c84303087611e2e6101d660009054906101000a90046001600160a01b03166001600160a01b0316611abb565b6040518463ffffffff1660e01b8152600401611e4c9392919061291c565b604080518083038186803b158015611e6357600080fd5b505af4158015611e77573d6000803e3d6000fd5b505050506040513d601f19601f82011682018060405250810190611e9b9190612829565b90925090508115611ec257611eaf85611498565b6101d554611ebd9083611b3d565b6101d5555b6101cf54611ed09083611b3d565b6101d054611ede9083611b3d565b935093505050915091565b611ef1612415565b611efa83611905565b611f038261119f565b611f0c816114c2565b6101d25482158015611f1d57508015155b15611f6057600081421015611f52576101c754600090611f3e90603c611a9c565b9050611f4a8382611aaf565b915050611f55565b50805b611f5e81610ad0565b505b611f6b6103ff610f9c565b50610940600160c955565b6101d654600090611f8f906001600160a01b0316611bc8565b6001600160a01b03166370a08231836040518263ffffffff1660e01b8152600401611aed9190612908565b6000806000806000611fcb86611de4565b6101ce5460405163d7cc2a0360e01b8152600481018b9052602481019190915260448101839052606481018290529193509150600090734B6B57604Cb5EffABDf3a8b9B54984bC83b61B069063d7cc2a039060840160606040518083038186803b15801561203857600080fd5b505af415801561204c573d6000803e3d6000fd5b505050506040513d601f19601f8201168201806040525081019061207091906127aa565b9050600061208e82602001516101ce54611aaf90919063ffffffff16565b90506120a7826040015182611aaf90919063ffffffff16565b905060006120c1826101ce54611aaf90919063ffffffff16565b905060006120e6826120e086600001518e611aaf90919063ffffffff16565b90611aaf565b905061211883612103866000015189611aaf90919063ffffffff16565b6020870151612113908990611aaf565b611ee9565b8a61213483610eb7876000015185611b3d90919063ffffffff16565b1461214f57634e487b7160e01b600052600160045260246000fd5b9251929a92995097509095505050505050565b60006001600160a01b03821663b93f9b0a600b611c23565b6121848282611174565b610acc576121918161246f565b61219c836020612481565b6040516020016121ad929190612899565b60408051601f198184030181529082905262461bcd60e51b82526107559160040161293d565b6001600160a01b0383166121f95760405162461bcd60e51b815260040161075590612970565b60405163a9059cbb60e01b81526001600160a01b038481166004830152602482018490526000919086169063a9059cbb90604401602060405180830381600087803b15801561224757600080fd5b505af115801561225b573d6000803e3d6000fd5b505050506040513d601f19601f8201168201806040525081019061227f919061271b565b905081816122a05760405162461bcd60e51b8152600401610755919061293d565b505050505050565b6001600160a01b0383166122ce5760405162461bcd60e51b815260040161075590612970565b6040516323b872dd60e01b81526001600160a01b038581166004830152848116602483015260448201849052600091908716906323b872dd90606401602060405180830381600087803b15801561232457600080fd5b505af1158015612338573d6000803e3d6000fd5b505050506040513d601f19601f8201168201806040525081019061235c919061271b565b9050818161237d5760405162461bcd60e51b8152600401610755919061293d565b50505050505050565b60975460ff16610e865760405162461bcd60e51b815260206004820152601460248201527314185d5cd8589b194e881b9bdd081c185d5cd95960621b6044820152606401610755565b60975460ff1615610e865760405162461bcd60e51b815260206004820152601060248201526f14185d5cd8589b194e881c185d5cd95960821b6044820152606401610755565b600260c95414156124685760405162461bcd60e51b815260206004820152601f60248201527f5265656e7472616e637947756172643a207265656e7472616e742063616c6c006044820152606401610755565b600260c955565b606061072b6001600160a01b03831660145b60606000612490836002612b0f565b61249b906002612ad7565b67ffffffffffffffff8111156124c157634e487b7160e01b600052604160045260246000fd5b6040519080825280601f01601f1916602001820160405280156124eb576020820181803683370190505b509050600360fc1b8160008151811061251457634e487b7160e01b600052603260045260246000fd5b60200101906001600160f81b031916908160001a905350600f60fb1b8160018151811061255157634e487b7160e01b600052603260045260246000fd5b60200101906001600160f81b031916908160001a9053506000612575846002612b0f565b612580906001612ad7565b90505b6001811115612614576f181899199a1a9b1b9c1cb0b131b232b360811b85600f16601081106125c257634e487b7160e01b600052603260045260246000fd5b1a60f81b8282815181106125e657634e487b7160e01b600052603260045260246000fd5b60200101906001600160f81b031916908160001a90535060049490941c9361260d81612b71565b9050612583565b508315611aa85760405162461bcd60e51b815260206004820181905260248201527f537472696e67733a20686578206c656e67746820696e73756666696369656e746044820152606401610755565b600060208284031215612674578081fd5b8135611aa881612b9e565b600060208284031215612690578081fd5b8151611aa881612b9e565b60008060008060008060008060006101208a8c0312156126b9578485fd5b89356126c481612b9e565b985060208a01356126d481612b9e565b975060408a01356126e481612b9e565b989b979a5097986060810135985060808101359760a0820135975060c0820135965060e08201359550610100909101359350915050565b60006020828403121561272c578081fd5b81518015158114611aa8578182fd5b60006020828403121561274c578081fd5b5035919050565b60008060408385031215612765578182fd5b82359150602083013561277781612b9e565b809150509250929050565b600060208284031215612793578081fd5b81356001600160e01b031981168114611aa8578182fd5b6000606082840312156127bb578081fd5b6040516060810181811067ffffffffffffffff821117156127ea57634e487b7160e01b83526041600452602483fd5b80604052508251815260208301516020820152604083015160408201528091505092915050565b600060208284031215612822578081fd5b5051919050565b6000806040838503121561283b578182fd5b505080516020909101519092909150565b600080600080600060a08688031215612863578081fd5b8535945060208601359350604086013560ff81168114612881578182fd5b94979396509394606081013594506080013592915050565b76020b1b1b2b9b9a1b7b73a3937b61d1030b1b1b7bab73a1604d1b8152600083516128cb816017850160208801612b45565b7001034b99036b4b9b9b4b733903937b6329607d1b60179184019182015283516128fc816028840160208801612b45565b01602801949350505050565b6001600160a01b0391909116815260200190565b6001600160a01b039390931683526020830191909152604082015260600190565b602081526000825180602084015261295c816040850160208701612b45565b601f01601f19169190910160400192915050565b6020808252601a908201527f43616e27742073656e6420746f207a65726f2061646472657373000000000000604082015260600190565b6020808252602c908201527f4d75737420686176652070617573657220726f6c6520746f20706572666f726d60408201526b103a3434b99030b1ba34b7b760a11b606082015260800190565b6020808252602e908201527f496e697469616c697a61626c653a20636f6e747261637420697320616c72656160408201526d191e481a5b9a5d1a585b1a5e995960921b606082015260800190565b6020808252602b908201527f496e697469616c697a61626c653a20636f6e7472616374206973206e6f74206960408201526a6e697469616c697a696e6760a81b606082015260800190565b6020808252602b908201527f4d75737420686176652061646d696e20726f6c6520746f20706572666f726d2060408201526a3a3434b99030b1ba34b7b760a91b606082015260800190565b60008219821115612aea57612aea612b88565b500190565b600082612b0a57634e487b7160e01b81526012600452602481fd5b500490565b6000816000190483118215151615612b2957612b29612b88565b500290565b600082821015612b4057612b40612b88565b500390565b60005b83811015612b60578181015183820152602001612b48565b838111156113805750506000910152565b600081612b8057612b80612b88565b506000190190565b634e487b7160e01b600052601160045260246000fd5b6001600160a01b038116811461086757600080fdfeb19546dff01e856fb3f010c267a7b1c60363cf8a4664e21cc89c26224620214e65d7a28e3265b37a6474929f336521b332c1681b933f6cb9f3376673440d862aa26469706673582212207585eb0dbee41c0c7e8a446804363742a5a888fe670f7c5942083f504599f94464736f6c63430008040033",
  "deployedBytecode": "0x608060405234801561001057600080fd5b506004361061032f5760003560e01c80637df1f1b9116101b4578063b6db75a0116100fa578063d28459771161009d578063d284597714610684578063d30a09111461068e578063d547741f14610696578063e58378bb146106a9578063e63ab1e9146106be578063eabd0ce1146106d3578063f0b25bde146106dd578063fb1669ca146106e757600080fd5b8063b6db75a014610609578063ba0bb69014610611578063bb4a250914610624578063bbafcb4014610637578063bf6edc3a14610641578063bf8bcee414610654578063ce78290d14610667578063cf1787e61461067157600080fd5b8063a217fddf11610162578063a217fddf14610587578063a4d66daf1461058f578063a6a25e8814610598578063a6b1ae0d146105bb578063b37a8be3146105ce578063b3969992146105e2578063b3b8a9c7146105ec578063b69ef8a8146105ff57600080fd5b80637df1f1b91461052057806381c17a15146105345780638456cb591461053c57806391d148541461054457806396c8df371461055757806399dd8df31461056a578063a079a4dd1461057457600080fd5b806336568abe116102795780635c975abb116102275780635c975abb146104ac578063645d6225146104b757806364fb2d95146104bf57806366916bd1146104c9578063738ce0ca146104d157806374f0314f146104e457806379502c55146104ec5780637ae14b091461050d57600080fd5b806336568abe1461045157806336d91494146104645780633bb63cf8146104775780633f4ba83a1461048a578063457147a71461049257806348e6f2961461049a578063526d81f6146104a457600080fd5b80631d1883b9116102e15780631d1883b9146103ba57806321856b36146103c4578063248a9ca3146103ce57806326a40e82146103f157806327ea6f2b146104045780632a24f46c146104175780632f2ff15d1461042157806333cac6211461043457600080fd5b806301ffc9a714610334578063033669cf1461035c578063097616a3146103715780630e347f8914610384578063193501141461039c5780631a861d26146103a65780631cd724ac146103b0575b600080fd5b610347610342366004612782565b6106fa565b60405190151581526020015b60405180910390f35b61036f61036a36600461273b565b610731565b005b61036f61037f366004612663565b610764565b61038e6101c95481565b604051908152602001610353565b61038e6101d05481565b61038e6101c55481565b61038e6101d55481565b61038e6101cd5481565b61038e6101cf5481565b61038e6103dc36600461273b565b60009081526065602052604090206001015490565b61036f6103ff36600461273b565b61086a565b61036f61041236600461273b565b610894565b61038e6101cb5481565b61036f61042f366004612753565b61091b565b61043c610945565b60408051928352602083019190915201610353565b61036f61045f366004612753565b610a52565b61036f61047236600461273b565b610ad0565b61036f61048536600461284c565b610afa565b61036f610e4a565b610347610e88565b61038e6101c85481565b61036f610ec4565b60975460ff16610347565b61038e610f8d565b61038e6101d15481565b61038e610f9c565b61036f6104df36600461273b565b6110d9565b61038e603c81565b6101d654610500906001600160a01b031681565b6040516103539190612908565b61036f61051b36600461273b565b611103565b6101c354610500906001600160a01b031681565b61034761112d565b61036f611138565b610347610552366004612753565b611174565b61036f61056536600461273b565b61119f565b61038e6101c75481565b61036f61058236600461273b565b6111c9565b61038e600081565b6101c45461038e565b6105a0611386565b60408051938452602084019290925290820152606001610353565b61036f6105c936600461273b565b611498565b6101cc54610500906001600160a01b031681565b61038e6101c65481565b61036f6105fa36600461273b565b6114c2565b61038e6101ce5481565b6103476114ec565b61036f61061f366004612663565b611506565b61036f61063236600461269b565b61154d565b61038e6101d35481565b61036f61064f36600461273b565b6117cd565b61036f61066236600461273b565b6117f7565b61038e6101d45481565b61036f61067f36600461273b565b611821565b61038e6101d25481565b61036f61184b565b61036f6106a4366004612753565b6118e0565b61038e600080516020612bb483398151915281565b61038e600080516020612bd483398151915281565b61038e6101c45481565b61038e6101ca5481565b61036f6106f536600461273b565b611905565b60006001600160e01b03198216637965db0b60e01b148061072b57506301ffc9a760e01b6001600160e01b03198316145b92915050565b6107396114ec565b61075e5760405162461bcd60e51b815260040161075590612a8c565b60405180910390fd5b6101d555565b600054610100900460ff1661078b5760405162461bcd60e51b815260040161075590612a41565b6001600160a01b0381166107e15760405162461bcd60e51b815260206004820181905260248201527f4f776e65722063616e6e6f7420626520746865207a65726f20616464726573736044820152606401610755565b6107e961192f565b6107f1611956565b6107f9611989565b610811600080516020612bb4833981519152826119b7565b610829600080516020612bd4833981519152826119b7565b61084f600080516020612bd4833981519152600080516020612bb48339815191526119c1565b610867600080516020612bb4833981519152806119c1565b50565b6108726114ec565b61088e5760405162461bcd60e51b815260040161075590612a8c565b6101d255565b61089c6114ec565b6108b85760405162461bcd60e51b815260040161075590612a8c565b6101c5548111156109155760405162461bcd60e51b815260206004820152602160248201527f43616e6e6f74206265206d6f7265207468616e20746865206d6178206c696d696044820152601d60fa1b6064820152608401610755565b6101c455565b60008281526065602052604090206001015461093681611a0c565b6109408383611a16565b505050565b6000806000610952610f9c565b90504281111561097e576101c75460009061096e90603c611a9c565b905061097a8282611aaf565b9150505b6101d654600090819073__$1dcd660c042b25ef260537b13a3f0ede49$__9063101c843090309086906109b9906001600160a01b0316611abb565b6040518463ffffffff1660e01b81526004016109d79392919061291c565b604080518083038186803b1580156109ee57600080fd5b505af4158015610a02573d6000803e3d6000fd5b505050506040513d601f19601f82011682018060405250810190610a269190612829565b6101cf549193509150610a399083611b3d565b6101d054610a479083611b3d565b945094505050509091565b6001600160a01b0381163314610ac25760405162461bcd60e51b815260206004820152602f60248201527f416363657373436f6e74726f6c3a2063616e206f6e6c792072656e6f756e636560448201526e103937b632b9903337b91039b2b63360891b6064820152608401610755565b610acc8282611b49565b5050565b610ad86114ec565b610af45760405162461bcd60e51b815260040161075590612a8c565b6101d455565b6101c7544290610b0b90603c611a9c565b6101d154610b199190612ad7565b81118015610b2a575060006101ce54115b610b765760405162461bcd60e51b815260206004820181905260248201527f4c6f616e73206973206f6e2074696d65206f722066756c6c79207265706169646044820152606401610755565b6101cb54610c0e57610ba26104df610b9b6101c754603c611a9c90919063ffffffff16565b8390611b3d565b600080610bad610945565b9092509050610bbc8183612ad7565b881015610c075760405162461bcd60e51b815260206004820152601960248201527853746172742061756374696f6e2062696420746f6f206c6f7760381b6044820152606401610755565b5050610ccf565b6101cb54811115610c4f5760405162461bcd60e51b815260206004820152600b60248201526a105d58dd1a5bdb88195b9960aa1b6044820152606401610755565b6101d654600090610c68906001600160a01b0316611bb0565b610c7490612710612ad7565b9050806101cd54610c859190612b0f565b610c9188612710612b0f565b1015610ccd5760405162461bcd60e51b815260206004820152600b60248201526a42696420746f6f206c6f7760a81b6044820152606401610755565b505b601e816101cb54610ce09190612b2e565b11610cf857610cf86101cb54601e6104df9190612ad7565b6101cc546001600160a01b031615610d3d576101d654610d3d90610d24906001600160a01b0316611bc8565b6101cc546101cd546001600160a01b0390911690611bd3565b6101d654610d53906001600160a01b0316611c0f565b60405163d505accf60e01b8152336004820152306024820152604481018890526064810187905260ff8616608482015260a4810185905260c481018490526001600160a01b03919091169063d505accf9060e401600060405180830381600087803b158015610dc157600080fd5b505af1158015610dd5573d6000803e3d6000fd5b50506101d654610dfb9250610df391506001600160a01b0316611bc8565b333089611c91565b610e0433611506565b610e0d866117cd565b60405186815233907fe684a55f31b79eca403df938249029212a5925ec6be8012e099b45bc1019e5d29060200160405180910390a2505050505050565b610e62600080516020612bd483398151915233611174565b610e7e5760405162461bcd60e51b8152600401610755906129a7565b610e86611cd4565b565b60006101d15460001415610e9c5750600190565b6101c954610ebd90610eaf90603c611a9c565b610eb7611d20565b90611b3d565b4210905090565b600054610100900460ff1615808015610ee45750600054600160ff909116105b80610efe5750303b158015610efe575060005460ff166001145b610f1a5760405162461bcd60e51b8152600401610755906129f3565b6000805460ff191660011790558015610f3d576000805461ff0019166101001790555b610f45611956565b8015610867576000805461ff0019169055604051600181527f7f26b83ff96e1f2b6a682f133852f6798a09c465da95921460cefb38474024989060200160405180910390a150565b6000610f97611d20565b905090565b6101d2546101c754600091908290610fb590603c611a9c565b90504282158015610fc9575060006101ce54115b15610fe057610fd88183611b3d565b935050505090565b60006101ce54118015610ff35750828110155b1561104157600061101d836110176001610eb783611011888b611aaf565b90611d46565b90611a9c565b90506110298482611b3d565b9350611038846101d154611d52565b94505050505090565b6101ce5415801561105157508215155b15611060576000935050505090565b60006101ce5411801561107257508281105b1561107f57509092915050565b60405162461bcd60e51b815260206004820152602960248201527f4572726f723a20636f756c64206e6f742063616c63756c617465206e65787420604482015268323ab2903a34b6b29760b91b6064820152608401610755565b6110e16114ec565b6110fd5760405162461bcd60e51b815260040161075590612a8c565b6101cb55565b61110b6114ec565b6111275760405162461bcd60e51b815260040161075590612a8c565b6101d155565b6000610f9742611d68565b611150600080516020612bd483398151915233611174565b61116c5760405162461bcd60e51b8152600401610755906129a7565b610e86611da7565b60009182526065602090815260408084206001600160a01b0393909316845291905290205460ff1690565b6111a76114ec565b6111c35760405162461bcd60e51b815260040161075590612a8c565b6101cf55565b6111d16114ec565b6111ed5760405162461bcd60e51b815260040161075590612a8c565b6101c4546101ce54611200908390611b3d565b111561125a5760405162461bcd60e51b815260206004820152602360248201527f43616e6e6f742064726177646f776e206d6f7265207468616e20746865206c696044820152621b5a5d60ea1b6064820152608401610755565b600081116112a45760405162461bcd60e51b8152602060048201526017602482015276125b9d985b1a5908191c985dd91bdddb88185b5bdd5b9d604a1b6044820152606401610755565b6101ce5442906112e7576112b781611498565b6112c081610ad0565b6112ca6000610731565b6112e761051b610b9b6101c854603c611a9c90919063ffffffff16565b6000806112f383611de4565b6101ce5491935091506113069085611b3d565b6101ce819055611317908383611ee9565b61132083611d68565b156113805760405162461bcd60e51b815260206004820152602a60248201527f43616e6e6f742064726177646f776e207768656e207061796d656e74732061726044820152696520706173742064756560b01b6064820152608401610755565b50505050565b60008060006113936114ec565b6113af5760405162461bcd60e51b815260040161075590612a8c565b60006101ce54116114125760405162461bcd60e51b815260206004820152602760248201527f4d75737420686176652062616c616e636520746f2061737365737320637265646044820152666974206c696e6560c81b6064820152608401610755565b6101d2544210801561142a575061142842611d68565b155b1561143b5750600092839250829150565b6000611445610f9c565b90506114508161086a565b4281111561147a576101c75460009061146a90603c611a9c565b90506114768282611aaf565b9150505b61148c61148630611f76565b82611fba565b93509350935050909192565b6114a06114ec565b6114bc5760405162461bcd60e51b815260040161075590612a8c565b6101d355565b6114ca6114ec565b6114e65760405162461bcd60e51b815260040161075590612a8c565b6101d055565b6000610f97600080516020612bb483398151915233611174565b61150e6114ec565b61152a5760405162461bcd60e51b815260040161075590612a8c565b6101cc80546001600160a01b0319166001600160a01b0392909216919091179055565b600054610100900460ff161580801561156d5750600054600160ff909116105b806115875750303b158015611587575060005460ff166001145b6115a35760405162461bcd60e51b8152600401610755906129f3565b6000805460ff1916600117905580156115c6576000805461ff0019166101001790555b6001600160a01b038a16158015906115e657506001600160a01b03891615155b80156115fa57506001600160a01b03881615155b61163f5760405162461bcd60e51b81526020600482015260166024820152752d32b9379030b2323932b9b9903830b9b9b2b21034b760511b6044820152606401610755565b61164889610764565b6101d680546001600160a01b03808d166001600160a01b031992831681179093556101c38054918c16919092161790556101c58890556101c68790556101c78690556101c88590556101ca8490556101c9839055426101d3556000906116ad90611bc8565b60405163095ea7b360e01b81526001600160a01b038c811660048301526000196024830152919091169063095ea7b390604401602060405180830381600087803b1580156116fa57600080fd5b505af115801561170e573d6000803e3d6000fd5b505050506040513d601f19601f82011682018060405250810190611732919061271b565b90508061177a5760405162461bcd60e51b81526020600482015260166024820152754661696c656420746f20617070726f7665205553444360501b6044820152606401610755565b5080156117c1576000805461ff0019169055604051600181527f7f26b83ff96e1f2b6a682f133852f6798a09c465da95921460cefb38474024989060200160405180910390a15b50505050505050505050565b6117d56114ec565b6117f15760405162461bcd60e51b815260040161075590612a8c565b6101cd55565b6117ff6114ec565b61181b5760405162461bcd60e51b815260040161075590612a8c565b6101c555565b6118296114ec565b6118455760405162461bcd60e51b815260040161075590612a8c565b6101ca55565b6118536114ec565b61186f5760405162461bcd60e51b815260040161075590612a8c565b6101d654611885906001600160a01b0316612162565b6101d680546001600160a01b0319166001600160a01b0392909216918217905560405133917f8d003bc2e3965bd9d92389a8ae0ef8c601fa211ba9378150dde7dc3cf38c3a36916118d69190612908565b60405180910390a2565b6000828152606560205260409020600101546118fb81611a0c565b6109408383611b49565b61190d6114ec565b6119295760405162461bcd60e51b815260040161075590612a8c565b6101ce55565b600054610100900460ff16610e865760405162461bcd60e51b815260040161075590612a41565b600054610100900460ff1661197d5760405162461bcd60e51b815260040161075590612a41565b6097805460ff19169055565b600054610100900460ff166119b05760405162461bcd60e51b815260040161075590612a41565b600160c955565b610acc8282611a16565b600082815260656020526040808220600101805490849055905190918391839186917fbd79b86ffe0ab8e8776151514217cd7cacd52c909f66475c3af44e129f0b00ff9190a4505050565b610867813361217a565b611a208282611174565b610acc5760008281526065602090815260408083206001600160a01b03851684529091529020805460ff19166001179055611a583390565b6001600160a01b0316816001600160a01b0316837f2f8788117e7eff1d82e926ec794901d17c78024a50270940304540a733656f0d60405160405180910390a45050565b6000611aa88284612b0f565b9392505050565b6000611aa88284612b2e565b60006001600160a01b03821663fc56365860055b6040518263ffffffff1660e01b8152600401611aed91815260200190565b60206040518083038186803b158015611b0557600080fd5b505afa158015611b19573d6000803e3d6000fd5b505050506040513d601f19601f8201168201806040525081019061072b9190612811565b6000611aa88284612ad7565b611b538282611174565b15610acc5760008281526065602090815260408083206001600160a01b0385168085529252808320805460ff1916905551339285917ff6391f5c32d9c69d2a47ea670b442974b53935d1edc7fd64eb21e047a839171b9190a45050565b60006001600160a01b03821663fc563658600a611acf565b600061072b82611c0f565b6109408383836040518060400160405280601881526020017704661696c656420746f207472616e736665722045524332360441b8152506121d3565b60006001600160a01b03821663b93f9b0a60055b6040518263ffffffff1660e01b8152600401611c4191815260200190565b60206040518083038186803b158015611c5957600080fd5b505afa158015611c6d573d6000803e3d6000fd5b505050506040513d601f19601f8201168201806040525081019061072b919061267f565b60408051808201909152601881527704661696c656420746f207472616e736665722045524332360441b6020820152611ccd85858585856122a8565b5050505050565b611cdc612386565b6097805460ff191690557f5db9ee0a495bf2e6ff9c91a7834c1ba4fdd244a5e8aa4e537bd38aeae4b073aa335b604051611d169190612908565b60405180910390a1565b6000610f97611d3c6101c854603c611a9c90919063ffffffff16565b6101d15490611aaf565b6000611aa88284612aef565b6000818310611d615781611aa8565b5090919050565b600080611d816101d45484611aaf90919063ffffffff16565b905060006101ce54118015611aa857506101c754611da090603c611a9c565b1092915050565b611daf6123cf565b6097805460ff191660011790557f62e78cea01bee320cd4e420270b5ea74000d11b0c9f74754ebdbfc544b05a258611d093390565b60008060008073__$1dcd660c042b25ef260537b13a3f0ede49$__63101c84303087611e2e6101d660009054906101000a90046001600160a01b03166001600160a01b0316611abb565b6040518463ffffffff1660e01b8152600401611e4c9392919061291c565b604080518083038186803b158015611e6357600080fd5b505af4158015611e77573d6000803e3d6000fd5b505050506040513d601f19601f82011682018060405250810190611e9b9190612829565b90925090508115611ec257611eaf85611498565b6101d554611ebd9083611b3d565b6101d5555b6101cf54611ed09083611b3d565b6101d054611ede9083611b3d565b935093505050915091565b611ef1612415565b611efa83611905565b611f038261119f565b611f0c816114c2565b6101d25482158015611f1d57508015155b15611f6057600081421015611f52576101c754600090611f3e90603c611a9c565b9050611f4a8382611aaf565b915050611f55565b50805b611f5e81610ad0565b505b611f6b6103ff610f9c565b50610940600160c955565b6101d654600090611f8f906001600160a01b0316611bc8565b6001600160a01b03166370a08231836040518263ffffffff1660e01b8152600401611aed9190612908565b6000806000806000611fcb86611de4565b6101ce5460405163d7cc2a0360e01b8152600481018b905260248101919091526044810183905260648101829052919350915060009073__$1dcd660c042b25ef260537b13a3f0ede49$__9063d7cc2a039060840160606040518083038186803b15801561203857600080fd5b505af415801561204c573d6000803e3d6000fd5b505050506040513d601f19601f8201168201806040525081019061207091906127aa565b9050600061208e82602001516101ce54611aaf90919063ffffffff16565b90506120a7826040015182611aaf90919063ffffffff16565b905060006120c1826101ce54611aaf90919063ffffffff16565b905060006120e6826120e086600001518e611aaf90919063ffffffff16565b90611aaf565b905061211883612103866000015189611aaf90919063ffffffff16565b6020870151612113908990611aaf565b611ee9565b8a61213483610eb7876000015185611b3d90919063ffffffff16565b1461214f57634e487b7160e01b600052600160045260246000fd5b9251929a92995097509095505050505050565b60006001600160a01b03821663b93f9b0a600b611c23565b6121848282611174565b610acc576121918161246f565b61219c836020612481565b6040516020016121ad929190612899565b60408051601f198184030181529082905262461bcd60e51b82526107559160040161293d565b6001600160a01b0383166121f95760405162461bcd60e51b815260040161075590612970565b60405163a9059cbb60e01b81526001600160a01b038481166004830152602482018490526000919086169063a9059cbb90604401602060405180830381600087803b15801561224757600080fd5b505af115801561225b573d6000803e3d6000fd5b505050506040513d601f19601f8201168201806040525081019061227f919061271b565b905081816122a05760405162461bcd60e51b8152600401610755919061293d565b505050505050565b6001600160a01b0383166122ce5760405162461bcd60e51b815260040161075590612970565b6040516323b872dd60e01b81526001600160a01b038581166004830152848116602483015260448201849052600091908716906323b872dd90606401602060405180830381600087803b15801561232457600080fd5b505af1158015612338573d6000803e3d6000fd5b505050506040513d601f19601f8201168201806040525081019061235c919061271b565b9050818161237d5760405162461bcd60e51b8152600401610755919061293d565b50505050505050565b60975460ff16610e865760405162461bcd60e51b815260206004820152601460248201527314185d5cd8589b194e881b9bdd081c185d5cd95960621b6044820152606401610755565b60975460ff1615610e865760405162461bcd60e51b815260206004820152601060248201526f14185d5cd8589b194e881c185d5cd95960821b6044820152606401610755565b600260c95414156124685760405162461bcd60e51b815260206004820152601f60248201527f5265656e7472616e637947756172643a207265656e7472616e742063616c6c006044820152606401610755565b600260c955565b606061072b6001600160a01b03831660145b60606000612490836002612b0f565b61249b906002612ad7565b67ffffffffffffffff8111156124c157634e487b7160e01b600052604160045260246000fd5b6040519080825280601f01601f1916602001820160405280156124eb576020820181803683370190505b509050600360fc1b8160008151811061251457634e487b7160e01b600052603260045260246000fd5b60200101906001600160f81b031916908160001a905350600f60fb1b8160018151811061255157634e487b7160e01b600052603260045260246000fd5b60200101906001600160f81b031916908160001a9053506000612575846002612b0f565b612580906001612ad7565b90505b6001811115612614576f181899199a1a9b1b9c1cb0b131b232b360811b85600f16601081106125c257634e487b7160e01b600052603260045260246000fd5b1a60f81b8282815181106125e657634e487b7160e01b600052603260045260246000fd5b60200101906001600160f81b031916908160001a90535060049490941c9361260d81612b71565b9050612583565b508315611aa85760405162461bcd60e51b815260206004820181905260248201527f537472696e67733a20686578206c656e67746820696e73756666696369656e746044820152606401610755565b600060208284031215612674578081fd5b8135611aa881612b9e565b600060208284031215612690578081fd5b8151611aa881612b9e565b60008060008060008060008060006101208a8c0312156126b9578485fd5b89356126c481612b9e565b985060208a01356126d481612b9e565b975060408a01356126e481612b9e565b989b979a5097986060810135985060808101359760a0820135975060c0820135965060e08201359550610100909101359350915050565b60006020828403121561272c578081fd5b81518015158114611aa8578182fd5b60006020828403121561274c578081fd5b5035919050565b60008060408385031215612765578182fd5b82359150602083013561277781612b9e565b809150509250929050565b600060208284031215612793578081fd5b81356001600160e01b031981168114611aa8578182fd5b6000606082840312156127bb578081fd5b6040516060810181811067ffffffffffffffff821117156127ea57634e487b7160e01b83526041600452602483fd5b80604052508251815260208301516020820152604083015160408201528091505092915050565b600060208284031215612822578081fd5b5051919050565b6000806040838503121561283b578182fd5b505080516020909101519092909150565b600080600080600060a08688031215612863578081fd5b8535945060208601359350604086013560ff81168114612881578182fd5b94979396509394606081013594506080013592915050565b76020b1b1b2b9b9a1b7b73a3937b61d1030b1b1b7bab73a1604d1b8152600083516128cb816017850160208801612b45565b7001034b99036b4b9b9b4b733903937b6329607d1b60179184019182015283516128fc816028840160208801612b45565b01602801949350505050565b6001600160a01b0391909116815260200190565b6001600160a01b039390931683526020830191909152604082015260600190565b602081526000825180602084015261295c816040850160208701612b45565b601f01601f19169190910160400192915050565b6020808252601a908201527f43616e27742073656e6420746f207a65726f2061646472657373000000000000604082015260600190565b6020808252602c908201527f4d75737420686176652070617573657220726f6c6520746f20706572666f726d60408201526b103a3434b99030b1ba34b7b760a11b606082015260800190565b6020808252602e908201527f496e697469616c697a61626c653a20636f6e747261637420697320616c72656160408201526d191e481a5b9a5d1a585b1a5e995960921b606082015260800190565b6020808252602b908201527f496e697469616c697a61626c653a20636f6e7472616374206973206e6f74206960408201526a6e697469616c697a696e6760a81b606082015260800190565b6020808252602b908201527f4d75737420686176652061646d696e20726f6c6520746f20706572666f726d2060408201526a3a3434b99030b1ba34b7b760a91b606082015260800190565b60008219821115612aea57612aea612b88565b500190565b600082612b0a57634e487b7160e01b81526012600452602481fd5b500490565b6000816000190483118215151615612b2957612b29612b88565b500290565b600082821015612b4057612b40612b88565b500390565b60005b83811015612b60578181015183820152602001612b48565b838111156113805750506000910152565b600081612b8057612b80612b88565b506000190190565b634e487b7160e01b600052601160045260246000fd5b6001600160a01b038116811461086757600080fdfeb19546dff01e856fb3f010c267a7b1c60363cf8a4664e21cc89c26224620214e65d7a28e3265b37a6474929f336521b332c1681b933f6cb9f3376673440d862aa26469706673582212207585eb0dbee41c0c7e8a446804363742a5a888fe670f7c5942083f504599f94464736f6c63430008040033",
  "libraries": {
    "Accountant": "0x4B6B57604Cb5EffABDf3a8b9B54984bC83b61B06"
  },
  "devdoc": {
    "author": "Doberman",
    "kind": "dev",
    "methods": {
      "assess()": {
        "returns": {
          "_0": "Any amount remaining after applying payments towards the interest and principal",
          "_1": "Amount applied towards interest",
          "_2": "Amount applied towards principal"
        }
      },
      "drawdown(uint256)": {
        "params": {
          "amount": "The amount in USDC that has been drawndown"
        }
      },
      "getRoleAdmin(bytes32)": {
        "details": "Returns the admin role that controls `role`. See {grantRole} and {revokeRole}. To change a role's admin, use {_setRoleAdmin}."
      },
      "grantRole(bytes32,address)": {
        "details": "Grants `role` to `account`. If `account` had not been already granted `role`, emits a {RoleGranted} event. Requirements: - the caller must have ``role``'s admin role. May emit a {RoleGranted} event."
      },
      "hasRole(bytes32,address)": {
        "details": "Returns `true` if `account` has been granted `role`."
      },
      "pause()": {
        "details": "Pauses all functions guarded by Pause See {Pausable-_pause}. Requirements: - the caller must have the PAUSER_ROLE."
      },
      "paused()": {
        "details": "Returns true if the contract is paused, and false otherwise."
      },
      "renounceRole(bytes32,address)": {
        "details": "Revokes `role` from the calling account. Roles are often managed via {grantRole} and {revokeRole}: this function's purpose is to provide a mechanism for accounts to lose their privileges if they are compromised (such as when a trusted device is misplaced). If the calling account had been revoked `role`, emits a {RoleRevoked} event. Requirements: - the caller must be `account`. May emit a {RoleRevoked} event."
      },
      "revokeRole(bytes32,address)": {
        "details": "Revokes `role` from `account`. If `account` had been granted `role`, emits a {RoleRevoked} event. Requirements: - the caller must have ``role``'s admin role. May emit a {RoleRevoked} event."
      },
      "supportsInterface(bytes4)": {
        "details": "See {IERC165-supportsInterface}."
      },
      "unpause()": {
        "details": "Unpauses the contract See {Pausable-_unpause}. Requirements: - the caller must have the Pauser role"
      }
    },
    "title": "CreditLine",
    "version": 1
  },
  "userdoc": {
    "kind": "user",
    "methods": {
      "assess()": {
        "notice": "Triggers an assessment of the creditline. Any USDC balance available in the creditline is applied towards the interest and principal."
      },
      "drawdown(uint256)": {
        "notice": "Updates the internal accounting to track a drawdown as of current block timestamp. Does not move any money"
      },
      "updateDobermanConfig()": {
        "notice": "Migrates to a new Doberman config address"
      }
    },
    "notice": "A contract that represents the agreement between Backers and  a Borrower. Includes the terms of the loan, as well as the current accounting state, such as interest owed.  A CreditLine belongs to a TranchedPool, and is fully controlled by that TranchedPool. It does not  operate in any standalone capacity. It should generally be considered internal to the TranchedPool.",
    "version": 1
  },
  "storageLayout": {
    "storage": [
      {
        "astId": 588,
        "contract": "contracts/protocol/core/CreditLine.sol:CreditLine",
        "label": "_initialized",
        "offset": 0,
        "slot": "0",
        "type": "t_uint8"
      },
      {
        "astId": 591,
        "contract": "contracts/protocol/core/CreditLine.sol:CreditLine",
        "label": "_initializing",
        "offset": 1,
        "slot": "0",
        "type": "t_bool"
      },
      {
        "astId": 4964,
        "contract": "contracts/protocol/core/CreditLine.sol:CreditLine",
        "label": "__gap",
        "offset": 0,
        "slot": "1",
        "type": "t_array(t_uint256)50_storage"
      },
      {
        "astId": 5544,
        "contract": "contracts/protocol/core/CreditLine.sol:CreditLine",
        "label": "__gap",
        "offset": 0,
        "slot": "51",
        "type": "t_array(t_uint256)50_storage"
      },
      {
        "astId": 184,
        "contract": "contracts/protocol/core/CreditLine.sol:CreditLine",
        "label": "_roles",
        "offset": 0,
        "slot": "101",
        "type": "t_mapping(t_bytes32,t_struct(RoleData)179_storage)"
      },
      {
        "astId": 479,
        "contract": "contracts/protocol/core/CreditLine.sol:CreditLine",
        "label": "__gap",
        "offset": 0,
        "slot": "102",
        "type": "t_array(t_uint256)49_storage"
      },
      {
        "astId": 771,
        "contract": "contracts/protocol/core/CreditLine.sol:CreditLine",
        "label": "_paused",
        "offset": 0,
        "slot": "151",
        "type": "t_bool"
      },
      {
        "astId": 876,
        "contract": "contracts/protocol/core/CreditLine.sol:CreditLine",
        "label": "__gap",
        "offset": 0,
        "slot": "152",
        "type": "t_array(t_uint256)49_storage"
      },
      {
        "astId": 891,
        "contract": "contracts/protocol/core/CreditLine.sol:CreditLine",
        "label": "_status",
        "offset": 0,
        "slot": "201",
        "type": "t_uint256"
      },
      {
        "astId": 949,
        "contract": "contracts/protocol/core/CreditLine.sol:CreditLine",
        "label": "__gap",
        "offset": 0,
        "slot": "202",
        "type": "t_array(t_uint256)49_storage"
      },
      {
        "astId": 15960,
        "contract": "contracts/protocol/core/CreditLine.sol:CreditLine",
        "label": "__gap1",
        "offset": 0,
        "slot": "251",
        "type": "t_array(t_uint256)50_storage"
      },
      {
        "astId": 15964,
        "contract": "contracts/protocol/core/CreditLine.sol:CreditLine",
        "label": "__gap2",
        "offset": 0,
        "slot": "301",
        "type": "t_array(t_uint256)50_storage"
      },
      {
        "astId": 15968,
        "contract": "contracts/protocol/core/CreditLine.sol:CreditLine",
        "label": "__gap3",
        "offset": 0,
        "slot": "351",
        "type": "t_array(t_uint256)50_storage"
      },
      {
        "astId": 15972,
        "contract": "contracts/protocol/core/CreditLine.sol:CreditLine",
        "label": "__gap4",
        "offset": 0,
        "slot": "401",
        "type": "t_array(t_uint256)50_storage"
      },
      {
        "astId": 18538,
        "contract": "contracts/protocol/core/CreditLine.sol:CreditLine",
        "label": "borrower",
        "offset": 0,
        "slot": "451",
        "type": "t_address"
      },
      {
        "astId": 18540,
        "contract": "contracts/protocol/core/CreditLine.sol:CreditLine",
        "label": "currentLimit",
        "offset": 0,
        "slot": "452",
        "type": "t_uint256"
      },
      {
        "astId": 18543,
        "contract": "contracts/protocol/core/CreditLine.sol:CreditLine",
        "label": "maxLimit",
        "offset": 0,
        "slot": "453",
        "type": "t_uint256"
      },
      {
        "astId": 18546,
        "contract": "contracts/protocol/core/CreditLine.sol:CreditLine",
        "label": "interestApr",
        "offset": 0,
        "slot": "454",
        "type": "t_uint256"
      },
      {
        "astId": 18549,
        "contract": "contracts/protocol/core/CreditLine.sol:CreditLine",
        "label": "paymentPeriodInDays",
        "offset": 0,
        "slot": "455",
        "type": "t_uint256"
      },
      {
        "astId": 18552,
        "contract": "contracts/protocol/core/CreditLine.sol:CreditLine",
        "label": "termInDays",
        "offset": 0,
        "slot": "456",
        "type": "t_uint256"
      },
      {
        "astId": 18555,
        "contract": "contracts/protocol/core/CreditLine.sol:CreditLine",
        "label": "principalGracePeriodInDays",
        "offset": 0,
        "slot": "457",
        "type": "t_uint256"
      },
      {
        "astId": 18558,
        "contract": "contracts/protocol/core/CreditLine.sol:CreditLine",
        "label": "lateFeeApr",
        "offset": 0,
        "slot": "458",
        "type": "t_uint256"
      },
      {
        "astId": 18561,
        "contract": "contracts/protocol/core/CreditLine.sol:CreditLine",
        "label": "auctionEnd",
        "offset": 0,
        "slot": "459",
        "type": "t_uint256"
      },
      {
        "astId": 18563,
        "contract": "contracts/protocol/core/CreditLine.sol:CreditLine",
        "label": "auctionWinner",
        "offset": 0,
        "slot": "460",
        "type": "t_address"
      },
      {
        "astId": 18565,
        "contract": "contracts/protocol/core/CreditLine.sol:CreditLine",
        "label": "auctionLivePrice",
        "offset": 0,
        "slot": "461",
        "type": "t_uint256"
      },
      {
        "astId": 18568,
        "contract": "contracts/protocol/core/CreditLine.sol:CreditLine",
        "label": "balance",
        "offset": 0,
        "slot": "462",
        "type": "t_uint256"
      },
      {
        "astId": 18571,
        "contract": "contracts/protocol/core/CreditLine.sol:CreditLine",
        "label": "interestOwed",
        "offset": 0,
        "slot": "463",
        "type": "t_uint256"
      },
      {
        "astId": 18574,
        "contract": "contracts/protocol/core/CreditLine.sol:CreditLine",
        "label": "principalOwed",
        "offset": 0,
        "slot": "464",
        "type": "t_uint256"
      },
      {
        "astId": 18577,
        "contract": "contracts/protocol/core/CreditLine.sol:CreditLine",
        "label": "termEndTime",
        "offset": 0,
        "slot": "465",
        "type": "t_uint256"
      },
      {
        "astId": 18580,
        "contract": "contracts/protocol/core/CreditLine.sol:CreditLine",
        "label": "nextDueTime",
        "offset": 0,
        "slot": "466",
        "type": "t_uint256"
      },
      {
        "astId": 18583,
        "contract": "contracts/protocol/core/CreditLine.sol:CreditLine",
        "label": "interestAccruedAsOf",
        "offset": 0,
        "slot": "467",
        "type": "t_uint256"
      },
      {
        "astId": 18586,
        "contract": "contracts/protocol/core/CreditLine.sol:CreditLine",
        "label": "lastFullPaymentTime",
        "offset": 0,
        "slot": "468",
        "type": "t_uint256"
      },
      {
        "astId": 18588,
        "contract": "contracts/protocol/core/CreditLine.sol:CreditLine",
        "label": "totalInterestAccrued",
        "offset": 0,
        "slot": "469",
        "type": "t_uint256"
      },
      {
        "astId": 18591,
        "contract": "contracts/protocol/core/CreditLine.sol:CreditLine",
        "label": "config",
        "offset": 0,
        "slot": "470",
        "type": "t_contract(DobermanConfig)20291"
      }
    ],
    "types": {
      "t_address": {
        "encoding": "inplace",
        "label": "address",
        "numberOfBytes": "20"
      },
      "t_array(t_uint256)49_storage": {
        "base": "t_uint256",
        "encoding": "inplace",
        "label": "uint256[49]",
        "numberOfBytes": "1568"
      },
      "t_array(t_uint256)50_storage": {
        "base": "t_uint256",
        "encoding": "inplace",
        "label": "uint256[50]",
        "numberOfBytes": "1600"
      },
      "t_bool": {
        "encoding": "inplace",
        "label": "bool",
        "numberOfBytes": "1"
      },
      "t_bytes32": {
        "encoding": "inplace",
        "label": "bytes32",
        "numberOfBytes": "32"
      },
      "t_contract(DobermanConfig)20291": {
        "encoding": "inplace",
        "label": "contract DobermanConfig",
        "numberOfBytes": "20"
      },
      "t_mapping(t_address,t_bool)": {
        "encoding": "mapping",
        "key": "t_address",
        "label": "mapping(address => bool)",
        "numberOfBytes": "32",
        "value": "t_bool"
      },
      "t_mapping(t_bytes32,t_struct(RoleData)179_storage)": {
        "encoding": "mapping",
        "key": "t_bytes32",
        "label": "mapping(bytes32 => struct AccessControlUpgradeable.RoleData)",
        "numberOfBytes": "32",
        "value": "t_struct(RoleData)179_storage"
      },
      "t_struct(RoleData)179_storage": {
        "encoding": "inplace",
        "label": "struct AccessControlUpgradeable.RoleData",
        "members": [
          {
            "astId": 176,
            "contract": "contracts/protocol/core/CreditLine.sol:CreditLine",
            "label": "members",
            "offset": 0,
            "slot": "0",
            "type": "t_mapping(t_address,t_bool)"
          },
          {
            "astId": 178,
            "contract": "contracts/protocol/core/CreditLine.sol:CreditLine",
            "label": "adminRole",
            "offset": 0,
            "slot": "1",
            "type": "t_bytes32"
          }
        ],
        "numberOfBytes": "64"
      },
      "t_uint256": {
        "encoding": "inplace",
        "label": "uint256",
        "numberOfBytes": "32"
      },
      "t_uint8": {
        "encoding": "inplace",
        "label": "uint8",
        "numberOfBytes": "1"
      }
    }
  }
}