{
  "address": "0x58f14655fcF44290d3fa218C9d83bDf8FaF47Ff8",
  "abi": [
    {
      "anonymous": false,
      "inputs": [
        {
          "indexed": true,
          "internalType": "address",
          "name": "who",
          "type": "address"
        },
        {
          "indexed": false,
          "internalType": "address",
          "name": "configAddress",
          "type": "address"
        }
      ],
      "name": "DobermanConfigUpdated",
      "type": "event"
    },
    {
      "anonymous": false,
      "inputs": [
        {
          "indexed": false,
          "internalType": "uint8",
          "name": "version",
          "type": "uint8"
        }
      ],
      "name": "Initialized",
      "type": "event"
    },
    {
      "anonymous": false,
      "inputs": [
        {
          "indexed": false,
          "internalType": "address",
          "name": "account",
          "type": "address"
        }
      ],
      "name": "Paused",
      "type": "event"
    },
    {
      "anonymous": false,
      "inputs": [
        {
          "indexed": true,
          "internalType": "bytes32",
          "name": "role",
          "type": "bytes32"
        },
        {
          "indexed": true,
          "internalType": "bytes32",
          "name": "previousAdminRole",
          "type": "bytes32"
        },
        {
          "indexed": true,
          "internalType": "bytes32",
          "name": "newAdminRole",
          "type": "bytes32"
        }
      ],
      "name": "RoleAdminChanged",
      "type": "event"
    },
    {
      "anonymous": false,
      "inputs": [
        {
          "indexed": true,
          "internalType": "bytes32",
          "name": "role",
          "type": "bytes32"
        },
        {
          "indexed": true,
          "internalType": "address",
          "name": "account",
          "type": "address"
        },
        {
          "indexed": true,
          "internalType": "address",
          "name": "sender",
          "type": "address"
        }
      ],
      "name": "RoleGranted",
      "type": "event"
    },
    {
      "anonymous": false,
      "inputs": [
        {
          "indexed": true,
          "internalType": "bytes32",
          "name": "role",
          "type": "bytes32"
        },
        {
          "indexed": true,
          "internalType": "address",
          "name": "account",
          "type": "address"
        },
        {
          "indexed": true,
          "internalType": "address",
          "name": "sender",
          "type": "address"
        }
      ],
      "name": "RoleRevoked",
      "type": "event"
    },
    {
      "anonymous": false,
      "inputs": [
        {
          "indexed": false,
          "internalType": "address",
          "name": "account",
          "type": "address"
        }
      ],
      "name": "Unpaused",
      "type": "event"
    },
    {
      "inputs": [],
      "name": "DEFAULT_ADMIN_ROLE",
      "outputs": [
        {
          "internalType": "bytes32",
          "name": "",
          "type": "bytes32"
        }
      ],
      "stateMutability": "view",
      "type": "function"
    },
    {
      "inputs": [],
      "name": "OWNER_ROLE",
      "outputs": [
        {
          "internalType": "bytes32",
          "name": "",
          "type": "bytes32"
        }
      ],
      "stateMutability": "view",
      "type": "function"
    },
    {
      "inputs": [],
      "name": "PAUSER_ROLE",
      "outputs": [
        {
          "internalType": "bytes32",
          "name": "",
          "type": "bytes32"
        }
      ],
      "stateMutability": "view",
      "type": "function"
    },
    {
      "inputs": [],
      "name": "SECONDS_PER_DAY",
      "outputs": [
        {
          "internalType": "uint256",
          "name": "",
          "type": "uint256"
        }
      ],
      "stateMutability": "view",
      "type": "function"
    },
    {
      "inputs": [
        {
          "internalType": "address",
          "name": "owner",
          "type": "address"
        }
      ],
      "name": "__BaseUpgradeablePausable__init",
      "outputs": [],
      "stateMutability": "nonpayable",
      "type": "function"
    },
    {
      "inputs": [],
      "name": "__PauserPausable__init",
      "outputs": [],
      "stateMutability": "nonpayable",
      "type": "function"
    },
    {
      "inputs": [],
      "name": "assess",
      "outputs": [
        {
          "internalType": "uint256",
          "name": "",
          "type": "uint256"
        },
        {
          "internalType": "uint256",
          "name": "",
          "type": "uint256"
        },
        {
          "internalType": "uint256",
          "name": "",
          "type": "uint256"
        }
      ],
      "stateMutability": "nonpayable",
      "type": "function"
    },
    {
      "inputs": [],
      "name": "balance",
      "outputs": [
        {
          "internalType": "uint256",
          "name": "",
          "type": "uint256"
        }
      ],
      "stateMutability": "view",
      "type": "function"
    },
    {
      "inputs": [],
      "name": "borrower",
      "outputs": [
        {
          "internalType": "address",
          "name": "",
          "type": "address"
        }
      ],
      "stateMutability": "view",
      "type": "function"
    },
    {
      "inputs": [],
      "name": "config",
      "outputs": [
        {
          "internalType": "contract DobermanConfig",
          "name": "",
          "type": "address"
        }
      ],
      "stateMutability": "view",
      "type": "function"
    },
    {
      "inputs": [],
      "name": "currentLimit",
      "outputs": [
        {
          "internalType": "uint256",
          "name": "",
          "type": "uint256"
        }
      ],
      "stateMutability": "view",
      "type": "function"
    },
    {
      "inputs": [
        {
          "internalType": "uint256",
          "name": "amount",
          "type": "uint256"
        }
      ],
      "name": "drawdown",
      "outputs": [],
      "stateMutability": "nonpayable",
      "type": "function"
    },
    {
      "inputs": [
        {
          "internalType": "bytes32",
          "name": "role",
          "type": "bytes32"
        }
      ],
      "name": "getRoleAdmin",
      "outputs": [
        {
          "internalType": "bytes32",
          "name": "",
          "type": "bytes32"
        }
      ],
      "stateMutability": "view",
      "type": "function"
    },
    {
      "inputs": [
        {
          "internalType": "bytes32",
          "name": "role",
          "type": "bytes32"
        },
        {
          "internalType": "address",
          "name": "account",
          "type": "address"
        }
      ],
      "name": "grantRole",
      "outputs": [],
      "stateMutability": "nonpayable",
      "type": "function"
    },
    {
      "inputs": [
        {
          "internalType": "bytes32",
          "name": "role",
          "type": "bytes32"
        },
        {
          "internalType": "address",
          "name": "account",
          "type": "address"
        }
      ],
      "name": "hasRole",
      "outputs": [
        {
          "internalType": "bool",
          "name": "",
          "type": "bool"
        }
      ],
      "stateMutability": "view",
      "type": "function"
    },
    {
      "inputs": [
        {
          "internalType": "address",
          "name": "_config",
          "type": "address"
        },
        {
          "internalType": "address",
          "name": "owner",
          "type": "address"
        },
        {
          "internalType": "address",
          "name": "_borrower",
          "type": "address"
        },
        {
          "internalType": "uint256",
          "name": "_maxLimit",
          "type": "uint256"
        },
        {
          "internalType": "uint256",
          "name": "_interestApr",
          "type": "uint256"
        },
        {
          "internalType": "uint256",
          "name": "_paymentPeriodInDays",
          "type": "uint256"
        },
        {
          "internalType": "uint256",
          "name": "_termInDays",
          "type": "uint256"
        },
        {
          "internalType": "uint256",
          "name": "_lateFeeApr",
          "type": "uint256"
        },
        {
          "internalType": "uint256",
          "name": "_principalGracePeriodInDays",
          "type": "uint256"
        }
      ],
      "name": "initialize",
      "outputs": [],
      "stateMutability": "nonpayable",
      "type": "function"
    },
    {
      "inputs": [],
      "name": "interestAccruedAsOf",
      "outputs": [
        {
          "internalType": "uint256",
          "name": "",
          "type": "uint256"
        }
      ],
      "stateMutability": "view",
      "type": "function"
    },
    {
      "inputs": [],
      "name": "interestApr",
      "outputs": [
        {
          "internalType": "uint256",
          "name": "",
          "type": "uint256"
        }
      ],
      "stateMutability": "view",
      "type": "function"
    },
    {
      "inputs": [],
      "name": "interestOwed",
      "outputs": [
        {
          "internalType": "uint256",
          "name": "",
          "type": "uint256"
        }
      ],
      "stateMutability": "view",
      "type": "function"
    },
    {
      "inputs": [],
      "name": "isAdmin",
      "outputs": [
        {
          "internalType": "bool",
          "name": "",
          "type": "bool"
        }
      ],
      "stateMutability": "view",
      "type": "function"
    },
    {
      "inputs": [],
      "name": "isLate",
      "outputs": [
        {
          "internalType": "bool",
          "name": "",
          "type": "bool"
        }
      ],
      "stateMutability": "view",
      "type": "function"
    },
    {
      "inputs": [],
      "name": "lastFullPaymentTime",
      "outputs": [
        {
          "internalType": "uint256",
          "name": "",
          "type": "uint256"
        }
      ],
      "stateMutability": "view",
      "type": "function"
    },
    {
      "inputs": [],
      "name": "lateFeeApr",
      "outputs": [
        {
          "internalType": "uint256",
          "name": "",
          "type": "uint256"
        }
      ],
      "stateMutability": "view",
      "type": "function"
    },
    {
      "inputs": [],
      "name": "limit",
      "outputs": [
        {
          "internalType": "uint256",
          "name": "",
          "type": "uint256"
        }
      ],
      "stateMutability": "view",
      "type": "function"
    },
    {
      "inputs": [],
      "name": "maxLimit",
      "outputs": [
        {
          "internalType": "uint256",
          "name": "",
          "type": "uint256"
        }
      ],
      "stateMutability": "view",
      "type": "function"
    },
    {
      "inputs": [],
      "name": "nextDueTime",
      "outputs": [
        {
          "internalType": "uint256",
          "name": "",
          "type": "uint256"
        }
      ],
      "stateMutability": "view",
      "type": "function"
    },
    {
      "inputs": [],
      "name": "pause",
      "outputs": [],
      "stateMutability": "nonpayable",
      "type": "function"
    },
    {
      "inputs": [],
      "name": "paused",
      "outputs": [
        {
          "internalType": "bool",
          "name": "",
          "type": "bool"
        }
      ],
      "stateMutability": "view",
      "type": "function"
    },
    {
      "inputs": [],
      "name": "paymentPeriodInDays",
      "outputs": [
        {
          "internalType": "uint256",
          "name": "",
          "type": "uint256"
        }
      ],
      "stateMutability": "view",
      "type": "function"
    },
    {
      "inputs": [],
      "name": "principalGracePeriodInDays",
      "outputs": [
        {
          "internalType": "uint256",
          "name": "",
          "type": "uint256"
        }
      ],
      "stateMutability": "view",
      "type": "function"
    },
    {
      "inputs": [],
      "name": "principalOwed",
      "outputs": [
        {
          "internalType": "uint256",
          "name": "",
          "type": "uint256"
        }
      ],
      "stateMutability": "view",
      "type": "function"
    },
    {
      "inputs": [
        {
          "internalType": "bytes32",
          "name": "role",
          "type": "bytes32"
        },
        {
          "internalType": "address",
          "name": "account",
          "type": "address"
        }
      ],
      "name": "renounceRole",
      "outputs": [],
      "stateMutability": "nonpayable",
      "type": "function"
    },
    {
      "inputs": [
        {
          "internalType": "bytes32",
          "name": "role",
          "type": "bytes32"
        },
        {
          "internalType": "address",
          "name": "account",
          "type": "address"
        }
      ],
      "name": "revokeRole",
      "outputs": [],
      "stateMutability": "nonpayable",
      "type": "function"
    },
    {
      "inputs": [
        {
          "internalType": "uint256",
          "name": "newBalance",
          "type": "uint256"
        }
      ],
      "name": "setBalance",
      "outputs": [],
      "stateMutability": "nonpayable",
      "type": "function"
    },
    {
      "inputs": [
        {
          "internalType": "uint256",
          "name": "newInterestAccruedAsOf",
          "type": "uint256"
        }
      ],
      "name": "setInterestAccruedAsOf",
      "outputs": [],
      "stateMutability": "nonpayable",
      "type": "function"
    },
    {
      "inputs": [
        {
          "internalType": "uint256",
          "name": "newInterestOwed",
          "type": "uint256"
        }
      ],
      "name": "setInterestOwed",
      "outputs": [],
      "stateMutability": "nonpayable",
      "type": "function"
    },
    {
      "inputs": [
        {
          "internalType": "uint256",
          "name": "newLastFullPaymentTime",
          "type": "uint256"
        }
      ],
      "name": "setLastFullPaymentTime",
      "outputs": [],
      "stateMutability": "nonpayable",
      "type": "function"
    },
    {
      "inputs": [
        {
          "internalType": "uint256",
          "name": "newLateFeeApr",
          "type": "uint256"
        }
      ],
      "name": "setLateFeeApr",
      "outputs": [],
      "stateMutability": "nonpayable",
      "type": "function"
    },
    {
      "inputs": [
        {
          "internalType": "uint256",
          "name": "newAmount",
          "type": "uint256"
        }
      ],
      "name": "setLimit",
      "outputs": [],
      "stateMutability": "nonpayable",
      "type": "function"
    },
    {
      "inputs": [
        {
          "internalType": "uint256",
          "name": "newAmount",
          "type": "uint256"
        }
      ],
      "name": "setMaxLimit",
      "outputs": [],
      "stateMutability": "nonpayable",
      "type": "function"
    },
    {
      "inputs": [
        {
          "internalType": "uint256",
          "name": "newNextDueTime",
          "type": "uint256"
        }
      ],
      "name": "setNextDueTime",
      "outputs": [],
      "stateMutability": "nonpayable",
      "type": "function"
    },
    {
      "inputs": [
        {
          "internalType": "uint256",
          "name": "newPrincipalOwed",
          "type": "uint256"
        }
      ],
      "name": "setPrincipalOwed",
      "outputs": [],
      "stateMutability": "nonpayable",
      "type": "function"
    },
    {
      "inputs": [
        {
          "internalType": "uint256",
          "name": "newTermEndTime",
          "type": "uint256"
        }
      ],
      "name": "setTermEndTime",
      "outputs": [],
      "stateMutability": "nonpayable",
      "type": "function"
    },
    {
      "inputs": [
        {
          "internalType": "uint256",
          "name": "_totalInterestAccrued",
          "type": "uint256"
        }
      ],
      "name": "setTotalInterestAccrued",
      "outputs": [],
      "stateMutability": "nonpayable",
      "type": "function"
    },
    {
      "inputs": [
        {
          "internalType": "bytes4",
          "name": "interfaceId",
          "type": "bytes4"
        }
      ],
      "name": "supportsInterface",
      "outputs": [
        {
          "internalType": "bool",
          "name": "",
          "type": "bool"
        }
      ],
      "stateMutability": "view",
      "type": "function"
    },
    {
      "inputs": [],
      "name": "termEndTime",
      "outputs": [
        {
          "internalType": "uint256",
          "name": "",
          "type": "uint256"
        }
      ],
      "stateMutability": "view",
      "type": "function"
    },
    {
      "inputs": [],
      "name": "termInDays",
      "outputs": [
        {
          "internalType": "uint256",
          "name": "",
          "type": "uint256"
        }
      ],
      "stateMutability": "view",
      "type": "function"
    },
    {
      "inputs": [],
      "name": "termStartTime",
      "outputs": [
        {
          "internalType": "uint256",
          "name": "",
          "type": "uint256"
        }
      ],
      "stateMutability": "view",
      "type": "function"
    },
    {
      "inputs": [],
      "name": "totalInterestAccrued",
      "outputs": [
        {
          "internalType": "uint256",
          "name": "",
          "type": "uint256"
        }
      ],
      "stateMutability": "view",
      "type": "function"
    },
    {
      "inputs": [],
      "name": "unpause",
      "outputs": [],
      "stateMutability": "nonpayable",
      "type": "function"
    },
    {
      "inputs": [],
      "name": "updateDobermanConfig",
      "outputs": [],
      "stateMutability": "nonpayable",
      "type": "function"
    },
    {
      "inputs": [],
      "name": "withinPrincipalGracePeriod",
      "outputs": [
        {
          "internalType": "bool",
          "name": "",
          "type": "bool"
        }
      ],
      "stateMutability": "view",
      "type": "function"
    }
  ],
  "transactionHash": "0x53a02ffe70c418f946b07e6fb4de2e012e882f0d8b95b0d040e0e5491018677a",
  "args": [],
  "numDeployments": 2,
  "solcInputHash": "b5fe4b7f0c985986b856d2f53b22a42b",
  "bytecode": "0x608060405234801561001057600080fd5b50612371806100206000396000f3fe608060405234801561001057600080fd5b50600436106102cc5760003560e01c80638456cb591161017d578063bb4a2509116100d9578063d30a091111610092578063d30a091114610594578063d547741f1461059c578063e58378bb146105af578063e63ab1e9146105c4578063eabd0ce1146105d9578063f0b25bde146105e3578063fb1669ca146105ed57600080fd5b8063bb4a25091461053d578063bbafcb4014610550578063bf8bcee41461055a578063ce78290d1461056d578063cf1787e614610577578063d28459771461058a57600080fd5b8063a4d66daf11610136578063a4d66daf146104cf578063a6a25e88146104d8578063a6b1ae0d146104fb578063b39699921461050e578063b3b8a9c714610518578063b69ef8a81461052b578063b6db75a01461053557600080fd5b80638456cb591461047c57806391d148541461048457806396c8df371461049757806399dd8df3146104aa578063a079a4dd146104b4578063a217fddf146104c757600080fd5b806336d914941161022c578063645d6225116101e5578063645d62251461041057806364fb2d951461041857806374f0314f1461042257806379502c551461042c5780637ae14b091461044d5780637df1f1b91461046057806381c17a151461047457600080fd5b806336d91494146103d05780633f4ba83a146103e3578063457147a7146103eb57806348e6f296146103f3578063526d81f6146103fd5780635c975abb1461040557600080fd5b80631cd724ac116102895780631cd724ac1461034d57806321856b3614610357578063248a9ca31461036157806326a40e821461038457806327ea6f2b146103975780632f2ff15d146103aa57806336568abe146103bd57600080fd5b806301ffc9a7146102d1578063033669cf146102f9578063097616a31461030e5780630e347f891461032157806319350114146103395780631a861d2614610343575b600080fd5b6102e46102df366004611f6f565b610600565b60405190151581526020015b60405180910390f35b61030c610307366004611f28565b610637565b005b61030c61031c366004611e50565b61066a565b61032b6101c95481565b6040519081526020016102f0565b61032b6101cd5481565b61032b6101c55481565b61032b6101d25481565b61032b6101cc5481565b61032b61036f366004611f28565b60009081526065602052604090206001015490565b61030c610392366004611f28565b610770565b61030c6103a5366004611f28565b61079a565b61030c6103b8366004611f40565b610821565b61030c6103cb366004611f40565b61084b565b61030c6103de366004611f28565b6108c9565b61030c6108f3565b6102e4610931565b61032b6101c85481565b61030c61096f565b60975460ff166102e4565b61032b610a38565b61032b6101ce5481565b61032b6201518081565b6101d354610440906001600160a01b031681565b6040516102f091906120a8565b61030c61045b366004611f28565b610a47565b6101c354610440906001600160a01b031681565b6102e4610a71565b61030c610a7c565b6102e4610492366004611f40565b610ab8565b61030c6104a5366004611f28565b610ae3565b61032b6101c75481565b61030c6104c2366004611f28565b610b0d565b61032b600081565b6101c45461032b565b6104e0610cd3565b604080519384526020840192909252908201526060016102f0565b61030c610509366004611f28565b610de7565b61032b6101c65481565b61030c610526366004611f28565b610e11565b61032b6101cb5481565b6102e4610e3b565b61030c61054b366004611e88565b610e55565b61032b6101d05481565b61030c610568366004611f28565b6110d5565b61032b6101d15481565b61030c610585366004611f28565b6110ff565b61032b6101cf5481565b61030c611129565b61030c6105aa366004611f40565b6111be565b61032b6000805160206122fc83398151915281565b61032b60008051602061231c83398151915281565b61032b6101c45481565b61032b6101ca5481565b61030c6105fb366004611f28565b6111e3565b60006001600160e01b03198216637965db0b60e01b148061063157506301ffc9a760e01b6001600160e01b03198316145b92915050565b61063f610e3b565b6106645760405162461bcd60e51b815260040161065b906121d4565b60405180910390fd5b6101d255565b600054610100900460ff166106915760405162461bcd60e51b815260040161065b90612189565b6001600160a01b0381166106e75760405162461bcd60e51b815260206004820181905260248201527f4f776e65722063616e6e6f7420626520746865207a65726f2061646472657373604482015260640161065b565b6106ef61120d565b6106f7611234565b6106ff611267565b6107176000805160206122fc83398151915282611295565b61072f60008051602061231c83398151915282611295565b61075560008051602061231c8339815191526000805160206122fc83398151915261129f565b61076d6000805160206122fc8339815191528061129f565b50565b610778610e3b565b6107945760405162461bcd60e51b815260040161065b906121d4565b6101cf55565b6107a2610e3b565b6107be5760405162461bcd60e51b815260040161065b906121d4565b6101c55481111561081b5760405162461bcd60e51b815260206004820152602160248201527f43616e6e6f74206265206d6f7265207468616e20746865206d6178206c696d696044820152601d60fa1b606482015260840161065b565b6101c455565b60008281526065602052604090206001015461083c816112ea565b61084683836112f4565b505050565b6001600160a01b03811633146108bb5760405162461bcd60e51b815260206004820152602f60248201527f416363657373436f6e74726f6c3a2063616e206f6e6c792072656e6f756e636560448201526e103937b632b9903337b91039b2b63360891b606482015260840161065b565b6108c5828261137a565b5050565b6108d1610e3b565b6108ed5760405162461bcd60e51b815260040161065b906121d4565b6101d155565b61090b60008051602061231c83398151915233610ab8565b6109275760405162461bcd60e51b815260040161065b906120ef565b61092f6113e1565b565b60006101ce54600014156109455750600190565b6101c9546109689061095a906201518061142d565b610962611440565b90611468565b4210905090565b600054610100900460ff161580801561098f5750600054600160ff909116105b806109a95750303b1580156109a9575060005460ff166001145b6109c55760405162461bcd60e51b815260040161065b9061213b565b6000805460ff1916600117905580156109e8576000805461ff0019166101001790555b6109f0611234565b801561076d576000805461ff0019169055604051600181527f7f26b83ff96e1f2b6a682f133852f6798a09c465da95921460cefb38474024989060200160405180910390a150565b6000610a42611440565b905090565b610a4f610e3b565b610a6b5760405162461bcd60e51b815260040161065b906121d4565b6101ce55565b6000610a4242611474565b610a9460008051602061231c83398151915233610ab8565b610ab05760405162461bcd60e51b815260040161065b906120ef565b61092f6114b5565b60009182526065602090815260408084206001600160a01b0393909316845291905290205460ff1690565b610aeb610e3b565b610b075760405162461bcd60e51b815260040161065b906121d4565b6101cc55565b610b15610e3b565b610b315760405162461bcd60e51b815260040161065b906121d4565b6101c4546101cb54610b44908390611468565b1115610b9e5760405162461bcd60e51b815260206004820152602360248201527f43616e6e6f742064726177646f776e206d6f7265207468616e20746865206c696044820152621b5a5d60ea1b606482015260840161065b565b60008111610be85760405162461bcd60e51b8152602060048201526017602482015276125b9d985b1a5908191c985dd91bdddb88185b5bdd5b9d604a1b604482015260640161065b565b6101cb544290610c3457610bfb81610de7565b610c04816108c9565b610c0e6000610637565b610c3461045b610c2d6101c8546201518061142d90919063ffffffff16565b8390611468565b600080610c40836114f2565b6101cb549193509150610c539085611468565b6101cb819055610c6490838361160d565b610c6d83611474565b15610ccd5760405162461bcd60e51b815260206004820152602a60248201527f43616e6e6f742064726177646f776e207768656e207061796d656e74732061726044820152696520706173742064756560b01b606482015260840161065b565b50505050565b6000806000610ce0610e3b565b610cfc5760405162461bcd60e51b815260040161065b906121d4565b60006101cb5411610d5f5760405162461bcd60e51b815260206004820152602760248201527f4d75737420686176652062616c616e636520746f2061737365737320637265646044820152666974206c696e6560c81b606482015260840161065b565b6101cf5442108015610d775750610d7542611474565b155b15610d885750600092839250829150565b6000610d9261169c565b9050610d9d81610770565b42811115610dc9576101c754600090610db9906201518061142d565b9050610dc582826117db565b9150505b610ddb610dd5306117e7565b8261187b565b93509350935050909192565b610def610e3b565b610e0b5760405162461bcd60e51b815260040161065b906121d4565b6101d055565b610e19610e3b565b610e355760405162461bcd60e51b815260040161065b906121d4565b6101cd55565b6000610a426000805160206122fc83398151915233610ab8565b600054610100900460ff1615808015610e755750600054600160ff909116105b80610e8f5750303b158015610e8f575060005460ff166001145b610eab5760405162461bcd60e51b815260040161065b9061213b565b6000805460ff191660011790558015610ece576000805461ff0019166101001790555b6001600160a01b038a1615801590610eee57506001600160a01b03891615155b8015610f0257506001600160a01b03881615155b610f475760405162461bcd60e51b81526020600482015260166024820152752d32b9379030b2323932b9b9903830b9b9b2b21034b760511b604482015260640161065b565b610f508961066a565b6101d380546001600160a01b03808d166001600160a01b031992831681179093556101c38054918c16919092161790556101c58890556101c68790556101c78690556101c88590556101ca8490556101c9839055426101d055600090610fb590611a23565b60405163095ea7b360e01b81526001600160a01b038c811660048301526000196024830152919091169063095ea7b390604401602060405180830381600087803b15801561100257600080fd5b505af1158015611016573d6000803e3d6000fd5b505050506040513d601f19601f8201168201806040525081019061103a9190611f08565b9050806110825760405162461bcd60e51b81526020600482015260166024820152754661696c656420746f20617070726f7665205553444360501b604482015260640161065b565b5080156110c9576000805461ff0019169055604051600181527f7f26b83ff96e1f2b6a682f133852f6798a09c465da95921460cefb38474024989060200160405180910390a15b50505050505050505050565b6110dd610e3b565b6110f95760405162461bcd60e51b815260040161065b906121d4565b6101c555565b611107610e3b565b6111235760405162461bcd60e51b815260040161065b906121d4565b6101ca55565b611131610e3b565b61114d5760405162461bcd60e51b815260040161065b906121d4565b6101d354611163906001600160a01b0316611a2e565b6101d380546001600160a01b0319166001600160a01b0392909216918217905560405133917f8d003bc2e3965bd9d92389a8ae0ef8c601fa211ba9378150dde7dc3cf38c3a36916111b491906120a8565b60405180910390a2565b6000828152606560205260409020600101546111d9816112ea565b610846838361137a565b6111eb610e3b565b6112075760405162461bcd60e51b815260040161065b906121d4565b6101cb55565b600054610100900460ff1661092f5760405162461bcd60e51b815260040161065b90612189565b600054610100900460ff1661125b5760405162461bcd60e51b815260040161065b90612189565b6097805460ff19169055565b600054610100900460ff1661128e5760405162461bcd60e51b815260040161065b90612189565b600160c955565b6108c582826112f4565b600082815260656020526040808220600101805490849055905190918391839186917fbd79b86ffe0ab8e8776151514217cd7cacd52c909f66475c3af44e129f0b00ff9190a4505050565b61076d8133611ab0565b6112fe8282610ab8565b6108c55760008281526065602090815260408083206001600160a01b03851684529091529020805460ff191660011790556113363390565b6001600160a01b0316816001600160a01b0316837f2f8788117e7eff1d82e926ec794901d17c78024a50270940304540a733656f0d60405160405180910390a45050565b6113848282610ab8565b156108c55760008281526065602090815260408083206001600160a01b0385168085529252808320805460ff1916905551339285917ff6391f5c32d9c69d2a47ea670b442974b53935d1edc7fd64eb21e047a839171b9190a45050565b6113e9611b09565b6097805460ff191690557f5db9ee0a495bf2e6ff9c91a7834c1ba4fdd244a5e8aa4e537bd38aeae4b073aa335b60405161142391906120a8565b60405180910390a1565b60006114398284612257565b9392505050565b6000610a4261145e6101c8546201518061142d90919063ffffffff16565b6101ce54906117db565b6000611439828461221f565b60008061148d6101d154846117db90919063ffffffff16565b905060006101cb5411801561143957506101c7546114ae906201518061142d565b1092915050565b6114bd611b52565b6097805460ff191660011790557f62e78cea01bee320cd4e420270b5ea74000d11b0c9f74754ebdbfc544b05a2586114163390565b600080600080736411227B41DAa555AB88b546F0F7B218cCA4dD2F63101c8430308761153c6101d360009054906101000a90046001600160a01b03166001600160a01b0316611b98565b6040516001600160e01b031960e086901b1681526001600160a01b03909316600484015260248301919091526044820152606401604080518083038186803b15801561158757600080fd5b505af415801561159b573d6000803e3d6000fd5b505050506040513d601f19601f820116820180604052508101906115bf9190612016565b909250905081156115e6576115d385610de7565b6101d2546115e19083611468565b6101d2555b6101cc546115f49083611468565b6101cd546116029083611468565b935093505050915091565b611615611bc8565b61161e836111e3565b61162782610ae3565b61163081610e11565b6101cf548215801561164157508015155b1561168657600081421015611678576101c754600090611664906201518061142d565b905061167083826117db565b91505061167b565b50805b611684816108c9565b505b61169161039261169c565b50610846600160c955565b6101cf546101c7546000919082906116b7906201518061142d565b905042821580156116cb575060006101cb54115b156116e2576116da8183611468565b935050505090565b60006101cb541180156116f55750828110155b1561174357600061171f83611719600161096283611713888b6117db565b90611c22565b9061142d565b905061172b8482611468565b935061173a846101ce54611c2e565b94505050505090565b6101cb5415801561175357508215155b15611762576000935050505090565b60006101cb5411801561177457508281105b1561178157509092915050565b60405162461bcd60e51b815260206004820152602960248201527f4572726f723a20636f756c64206e6f742063616c63756c617465206e65787420604482015268323ab2903a34b6b29760b91b606482015260840161065b565b60006114398284612276565b6101d354600090611800906001600160a01b0316611a23565b6001600160a01b03166370a08231836040518263ffffffff1660e01b815260040161182b91906120a8565b60206040518083038186803b15801561184357600080fd5b505afa158015611857573d6000803e3d6000fd5b505050506040513d601f19601f820116820180604052508101906106319190611ffe565b600080600080600061188c866114f2565b6101cb5460405163d7cc2a0360e01b8152600481018b9052602481019190915260448101839052606481018290529193509150600090736411227B41DAa555AB88b546F0F7B218cCA4dD2F9063d7cc2a039060840160606040518083038186803b1580156118f957600080fd5b505af415801561190d573d6000803e3d6000fd5b505050506040513d601f19601f820116820180604052508101906119319190611f97565b9050600061194f82602001516101cb546117db90919063ffffffff16565b90506119688260400151826117db90919063ffffffff16565b90506000611982826101cb546117db90919063ffffffff16565b905060006119a7826119a186600001518e6117db90919063ffffffff16565b906117db565b90506119d9836119c48660000151896117db90919063ffffffff16565b60208701516119d49089906117db565b61160d565b8a6119f58361096287600001518561146890919063ffffffff16565b14611a1057634e487b7160e01b600052600160045260246000fd5b9251929a92995097509095505050505050565b600061063182611c44565b60006001600160a01b03821663b93f9b0a600b5b6040518263ffffffff1660e01b8152600401611a6091815260200190565b60206040518083038186803b158015611a7857600080fd5b505afa158015611a8c573d6000803e3d6000fd5b505050506040513d601f19601f820116820180604052508101906106319190611e6c565b611aba8282610ab8565b6108c557611ac781611c5c565b611ad2836020611c6e565b604051602001611ae3929190612039565b60408051601f198184030181529082905262461bcd60e51b825261065b916004016120bc565b60975460ff1661092f5760405162461bcd60e51b815260206004820152601460248201527314185d5cd8589b194e881b9bdd081c185d5cd95960621b604482015260640161065b565b60975460ff161561092f5760405162461bcd60e51b815260206004820152601060248201526f14185d5cd8589b194e881c185d5cd95960821b604482015260640161065b565b604051631f8ac6cb60e31b8152600560048201526000906001600160a01b0383169063fc5636589060240161182b565b600260c9541415611c1b5760405162461bcd60e51b815260206004820152601f60248201527f5265656e7472616e637947756172643a207265656e7472616e742063616c6c00604482015260640161065b565b600260c955565b60006114398284612237565b6000818310611c3d5781611439565b5090919050565b60006001600160a01b03821663b93f9b0a6005611a42565b60606106316001600160a01b03831660145b60606000611c7d836002612257565b611c8890600261221f565b67ffffffffffffffff811115611cae57634e487b7160e01b600052604160045260246000fd5b6040519080825280601f01601f191660200182016040528015611cd8576020820181803683370190505b509050600360fc1b81600081518110611d0157634e487b7160e01b600052603260045260246000fd5b60200101906001600160f81b031916908160001a905350600f60fb1b81600181518110611d3e57634e487b7160e01b600052603260045260246000fd5b60200101906001600160f81b031916908160001a9053506000611d62846002612257565b611d6d90600161221f565b90505b6001811115611e01576f181899199a1a9b1b9c1cb0b131b232b360811b85600f1660108110611daf57634e487b7160e01b600052603260045260246000fd5b1a60f81b828281518110611dd357634e487b7160e01b600052603260045260246000fd5b60200101906001600160f81b031916908160001a90535060049490941c93611dfa816122b9565b9050611d70565b5083156114395760405162461bcd60e51b815260206004820181905260248201527f537472696e67733a20686578206c656e67746820696e73756666696369656e74604482015260640161065b565b600060208284031215611e61578081fd5b8135611439816122e6565b600060208284031215611e7d578081fd5b8151611439816122e6565b60008060008060008060008060006101208a8c031215611ea6578485fd5b8935611eb1816122e6565b985060208a0135611ec1816122e6565b975060408a0135611ed1816122e6565b989b979a5097986060810135985060808101359760a0820135975060c0820135965060e08201359550610100909101359350915050565b600060208284031215611f19578081fd5b81518015158114611439578182fd5b600060208284031215611f39578081fd5b5035919050565b60008060408385031215611f52578182fd5b823591506020830135611f64816122e6565b809150509250929050565b600060208284031215611f80578081fd5b81356001600160e01b031981168114611439578182fd5b600060608284031215611fa8578081fd5b6040516060810181811067ffffffffffffffff82111715611fd757634e487b7160e01b83526041600452602483fd5b80604052508251815260208301516020820152604083015160408201528091505092915050565b60006020828403121561200f578081fd5b5051919050565b60008060408385031215612028578182fd5b505080516020909101519092909150565b76020b1b1b2b9b9a1b7b73a3937b61d1030b1b1b7bab73a1604d1b81526000835161206b81601785016020880161228d565b7001034b99036b4b9b9b4b733903937b6329607d1b601791840191820152835161209c81602884016020880161228d565b01602801949350505050565b6001600160a01b0391909116815260200190565b60208152600082518060208401526120db81604085016020870161228d565b601f01601f19169190910160400192915050565b6020808252602c908201527f4d75737420686176652070617573657220726f6c6520746f20706572666f726d60408201526b103a3434b99030b1ba34b7b760a11b606082015260800190565b6020808252602e908201527f496e697469616c697a61626c653a20636f6e747261637420697320616c72656160408201526d191e481a5b9a5d1a585b1a5e995960921b606082015260800190565b6020808252602b908201527f496e697469616c697a61626c653a20636f6e7472616374206973206e6f74206960408201526a6e697469616c697a696e6760a81b606082015260800190565b6020808252602b908201527f4d75737420686176652061646d696e20726f6c6520746f20706572666f726d2060408201526a3a3434b99030b1ba34b7b760a91b606082015260800190565b60008219821115612232576122326122d0565b500190565b60008261225257634e487b7160e01b81526012600452602481fd5b500490565b6000816000190483118215151615612271576122716122d0565b500290565b600082821015612288576122886122d0565b500390565b60005b838110156122a8578181015183820152602001612290565b83811115610ccd5750506000910152565b6000816122c8576122c86122d0565b506000190190565b634e487b7160e01b600052601160045260246000fd5b6001600160a01b038116811461076d57600080fdfeb19546dff01e856fb3f010c267a7b1c60363cf8a4664e21cc89c26224620214e65d7a28e3265b37a6474929f336521b332c1681b933f6cb9f3376673440d862aa264697066735822122079f6208534b04c9843b7b40d46d127ffa0fb55d913c351b7d82d651a4478098e64736f6c63430008040033",
  "deployedBytecode": "0x608060405234801561001057600080fd5b50600436106102cc5760003560e01c80638456cb591161017d578063bb4a2509116100d9578063d30a091111610092578063d30a091114610594578063d547741f1461059c578063e58378bb146105af578063e63ab1e9146105c4578063eabd0ce1146105d9578063f0b25bde146105e3578063fb1669ca146105ed57600080fd5b8063bb4a25091461053d578063bbafcb4014610550578063bf8bcee41461055a578063ce78290d1461056d578063cf1787e614610577578063d28459771461058a57600080fd5b8063a4d66daf11610136578063a4d66daf146104cf578063a6a25e88146104d8578063a6b1ae0d146104fb578063b39699921461050e578063b3b8a9c714610518578063b69ef8a81461052b578063b6db75a01461053557600080fd5b80638456cb591461047c57806391d148541461048457806396c8df371461049757806399dd8df3146104aa578063a079a4dd146104b4578063a217fddf146104c757600080fd5b806336d914941161022c578063645d6225116101e5578063645d62251461041057806364fb2d951461041857806374f0314f1461042257806379502c551461042c5780637ae14b091461044d5780637df1f1b91461046057806381c17a151461047457600080fd5b806336d91494146103d05780633f4ba83a146103e3578063457147a7146103eb57806348e6f296146103f3578063526d81f6146103fd5780635c975abb1461040557600080fd5b80631cd724ac116102895780631cd724ac1461034d57806321856b3614610357578063248a9ca31461036157806326a40e821461038457806327ea6f2b146103975780632f2ff15d146103aa57806336568abe146103bd57600080fd5b806301ffc9a7146102d1578063033669cf146102f9578063097616a31461030e5780630e347f891461032157806319350114146103395780631a861d2614610343575b600080fd5b6102e46102df366004611f6f565b610600565b60405190151581526020015b60405180910390f35b61030c610307366004611f28565b610637565b005b61030c61031c366004611e50565b61066a565b61032b6101c95481565b6040519081526020016102f0565b61032b6101cd5481565b61032b6101c55481565b61032b6101d25481565b61032b6101cc5481565b61032b61036f366004611f28565b60009081526065602052604090206001015490565b61030c610392366004611f28565b610770565b61030c6103a5366004611f28565b61079a565b61030c6103b8366004611f40565b610821565b61030c6103cb366004611f40565b61084b565b61030c6103de366004611f28565b6108c9565b61030c6108f3565b6102e4610931565b61032b6101c85481565b61030c61096f565b60975460ff166102e4565b61032b610a38565b61032b6101ce5481565b61032b6201518081565b6101d354610440906001600160a01b031681565b6040516102f091906120a8565b61030c61045b366004611f28565b610a47565b6101c354610440906001600160a01b031681565b6102e4610a71565b61030c610a7c565b6102e4610492366004611f40565b610ab8565b61030c6104a5366004611f28565b610ae3565b61032b6101c75481565b61030c6104c2366004611f28565b610b0d565b61032b600081565b6101c45461032b565b6104e0610cd3565b604080519384526020840192909252908201526060016102f0565b61030c610509366004611f28565b610de7565b61032b6101c65481565b61030c610526366004611f28565b610e11565b61032b6101cb5481565b6102e4610e3b565b61030c61054b366004611e88565b610e55565b61032b6101d05481565b61030c610568366004611f28565b6110d5565b61032b6101d15481565b61030c610585366004611f28565b6110ff565b61032b6101cf5481565b61030c611129565b61030c6105aa366004611f40565b6111be565b61032b6000805160206122fc83398151915281565b61032b60008051602061231c83398151915281565b61032b6101c45481565b61032b6101ca5481565b61030c6105fb366004611f28565b6111e3565b60006001600160e01b03198216637965db0b60e01b148061063157506301ffc9a760e01b6001600160e01b03198316145b92915050565b61063f610e3b565b6106645760405162461bcd60e51b815260040161065b906121d4565b60405180910390fd5b6101d255565b600054610100900460ff166106915760405162461bcd60e51b815260040161065b90612189565b6001600160a01b0381166106e75760405162461bcd60e51b815260206004820181905260248201527f4f776e65722063616e6e6f7420626520746865207a65726f2061646472657373604482015260640161065b565b6106ef61120d565b6106f7611234565b6106ff611267565b6107176000805160206122fc83398151915282611295565b61072f60008051602061231c83398151915282611295565b61075560008051602061231c8339815191526000805160206122fc83398151915261129f565b61076d6000805160206122fc8339815191528061129f565b50565b610778610e3b565b6107945760405162461bcd60e51b815260040161065b906121d4565b6101cf55565b6107a2610e3b565b6107be5760405162461bcd60e51b815260040161065b906121d4565b6101c55481111561081b5760405162461bcd60e51b815260206004820152602160248201527f43616e6e6f74206265206d6f7265207468616e20746865206d6178206c696d696044820152601d60fa1b606482015260840161065b565b6101c455565b60008281526065602052604090206001015461083c816112ea565b61084683836112f4565b505050565b6001600160a01b03811633146108bb5760405162461bcd60e51b815260206004820152602f60248201527f416363657373436f6e74726f6c3a2063616e206f6e6c792072656e6f756e636560448201526e103937b632b9903337b91039b2b63360891b606482015260840161065b565b6108c5828261137a565b5050565b6108d1610e3b565b6108ed5760405162461bcd60e51b815260040161065b906121d4565b6101d155565b61090b60008051602061231c83398151915233610ab8565b6109275760405162461bcd60e51b815260040161065b906120ef565b61092f6113e1565b565b60006101ce54600014156109455750600190565b6101c9546109689061095a906201518061142d565b610962611440565b90611468565b4210905090565b600054610100900460ff161580801561098f5750600054600160ff909116105b806109a95750303b1580156109a9575060005460ff166001145b6109c55760405162461bcd60e51b815260040161065b9061213b565b6000805460ff1916600117905580156109e8576000805461ff0019166101001790555b6109f0611234565b801561076d576000805461ff0019169055604051600181527f7f26b83ff96e1f2b6a682f133852f6798a09c465da95921460cefb38474024989060200160405180910390a150565b6000610a42611440565b905090565b610a4f610e3b565b610a6b5760405162461bcd60e51b815260040161065b906121d4565b6101ce55565b6000610a4242611474565b610a9460008051602061231c83398151915233610ab8565b610ab05760405162461bcd60e51b815260040161065b906120ef565b61092f6114b5565b60009182526065602090815260408084206001600160a01b0393909316845291905290205460ff1690565b610aeb610e3b565b610b075760405162461bcd60e51b815260040161065b906121d4565b6101cc55565b610b15610e3b565b610b315760405162461bcd60e51b815260040161065b906121d4565b6101c4546101cb54610b44908390611468565b1115610b9e5760405162461bcd60e51b815260206004820152602360248201527f43616e6e6f742064726177646f776e206d6f7265207468616e20746865206c696044820152621b5a5d60ea1b606482015260840161065b565b60008111610be85760405162461bcd60e51b8152602060048201526017602482015276125b9d985b1a5908191c985dd91bdddb88185b5bdd5b9d604a1b604482015260640161065b565b6101cb544290610c3457610bfb81610de7565b610c04816108c9565b610c0e6000610637565b610c3461045b610c2d6101c8546201518061142d90919063ffffffff16565b8390611468565b600080610c40836114f2565b6101cb549193509150610c539085611468565b6101cb819055610c6490838361160d565b610c6d83611474565b15610ccd5760405162461bcd60e51b815260206004820152602a60248201527f43616e6e6f742064726177646f776e207768656e207061796d656e74732061726044820152696520706173742064756560b01b606482015260840161065b565b50505050565b6000806000610ce0610e3b565b610cfc5760405162461bcd60e51b815260040161065b906121d4565b60006101cb5411610d5f5760405162461bcd60e51b815260206004820152602760248201527f4d75737420686176652062616c616e636520746f2061737365737320637265646044820152666974206c696e6560c81b606482015260840161065b565b6101cf5442108015610d775750610d7542611474565b155b15610d885750600092839250829150565b6000610d9261169c565b9050610d9d81610770565b42811115610dc9576101c754600090610db9906201518061142d565b9050610dc582826117db565b9150505b610ddb610dd5306117e7565b8261187b565b93509350935050909192565b610def610e3b565b610e0b5760405162461bcd60e51b815260040161065b906121d4565b6101d055565b610e19610e3b565b610e355760405162461bcd60e51b815260040161065b906121d4565b6101cd55565b6000610a426000805160206122fc83398151915233610ab8565b600054610100900460ff1615808015610e755750600054600160ff909116105b80610e8f5750303b158015610e8f575060005460ff166001145b610eab5760405162461bcd60e51b815260040161065b9061213b565b6000805460ff191660011790558015610ece576000805461ff0019166101001790555b6001600160a01b038a1615801590610eee57506001600160a01b03891615155b8015610f0257506001600160a01b03881615155b610f475760405162461bcd60e51b81526020600482015260166024820152752d32b9379030b2323932b9b9903830b9b9b2b21034b760511b604482015260640161065b565b610f508961066a565b6101d380546001600160a01b03808d166001600160a01b031992831681179093556101c38054918c16919092161790556101c58890556101c68790556101c78690556101c88590556101ca8490556101c9839055426101d055600090610fb590611a23565b60405163095ea7b360e01b81526001600160a01b038c811660048301526000196024830152919091169063095ea7b390604401602060405180830381600087803b15801561100257600080fd5b505af1158015611016573d6000803e3d6000fd5b505050506040513d601f19601f8201168201806040525081019061103a9190611f08565b9050806110825760405162461bcd60e51b81526020600482015260166024820152754661696c656420746f20617070726f7665205553444360501b604482015260640161065b565b5080156110c9576000805461ff0019169055604051600181527f7f26b83ff96e1f2b6a682f133852f6798a09c465da95921460cefb38474024989060200160405180910390a15b50505050505050505050565b6110dd610e3b565b6110f95760405162461bcd60e51b815260040161065b906121d4565b6101c555565b611107610e3b565b6111235760405162461bcd60e51b815260040161065b906121d4565b6101ca55565b611131610e3b565b61114d5760405162461bcd60e51b815260040161065b906121d4565b6101d354611163906001600160a01b0316611a2e565b6101d380546001600160a01b0319166001600160a01b0392909216918217905560405133917f8d003bc2e3965bd9d92389a8ae0ef8c601fa211ba9378150dde7dc3cf38c3a36916111b491906120a8565b60405180910390a2565b6000828152606560205260409020600101546111d9816112ea565b610846838361137a565b6111eb610e3b565b6112075760405162461bcd60e51b815260040161065b906121d4565b6101cb55565b600054610100900460ff1661092f5760405162461bcd60e51b815260040161065b90612189565b600054610100900460ff1661125b5760405162461bcd60e51b815260040161065b90612189565b6097805460ff19169055565b600054610100900460ff1661128e5760405162461bcd60e51b815260040161065b90612189565b600160c955565b6108c582826112f4565b600082815260656020526040808220600101805490849055905190918391839186917fbd79b86ffe0ab8e8776151514217cd7cacd52c909f66475c3af44e129f0b00ff9190a4505050565b61076d8133611ab0565b6112fe8282610ab8565b6108c55760008281526065602090815260408083206001600160a01b03851684529091529020805460ff191660011790556113363390565b6001600160a01b0316816001600160a01b0316837f2f8788117e7eff1d82e926ec794901d17c78024a50270940304540a733656f0d60405160405180910390a45050565b6113848282610ab8565b156108c55760008281526065602090815260408083206001600160a01b0385168085529252808320805460ff1916905551339285917ff6391f5c32d9c69d2a47ea670b442974b53935d1edc7fd64eb21e047a839171b9190a45050565b6113e9611b09565b6097805460ff191690557f5db9ee0a495bf2e6ff9c91a7834c1ba4fdd244a5e8aa4e537bd38aeae4b073aa335b60405161142391906120a8565b60405180910390a1565b60006114398284612257565b9392505050565b6000610a4261145e6101c8546201518061142d90919063ffffffff16565b6101ce54906117db565b6000611439828461221f565b60008061148d6101d154846117db90919063ffffffff16565b905060006101cb5411801561143957506101c7546114ae906201518061142d565b1092915050565b6114bd611b52565b6097805460ff191660011790557f62e78cea01bee320cd4e420270b5ea74000d11b0c9f74754ebdbfc544b05a2586114163390565b60008060008073__$1dcd660c042b25ef260537b13a3f0ede49$__63101c8430308761153c6101d360009054906101000a90046001600160a01b03166001600160a01b0316611b98565b6040516001600160e01b031960e086901b1681526001600160a01b03909316600484015260248301919091526044820152606401604080518083038186803b15801561158757600080fd5b505af415801561159b573d6000803e3d6000fd5b505050506040513d601f19601f820116820180604052508101906115bf9190612016565b909250905081156115e6576115d385610de7565b6101d2546115e19083611468565b6101d2555b6101cc546115f49083611468565b6101cd546116029083611468565b935093505050915091565b611615611bc8565b61161e836111e3565b61162782610ae3565b61163081610e11565b6101cf548215801561164157508015155b1561168657600081421015611678576101c754600090611664906201518061142d565b905061167083826117db565b91505061167b565b50805b611684816108c9565b505b61169161039261169c565b50610846600160c955565b6101cf546101c7546000919082906116b7906201518061142d565b905042821580156116cb575060006101cb54115b156116e2576116da8183611468565b935050505090565b60006101cb541180156116f55750828110155b1561174357600061171f83611719600161096283611713888b6117db565b90611c22565b9061142d565b905061172b8482611468565b935061173a846101ce54611c2e565b94505050505090565b6101cb5415801561175357508215155b15611762576000935050505090565b60006101cb5411801561177457508281105b1561178157509092915050565b60405162461bcd60e51b815260206004820152602960248201527f4572726f723a20636f756c64206e6f742063616c63756c617465206e65787420604482015268323ab2903a34b6b29760b91b606482015260840161065b565b60006114398284612276565b6101d354600090611800906001600160a01b0316611a23565b6001600160a01b03166370a08231836040518263ffffffff1660e01b815260040161182b91906120a8565b60206040518083038186803b15801561184357600080fd5b505afa158015611857573d6000803e3d6000fd5b505050506040513d601f19601f820116820180604052508101906106319190611ffe565b600080600080600061188c866114f2565b6101cb5460405163d7cc2a0360e01b8152600481018b905260248101919091526044810183905260648101829052919350915060009073__$1dcd660c042b25ef260537b13a3f0ede49$__9063d7cc2a039060840160606040518083038186803b1580156118f957600080fd5b505af415801561190d573d6000803e3d6000fd5b505050506040513d601f19601f820116820180604052508101906119319190611f97565b9050600061194f82602001516101cb546117db90919063ffffffff16565b90506119688260400151826117db90919063ffffffff16565b90506000611982826101cb546117db90919063ffffffff16565b905060006119a7826119a186600001518e6117db90919063ffffffff16565b906117db565b90506119d9836119c48660000151896117db90919063ffffffff16565b60208701516119d49089906117db565b61160d565b8a6119f58361096287600001518561146890919063ffffffff16565b14611a1057634e487b7160e01b600052600160045260246000fd5b9251929a92995097509095505050505050565b600061063182611c44565b60006001600160a01b03821663b93f9b0a600b5b6040518263ffffffff1660e01b8152600401611a6091815260200190565b60206040518083038186803b158015611a7857600080fd5b505afa158015611a8c573d6000803e3d6000fd5b505050506040513d601f19601f820116820180604052508101906106319190611e6c565b611aba8282610ab8565b6108c557611ac781611c5c565b611ad2836020611c6e565b604051602001611ae3929190612039565b60408051601f198184030181529082905262461bcd60e51b825261065b916004016120bc565b60975460ff1661092f5760405162461bcd60e51b815260206004820152601460248201527314185d5cd8589b194e881b9bdd081c185d5cd95960621b604482015260640161065b565b60975460ff161561092f5760405162461bcd60e51b815260206004820152601060248201526f14185d5cd8589b194e881c185d5cd95960821b604482015260640161065b565b604051631f8ac6cb60e31b8152600560048201526000906001600160a01b0383169063fc5636589060240161182b565b600260c9541415611c1b5760405162461bcd60e51b815260206004820152601f60248201527f5265656e7472616e637947756172643a207265656e7472616e742063616c6c00604482015260640161065b565b600260c955565b60006114398284612237565b6000818310611c3d5781611439565b5090919050565b60006001600160a01b03821663b93f9b0a6005611a42565b60606106316001600160a01b03831660145b60606000611c7d836002612257565b611c8890600261221f565b67ffffffffffffffff811115611cae57634e487b7160e01b600052604160045260246000fd5b6040519080825280601f01601f191660200182016040528015611cd8576020820181803683370190505b509050600360fc1b81600081518110611d0157634e487b7160e01b600052603260045260246000fd5b60200101906001600160f81b031916908160001a905350600f60fb1b81600181518110611d3e57634e487b7160e01b600052603260045260246000fd5b60200101906001600160f81b031916908160001a9053506000611d62846002612257565b611d6d90600161221f565b90505b6001811115611e01576f181899199a1a9b1b9c1cb0b131b232b360811b85600f1660108110611daf57634e487b7160e01b600052603260045260246000fd5b1a60f81b828281518110611dd357634e487b7160e01b600052603260045260246000fd5b60200101906001600160f81b031916908160001a90535060049490941c93611dfa816122b9565b9050611d70565b5083156114395760405162461bcd60e51b815260206004820181905260248201527f537472696e67733a20686578206c656e67746820696e73756666696369656e74604482015260640161065b565b600060208284031215611e61578081fd5b8135611439816122e6565b600060208284031215611e7d578081fd5b8151611439816122e6565b60008060008060008060008060006101208a8c031215611ea6578485fd5b8935611eb1816122e6565b985060208a0135611ec1816122e6565b975060408a0135611ed1816122e6565b989b979a5097986060810135985060808101359760a0820135975060c0820135965060e08201359550610100909101359350915050565b600060208284031215611f19578081fd5b81518015158114611439578182fd5b600060208284031215611f39578081fd5b5035919050565b60008060408385031215611f52578182fd5b823591506020830135611f64816122e6565b809150509250929050565b600060208284031215611f80578081fd5b81356001600160e01b031981168114611439578182fd5b600060608284031215611fa8578081fd5b6040516060810181811067ffffffffffffffff82111715611fd757634e487b7160e01b83526041600452602483fd5b80604052508251815260208301516020820152604083015160408201528091505092915050565b60006020828403121561200f578081fd5b5051919050565b60008060408385031215612028578182fd5b505080516020909101519092909150565b76020b1b1b2b9b9a1b7b73a3937b61d1030b1b1b7bab73a1604d1b81526000835161206b81601785016020880161228d565b7001034b99036b4b9b9b4b733903937b6329607d1b601791840191820152835161209c81602884016020880161228d565b01602801949350505050565b6001600160a01b0391909116815260200190565b60208152600082518060208401526120db81604085016020870161228d565b601f01601f19169190910160400192915050565b6020808252602c908201527f4d75737420686176652070617573657220726f6c6520746f20706572666f726d60408201526b103a3434b99030b1ba34b7b760a11b606082015260800190565b6020808252602e908201527f496e697469616c697a61626c653a20636f6e747261637420697320616c72656160408201526d191e481a5b9a5d1a585b1a5e995960921b606082015260800190565b6020808252602b908201527f496e697469616c697a61626c653a20636f6e7472616374206973206e6f74206960408201526a6e697469616c697a696e6760a81b606082015260800190565b6020808252602b908201527f4d75737420686176652061646d696e20726f6c6520746f20706572666f726d2060408201526a3a3434b99030b1ba34b7b760a91b606082015260800190565b60008219821115612232576122326122d0565b500190565b60008261225257634e487b7160e01b81526012600452602481fd5b500490565b6000816000190483118215151615612271576122716122d0565b500290565b600082821015612288576122886122d0565b500390565b60005b838110156122a8578181015183820152602001612290565b83811115610ccd5750506000910152565b6000816122c8576122c86122d0565b506000190190565b634e487b7160e01b600052601160045260246000fd5b6001600160a01b038116811461076d57600080fdfeb19546dff01e856fb3f010c267a7b1c60363cf8a4664e21cc89c26224620214e65d7a28e3265b37a6474929f336521b332c1681b933f6cb9f3376673440d862aa264697066735822122079f6208534b04c9843b7b40d46d127ffa0fb55d913c351b7d82d651a4478098e64736f6c63430008040033",
  "libraries": {
    "Accountant": "0x6411227B41DAa555AB88b546F0F7B218cCA4dD2F"
  },
  "devdoc": {
    "author": "Doberman",
    "kind": "dev",
    "methods": {
      "assess()": {
        "returns": {
          "_0": "Any amount remaining after applying payments towards the interest and principal",
          "_1": "Amount applied towards interest",
          "_2": "Amount applied towards principal"
        }
      },
      "drawdown(uint256)": {
        "params": {
          "amount": "The amount in USDC that has been drawndown"
        }
      },
      "getRoleAdmin(bytes32)": {
        "details": "Returns the admin role that controls `role`. See {grantRole} and {revokeRole}. To change a role's admin, use {_setRoleAdmin}."
      },
      "grantRole(bytes32,address)": {
        "details": "Grants `role` to `account`. If `account` had not been already granted `role`, emits a {RoleGranted} event. Requirements: - the caller must have ``role``'s admin role. May emit a {RoleGranted} event."
      },
      "hasRole(bytes32,address)": {
        "details": "Returns `true` if `account` has been granted `role`."
      },
      "pause()": {
        "details": "Pauses all functions guarded by Pause See {Pausable-_pause}. Requirements: - the caller must have the PAUSER_ROLE."
      },
      "paused()": {
        "details": "Returns true if the contract is paused, and false otherwise."
      },
      "renounceRole(bytes32,address)": {
        "details": "Revokes `role` from the calling account. Roles are often managed via {grantRole} and {revokeRole}: this function's purpose is to provide a mechanism for accounts to lose their privileges if they are compromised (such as when a trusted device is misplaced). If the calling account had been revoked `role`, emits a {RoleRevoked} event. Requirements: - the caller must be `account`. May emit a {RoleRevoked} event."
      },
      "revokeRole(bytes32,address)": {
        "details": "Revokes `role` from `account`. If `account` had been granted `role`, emits a {RoleRevoked} event. Requirements: - the caller must have ``role``'s admin role. May emit a {RoleRevoked} event."
      },
      "supportsInterface(bytes4)": {
        "details": "See {IERC165-supportsInterface}."
      },
      "unpause()": {
        "details": "Unpauses the contract See {Pausable-_unpause}. Requirements: - the caller must have the Pauser role"
      }
    },
    "title": "CreditLine",
    "version": 1
  },
  "userdoc": {
    "kind": "user",
    "methods": {
      "assess()": {
        "notice": "Triggers an assessment of the creditline. Any USDC balance available in the creditline is applied towards the interest and principal."
      },
      "drawdown(uint256)": {
        "notice": "Updates the internal accounting to track a drawdown as of current block timestamp. Does not move any money"
      },
      "updateDobermanConfig()": {
        "notice": "Migrates to a new Doberman config address"
      }
    },
    "notice": "A contract that represents the agreement between Backers and  a Borrower. Includes the terms of the loan, as well as the current accounting state, such as interest owed.  A CreditLine belongs to a TranchedPool, and is fully controlled by that TranchedPool. It does not  operate in any standalone capacity. It should generally be considered internal to the TranchedPool.",
    "version": 1
  },
  "storageLayout": {
    "storage": [
      {
        "astId": 588,
        "contract": "contracts/protocol/core/CreditLine.sol:CreditLine",
        "label": "_initialized",
        "offset": 0,
        "slot": "0",
        "type": "t_uint8"
      },
      {
        "astId": 591,
        "contract": "contracts/protocol/core/CreditLine.sol:CreditLine",
        "label": "_initializing",
        "offset": 1,
        "slot": "0",
        "type": "t_bool"
      },
      {
        "astId": 4964,
        "contract": "contracts/protocol/core/CreditLine.sol:CreditLine",
        "label": "__gap",
        "offset": 0,
        "slot": "1",
        "type": "t_array(t_uint256)50_storage"
      },
      {
        "astId": 5544,
        "contract": "contracts/protocol/core/CreditLine.sol:CreditLine",
        "label": "__gap",
        "offset": 0,
        "slot": "51",
        "type": "t_array(t_uint256)50_storage"
      },
      {
        "astId": 184,
        "contract": "contracts/protocol/core/CreditLine.sol:CreditLine",
        "label": "_roles",
        "offset": 0,
        "slot": "101",
        "type": "t_mapping(t_bytes32,t_struct(RoleData)179_storage)"
      },
      {
        "astId": 479,
        "contract": "contracts/protocol/core/CreditLine.sol:CreditLine",
        "label": "__gap",
        "offset": 0,
        "slot": "102",
        "type": "t_array(t_uint256)49_storage"
      },
      {
        "astId": 771,
        "contract": "contracts/protocol/core/CreditLine.sol:CreditLine",
        "label": "_paused",
        "offset": 0,
        "slot": "151",
        "type": "t_bool"
      },
      {
        "astId": 876,
        "contract": "contracts/protocol/core/CreditLine.sol:CreditLine",
        "label": "__gap",
        "offset": 0,
        "slot": "152",
        "type": "t_array(t_uint256)49_storage"
      },
      {
        "astId": 891,
        "contract": "contracts/protocol/core/CreditLine.sol:CreditLine",
        "label": "_status",
        "offset": 0,
        "slot": "201",
        "type": "t_uint256"
      },
      {
        "astId": 949,
        "contract": "contracts/protocol/core/CreditLine.sol:CreditLine",
        "label": "__gap",
        "offset": 0,
        "slot": "202",
        "type": "t_array(t_uint256)49_storage"
      },
      {
        "astId": 15949,
        "contract": "contracts/protocol/core/CreditLine.sol:CreditLine",
        "label": "__gap1",
        "offset": 0,
        "slot": "251",
        "type": "t_array(t_uint256)50_storage"
      },
      {
        "astId": 15953,
        "contract": "contracts/protocol/core/CreditLine.sol:CreditLine",
        "label": "__gap2",
        "offset": 0,
        "slot": "301",
        "type": "t_array(t_uint256)50_storage"
      },
      {
        "astId": 15957,
        "contract": "contracts/protocol/core/CreditLine.sol:CreditLine",
        "label": "__gap3",
        "offset": 0,
        "slot": "351",
        "type": "t_array(t_uint256)50_storage"
      },
      {
        "astId": 15961,
        "contract": "contracts/protocol/core/CreditLine.sol:CreditLine",
        "label": "__gap4",
        "offset": 0,
        "slot": "401",
        "type": "t_array(t_uint256)50_storage"
      },
      {
        "astId": 18505,
        "contract": "contracts/protocol/core/CreditLine.sol:CreditLine",
        "label": "borrower",
        "offset": 0,
        "slot": "451",
        "type": "t_address"
      },
      {
        "astId": 18507,
        "contract": "contracts/protocol/core/CreditLine.sol:CreditLine",
        "label": "currentLimit",
        "offset": 0,
        "slot": "452",
        "type": "t_uint256"
      },
      {
        "astId": 18510,
        "contract": "contracts/protocol/core/CreditLine.sol:CreditLine",
        "label": "maxLimit",
        "offset": 0,
        "slot": "453",
        "type": "t_uint256"
      },
      {
        "astId": 18513,
        "contract": "contracts/protocol/core/CreditLine.sol:CreditLine",
        "label": "interestApr",
        "offset": 0,
        "slot": "454",
        "type": "t_uint256"
      },
      {
        "astId": 18516,
        "contract": "contracts/protocol/core/CreditLine.sol:CreditLine",
        "label": "paymentPeriodInDays",
        "offset": 0,
        "slot": "455",
        "type": "t_uint256"
      },
      {
        "astId": 18519,
        "contract": "contracts/protocol/core/CreditLine.sol:CreditLine",
        "label": "termInDays",
        "offset": 0,
        "slot": "456",
        "type": "t_uint256"
      },
      {
        "astId": 18522,
        "contract": "contracts/protocol/core/CreditLine.sol:CreditLine",
        "label": "principalGracePeriodInDays",
        "offset": 0,
        "slot": "457",
        "type": "t_uint256"
      },
      {
        "astId": 18525,
        "contract": "contracts/protocol/core/CreditLine.sol:CreditLine",
        "label": "lateFeeApr",
        "offset": 0,
        "slot": "458",
        "type": "t_uint256"
      },
      {
        "astId": 18528,
        "contract": "contracts/protocol/core/CreditLine.sol:CreditLine",
        "label": "balance",
        "offset": 0,
        "slot": "459",
        "type": "t_uint256"
      },
      {
        "astId": 18531,
        "contract": "contracts/protocol/core/CreditLine.sol:CreditLine",
        "label": "interestOwed",
        "offset": 0,
        "slot": "460",
        "type": "t_uint256"
      },
      {
        "astId": 18534,
        "contract": "contracts/protocol/core/CreditLine.sol:CreditLine",
        "label": "principalOwed",
        "offset": 0,
        "slot": "461",
        "type": "t_uint256"
      },
      {
        "astId": 18537,
        "contract": "contracts/protocol/core/CreditLine.sol:CreditLine",
        "label": "termEndTime",
        "offset": 0,
        "slot": "462",
        "type": "t_uint256"
      },
      {
        "astId": 18540,
        "contract": "contracts/protocol/core/CreditLine.sol:CreditLine",
        "label": "nextDueTime",
        "offset": 0,
        "slot": "463",
        "type": "t_uint256"
      },
      {
        "astId": 18543,
        "contract": "contracts/protocol/core/CreditLine.sol:CreditLine",
        "label": "interestAccruedAsOf",
        "offset": 0,
        "slot": "464",
        "type": "t_uint256"
      },
      {
        "astId": 18546,
        "contract": "contracts/protocol/core/CreditLine.sol:CreditLine",
        "label": "lastFullPaymentTime",
        "offset": 0,
        "slot": "465",
        "type": "t_uint256"
      },
      {
        "astId": 18548,
        "contract": "contracts/protocol/core/CreditLine.sol:CreditLine",
        "label": "totalInterestAccrued",
        "offset": 0,
        "slot": "466",
        "type": "t_uint256"
      },
      {
        "astId": 18551,
        "contract": "contracts/protocol/core/CreditLine.sol:CreditLine",
        "label": "config",
        "offset": 0,
        "slot": "467",
        "type": "t_contract(DobermanConfig)20001"
      }
    ],
    "types": {
      "t_address": {
        "encoding": "inplace",
        "label": "address",
        "numberOfBytes": "20"
      },
      "t_array(t_uint256)49_storage": {
        "base": "t_uint256",
        "encoding": "inplace",
        "label": "uint256[49]",
        "numberOfBytes": "1568"
      },
      "t_array(t_uint256)50_storage": {
        "base": "t_uint256",
        "encoding": "inplace",
        "label": "uint256[50]",
        "numberOfBytes": "1600"
      },
      "t_bool": {
        "encoding": "inplace",
        "label": "bool",
        "numberOfBytes": "1"
      },
      "t_bytes32": {
        "encoding": "inplace",
        "label": "bytes32",
        "numberOfBytes": "32"
      },
      "t_contract(DobermanConfig)20001": {
        "encoding": "inplace",
        "label": "contract DobermanConfig",
        "numberOfBytes": "20"
      },
      "t_mapping(t_address,t_bool)": {
        "encoding": "mapping",
        "key": "t_address",
        "label": "mapping(address => bool)",
        "numberOfBytes": "32",
        "value": "t_bool"
      },
      "t_mapping(t_bytes32,t_struct(RoleData)179_storage)": {
        "encoding": "mapping",
        "key": "t_bytes32",
        "label": "mapping(bytes32 => struct AccessControlUpgradeable.RoleData)",
        "numberOfBytes": "32",
        "value": "t_struct(RoleData)179_storage"
      },
      "t_struct(RoleData)179_storage": {
        "encoding": "inplace",
        "label": "struct AccessControlUpgradeable.RoleData",
        "members": [
          {
            "astId": 176,
            "contract": "contracts/protocol/core/CreditLine.sol:CreditLine",
            "label": "members",
            "offset": 0,
            "slot": "0",
            "type": "t_mapping(t_address,t_bool)"
          },
          {
            "astId": 178,
            "contract": "contracts/protocol/core/CreditLine.sol:CreditLine",
            "label": "adminRole",
            "offset": 0,
            "slot": "1",
            "type": "t_bytes32"
          }
        ],
        "numberOfBytes": "64"
      },
      "t_uint256": {
        "encoding": "inplace",
        "label": "uint256",
        "numberOfBytes": "32"
      },
      "t_uint8": {
        "encoding": "inplace",
        "label": "uint8",
        "numberOfBytes": "1"
      }
    }
  }
}