{
  "address": "0x012e4f30a508fC768D16Fc352EA603CCB632a0E0",
  "abi": [
    {
      "anonymous": false,
      "inputs": [
        {
          "indexed": false,
          "internalType": "address",
          "name": "owner",
          "type": "address"
        },
        {
          "indexed": false,
          "internalType": "uint256",
          "name": "index",
          "type": "uint256"
        },
        {
          "indexed": false,
          "internalType": "address",
          "name": "oldValue",
          "type": "address"
        },
        {
          "indexed": false,
          "internalType": "address",
          "name": "newValue",
          "type": "address"
        }
      ],
      "name": "AddressUpdated",
      "type": "event"
    },
    {
      "anonymous": false,
      "inputs": [
        {
          "indexed": true,
          "internalType": "address",
          "name": "member",
          "type": "address"
        }
      ],
      "name": "GoListed",
      "type": "event"
    },
    {
      "anonymous": false,
      "inputs": [
        {
          "indexed": false,
          "internalType": "uint8",
          "name": "version",
          "type": "uint8"
        }
      ],
      "name": "Initialized",
      "type": "event"
    },
    {
      "anonymous": false,
      "inputs": [
        {
          "indexed": true,
          "internalType": "address",
          "name": "member",
          "type": "address"
        }
      ],
      "name": "NoListed",
      "type": "event"
    },
    {
      "anonymous": false,
      "inputs": [
        {
          "indexed": false,
          "internalType": "address",
          "name": "owner",
          "type": "address"
        },
        {
          "indexed": false,
          "internalType": "uint256",
          "name": "index",
          "type": "uint256"
        },
        {
          "indexed": false,
          "internalType": "uint256",
          "name": "oldValue",
          "type": "uint256"
        },
        {
          "indexed": false,
          "internalType": "uint256",
          "name": "newValue",
          "type": "uint256"
        }
      ],
      "name": "NumberUpdated",
      "type": "event"
    },
    {
      "anonymous": false,
      "inputs": [
        {
          "indexed": false,
          "internalType": "address",
          "name": "account",
          "type": "address"
        }
      ],
      "name": "Paused",
      "type": "event"
    },
    {
      "anonymous": false,
      "inputs": [
        {
          "indexed": true,
          "internalType": "bytes32",
          "name": "role",
          "type": "bytes32"
        },
        {
          "indexed": true,
          "internalType": "bytes32",
          "name": "previousAdminRole",
          "type": "bytes32"
        },
        {
          "indexed": true,
          "internalType": "bytes32",
          "name": "newAdminRole",
          "type": "bytes32"
        }
      ],
      "name": "RoleAdminChanged",
      "type": "event"
    },
    {
      "anonymous": false,
      "inputs": [
        {
          "indexed": true,
          "internalType": "bytes32",
          "name": "role",
          "type": "bytes32"
        },
        {
          "indexed": true,
          "internalType": "address",
          "name": "account",
          "type": "address"
        },
        {
          "indexed": true,
          "internalType": "address",
          "name": "sender",
          "type": "address"
        }
      ],
      "name": "RoleGranted",
      "type": "event"
    },
    {
      "anonymous": false,
      "inputs": [
        {
          "indexed": true,
          "internalType": "bytes32",
          "name": "role",
          "type": "bytes32"
        },
        {
          "indexed": true,
          "internalType": "address",
          "name": "account",
          "type": "address"
        },
        {
          "indexed": true,
          "internalType": "address",
          "name": "sender",
          "type": "address"
        }
      ],
      "name": "RoleRevoked",
      "type": "event"
    },
    {
      "anonymous": false,
      "inputs": [
        {
          "indexed": false,
          "internalType": "address",
          "name": "account",
          "type": "address"
        }
      ],
      "name": "Unpaused",
      "type": "event"
    },
    {
      "inputs": [],
      "name": "DEFAULT_ADMIN_ROLE",
      "outputs": [
        {
          "internalType": "bytes32",
          "name": "",
          "type": "bytes32"
        }
      ],
      "stateMutability": "view",
      "type": "function"
    },
    {
      "inputs": [],
      "name": "GO_LISTER_ROLE",
      "outputs": [
        {
          "internalType": "bytes32",
          "name": "",
          "type": "bytes32"
        }
      ],
      "stateMutability": "view",
      "type": "function"
    },
    {
      "inputs": [],
      "name": "OWNER_ROLE",
      "outputs": [
        {
          "internalType": "bytes32",
          "name": "",
          "type": "bytes32"
        }
      ],
      "stateMutability": "view",
      "type": "function"
    },
    {
      "inputs": [],
      "name": "PAUSER_ROLE",
      "outputs": [
        {
          "internalType": "bytes32",
          "name": "",
          "type": "bytes32"
        }
      ],
      "stateMutability": "view",
      "type": "function"
    },
    {
      "inputs": [
        {
          "internalType": "address",
          "name": "owner",
          "type": "address"
        }
      ],
      "name": "__BaseUpgradeablePausable__init",
      "outputs": [],
      "stateMutability": "nonpayable",
      "type": "function"
    },
    {
      "inputs": [],
      "name": "__PauserPausable__init",
      "outputs": [],
      "stateMutability": "nonpayable",
      "type": "function"
    },
    {
      "inputs": [
        {
          "internalType": "address",
          "name": "_member",
          "type": "address"
        }
      ],
      "name": "addToGoList",
      "outputs": [],
      "stateMutability": "nonpayable",
      "type": "function"
    },
    {
      "inputs": [
        {
          "internalType": "uint256",
          "name": "",
          "type": "uint256"
        }
      ],
      "name": "addresses",
      "outputs": [
        {
          "internalType": "address",
          "name": "",
          "type": "address"
        }
      ],
      "stateMutability": "view",
      "type": "function"
    },
    {
      "inputs": [
        {
          "internalType": "address[]",
          "name": "_members",
          "type": "address[]"
        }
      ],
      "name": "bulkAddToGoList",
      "outputs": [],
      "stateMutability": "nonpayable",
      "type": "function"
    },
    {
      "inputs": [
        {
          "internalType": "address[]",
          "name": "_members",
          "type": "address[]"
        }
      ],
      "name": "bulkRemoveFromGoList",
      "outputs": [],
      "stateMutability": "nonpayable",
      "type": "function"
    },
    {
      "inputs": [
        {
          "internalType": "uint256",
          "name": "index",
          "type": "uint256"
        }
      ],
      "name": "getAddress",
      "outputs": [
        {
          "internalType": "address",
          "name": "",
          "type": "address"
        }
      ],
      "stateMutability": "view",
      "type": "function"
    },
    {
      "inputs": [
        {
          "internalType": "uint256",
          "name": "index",
          "type": "uint256"
        }
      ],
      "name": "getNumber",
      "outputs": [
        {
          "internalType": "uint256",
          "name": "",
          "type": "uint256"
        }
      ],
      "stateMutability": "view",
      "type": "function"
    },
    {
      "inputs": [
        {
          "internalType": "bytes32",
          "name": "role",
          "type": "bytes32"
        }
      ],
      "name": "getRoleAdmin",
      "outputs": [
        {
          "internalType": "bytes32",
          "name": "",
          "type": "bytes32"
        }
      ],
      "stateMutability": "view",
      "type": "function"
    },
    {
      "inputs": [
        {
          "internalType": "address",
          "name": "",
          "type": "address"
        }
      ],
      "name": "goList",
      "outputs": [
        {
          "internalType": "bool",
          "name": "",
          "type": "bool"
        }
      ],
      "stateMutability": "view",
      "type": "function"
    },
    {
      "inputs": [
        {
          "internalType": "bytes32",
          "name": "role",
          "type": "bytes32"
        },
        {
          "internalType": "address",
          "name": "account",
          "type": "address"
        }
      ],
      "name": "grantRole",
      "outputs": [],
      "stateMutability": "nonpayable",
      "type": "function"
    },
    {
      "inputs": [
        {
          "internalType": "bytes32",
          "name": "role",
          "type": "bytes32"
        },
        {
          "internalType": "address",
          "name": "account",
          "type": "address"
        }
      ],
      "name": "hasRole",
      "outputs": [
        {
          "internalType": "bool",
          "name": "",
          "type": "bool"
        }
      ],
      "stateMutability": "view",
      "type": "function"
    },
    {
      "inputs": [
        {
          "internalType": "address",
          "name": "owner",
          "type": "address"
        }
      ],
      "name": "initialize",
      "outputs": [],
      "stateMutability": "nonpayable",
      "type": "function"
    },
    {
      "inputs": [
        {
          "internalType": "address",
          "name": "_initialConfig",
          "type": "address"
        },
        {
          "internalType": "uint256",
          "name": "numbersLength",
          "type": "uint256"
        },
        {
          "internalType": "uint256",
          "name": "addressesLength",
          "type": "uint256"
        }
      ],
      "name": "initializeFromOtherConfig",
      "outputs": [],
      "stateMutability": "nonpayable",
      "type": "function"
    },
    {
      "inputs": [],
      "name": "isAdmin",
      "outputs": [
        {
          "internalType": "bool",
          "name": "",
          "type": "bool"
        }
      ],
      "stateMutability": "view",
      "type": "function"
    },
    {
      "inputs": [
        {
          "internalType": "uint256",
          "name": "",
          "type": "uint256"
        }
      ],
      "name": "numbers",
      "outputs": [
        {
          "internalType": "uint256",
          "name": "",
          "type": "uint256"
        }
      ],
      "stateMutability": "view",
      "type": "function"
    },
    {
      "inputs": [],
      "name": "pause",
      "outputs": [],
      "stateMutability": "nonpayable",
      "type": "function"
    },
    {
      "inputs": [],
      "name": "paused",
      "outputs": [
        {
          "internalType": "bool",
          "name": "",
          "type": "bool"
        }
      ],
      "stateMutability": "view",
      "type": "function"
    },
    {
      "inputs": [
        {
          "internalType": "address",
          "name": "_member",
          "type": "address"
        }
      ],
      "name": "removeFromGoList",
      "outputs": [],
      "stateMutability": "nonpayable",
      "type": "function"
    },
    {
      "inputs": [
        {
          "internalType": "bytes32",
          "name": "role",
          "type": "bytes32"
        },
        {
          "internalType": "address",
          "name": "account",
          "type": "address"
        }
      ],
      "name": "renounceRole",
      "outputs": [],
      "stateMutability": "nonpayable",
      "type": "function"
    },
    {
      "inputs": [
        {
          "internalType": "bytes32",
          "name": "role",
          "type": "bytes32"
        },
        {
          "internalType": "address",
          "name": "account",
          "type": "address"
        }
      ],
      "name": "revokeRole",
      "outputs": [],
      "stateMutability": "nonpayable",
      "type": "function"
    },
    {
      "inputs": [
        {
          "internalType": "uint256",
          "name": "addressIndex",
          "type": "uint256"
        },
        {
          "internalType": "address",
          "name": "newAddress",
          "type": "address"
        }
      ],
      "name": "setAddress",
      "outputs": [],
      "stateMutability": "nonpayable",
      "type": "function"
    },
    {
      "inputs": [
        {
          "internalType": "address",
          "name": "newAddress",
          "type": "address"
        }
      ],
      "name": "setBorrowerImplementation",
      "outputs": [],
      "stateMutability": "nonpayable",
      "type": "function"
    },
    {
      "inputs": [
        {
          "internalType": "address",
          "name": "newAddress",
          "type": "address"
        }
      ],
      "name": "setCreditLineImplementation",
      "outputs": [],
      "stateMutability": "nonpayable",
      "type": "function"
    },
    {
      "inputs": [
        {
          "internalType": "address",
          "name": "newAddress",
          "type": "address"
        }
      ],
      "name": "setDobermanConfig",
      "outputs": [],
      "stateMutability": "nonpayable",
      "type": "function"
    },
    {
      "inputs": [
        {
          "internalType": "uint256",
          "name": "index",
          "type": "uint256"
        },
        {
          "internalType": "uint256",
          "name": "newNumber",
          "type": "uint256"
        }
      ],
      "name": "setNumber",
      "outputs": [],
      "stateMutability": "nonpayable",
      "type": "function"
    },
    {
      "inputs": [
        {
          "internalType": "address",
          "name": "newStrategy",
          "type": "address"
        }
      ],
      "name": "setSeniorPoolStrategy",
      "outputs": [],
      "stateMutability": "nonpayable",
      "type": "function"
    },
    {
      "inputs": [
        {
          "internalType": "address",
          "name": "newAddress",
          "type": "address"
        }
      ],
      "name": "setTranchedPoolImplementation",
      "outputs": [],
      "stateMutability": "nonpayable",
      "type": "function"
    },
    {
      "inputs": [
        {
          "internalType": "address",
          "name": "newTreasuryReserve",
          "type": "address"
        }
      ],
      "name": "setTreasuryReserve",
      "outputs": [],
      "stateMutability": "nonpayable",
      "type": "function"
    },
    {
      "inputs": [
        {
          "internalType": "bytes4",
          "name": "interfaceId",
          "type": "bytes4"
        }
      ],
      "name": "supportsInterface",
      "outputs": [
        {
          "internalType": "bool",
          "name": "",
          "type": "bool"
        }
      ],
      "stateMutability": "view",
      "type": "function"
    },
    {
      "inputs": [],
      "name": "unpause",
      "outputs": [],
      "stateMutability": "nonpayable",
      "type": "function"
    },
    {
      "inputs": [],
      "name": "valuesInitialized",
      "outputs": [
        {
          "internalType": "bool",
          "name": "",
          "type": "bool"
        }
      ],
      "stateMutability": "view",
      "type": "function"
    }
  ],
  "transactionHash": "0x50f56f44c959705fe486b7705a8cf3c0040cf29beafdb88238d67c6c18eae6b4",
  "args": [],
  "numDeployments": 1,
  "solcInputHash": "ae210064203e836f7b382a4941e267e0",
  "bytecode": "0x608060405234801561001057600080fd5b50611be8806100206000396000f3fe608060405234801561001057600080fd5b50600436106101dc5760003560e01c806391d1485411610105578063d547741f1161009d578063d547741f14610423578063deb153f214610436578063e58378bb14610449578063e63ab1e91461045e578063e861e95614610473578063edf26d9b14610486578063f6b205e5146104b0578063fc563658146104c3578063fdf4a2ea146104e457600080fd5b806391d1485414610345578063a217fddf14610358578063ac4ce2c614610360578063ad5a35e314610373578063b6db75a014610397578063b93f9b0a1461039f578063c4d66de8146103e1578063d2133c8f146103f4578063d39fa2331461040257600080fd5b8063526d81f611610178578063526d81f6146102b657806357337adb146102be5780635b51277b146102d15780635c949057146102e65780635c975abb146102f95780635f7c0e5d146103045780636b19e8c71461031757806377134cdf1461032a5780638456cb591461033d57600080fd5b806301ffc9a7146101e1578063097616a314610209578063178a99ae1461021e5780631e7213cf14610231578063248a9ca314610244578063249e2543146102755780632f2ff15d1461028857806336568abe1461029b5780633f4ba83a146102ae575b600080fd5b6101f46101ef3660046117e1565b6104f7565b60405190151581526020015b60405180910390f35b61021c6102173660046116be565b61052e565b005b61021c61022c36600461172a565b6106d6565b61021c61023f3660046116be565b610764565b61026761025236600461179a565b60009081526065602052604090206001015490565b604051908152602001610200565b61021c6102833660046116f6565b610816565b61021c6102963660046117b2565b6109fc565b61021c6102a93660046117b2565b610a21565b61021c610a9b565b61021c610ad9565b61021c6102cc3660046116be565b610ba3565b610267600080516020611b9383398151915281565b61021c6102f43660046116be565b610bd0565b60975460ff166101f4565b61021c6103123660046116be565b610c4e565b61021c610325366004611821565b610ccf565b61021c61033836600461172a565b610d5c565b61021c610de5565b6101f46103533660046117b2565b610e21565b610267600081565b61021c61036e3660046117b2565b610e4c565b6101f46103813660046116be565b6101c56020526000908152604090205460ff1681565b6101f4610f6a565b6103c96103ad36600461179a565b60009081526101c360205260409020546001600160a01b031690565b6040516001600160a01b039091168152602001610200565b61021c6103ef3660046116be565b610f89565b6101c6546101f49060ff1681565b61026761041036600461179a565b6101c46020526000908152604090205481565b61021c6104313660046117b2565b61109f565b61021c6104443660046116be565b6110c4565b610267600080516020611b5383398151915281565b610267600080516020611b7383398151915281565b61021c6104813660046116be565b6110f1565b6103c961049436600461179a565b6101c3602052600090815260409020546001600160a01b031681565b61021c6104be3660046116be565b61111e565b6102676104d136600461179a565b60009081526101c4602052604090205490565b61021c6104f23660046116be565b61114b565b60006001600160e01b03198216637965db0b60e01b148061052857506301ffc9a760e01b6001600160e01b03198316145b92915050565b600054610100900460ff161580801561054e5750600054600160ff909116105b806105685750303b158015610568575060005460ff166001145b61058d5760405162461bcd60e51b81526004016105849061195b565b60405180910390fd5b6000805460ff1916600117905580156105b0576000805461ff0019166101001790555b6001600160a01b0382166106065760405162461bcd60e51b815260206004820181905260248201527f4f776e65722063616e6e6f7420626520746865207a65726f20616464726573736044820152606401610584565b61060e611178565b61061661119f565b61061e6111d2565b610636600080516020611b5383398151915283611200565b61064e600080516020611b7383398151915283611200565b610674600080516020611b73833981519152600080516020611b5383398151915261120a565b61068c600080516020611b538339815191528061120a565b80156106d2576000805461ff0019169055604051600181527f7f26b83ff96e1f2b6a682f133852f6798a09c465da95921460cefb38474024989060200160405180910390a15b5050565b6106ee600080516020611b9383398151915233610e21565b61070a5760405162461bcd60e51b8152600401610584906119a9565b60005b8181101561075f5761074d83838381811061073857634e487b7160e01b600052603260045260246000fd5b905060200201602081019061031291906116be565b8061075781611b0c565b91505061070d565b505050565b61076c610f6a565b6107885760405162461bcd60e51b815260040161058490611a43565b600060015b60008181526101c36020526040908190205490519192507faebfad0d8db62d5b2e540f64d7c2be34ded04171b48ed6655286c392a879bf6c916107df91339185916001600160a01b03169087906118b1565b60405180910390a160009081526101c36020526040902080546001600160a01b0319166001600160a01b0392909216919091179055565b61081e610f6a565b61083a5760405162461bcd60e51b815260040161058490611a43565b6101c65460ff161561088e5760405162461bcd60e51b815260206004820152601a60248201527f416c726561647920696e697469616c697a65642076616c7565730000000000006044820152606401610584565b8260005b8381101561092c57604051631f8ac6cb60e31b81526004810182905261091a9082906001600160a01b0385169063fc56365890602401602060405180830381600087803b1580156108e257600080fd5b505af11580156108f6573d6000803e3d6000fd5b505050506040513d601f19601f820116820180604052508101906103259190611809565b8061092481611b0c565b915050610892565b5060005b828110156109e75760008181526101c360205260409020546001600160a01b03166109d557604051635c9fcd8560e11b8152600481018290526109d59082906001600160a01b0385169063b93f9b0a90602401602060405180830381600087803b15801561099d57600080fd5b505af11580156109b1573d6000803e3d6000fd5b505050506040513d601f19601f8201168201806040525081019061036e91906116da565b806109df81611b0c565b915050610930565b50506101c6805460ff19166001179055505050565b600082815260656020526040902060010154610a1781611255565b61075f838361125f565b6001600160a01b0381163314610a915760405162461bcd60e51b815260206004820152602f60248201527f416363657373436f6e74726f6c3a2063616e206f6e6c792072656e6f756e636560448201526e103937b632b9903337b91039b2b63360891b6064820152608401610584565b6106d282826112e5565b610ab3600080516020611b7383398151915233610e21565b610acf5760405162461bcd60e51b81526004016105849061190f565b610ad761134c565b565b600054610100900460ff1615808015610af95750600054600160ff909116105b80610b135750303b158015610b13575060005460ff166001145b610b2f5760405162461bcd60e51b81526004016105849061195b565b6000805460ff191660011790558015610b52576000805461ff0019166101001790555b610b5a61119f565b8015610ba0576000805461ff0019169055604051600181527f7f26b83ff96e1f2b6a682f133852f6798a09c465da95921460cefb38474024989060200160405180910390a15b50565b610bab610f6a565b610bc75760405162461bcd60e51b815260040161058490611a43565b6000600661078d565b610be8600080516020611b9383398151915233610e21565b610c045760405162461bcd60e51b8152600401610584906119a9565b6001600160a01b03811660008181526101c56020526040808220805460ff19169055517f8975df3325e4d0a8fdefaff900160c197e34acf82b6db814c02509bdf218cf609190a250565b610c66600080516020611b9383398151915233610e21565b610c825760405162461bcd60e51b8152600401610584906119a9565b6001600160a01b03811660008181526101c56020526040808220805460ff19166001179055517f6ea07fa01118ee7113c6c1f1cfc6778df228949052175f938d8154739d5e897c9190a250565b610cd7610f6a565b610cf35760405162461bcd60e51b815260040161058490611a43565b60008281526101c46020908152604091829020548251338152918201859052818301526060810183905290517f6b54a1d7321bc1699c15f7f585030864b02ca971590f31de4acbb60eff0758c09181900360800190a160009182526101c4602052604090912055565b610d74600080516020611b9383398151915233610e21565b610d905760405162461bcd60e51b8152600401610584906119a9565b60005b8181101561075f57610dd3838383818110610dbe57634e487b7160e01b600052603260045260246000fd5b90506020020160208101906102f491906116be565b80610ddd81611b0c565b915050610d93565b610dfd600080516020611b7383398151915233610e21565b610e195760405162461bcd60e51b81526004016105849061190f565b610ad761139e565b60009182526065602090815260408084206001600160a01b0393909316845291905290205460ff1690565b610e54610f6a565b610e705760405162461bcd60e51b815260040161058490611a43565b60008281526101c360205260409020546001600160a01b031615610ee25760405162461bcd60e51b8152602060048201526024808201527f416464726573732068617320616c7265616479206265656e20696e697469616c6044820152631a5e995960e21b6064820152608401610584565b60008281526101c36020526040908190205490517faebfad0d8db62d5b2e540f64d7c2be34ded04171b48ed6655286c392a879bf6c91610f3391339186916001600160a01b039091169086906118b1565b60405180910390a160009182526101c3602052604090912080546001600160a01b0319166001600160a01b03909216919091179055565b6000610f84600080516020611b5383398151915233610e21565b905090565b600054610100900460ff1615808015610fa95750600054600160ff909116105b80610fc35750303b158015610fc3575060005460ff166001145b610fdf5760405162461bcd60e51b81526004016105849061195b565b6000805460ff191660011790558015611002576000805461ff0019166101001790555b6001600160a01b0382166110585760405162461bcd60e51b815260206004820152601d60248201527f4f776e657220616464726573732063616e6e6f7420626520656d7074790000006044820152606401610584565b6110618261052e565b611079600080516020611b9383398151915283611200565b61068c600080516020611b93833981519152600080516020611b5383398151915261120a565b6000828152606560205260409020600101546110ba81611255565b61075f83836112e5565b6110cc610f6a565b6110e85760405162461bcd60e51b815260040161058490611a43565b6000600b61078d565b6110f9610f6a565b6111155760405162461bcd60e51b815260040161058490611a43565b6000601161078d565b611126610f6a565b6111425760405162461bcd60e51b815260040161058490611a43565b6000600f61078d565b611153610f6a565b61116f5760405162461bcd60e51b815260040161058490611a43565b6000600d61078d565b600054610100900460ff16610ad75760405162461bcd60e51b8152600401610584906119f8565b600054610100900460ff166111c65760405162461bcd60e51b8152600401610584906119f8565b6097805460ff19169055565b600054610100900460ff166111f95760405162461bcd60e51b8152600401610584906119f8565b600160c955565b6106d2828261125f565b600082815260656020526040808220600101805490849055905190918391839186917fbd79b86ffe0ab8e8776151514217cd7cacd52c909f66475c3af44e129f0b00ff9190a4505050565b610ba081336113db565b6112698282610e21565b6106d25760008281526065602090815260408083206001600160a01b03851684529091529020805460ff191660011790556112a13390565b6001600160a01b0316816001600160a01b0316837f2f8788117e7eff1d82e926ec794901d17c78024a50270940304540a733656f0d60405160405180910390a45050565b6112ef8282610e21565b156106d25760008281526065602090815260408083206001600160a01b0385168085529252808320805460ff1916905551339285917ff6391f5c32d9c69d2a47ea670b442974b53935d1edc7fd64eb21e047a839171b9190a45050565b611354611434565b6097805460ff191690557f5db9ee0a495bf2e6ff9c91a7834c1ba4fdd244a5e8aa4e537bd38aeae4b073aa335b6040516001600160a01b03909116815260200160405180910390a1565b6113a661147d565b6097805460ff191660011790557f62e78cea01bee320cd4e420270b5ea74000d11b0c9f74754ebdbfc544b05a2586113813390565b6113e58282610e21565b6106d2576113f2816114c3565b6113fd8360206114d5565b60405160200161140e929190611842565b60408051601f198184030181529082905262461bcd60e51b8252610584916004016118dc565b60975460ff16610ad75760405162461bcd60e51b815260206004820152601460248201527314185d5cd8589b194e881b9bdd081c185d5cd95960621b6044820152606401610584565b60975460ff1615610ad75760405162461bcd60e51b815260206004820152601060248201526f14185d5cd8589b194e881c185d5cd95960821b6044820152606401610584565b60606105286001600160a01b03831660145b606060006114e4836002611aa6565b6114ef906002611a8e565b67ffffffffffffffff81111561151557634e487b7160e01b600052604160045260246000fd5b6040519080825280601f01601f19166020018201604052801561153f576020820181803683370190505b509050600360fc1b8160008151811061156857634e487b7160e01b600052603260045260246000fd5b60200101906001600160f81b031916908160001a905350600f60fb1b816001815181106115a557634e487b7160e01b600052603260045260246000fd5b60200101906001600160f81b031916908160001a90535060006115c9846002611aa6565b6115d4906001611a8e565b90505b6001811115611668576f181899199a1a9b1b9c1cb0b131b232b360811b85600f166010811061161657634e487b7160e01b600052603260045260246000fd5b1a60f81b82828151811061163a57634e487b7160e01b600052603260045260246000fd5b60200101906001600160f81b031916908160001a90535060049490941c9361166181611af5565b90506115d7565b5083156116b75760405162461bcd60e51b815260206004820181905260248201527f537472696e67733a20686578206c656e67746820696e73756666696369656e746044820152606401610584565b9392505050565b6000602082840312156116cf578081fd5b81356116b781611b3d565b6000602082840312156116eb578081fd5b81516116b781611b3d565b60008060006060848603121561170a578182fd5b833561171581611b3d565b95602085013595506040909401359392505050565b6000806020838503121561173c578182fd5b823567ffffffffffffffff80821115611753578384fd5b818501915085601f830112611766578384fd5b813581811115611774578485fd5b8660208260051b8501011115611788578485fd5b60209290920196919550909350505050565b6000602082840312156117ab578081fd5b5035919050565b600080604083850312156117c4578182fd5b8235915060208301356117d681611b3d565b809150509250929050565b6000602082840312156117f2578081fd5b81356001600160e01b0319811681146116b7578182fd5b60006020828403121561181a578081fd5b5051919050565b60008060408385031215611833578182fd5b50508035926020909101359150565b76020b1b1b2b9b9a1b7b73a3937b61d1030b1b1b7bab73a1604d1b815260008351611874816017850160208801611ac5565b7001034b99036b4b9b9b4b733903937b6329607d1b60179184019182015283516118a5816028840160208801611ac5565b01602801949350505050565b6001600160a01b03948516815260208101939093529083166040830152909116606082015260800190565b60208152600082518060208401526118fb816040850160208701611ac5565b601f01601f19169190910160400192915050565b6020808252602c908201527f4d75737420686176652070617573657220726f6c6520746f20706572666f726d60408201526b103a3434b99030b1ba34b7b760a11b606082015260800190565b6020808252602e908201527f496e697469616c697a61626c653a20636f6e747261637420697320616c72656160408201526d191e481a5b9a5d1a585b1a5e995960921b606082015260800190565b6020808252602f908201527f4d757374206861766520676f2d6c697374657220726f6c6520746f207065726660408201526e37b936903a3434b99030b1ba34b7b760891b606082015260800190565b6020808252602b908201527f496e697469616c697a61626c653a20636f6e7472616374206973206e6f74206960408201526a6e697469616c697a696e6760a81b606082015260800190565b6020808252602b908201527f4d75737420686176652061646d696e20726f6c6520746f20706572666f726d2060408201526a3a3434b99030b1ba34b7b760a91b606082015260800190565b60008219821115611aa157611aa1611b27565b500190565b6000816000190483118215151615611ac057611ac0611b27565b500290565b60005b83811015611ae0578181015183820152602001611ac8565b83811115611aef576000848401525b50505050565b600081611b0457611b04611b27565b506000190190565b6000600019821415611b2057611b20611b27565b5060010190565b634e487b7160e01b600052601160045260246000fd5b6001600160a01b0381168114610ba057600080fdfeb19546dff01e856fb3f010c267a7b1c60363cf8a4664e21cc89c26224620214e65d7a28e3265b37a6474929f336521b332c1681b933f6cb9f3376673440d862a4261c544cc1a84a4828404bd710bd4900df04736488a0f1af6a07d8ba25ece98a26469706673582212207849671487a268499ca5041dddc016ea304fd99623c0ba997a9aecab63b74afb64736f6c63430008040033",
  "devdoc": {
    "author": "Doberman",
    "kind": "dev",
    "methods": {
      "addToGoList(address)": {
        "details": "Adds a user to go-list",
        "params": {
          "_member": "address to add to go-list"
        }
      },
      "bulkAddToGoList(address[])": {
        "details": "adds many users to go-list at once",
        "params": {
          "_members": "addresses to ad to go-list"
        }
      },
      "bulkRemoveFromGoList(address[])": {
        "details": "removes many users from go-list at once",
        "params": {
          "_members": "addresses to remove from go-list"
        }
      },
      "getRoleAdmin(bytes32)": {
        "details": "Returns the admin role that controls `role`. See {grantRole} and {revokeRole}. To change a role's admin, use {_setRoleAdmin}."
      },
      "grantRole(bytes32,address)": {
        "details": "Grants `role` to `account`. If `account` had not been already granted `role`, emits a {RoleGranted} event. Requirements: - the caller must have ``role``'s admin role. May emit a {RoleGranted} event."
      },
      "hasRole(bytes32,address)": {
        "details": "Returns `true` if `account` has been granted `role`."
      },
      "pause()": {
        "details": "Pauses all functions guarded by Pause See {Pausable-_pause}. Requirements: - the caller must have the PAUSER_ROLE."
      },
      "paused()": {
        "details": "Returns true if the contract is paused, and false otherwise."
      },
      "removeFromGoList(address)": {
        "details": "removes a user from go-list",
        "params": {
          "_member": "address to remove from go-list"
        }
      },
      "renounceRole(bytes32,address)": {
        "details": "Revokes `role` from the calling account. Roles are often managed via {grantRole} and {revokeRole}: this function's purpose is to provide a mechanism for accounts to lose their privileges if they are compromised (such as when a trusted device is misplaced). If the calling account had been revoked `role`, emits a {RoleRevoked} event. Requirements: - the caller must be `account`. May emit a {RoleRevoked} event."
      },
      "revokeRole(bytes32,address)": {
        "details": "Revokes `role` from `account`. If `account` had been granted `role`, emits a {RoleRevoked} event. Requirements: - the caller must have ``role``'s admin role. May emit a {RoleRevoked} event."
      },
      "supportsInterface(bytes4)": {
        "details": "See {IERC165-supportsInterface}."
      },
      "unpause()": {
        "details": "Unpauses the contract See {Pausable-_unpause}. Requirements: - the caller must have the Pauser role"
      }
    },
    "title": "DobermanConfig",
    "version": 1
  },
  "userdoc": {
    "kind": "user",
    "methods": {},
    "notice": "This contract stores mappings of useful \"protocol config state\", giving a central place  for all other contracts to access it. For example, the TransactionLimit, or the PoolAddress. These config vars  are enumerated in the `ConfigOptions` library, and can only be changed by admins of the protocol.  Note: While this inherits from BaseUpgradeablePausable, it is not deployed as an upgradeable contract (this    is mostly to save gas costs of having each call go through a proxy)",
    "version": 1
  },
  "storageLayout": {
    "storage": [
      {
        "astId": 588,
        "contract": "contracts/protocol/core/DobermanConfig.sol:DobermanConfig",
        "label": "_initialized",
        "offset": 0,
        "slot": "0",
        "type": "t_uint8"
      },
      {
        "astId": 591,
        "contract": "contracts/protocol/core/DobermanConfig.sol:DobermanConfig",
        "label": "_initializing",
        "offset": 1,
        "slot": "0",
        "type": "t_bool"
      },
      {
        "astId": 4964,
        "contract": "contracts/protocol/core/DobermanConfig.sol:DobermanConfig",
        "label": "__gap",
        "offset": 0,
        "slot": "1",
        "type": "t_array(t_uint256)50_storage"
      },
      {
        "astId": 5544,
        "contract": "contracts/protocol/core/DobermanConfig.sol:DobermanConfig",
        "label": "__gap",
        "offset": 0,
        "slot": "51",
        "type": "t_array(t_uint256)50_storage"
      },
      {
        "astId": 184,
        "contract": "contracts/protocol/core/DobermanConfig.sol:DobermanConfig",
        "label": "_roles",
        "offset": 0,
        "slot": "101",
        "type": "t_mapping(t_bytes32,t_struct(RoleData)179_storage)"
      },
      {
        "astId": 479,
        "contract": "contracts/protocol/core/DobermanConfig.sol:DobermanConfig",
        "label": "__gap",
        "offset": 0,
        "slot": "102",
        "type": "t_array(t_uint256)49_storage"
      },
      {
        "astId": 771,
        "contract": "contracts/protocol/core/DobermanConfig.sol:DobermanConfig",
        "label": "_paused",
        "offset": 0,
        "slot": "151",
        "type": "t_bool"
      },
      {
        "astId": 876,
        "contract": "contracts/protocol/core/DobermanConfig.sol:DobermanConfig",
        "label": "__gap",
        "offset": 0,
        "slot": "152",
        "type": "t_array(t_uint256)49_storage"
      },
      {
        "astId": 891,
        "contract": "contracts/protocol/core/DobermanConfig.sol:DobermanConfig",
        "label": "_status",
        "offset": 0,
        "slot": "201",
        "type": "t_uint256"
      },
      {
        "astId": 949,
        "contract": "contracts/protocol/core/DobermanConfig.sol:DobermanConfig",
        "label": "__gap",
        "offset": 0,
        "slot": "202",
        "type": "t_array(t_uint256)49_storage"
      },
      {
        "astId": 15949,
        "contract": "contracts/protocol/core/DobermanConfig.sol:DobermanConfig",
        "label": "__gap1",
        "offset": 0,
        "slot": "251",
        "type": "t_array(t_uint256)50_storage"
      },
      {
        "astId": 15953,
        "contract": "contracts/protocol/core/DobermanConfig.sol:DobermanConfig",
        "label": "__gap2",
        "offset": 0,
        "slot": "301",
        "type": "t_array(t_uint256)50_storage"
      },
      {
        "astId": 15957,
        "contract": "contracts/protocol/core/DobermanConfig.sol:DobermanConfig",
        "label": "__gap3",
        "offset": 0,
        "slot": "351",
        "type": "t_array(t_uint256)50_storage"
      },
      {
        "astId": 15961,
        "contract": "contracts/protocol/core/DobermanConfig.sol:DobermanConfig",
        "label": "__gap4",
        "offset": 0,
        "slot": "401",
        "type": "t_array(t_uint256)50_storage"
      },
      {
        "astId": 19456,
        "contract": "contracts/protocol/core/DobermanConfig.sol:DobermanConfig",
        "label": "addresses",
        "offset": 0,
        "slot": "451",
        "type": "t_mapping(t_uint256,t_address)"
      },
      {
        "astId": 19460,
        "contract": "contracts/protocol/core/DobermanConfig.sol:DobermanConfig",
        "label": "numbers",
        "offset": 0,
        "slot": "452",
        "type": "t_mapping(t_uint256,t_uint256)"
      },
      {
        "astId": 19464,
        "contract": "contracts/protocol/core/DobermanConfig.sol:DobermanConfig",
        "label": "goList",
        "offset": 0,
        "slot": "453",
        "type": "t_mapping(t_address,t_bool)"
      },
      {
        "astId": 19494,
        "contract": "contracts/protocol/core/DobermanConfig.sol:DobermanConfig",
        "label": "valuesInitialized",
        "offset": 0,
        "slot": "454",
        "type": "t_bool"
      }
    ],
    "types": {
      "t_address": {
        "encoding": "inplace",
        "label": "address",
        "numberOfBytes": "20"
      },
      "t_array(t_uint256)49_storage": {
        "base": "t_uint256",
        "encoding": "inplace",
        "label": "uint256[49]",
        "numberOfBytes": "1568"
      },
      "t_array(t_uint256)50_storage": {
        "base": "t_uint256",
        "encoding": "inplace",
        "label": "uint256[50]",
        "numberOfBytes": "1600"
      },
      "t_bool": {
        "encoding": "inplace",
        "label": "bool",
        "numberOfBytes": "1"
      },
      "t_bytes32": {
        "encoding": "inplace",
        "label": "bytes32",
        "numberOfBytes": "32"
      },
      "t_mapping(t_address,t_bool)": {
        "encoding": "mapping",
        "key": "t_address",
        "label": "mapping(address => bool)",
        "numberOfBytes": "32",
        "value": "t_bool"
      },
      "t_mapping(t_bytes32,t_struct(RoleData)179_storage)": {
        "encoding": "mapping",
        "key": "t_bytes32",
        "label": "mapping(bytes32 => struct AccessControlUpgradeable.RoleData)",
        "numberOfBytes": "32",
        "value": "t_struct(RoleData)179_storage"
      },
      "t_mapping(t_uint256,t_address)": {
        "encoding": "mapping",
        "key": "t_uint256",
        "label": "mapping(uint256 => address)",
        "numberOfBytes": "32",
        "value": "t_address"
      },
      "t_mapping(t_uint256,t_uint256)": {
        "encoding": "mapping",
        "key": "t_uint256",
        "label": "mapping(uint256 => uint256)",
        "numberOfBytes": "32",
        "value": "t_uint256"
      },
      "t_struct(RoleData)179_storage": {
        "encoding": "inplace",
        "label": "struct AccessControlUpgradeable.RoleData",
        "members": [
          {
            "astId": 176,
            "contract": "contracts/protocol/core/DobermanConfig.sol:DobermanConfig",
            "label": "members",
            "offset": 0,
            "slot": "0",
            "type": "t_mapping(t_address,t_bool)"
          },
          {
            "astId": 178,
            "contract": "contracts/protocol/core/DobermanConfig.sol:DobermanConfig",
            "label": "adminRole",
            "offset": 0,
            "slot": "1",
            "type": "t_bytes32"
          }
        ],
        "numberOfBytes": "64"
      },
      "t_uint256": {
        "encoding": "inplace",
        "label": "uint256",
        "numberOfBytes": "32"
      },
      "t_uint8": {
        "encoding": "inplace",
        "label": "uint8",
        "numberOfBytes": "1"
      }
    }
  }
}