{
  "address": "0x14e19Cb8B8bb818d341194081eCdc7c0b20bf42b",
  "abi": [
    {
      "anonymous": false,
      "inputs": [
        {
          "indexed": true,
          "internalType": "address",
          "name": "who",
          "type": "address"
        },
        {
          "indexed": false,
          "internalType": "address",
          "name": "configAddress",
          "type": "address"
        }
      ],
      "name": "DobermanConfigUpdated",
      "type": "event"
    },
    {
      "anonymous": false,
      "inputs": [
        {
          "indexed": false,
          "internalType": "uint8",
          "name": "version",
          "type": "uint8"
        }
      ],
      "name": "Initialized",
      "type": "event"
    },
    {
      "anonymous": false,
      "inputs": [
        {
          "indexed": false,
          "internalType": "address",
          "name": "account",
          "type": "address"
        }
      ],
      "name": "Paused",
      "type": "event"
    },
    {
      "anonymous": false,
      "inputs": [
        {
          "indexed": true,
          "internalType": "bytes32",
          "name": "role",
          "type": "bytes32"
        },
        {
          "indexed": true,
          "internalType": "bytes32",
          "name": "previousAdminRole",
          "type": "bytes32"
        },
        {
          "indexed": true,
          "internalType": "bytes32",
          "name": "newAdminRole",
          "type": "bytes32"
        }
      ],
      "name": "RoleAdminChanged",
      "type": "event"
    },
    {
      "anonymous": false,
      "inputs": [
        {
          "indexed": true,
          "internalType": "bytes32",
          "name": "role",
          "type": "bytes32"
        },
        {
          "indexed": true,
          "internalType": "address",
          "name": "account",
          "type": "address"
        },
        {
          "indexed": true,
          "internalType": "address",
          "name": "sender",
          "type": "address"
        }
      ],
      "name": "RoleGranted",
      "type": "event"
    },
    {
      "anonymous": false,
      "inputs": [
        {
          "indexed": true,
          "internalType": "bytes32",
          "name": "role",
          "type": "bytes32"
        },
        {
          "indexed": true,
          "internalType": "address",
          "name": "account",
          "type": "address"
        },
        {
          "indexed": true,
          "internalType": "address",
          "name": "sender",
          "type": "address"
        }
      ],
      "name": "RoleRevoked",
      "type": "event"
    },
    {
      "anonymous": false,
      "inputs": [
        {
          "indexed": false,
          "internalType": "address",
          "name": "account",
          "type": "address"
        }
      ],
      "name": "Unpaused",
      "type": "event"
    },
    {
      "inputs": [],
      "name": "DEFAULT_ADMIN_ROLE",
      "outputs": [
        {
          "internalType": "bytes32",
          "name": "",
          "type": "bytes32"
        }
      ],
      "stateMutability": "view",
      "type": "function"
    },
    {
      "inputs": [],
      "name": "OWNER_ROLE",
      "outputs": [
        {
          "internalType": "bytes32",
          "name": "",
          "type": "bytes32"
        }
      ],
      "stateMutability": "view",
      "type": "function"
    },
    {
      "inputs": [],
      "name": "PAUSER_ROLE",
      "outputs": [
        {
          "internalType": "bytes32",
          "name": "",
          "type": "bytes32"
        }
      ],
      "stateMutability": "view",
      "type": "function"
    },
    {
      "inputs": [
        {
          "internalType": "address",
          "name": "owner",
          "type": "address"
        }
      ],
      "name": "__BaseUpgradeablePausable__init",
      "outputs": [],
      "stateMutability": "nonpayable",
      "type": "function"
    },
    {
      "inputs": [],
      "name": "__PauserPausable__init",
      "outputs": [],
      "stateMutability": "nonpayable",
      "type": "function"
    },
    {
      "inputs": [],
      "name": "config",
      "outputs": [
        {
          "internalType": "contract DobermanConfig",
          "name": "",
          "type": "address"
        }
      ],
      "stateMutability": "view",
      "type": "function"
    },
    {
      "inputs": [
        {
          "internalType": "contract ISeniorPool",
          "name": "seniorPool",
          "type": "address"
        },
        {
          "internalType": "contract ITranchedPool",
          "name": "pool",
          "type": "address"
        }
      ],
      "name": "estimateInvestment",
      "outputs": [
        {
          "internalType": "uint256",
          "name": "",
          "type": "uint256"
        }
      ],
      "stateMutability": "view",
      "type": "function"
    },
    {
      "inputs": [
        {
          "internalType": "contract ITranchedPool",
          "name": "pool",
          "type": "address"
        }
      ],
      "name": "getLeverageRatio",
      "outputs": [
        {
          "internalType": "uint256",
          "name": "",
          "type": "uint256"
        }
      ],
      "stateMutability": "view",
      "type": "function"
    },
    {
      "inputs": [
        {
          "internalType": "bytes32",
          "name": "role",
          "type": "bytes32"
        }
      ],
      "name": "getRoleAdmin",
      "outputs": [
        {
          "internalType": "bytes32",
          "name": "",
          "type": "bytes32"
        }
      ],
      "stateMutability": "view",
      "type": "function"
    },
    {
      "inputs": [
        {
          "internalType": "bytes32",
          "name": "role",
          "type": "bytes32"
        },
        {
          "internalType": "address",
          "name": "account",
          "type": "address"
        }
      ],
      "name": "grantRole",
      "outputs": [],
      "stateMutability": "nonpayable",
      "type": "function"
    },
    {
      "inputs": [
        {
          "internalType": "bytes32",
          "name": "role",
          "type": "bytes32"
        },
        {
          "internalType": "address",
          "name": "account",
          "type": "address"
        }
      ],
      "name": "hasRole",
      "outputs": [
        {
          "internalType": "bool",
          "name": "",
          "type": "bool"
        }
      ],
      "stateMutability": "view",
      "type": "function"
    },
    {
      "inputs": [
        {
          "internalType": "address",
          "name": "owner",
          "type": "address"
        },
        {
          "internalType": "contract DobermanConfig",
          "name": "_config",
          "type": "address"
        }
      ],
      "name": "initialize",
      "outputs": [],
      "stateMutability": "nonpayable",
      "type": "function"
    },
    {
      "inputs": [
        {
          "internalType": "contract ISeniorPool",
          "name": "seniorPool",
          "type": "address"
        },
        {
          "internalType": "contract ITranchedPool",
          "name": "pool",
          "type": "address"
        }
      ],
      "name": "invest",
      "outputs": [
        {
          "internalType": "uint256",
          "name": "",
          "type": "uint256"
        }
      ],
      "stateMutability": "view",
      "type": "function"
    },
    {
      "inputs": [],
      "name": "isAdmin",
      "outputs": [
        {
          "internalType": "bool",
          "name": "",
          "type": "bool"
        }
      ],
      "stateMutability": "view",
      "type": "function"
    },
    {
      "inputs": [],
      "name": "pause",
      "outputs": [],
      "stateMutability": "nonpayable",
      "type": "function"
    },
    {
      "inputs": [],
      "name": "paused",
      "outputs": [
        {
          "internalType": "bool",
          "name": "",
          "type": "bool"
        }
      ],
      "stateMutability": "view",
      "type": "function"
    },
    {
      "inputs": [
        {
          "internalType": "bytes32",
          "name": "role",
          "type": "bytes32"
        },
        {
          "internalType": "address",
          "name": "account",
          "type": "address"
        }
      ],
      "name": "renounceRole",
      "outputs": [],
      "stateMutability": "nonpayable",
      "type": "function"
    },
    {
      "inputs": [
        {
          "internalType": "bytes32",
          "name": "role",
          "type": "bytes32"
        },
        {
          "internalType": "address",
          "name": "account",
          "type": "address"
        }
      ],
      "name": "revokeRole",
      "outputs": [],
      "stateMutability": "nonpayable",
      "type": "function"
    },
    {
      "inputs": [
        {
          "internalType": "bytes4",
          "name": "interfaceId",
          "type": "bytes4"
        }
      ],
      "name": "supportsInterface",
      "outputs": [
        {
          "internalType": "bool",
          "name": "",
          "type": "bool"
        }
      ],
      "stateMutability": "view",
      "type": "function"
    },
    {
      "inputs": [],
      "name": "unpause",
      "outputs": [],
      "stateMutability": "nonpayable",
      "type": "function"
    },
    {
      "inputs": [],
      "name": "updateDobermanConfig",
      "outputs": [],
      "stateMutability": "nonpayable",
      "type": "function"
    }
  ],
  "transactionHash": "0x106f4abfb38a502921418773b03b2eff3cfcbf7115c050e5770bb1e35aa134f4",
  "args": [],
  "numDeployments": 1,
  "solcInputHash": "b5fe4b7f0c985986b856d2f53b22a42b",
  "bytecode": "0x608060405234801561001057600080fd5b5061161e806100206000396000f3fe608060405234801561001057600080fd5b50600436106101375760003560e01c806379502c55116100b8578063b8dbc2131161007c578063b8dbc2131461025d578063d30a091114610270578063d547741f14610278578063e58378bb1461028b578063e63ab1e9146102a0578063ff8a4efe146102b557600080fd5b806379502c55146102115780638456cb591461023257806391d148541461023a578063a217fddf1461024d578063b6db75a01461025557600080fd5b806336568abe116100ff57806336568abe146101d05780633f4ba83a146101e3578063485cc955146101eb578063526d81f6146101fe5780635c975abb1461020657600080fd5b806301ffc9a71461013c578063097616a3146101645780631f999a2d14610179578063248a9ca31461019a5780632f2ff15d146101bd575b600080fd5b61014f61014a366004611260565b6102c8565b60405190151581526020015b60405180910390f35b6101776101723660046111b4565b6102ff565b005b61018c610187366004611288565b61040e565b60405190815260200161015b565b61018c6101a8366004611224565b60009081526065602052604090206001015490565b6101776101cb36600461123c565b61051f565b6101776101de36600461123c565b610549565b6101776105c7565b6101776101f93660046111ec565b610605565b61017761076c565b60975460ff1661014f565b6101c354610225906001600160a01b031681565b60405161015b919061139c565b610177610835565b61014f61024836600461123c565b610871565b61018c600081565b61014f61089c565b61018c61026b3660046111b4565b6108bb565b6101776108d4565b61017761028636600461123c565b6109ad565b61018c6000805160206115a983398151915281565b61018c6000805160206115c983398151915281565b61018c6102c3366004611288565b6109d2565b60006001600160e01b03198216637965db0b60e01b14806102f957506301ffc9a760e01b6001600160e01b03198316145b92915050565b600054610100900460ff1661032f5760405162461bcd60e51b81526004016103269061147d565b60405180910390fd5b6001600160a01b0381166103855760405162461bcd60e51b815260206004820181905260248201527f4f776e65722063616e6e6f7420626520746865207a65726f20616464726573736044820152606401610326565b61038d610b01565b610395610b28565b61039d610b5b565b6103b56000805160206115a983398151915282610b89565b6103cd6000805160206115c983398151915282610b89565b6103f36000805160206115c98339815191526000805160206115a9833981519152610b93565b61040b6000805160206115a983398151915280610b93565b50565b60405163d972e8ad60e01b81526002600482015260009081906001600160a01b0384169063d972e8ad9060240160a06040518083038186803b15801561045357600080fd5b505afa158015610467573d6000803e3d6000fd5b505050506040513d601f19601f8201168201806040525081019061048b919061129a565b60405163d972e8ad60e01b8152600160048201529091506000906001600160a01b0385169063d972e8ad9060240160a06040518083038186803b1580156104d157600080fd5b505afa1580156104e5573d6000803e3d6000fd5b505050506040513d601f19601f82011682018060405250810190610509919061129a565b9050610516848383610bde565b95945050505050565b60008281526065602052604090206001015461053a81610c3e565b6105448383610c48565b505050565b6001600160a01b03811633146105b95760405162461bcd60e51b815260206004820152602f60248201527f416363657373436f6e74726f6c3a2063616e206f6e6c792072656e6f756e636560448201526e103937b632b9903337b91039b2b63360891b6064820152608401610326565b6105c38282610cce565b5050565b6105df6000805160206115c983398151915233610871565b6105fb5760405162461bcd60e51b8152600401610326906113e3565b610603610d35565b565b600054610100900460ff16158080156106255750600054600160ff909116105b8061063f5750303b15801561063f575060005460ff166001145b61065b5760405162461bcd60e51b81526004016103269061142f565b6000805460ff19166001179055801561067e576000805461ff0019166101001790555b6001600160a01b0383161580159061069e57506001600160a01b03821615155b6106fd5760405162461bcd60e51b815260206004820152602a60248201527f4f776e657220616e6420636f6e666967206164647265737365732063616e6e6f6044820152697420626520656d70747960b01b6064820152608401610326565b610706836102ff565b6101c380546001600160a01b0319166001600160a01b0384161790558015610544576000805461ff0019169055604051600181527f7f26b83ff96e1f2b6a682f133852f6798a09c465da95921460cefb38474024989060200160405180910390a1505050565b600054610100900460ff161580801561078c5750600054600160ff909116105b806107a65750303b1580156107a6575060005460ff166001145b6107c25760405162461bcd60e51b81526004016103269061142f565b6000805460ff1916600117905580156107e5576000805461ff0019166101001790555b6107ed610b28565b801561040b576000805461ff0019169055604051600181527f7f26b83ff96e1f2b6a682f133852f6798a09c465da95921460cefb38474024989060200160405180910390a150565b61084d6000805160206115c983398151915233610871565b6108695760405162461bcd60e51b8152600401610326906113e3565b610603610d81565b60009182526065602090815260408084206001600160a01b0393909316845291905290205460ff1690565b60006108b66000805160206115a983398151915233610871565b905090565b6101c3546000906102f9906001600160a01b0316610dbe565b6108dc61089c565b61093c5760405162461bcd60e51b815260206004820152602b60248201527f4d75737420686176652061646d696e20726f6c6520746f20706572666f726d2060448201526a3a3434b99030b1ba34b7b760a91b6064820152608401610326565b6101c354610952906001600160a01b0316610e39565b6101c380546001600160a01b0319166001600160a01b0392909216918217905560405133917f8d003bc2e3965bd9d92389a8ae0ef8c601fa211ba9378150dde7dc3cf38c3a36916109a3919061139c565b60405180910390a2565b6000828152606560205260409020600101546109c881610c3e565b6105448383610cce565b60405163d972e8ad60e01b81526002600482015260009081906001600160a01b0384169063d972e8ad9060240160a06040518083038186803b158015610a1757600080fd5b505afa158015610a2b573d6000803e3d6000fd5b505050506040513d601f19601f82011682018060405250810190610a4f919061129a565b60405163d972e8ad60e01b8152600160048201529091506000906001600160a01b0385169063d972e8ad9060240160a06040518083038186803b158015610a9557600080fd5b505afa158015610aa9573d6000803e3d6000fd5b505050506040513d601f19601f82011682018060405250810190610acd919061129a565b9050816080015160001480610ae6575060008160800151115b15610af6576000925050506102f9565b610516848383610bde565b600054610100900460ff166106035760405162461bcd60e51b81526004016103269061147d565b600054610100900460ff16610b4f5760405162461bcd60e51b81526004016103269061147d565b6097805460ff19169055565b600054610100900460ff16610b825760405162461bcd60e51b81526004016103269061147d565b600160c955565b6105c38282610c48565b600082815260656020526040808220600101805490849055905190918391839186917fbd79b86ffe0ab8e8776151514217cd7cacd52c909f66475c3af44e129f0b00ff9190a4505050565b602080830151908201516000919082610c12670de0b6b3a7640000610c0c610c058a6108bb565b8690610eb4565b90610ec0565b9050808210610c275760009350505050610c37565b610c318183610ecc565b93505050505b9392505050565b61040b8133610ed8565b610c528282610871565b6105c35760008281526065602090815260408083206001600160a01b03851684529091529020805460ff19166001179055610c8a3390565b6001600160a01b0316816001600160a01b0316837f2f8788117e7eff1d82e926ec794901d17c78024a50270940304540a733656f0d60405160405180910390a45050565b610cd88282610871565b156105c35760008281526065602090815260408083206001600160a01b0385168085529252808320805460ff1916905551339285917ff6391f5c32d9c69d2a47ea670b442974b53935d1edc7fd64eb21e047a839171b9190a45050565b610d3d610f31565b6097805460ff191690557f5db9ee0a495bf2e6ff9c91a7834c1ba4fdd244a5e8aa4e537bd38aeae4b073aa335b604051610d77919061139c565b60405180910390a1565b610d89610f7a565b6097805460ff191660011790557f62e78cea01bee320cd4e420270b5ea74000d11b0c9f74754ebdbfc544b05a258610d6a3390565b604051631f8ac6cb60e31b8152600960048201526000906001600160a01b0383169063fc5636589060240160206040518083038186803b158015610e0157600080fd5b505afa158015610e15573d6000803e3d6000fd5b505050506040513d601f19601f820116820180604052508101906102f99190611315565b604051635c9fcd8560e11b8152600b60048201526000906001600160a01b0383169063b93f9b0a9060240160206040518083038186803b158015610e7c57600080fd5b505afa158015610e90573d6000803e3d6000fd5b505050506040513d601f19601f820116820180604052508101906102f991906111d0565b6000610c378284611500565b6000610c3782846114e0565b6000610c37828461151f565b610ee28282610871565b6105c357610eef81610fc0565b610efa836020610fd2565b604051602001610f0b92919061132d565b60408051601f198184030181529082905262461bcd60e51b8252610326916004016113b0565b60975460ff166106035760405162461bcd60e51b815260206004820152601460248201527314185d5cd8589b194e881b9bdd081c185d5cd95960621b6044820152606401610326565b60975460ff16156106035760405162461bcd60e51b815260206004820152601060248201526f14185d5cd8589b194e881c185d5cd95960821b6044820152606401610326565b60606102f96001600160a01b03831660145b60606000610fe1836002611500565b610fec9060026114c8565b67ffffffffffffffff81111561101257634e487b7160e01b600052604160045260246000fd5b6040519080825280601f01601f19166020018201604052801561103c576020820181803683370190505b509050600360fc1b8160008151811061106557634e487b7160e01b600052603260045260246000fd5b60200101906001600160f81b031916908160001a905350600f60fb1b816001815181106110a257634e487b7160e01b600052603260045260246000fd5b60200101906001600160f81b031916908160001a90535060006110c6846002611500565b6110d19060016114c8565b90505b6001811115611165576f181899199a1a9b1b9c1cb0b131b232b360811b85600f166010811061111357634e487b7160e01b600052603260045260246000fd5b1a60f81b82828151811061113757634e487b7160e01b600052603260045260246000fd5b60200101906001600160f81b031916908160001a90535060049490941c9361115e81611566565b90506110d4565b508315610c375760405162461bcd60e51b815260206004820181905260248201527f537472696e67733a20686578206c656e67746820696e73756666696369656e746044820152606401610326565b6000602082840312156111c5578081fd5b8135610c3781611593565b6000602082840312156111e1578081fd5b8151610c3781611593565b600080604083850312156111fe578081fd5b823561120981611593565b9150602083013561121981611593565b809150509250929050565b600060208284031215611235578081fd5b5035919050565b6000806040838503121561124e578182fd5b82359150602083013561121981611593565b600060208284031215611271578081fd5b81356001600160e01b031981168114610c37578182fd5b600080604083850312156111fe578182fd5b600060a082840312156112ab578081fd5b60405160a0810181811067ffffffffffffffff821117156112da57634e487b7160e01b83526041600452602483fd5b806040525082518152602083015160208201526040830151604082015260608301516060820152608083015160808201528091505092915050565b600060208284031215611326578081fd5b5051919050565b76020b1b1b2b9b9a1b7b73a3937b61d1030b1b1b7bab73a1604d1b81526000835161135f816017850160208801611536565b7001034b99036b4b9b9b4b733903937b6329607d1b6017918401918201528351611390816028840160208801611536565b01602801949350505050565b6001600160a01b0391909116815260200190565b60208152600082518060208401526113cf816040850160208701611536565b601f01601f19169190910160400192915050565b6020808252602c908201527f4d75737420686176652070617573657220726f6c6520746f20706572666f726d60408201526b103a3434b99030b1ba34b7b760a11b606082015260800190565b6020808252602e908201527f496e697469616c697a61626c653a20636f6e747261637420697320616c72656160408201526d191e481a5b9a5d1a585b1a5e995960921b606082015260800190565b6020808252602b908201527f496e697469616c697a61626c653a20636f6e7472616374206973206e6f74206960408201526a6e697469616c697a696e6760a81b606082015260800190565b600082198211156114db576114db61157d565b500190565b6000826114fb57634e487b7160e01b81526012600452602481fd5b500490565b600081600019048311821515161561151a5761151a61157d565b500290565b6000828210156115315761153161157d565b500390565b60005b83811015611551578181015183820152602001611539565b83811115611560576000848401525b50505050565b6000816115755761157561157d565b506000190190565b634e487b7160e01b600052601160045260246000fd5b6001600160a01b038116811461040b57600080fdfeb19546dff01e856fb3f010c267a7b1c60363cf8a4664e21cc89c26224620214e65d7a28e3265b37a6474929f336521b332c1681b933f6cb9f3376673440d862aa2646970667358221220aa1621e5d425ad7cacc02ab42cbeb3761975c6b02f95fdd43f714b0c9408bec764736f6c63430008040033",
  "devdoc": {
    "kind": "dev",
    "methods": {
      "estimateInvestment(address,address)": {
        "params": {
          "pool": "The tranched pool to invest into (as the senior)",
          "seniorPool": "The senior pool to invest from"
        },
        "returns": {
          "_0": "The amount of money to invest into the tranched pool's senior tranche, from the senior pool"
        }
      },
      "getRoleAdmin(bytes32)": {
        "details": "Returns the admin role that controls `role`. See {grantRole} and {revokeRole}. To change a role's admin, use {_setRoleAdmin}."
      },
      "grantRole(bytes32,address)": {
        "details": "Grants `role` to `account`. If `account` had not been already granted `role`, emits a {RoleGranted} event. Requirements: - the caller must have ``role``'s admin role. May emit a {RoleGranted} event."
      },
      "hasRole(bytes32,address)": {
        "details": "Returns `true` if `account` has been granted `role`."
      },
      "invest(address,address)": {
        "params": {
          "pool": "The tranched pool to invest into (as the senior)",
          "seniorPool": "The senior pool to invest from"
        },
        "returns": {
          "_0": "The amount of money to invest into the tranched pool's senior tranche, from the senior pool"
        }
      },
      "pause()": {
        "details": "Pauses all functions guarded by Pause See {Pausable-_pause}. Requirements: - the caller must have the PAUSER_ROLE."
      },
      "paused()": {
        "details": "Returns true if the contract is paused, and false otherwise."
      },
      "renounceRole(bytes32,address)": {
        "details": "Revokes `role` from the calling account. Roles are often managed via {grantRole} and {revokeRole}: this function's purpose is to provide a mechanism for accounts to lose their privileges if they are compromised (such as when a trusted device is misplaced). If the calling account had been revoked `role`, emits a {RoleRevoked} event. Requirements: - the caller must be `account`. May emit a {RoleRevoked} event."
      },
      "revokeRole(bytes32,address)": {
        "details": "Revokes `role` from `account`. If `account` had been granted `role`, emits a {RoleRevoked} event. Requirements: - the caller must have ``role``'s admin role. May emit a {RoleRevoked} event."
      },
      "supportsInterface(bytes4)": {
        "details": "See {IERC165-supportsInterface}."
      },
      "unpause()": {
        "details": "Unpauses the contract See {Pausable-_unpause}. Requirements: - the caller must have the Pauser role"
      }
    },
    "version": 1
  },
  "userdoc": {
    "kind": "user",
    "methods": {
      "estimateInvestment(address,address)": {
        "notice": "A companion of `invest()`: determines how much would be returned by `invest()`, as the value to invest into the senior tranche, if the junior tranche were locked and the senior tranche were not locked."
      },
      "invest(address,address)": {
        "notice": "Determines how much money to invest in the senior tranche based on what is committed to the junior tranche, what is committed to the senior tranche, and a leverage ratio to the junior tranche. Because it takes into account what is already committed to the senior tranche, the value returned by this function can be used \"idempotently\" to achieve the investment target amount without exceeding that target."
      }
    },
    "version": 1
  },
  "storageLayout": {
    "storage": [
      {
        "astId": 588,
        "contract": "contracts/protocol/core/FixedLeverageRatioStrategy.sol:FixedLeverageRatioStrategy",
        "label": "_initialized",
        "offset": 0,
        "slot": "0",
        "type": "t_uint8"
      },
      {
        "astId": 591,
        "contract": "contracts/protocol/core/FixedLeverageRatioStrategy.sol:FixedLeverageRatioStrategy",
        "label": "_initializing",
        "offset": 1,
        "slot": "0",
        "type": "t_bool"
      },
      {
        "astId": 4964,
        "contract": "contracts/protocol/core/FixedLeverageRatioStrategy.sol:FixedLeverageRatioStrategy",
        "label": "__gap",
        "offset": 0,
        "slot": "1",
        "type": "t_array(t_uint256)50_storage"
      },
      {
        "astId": 5544,
        "contract": "contracts/protocol/core/FixedLeverageRatioStrategy.sol:FixedLeverageRatioStrategy",
        "label": "__gap",
        "offset": 0,
        "slot": "51",
        "type": "t_array(t_uint256)50_storage"
      },
      {
        "astId": 184,
        "contract": "contracts/protocol/core/FixedLeverageRatioStrategy.sol:FixedLeverageRatioStrategy",
        "label": "_roles",
        "offset": 0,
        "slot": "101",
        "type": "t_mapping(t_bytes32,t_struct(RoleData)179_storage)"
      },
      {
        "astId": 479,
        "contract": "contracts/protocol/core/FixedLeverageRatioStrategy.sol:FixedLeverageRatioStrategy",
        "label": "__gap",
        "offset": 0,
        "slot": "102",
        "type": "t_array(t_uint256)49_storage"
      },
      {
        "astId": 771,
        "contract": "contracts/protocol/core/FixedLeverageRatioStrategy.sol:FixedLeverageRatioStrategy",
        "label": "_paused",
        "offset": 0,
        "slot": "151",
        "type": "t_bool"
      },
      {
        "astId": 876,
        "contract": "contracts/protocol/core/FixedLeverageRatioStrategy.sol:FixedLeverageRatioStrategy",
        "label": "__gap",
        "offset": 0,
        "slot": "152",
        "type": "t_array(t_uint256)49_storage"
      },
      {
        "astId": 891,
        "contract": "contracts/protocol/core/FixedLeverageRatioStrategy.sol:FixedLeverageRatioStrategy",
        "label": "_status",
        "offset": 0,
        "slot": "201",
        "type": "t_uint256"
      },
      {
        "astId": 949,
        "contract": "contracts/protocol/core/FixedLeverageRatioStrategy.sol:FixedLeverageRatioStrategy",
        "label": "__gap",
        "offset": 0,
        "slot": "202",
        "type": "t_array(t_uint256)49_storage"
      },
      {
        "astId": 15949,
        "contract": "contracts/protocol/core/FixedLeverageRatioStrategy.sol:FixedLeverageRatioStrategy",
        "label": "__gap1",
        "offset": 0,
        "slot": "251",
        "type": "t_array(t_uint256)50_storage"
      },
      {
        "astId": 15953,
        "contract": "contracts/protocol/core/FixedLeverageRatioStrategy.sol:FixedLeverageRatioStrategy",
        "label": "__gap2",
        "offset": 0,
        "slot": "301",
        "type": "t_array(t_uint256)50_storage"
      },
      {
        "astId": 15957,
        "contract": "contracts/protocol/core/FixedLeverageRatioStrategy.sol:FixedLeverageRatioStrategy",
        "label": "__gap3",
        "offset": 0,
        "slot": "351",
        "type": "t_array(t_uint256)50_storage"
      },
      {
        "astId": 15961,
        "contract": "contracts/protocol/core/FixedLeverageRatioStrategy.sol:FixedLeverageRatioStrategy",
        "label": "__gap4",
        "offset": 0,
        "slot": "401",
        "type": "t_array(t_uint256)50_storage"
      },
      {
        "astId": 21051,
        "contract": "contracts/protocol/core/FixedLeverageRatioStrategy.sol:FixedLeverageRatioStrategy",
        "label": "config",
        "offset": 0,
        "slot": "451",
        "type": "t_contract(DobermanConfig)20001"
      }
    ],
    "types": {
      "t_address": {
        "encoding": "inplace",
        "label": "address",
        "numberOfBytes": "20"
      },
      "t_array(t_uint256)49_storage": {
        "base": "t_uint256",
        "encoding": "inplace",
        "label": "uint256[49]",
        "numberOfBytes": "1568"
      },
      "t_array(t_uint256)50_storage": {
        "base": "t_uint256",
        "encoding": "inplace",
        "label": "uint256[50]",
        "numberOfBytes": "1600"
      },
      "t_bool": {
        "encoding": "inplace",
        "label": "bool",
        "numberOfBytes": "1"
      },
      "t_bytes32": {
        "encoding": "inplace",
        "label": "bytes32",
        "numberOfBytes": "32"
      },
      "t_contract(DobermanConfig)20001": {
        "encoding": "inplace",
        "label": "contract DobermanConfig",
        "numberOfBytes": "20"
      },
      "t_mapping(t_address,t_bool)": {
        "encoding": "mapping",
        "key": "t_address",
        "label": "mapping(address => bool)",
        "numberOfBytes": "32",
        "value": "t_bool"
      },
      "t_mapping(t_bytes32,t_struct(RoleData)179_storage)": {
        "encoding": "mapping",
        "key": "t_bytes32",
        "label": "mapping(bytes32 => struct AccessControlUpgradeable.RoleData)",
        "numberOfBytes": "32",
        "value": "t_struct(RoleData)179_storage"
      },
      "t_struct(RoleData)179_storage": {
        "encoding": "inplace",
        "label": "struct AccessControlUpgradeable.RoleData",
        "members": [
          {
            "astId": 176,
            "contract": "contracts/protocol/core/FixedLeverageRatioStrategy.sol:FixedLeverageRatioStrategy",
            "label": "members",
            "offset": 0,
            "slot": "0",
            "type": "t_mapping(t_address,t_bool)"
          },
          {
            "astId": 178,
            "contract": "contracts/protocol/core/FixedLeverageRatioStrategy.sol:FixedLeverageRatioStrategy",
            "label": "adminRole",
            "offset": 0,
            "slot": "1",
            "type": "t_bytes32"
          }
        ],
        "numberOfBytes": "64"
      },
      "t_uint256": {
        "encoding": "inplace",
        "label": "uint256",
        "numberOfBytes": "32"
      },
      "t_uint8": {
        "encoding": "inplace",
        "label": "uint8",
        "numberOfBytes": "1"
      }
    }
  }
}