{
  "address": "0xc57C78AeA599e83c8FCb6411D84C54f19b1C1fBd",
  "abi": [
    {
      "anonymous": false,
      "inputs": [
        {
          "indexed": true,
          "internalType": "address",
          "name": "owner",
          "type": "address"
        },
        {
          "indexed": true,
          "internalType": "address",
          "name": "approved",
          "type": "address"
        },
        {
          "indexed": true,
          "internalType": "uint256",
          "name": "tokenId",
          "type": "uint256"
        }
      ],
      "name": "Approval",
      "type": "event"
    },
    {
      "anonymous": false,
      "inputs": [
        {
          "indexed": true,
          "internalType": "address",
          "name": "owner",
          "type": "address"
        },
        {
          "indexed": true,
          "internalType": "address",
          "name": "operator",
          "type": "address"
        },
        {
          "indexed": false,
          "internalType": "bool",
          "name": "approved",
          "type": "bool"
        }
      ],
      "name": "ApprovalForAll",
      "type": "event"
    },
    {
      "anonymous": false,
      "inputs": [
        {
          "indexed": true,
          "internalType": "address",
          "name": "who",
          "type": "address"
        },
        {
          "indexed": false,
          "internalType": "address",
          "name": "configAddress",
          "type": "address"
        }
      ],
      "name": "DobermanConfigUpdated",
      "type": "event"
    },
    {
      "anonymous": false,
      "inputs": [
        {
          "indexed": false,
          "internalType": "uint8",
          "name": "version",
          "type": "uint8"
        }
      ],
      "name": "Initialized",
      "type": "event"
    },
    {
      "anonymous": false,
      "inputs": [
        {
          "indexed": false,
          "internalType": "address",
          "name": "account",
          "type": "address"
        }
      ],
      "name": "Paused",
      "type": "event"
    },
    {
      "anonymous": false,
      "inputs": [
        {
          "indexed": true,
          "internalType": "bytes32",
          "name": "role",
          "type": "bytes32"
        },
        {
          "indexed": true,
          "internalType": "bytes32",
          "name": "previousAdminRole",
          "type": "bytes32"
        },
        {
          "indexed": true,
          "internalType": "bytes32",
          "name": "newAdminRole",
          "type": "bytes32"
        }
      ],
      "name": "RoleAdminChanged",
      "type": "event"
    },
    {
      "anonymous": false,
      "inputs": [
        {
          "indexed": true,
          "internalType": "bytes32",
          "name": "role",
          "type": "bytes32"
        },
        {
          "indexed": true,
          "internalType": "address",
          "name": "account",
          "type": "address"
        },
        {
          "indexed": true,
          "internalType": "address",
          "name": "sender",
          "type": "address"
        }
      ],
      "name": "RoleGranted",
      "type": "event"
    },
    {
      "anonymous": false,
      "inputs": [
        {
          "indexed": true,
          "internalType": "bytes32",
          "name": "role",
          "type": "bytes32"
        },
        {
          "indexed": true,
          "internalType": "address",
          "name": "account",
          "type": "address"
        },
        {
          "indexed": true,
          "internalType": "address",
          "name": "sender",
          "type": "address"
        }
      ],
      "name": "RoleRevoked",
      "type": "event"
    },
    {
      "anonymous": false,
      "inputs": [
        {
          "indexed": true,
          "internalType": "address",
          "name": "owner",
          "type": "address"
        },
        {
          "indexed": true,
          "internalType": "address",
          "name": "pool",
          "type": "address"
        },
        {
          "indexed": true,
          "internalType": "uint256",
          "name": "tokenId",
          "type": "uint256"
        }
      ],
      "name": "TokenBurned",
      "type": "event"
    },
    {
      "anonymous": false,
      "inputs": [
        {
          "indexed": true,
          "internalType": "address",
          "name": "owner",
          "type": "address"
        },
        {
          "indexed": true,
          "internalType": "address",
          "name": "pool",
          "type": "address"
        },
        {
          "indexed": true,
          "internalType": "uint256",
          "name": "tokenId",
          "type": "uint256"
        },
        {
          "indexed": false,
          "internalType": "uint256",
          "name": "amount",
          "type": "uint256"
        },
        {
          "indexed": false,
          "internalType": "uint256",
          "name": "tranche",
          "type": "uint256"
        }
      ],
      "name": "TokenMinted",
      "type": "event"
    },
    {
      "anonymous": false,
      "inputs": [
        {
          "indexed": true,
          "internalType": "address",
          "name": "owner",
          "type": "address"
        },
        {
          "indexed": true,
          "internalType": "address",
          "name": "pool",
          "type": "address"
        },
        {
          "indexed": true,
          "internalType": "uint256",
          "name": "tokenId",
          "type": "uint256"
        },
        {
          "indexed": false,
          "internalType": "uint256",
          "name": "principalRedeemed",
          "type": "uint256"
        },
        {
          "indexed": false,
          "internalType": "uint256",
          "name": "interestRedeemed",
          "type": "uint256"
        },
        {
          "indexed": false,
          "internalType": "uint256",
          "name": "tranche",
          "type": "uint256"
        }
      ],
      "name": "TokenRedeemed",
      "type": "event"
    },
    {
      "anonymous": false,
      "inputs": [
        {
          "indexed": true,
          "internalType": "address",
          "name": "from",
          "type": "address"
        },
        {
          "indexed": true,
          "internalType": "address",
          "name": "to",
          "type": "address"
        },
        {
          "indexed": true,
          "internalType": "uint256",
          "name": "tokenId",
          "type": "uint256"
        }
      ],
      "name": "Transfer",
      "type": "event"
    },
    {
      "anonymous": false,
      "inputs": [
        {
          "indexed": false,
          "internalType": "address",
          "name": "account",
          "type": "address"
        }
      ],
      "name": "Unpaused",
      "type": "event"
    },
    {
      "inputs": [],
      "name": "DEFAULT_ADMIN_ROLE",
      "outputs": [
        {
          "internalType": "bytes32",
          "name": "",
          "type": "bytes32"
        }
      ],
      "stateMutability": "view",
      "type": "function"
    },
    {
      "inputs": [],
      "name": "MINTER_ROLE",
      "outputs": [
        {
          "internalType": "bytes32",
          "name": "",
          "type": "bytes32"
        }
      ],
      "stateMutability": "view",
      "type": "function"
    },
    {
      "inputs": [],
      "name": "OWNER_ROLE",
      "outputs": [
        {
          "internalType": "bytes32",
          "name": "",
          "type": "bytes32"
        }
      ],
      "stateMutability": "view",
      "type": "function"
    },
    {
      "inputs": [],
      "name": "PAUSER_ROLE",
      "outputs": [
        {
          "internalType": "bytes32",
          "name": "",
          "type": "bytes32"
        }
      ],
      "stateMutability": "view",
      "type": "function"
    },
    {
      "inputs": [
        {
          "internalType": "address",
          "name": "owner",
          "type": "address"
        },
        {
          "internalType": "contract DobermanConfig",
          "name": "_config",
          "type": "address"
        }
      ],
      "name": "__initialize__",
      "outputs": [],
      "stateMutability": "nonpayable",
      "type": "function"
    },
    {
      "inputs": [],
      "name": "_tokenIdTracker",
      "outputs": [
        {
          "internalType": "uint256",
          "name": "_value",
          "type": "uint256"
        }
      ],
      "stateMutability": "view",
      "type": "function"
    },
    {
      "inputs": [
        {
          "internalType": "address",
          "name": "to",
          "type": "address"
        },
        {
          "internalType": "uint256",
          "name": "tokenId",
          "type": "uint256"
        }
      ],
      "name": "approve",
      "outputs": [],
      "stateMutability": "nonpayable",
      "type": "function"
    },
    {
      "inputs": [
        {
          "internalType": "address",
          "name": "owner",
          "type": "address"
        }
      ],
      "name": "balanceOf",
      "outputs": [
        {
          "internalType": "uint256",
          "name": "",
          "type": "uint256"
        }
      ],
      "stateMutability": "view",
      "type": "function"
    },
    {
      "inputs": [
        {
          "internalType": "uint256",
          "name": "tokenId",
          "type": "uint256"
        }
      ],
      "name": "burn",
      "outputs": [],
      "stateMutability": "nonpayable",
      "type": "function"
    },
    {
      "inputs": [],
      "name": "config",
      "outputs": [
        {
          "internalType": "contract DobermanConfig",
          "name": "",
          "type": "address"
        }
      ],
      "stateMutability": "view",
      "type": "function"
    },
    {
      "inputs": [
        {
          "internalType": "uint256",
          "name": "tokenId",
          "type": "uint256"
        }
      ],
      "name": "getApproved",
      "outputs": [
        {
          "internalType": "address",
          "name": "",
          "type": "address"
        }
      ],
      "stateMutability": "view",
      "type": "function"
    },
    {
      "inputs": [
        {
          "internalType": "bytes32",
          "name": "role",
          "type": "bytes32"
        }
      ],
      "name": "getRoleAdmin",
      "outputs": [
        {
          "internalType": "bytes32",
          "name": "",
          "type": "bytes32"
        }
      ],
      "stateMutability": "view",
      "type": "function"
    },
    {
      "inputs": [
        {
          "internalType": "uint256",
          "name": "tokenId",
          "type": "uint256"
        }
      ],
      "name": "getTokenInfo",
      "outputs": [
        {
          "components": [
            {
              "internalType": "address",
              "name": "pool",
              "type": "address"
            },
            {
              "internalType": "uint256",
              "name": "tranche",
              "type": "uint256"
            },
            {
              "internalType": "uint256",
              "name": "principalAmount",
              "type": "uint256"
            },
            {
              "internalType": "uint256",
              "name": "principalRedeemed",
              "type": "uint256"
            },
            {
              "internalType": "uint256",
              "name": "interestRedeemed",
              "type": "uint256"
            }
          ],
          "internalType": "struct IPoolTokens.TokenInfo",
          "name": "",
          "type": "tuple"
        }
      ],
      "stateMutability": "view",
      "type": "function"
    },
    {
      "inputs": [
        {
          "internalType": "bytes32",
          "name": "role",
          "type": "bytes32"
        },
        {
          "internalType": "address",
          "name": "account",
          "type": "address"
        }
      ],
      "name": "grantRole",
      "outputs": [],
      "stateMutability": "nonpayable",
      "type": "function"
    },
    {
      "inputs": [
        {
          "internalType": "bytes32",
          "name": "role",
          "type": "bytes32"
        },
        {
          "internalType": "address",
          "name": "account",
          "type": "address"
        }
      ],
      "name": "hasRole",
      "outputs": [
        {
          "internalType": "bool",
          "name": "",
          "type": "bool"
        }
      ],
      "stateMutability": "view",
      "type": "function"
    },
    {
      "inputs": [],
      "name": "isAdmin",
      "outputs": [
        {
          "internalType": "bool",
          "name": "",
          "type": "bool"
        }
      ],
      "stateMutability": "view",
      "type": "function"
    },
    {
      "inputs": [
        {
          "internalType": "address",
          "name": "owner",
          "type": "address"
        },
        {
          "internalType": "address",
          "name": "operator",
          "type": "address"
        }
      ],
      "name": "isApprovedForAll",
      "outputs": [
        {
          "internalType": "bool",
          "name": "",
          "type": "bool"
        }
      ],
      "stateMutability": "view",
      "type": "function"
    },
    {
      "inputs": [
        {
          "internalType": "address",
          "name": "spender",
          "type": "address"
        },
        {
          "internalType": "uint256",
          "name": "tokenId",
          "type": "uint256"
        }
      ],
      "name": "isApprovedOrOwner",
      "outputs": [
        {
          "internalType": "bool",
          "name": "",
          "type": "bool"
        }
      ],
      "stateMutability": "view",
      "type": "function"
    },
    {
      "inputs": [
        {
          "components": [
            {
              "internalType": "uint256",
              "name": "principalAmount",
              "type": "uint256"
            },
            {
              "internalType": "uint256",
              "name": "tranche",
              "type": "uint256"
            }
          ],
          "internalType": "struct IPoolTokens.MintParams",
          "name": "params",
          "type": "tuple"
        },
        {
          "internalType": "address",
          "name": "to",
          "type": "address"
        }
      ],
      "name": "mint",
      "outputs": [
        {
          "internalType": "uint256",
          "name": "tokenId",
          "type": "uint256"
        }
      ],
      "stateMutability": "nonpayable",
      "type": "function"
    },
    {
      "inputs": [],
      "name": "name",
      "outputs": [
        {
          "internalType": "string",
          "name": "",
          "type": "string"
        }
      ],
      "stateMutability": "view",
      "type": "function"
    },
    {
      "inputs": [
        {
          "internalType": "address",
          "name": "newPool",
          "type": "address"
        }
      ],
      "name": "onPoolCreated",
      "outputs": [],
      "stateMutability": "nonpayable",
      "type": "function"
    },
    {
      "inputs": [
        {
          "internalType": "uint256",
          "name": "tokenId",
          "type": "uint256"
        }
      ],
      "name": "ownerOf",
      "outputs": [
        {
          "internalType": "address",
          "name": "",
          "type": "address"
        }
      ],
      "stateMutability": "view",
      "type": "function"
    },
    {
      "inputs": [],
      "name": "pause",
      "outputs": [],
      "stateMutability": "nonpayable",
      "type": "function"
    },
    {
      "inputs": [],
      "name": "paused",
      "outputs": [
        {
          "internalType": "bool",
          "name": "",
          "type": "bool"
        }
      ],
      "stateMutability": "view",
      "type": "function"
    },
    {
      "inputs": [
        {
          "internalType": "address",
          "name": "",
          "type": "address"
        }
      ],
      "name": "pools",
      "outputs": [
        {
          "internalType": "uint256",
          "name": "totalMinted",
          "type": "uint256"
        },
        {
          "internalType": "uint256",
          "name": "totalPrincipalRedeemed",
          "type": "uint256"
        },
        {
          "internalType": "bool",
          "name": "created",
          "type": "bool"
        }
      ],
      "stateMutability": "view",
      "type": "function"
    },
    {
      "inputs": [
        {
          "internalType": "uint256",
          "name": "tokenId",
          "type": "uint256"
        },
        {
          "internalType": "uint256",
          "name": "principalRedeemed",
          "type": "uint256"
        },
        {
          "internalType": "uint256",
          "name": "interestRedeemed",
          "type": "uint256"
        }
      ],
      "name": "redeem",
      "outputs": [],
      "stateMutability": "nonpayable",
      "type": "function"
    },
    {
      "inputs": [
        {
          "internalType": "bytes32",
          "name": "role",
          "type": "bytes32"
        },
        {
          "internalType": "address",
          "name": "account",
          "type": "address"
        }
      ],
      "name": "renounceRole",
      "outputs": [],
      "stateMutability": "nonpayable",
      "type": "function"
    },
    {
      "inputs": [
        {
          "internalType": "bytes32",
          "name": "role",
          "type": "bytes32"
        },
        {
          "internalType": "address",
          "name": "account",
          "type": "address"
        }
      ],
      "name": "revokeRole",
      "outputs": [],
      "stateMutability": "nonpayable",
      "type": "function"
    },
    {
      "inputs": [
        {
          "internalType": "address",
          "name": "from",
          "type": "address"
        },
        {
          "internalType": "address",
          "name": "to",
          "type": "address"
        },
        {
          "internalType": "uint256",
          "name": "tokenId",
          "type": "uint256"
        }
      ],
      "name": "safeTransferFrom",
      "outputs": [],
      "stateMutability": "nonpayable",
      "type": "function"
    },
    {
      "inputs": [
        {
          "internalType": "address",
          "name": "from",
          "type": "address"
        },
        {
          "internalType": "address",
          "name": "to",
          "type": "address"
        },
        {
          "internalType": "uint256",
          "name": "tokenId",
          "type": "uint256"
        },
        {
          "internalType": "bytes",
          "name": "data",
          "type": "bytes"
        }
      ],
      "name": "safeTransferFrom",
      "outputs": [],
      "stateMutability": "nonpayable",
      "type": "function"
    },
    {
      "inputs": [
        {
          "internalType": "address",
          "name": "operator",
          "type": "address"
        },
        {
          "internalType": "bool",
          "name": "approved",
          "type": "bool"
        }
      ],
      "name": "setApprovalForAll",
      "outputs": [],
      "stateMutability": "nonpayable",
      "type": "function"
    },
    {
      "inputs": [
        {
          "internalType": "bytes4",
          "name": "interfaceId",
          "type": "bytes4"
        }
      ],
      "name": "supportsInterface",
      "outputs": [
        {
          "internalType": "bool",
          "name": "",
          "type": "bool"
        }
      ],
      "stateMutability": "view",
      "type": "function"
    },
    {
      "inputs": [],
      "name": "symbol",
      "outputs": [
        {
          "internalType": "string",
          "name": "",
          "type": "string"
        }
      ],
      "stateMutability": "view",
      "type": "function"
    },
    {
      "inputs": [
        {
          "internalType": "uint256",
          "name": "tokenId",
          "type": "uint256"
        }
      ],
      "name": "tokenURI",
      "outputs": [
        {
          "internalType": "string",
          "name": "",
          "type": "string"
        }
      ],
      "stateMutability": "view",
      "type": "function"
    },
    {
      "inputs": [
        {
          "internalType": "uint256",
          "name": "",
          "type": "uint256"
        }
      ],
      "name": "tokens",
      "outputs": [
        {
          "internalType": "address",
          "name": "pool",
          "type": "address"
        },
        {
          "internalType": "uint256",
          "name": "tranche",
          "type": "uint256"
        },
        {
          "internalType": "uint256",
          "name": "principalAmount",
          "type": "uint256"
        },
        {
          "internalType": "uint256",
          "name": "principalRedeemed",
          "type": "uint256"
        },
        {
          "internalType": "uint256",
          "name": "interestRedeemed",
          "type": "uint256"
        }
      ],
      "stateMutability": "view",
      "type": "function"
    },
    {
      "inputs": [
        {
          "internalType": "address",
          "name": "from",
          "type": "address"
        },
        {
          "internalType": "address",
          "name": "to",
          "type": "address"
        },
        {
          "internalType": "uint256",
          "name": "tokenId",
          "type": "uint256"
        }
      ],
      "name": "transferFrom",
      "outputs": [],
      "stateMutability": "nonpayable",
      "type": "function"
    },
    {
      "inputs": [],
      "name": "unpause",
      "outputs": [],
      "stateMutability": "nonpayable",
      "type": "function"
    },
    {
      "inputs": [],
      "name": "updateDobermanConfig",
      "outputs": [],
      "stateMutability": "nonpayable",
      "type": "function"
    },
    {
      "inputs": [
        {
          "internalType": "address",
          "name": "sender",
          "type": "address"
        }
      ],
      "name": "validPool",
      "outputs": [
        {
          "internalType": "bool",
          "name": "",
          "type": "bool"
        }
      ],
      "stateMutability": "view",
      "type": "function"
    }
  ],
  "transactionHash": "0x3f03c2d1a7f32171d6e918ccb6b434b5186807decb912c0457f2f137538ad3b5",
  "args": [],
  "numDeployments": 1,
  "solcInputHash": "3badd62fa2599da45ee1d010cb8ab7cf",
  "bytecode": "0x608060405234801561001057600080fd5b50612df3806100206000396000f3fe608060405234801561001057600080fd5b506004361061022d5760003560e01c80638456cb591161013b578063b6f8fd40116100b8578063d53913931161007c578063d539139314610595578063d547741f146105bc578063e58378bb146105cf578063e63ab1e9146105e4578063e985e9c5146105f957600080fd5b8063b6f8fd4014610541578063b819220514610554578063b88d4fde14610567578063c87b56dd1461057a578063d30a09111461058d57600080fd5b8063a217fddf116100ff578063a217fddf146104bb578063a22cb465146104c3578063a4063dbc146104d6578063b5ada6d814610526578063b6db75a01461053957600080fd5b80638456cb59146104345780638c7a63ae1461043c57806391d148541461049557806395d89b41146104a857806398bcede9146104b057600080fd5b806342842e0e116101c95780635be57b6a1161018d5780635be57b6a146103dc5780635c975abb146103ef5780636352211e146103fa57806370a082311461040d57806379502c551461042057600080fd5b806342842e0e1461031657806342966c6814610329578063430c20811461033c5780634f64b2be1461034f57806357e340ce146103c957600080fd5b806301ffc9a71461023257806306fdde031461025a578063081812fc1461026f578063095ea7b31461028f57806323b872dd146102a4578063248a9ca3146102b75780632f2ff15d146102e857806336568abe146102fb5780633f4ba83a1461030e575b600080fd5b6102456102403660046128cf565b61060c565b60405190151581526020015b60405180910390f35b610262610652565b6040516102519190612a7f565b61028261027d366004612893565b6106e4565b6040516102519190612a2e565b6102a261029d366004612868565b61070b565b005b6102a26102b236600461270c565b610826565b6102da6102c5366004612893565b60009081526065602052604090206001015490565b604051908152602001610251565b6102a26102f63660046128ab565b610857565b6102a26103093660046128ab565b61087c565b6102a26108fa565b6102a261032436600461270c565b610990565b6102a2610337366004612893565b6109ab565b61024561034a366004612868565b610b20565b61039761035d366004612893565b61016060205260009081526040902080546001820154600283015460038401546004909401546001600160a01b0390931693919290919085565b604080516001600160a01b0390961686526020860194909452928401919091526060830152608082015260a001610251565b6102a26103d736600461269c565b610b33565b6102da6103ea366004612907565b610bd1565b60c95460ff16610245565b610282610408366004612893565b610cf1565b6102da61041b36600461269c565b610d26565b61015f54610282906001600160a01b031681565b6102a2610dac565b61044f61044a366004612893565b610e3e565b604051610251919081516001600160a01b031681526020808301519082015260408083015190820152606080830151908201526080918201519181019190915260a00190565b6102456104a33660046128ab565b610e4f565b610262610e7a565b61012d546102da9081565b6102da600081565b6102a26104d1366004612825565b610e89565b6105096104e436600461269c565b6101616020526000908152604090208054600182015460029092015490919060ff1683565b604080519384526020840192909252151590820152606001610251565b61024561053436600461269c565b610e94565b610245610e9f565b6102a261054f366004612856565b610ebe565b6102a2610562366004612939565b611153565b6102a261057536600461274c565b6113d2565b610262610588366004612893565b61140a565b6102a261147d565b6102da7f9f2df0fed2c77648de5860a4cc508cd0818c85b8b8a1ab4ceeef8d981c8956a681565b6102a26105ca3660046128ab565b611556565b6102da600080516020612d5e83398151915281565b6102da600080516020612d7e83398151915281565b6102456106073660046126d4565b61157b565b60006001600160e01b031982166380ac58cd60e01b148061063d57506001600160e01b03198216635b5e139f60e01b145b8061064c575061064c826115a9565b92915050565b60606097805461066190612ccb565b80601f016020809104026020016040519081016040528092919081815260200182805461068d90612ccb565b80156106da5780601f106106af576101008083540402835291602001916106da565b820191906000526020600020905b8154815290600101906020018083116106bd57829003601f168201915b5050505050905090565b60006106ef826115e9565b506000908152609b60205260409020546001600160a01b031690565b600061071682610cf1565b9050806001600160a01b0316836001600160a01b031614156107895760405162461bcd60e51b815260206004820152602160248201527f4552433732313a20617070726f76616c20746f2063757272656e74206f776e656044820152603960f91b60648201526084015b60405180910390fd5b336001600160a01b03821614806107a557506107a5813361157b565b6108175760405162461bcd60e51b815260206004820152603d60248201527f4552433732313a20617070726f76652063616c6c6572206973206e6f7420746f60448201527f6b656e206f776e6572206f7220617070726f76656420666f7220616c6c0000006064820152608401610780565b6108218383611611565b505050565b610830338261167f565b61084c5760405162461bcd60e51b815260040161078090612a92565b6108218383836116de565b6000828152606560205260409020600101546108728161183d565b6108218383611847565b6001600160a01b03811633146108ec5760405162461bcd60e51b815260206004820152602f60248201527f416363657373436f6e74726f6c3a2063616e206f6e6c792072656e6f756e636560448201526e103937b632b9903337b91039b2b63360891b6064820152608401610780565b6108f682826118cd565b5050565b610912600080516020612d7e83398151915233610e4f565b610986576040805162461bcd60e51b81526020600482015260248101919091527f4552433732315072657365744d696e7465725061757365724175746f49643a2060448201527f6d75737420686176652070617573657220726f6c6520746f20756e70617573656064820152608401610780565b61098e611934565b565b610821838383604051806020016040528060008152506113d2565b6109b3611980565b60006109be826119c6565b905060006109cc338461167f565b905060006109d933611a27565b80156109ee575082516001600160a01b031633145b905060006109fb85610cf1565b90508280610a065750815b610a685760405162461bcd60e51b815260206004820152602d60248201527f4552433732314275726e61626c653a2063616c6c65722063616e6e6f7420627560448201526c3937103a3434b9903a37b5b2b760991b6064820152608401610780565b8360400151846060015114610acb5760405162461bcd60e51b815260206004820152602360248201527f43616e206f6e6c79206275726e2066756c6c792072656465656d656420746f6b604482015262656e7360e81b6064820152608401610780565b610ad485611a49565b8484600001516001600160a01b0316826001600160a01b03167fbfa41556980d157c24e8632dbb78958f8759a86b4acdea421f93dc7259fb55db60405160405180910390a45050505050565b6000610b2c838361167f565b9392505050565b61015f54610b49906001600160a01b0316611a88565b6001600160a01b0316336001600160a01b031614610ba95760405162461bcd60e51b815260206004820181905260248201527f4f6e6c7920446f6265726d616e20666163746f727920697320616c6c6f7765646044820152606401610780565b6001600160a01b0316600090815261016160205260409020600201805460ff19166001179055565b6000610bdc33611a27565b610bf85760405162461bcd60e51b815260040161078090612bad565b610c00611980565b33610c0b8482611b0a565b9150610c178383611bc7565b61015f54610c2d906001600160a01b0316611cd0565b6001600160a01b0316636efbe643336040516001600160e01b031960e084901b1681526001600160a01b03909116600482015260248101859052604401600060405180830381600087803b158015610c8457600080fd5b505af1158015610c98573d6000803e3d6000fd5b50506040805187358152602080890135908201528593506001600160a01b0380861693508716917f188c6e7ce5cf6a45f5d4441da49a243005c388c7f4f00137378ba3d058baf01d910160405180910390a45092915050565b6000818152609960205260408120546001600160a01b03168061064c5760405162461bcd60e51b815260040161078090612bd4565b60006001600160a01b038216610d905760405162461bcd60e51b815260206004820152602960248201527f4552433732313a2061646472657373207a65726f206973206e6f7420612076616044820152683634b21037bbb732b960b91b6064820152608401610780565b506001600160a01b03166000908152609a602052604090205490565b610dc4600080516020612d7e83398151915233610e4f565b610e365760405162461bcd60e51b815260206004820152603e60248201527f4552433732315072657365744d696e7465725061757365724175746f49643a2060448201527f6d75737420686176652070617573657220726f6c6520746f20706175736500006064820152608401610780565b61098e611cdb565b610e466125cb565b61064c826119c6565b60009182526065602090815260408084206001600160a01b0393909316845291905290205460ff1690565b60606098805461066190612ccb565b6108f6338383611d18565b600061064c82611a27565b6000610eb9600080516020612d5e83398151915233610e4f565b905090565b600054610100900460ff1615808015610ede5750600054600160ff909116105b80610ef85750303b158015610ef8575060005460ff166001145b610f5b5760405162461bcd60e51b815260206004820152602e60248201527f496e697469616c697a61626c653a20636f6e747261637420697320616c72656160448201526d191e481a5b9a5d1a585b1a5e995960921b6064820152608401610780565b6000805460ff191660011790558015610f7e576000805461ff0019166101001790555b6001600160a01b03831615801590610f9e57506001600160a01b03821615155b610ffd5760405162461bcd60e51b815260206004820152602a60248201527f4f776e657220616e6420636f6e666967206164647265737365732063616e6e6f6044820152697420626520656d70747960b01b6064820152608401610780565b611005611de3565b61100d611de3565b611015611de3565b61106f60405180604001604052806017815260200176446f6265726d616e20563220506f6f6c20546f6b656e7360481b8152506040518060400160405280600981526020016811d1924b558c8b541560ba1b815250611e0a565b611077611e58565b61107f611de3565b61015f80546001600160a01b0319166001600160a01b0384161790556110b3600080516020612d7e83398151915284611e8b565b6110cb600080516020612d5e83398151915284611e8b565b6110f1600080516020612d7e833981519152600080516020612d5e833981519152611e95565b611109600080516020612d5e83398151915280611e95565b8015610821576000805461ff0019169055604051600181527f7f26b83ff96e1f2b6a682f133852f6798a09c465da95921460cefb38474024989060200160405180910390a1505050565b61115c33611a27565b6111785760405162461bcd60e51b815260040161078090612bad565b611180611980565b60008381526101606020526040902080546001600160a01b0316806111d95760405162461bcd60e51b815260206004820152600f60248201526e125b9d985b1a59081d1bdad95b9259608a1b6044820152606401610780565b336001600160a01b038216146112315760405162461bcd60e51b815260206004820181905260248201527f4f6e6c792074686520746f6b656e277320706f6f6c2063616e2072656465656d6044820152606401610780565b6001600160a01b03811660009081526101616020526040902060018101546112599086611ee0565b60018201819055815410156112ba5760405162461bcd60e51b815260206004820152602160248201527f43616e6e6f742072656465656d206d6f7265207468616e207765206d696e74656044820152601960fa1b6064820152608401610780565b60038301546112c99086611ee0565b60038401819055600284015410156113495760405162461bcd60e51b815260206004820152603c60248201527f43616e6e6f742072656465656d206d6f7265207468616e207072696e6369706160448201527f6c2d6465706f736974656420616d6f756e7420666f7220746f6b656e000000006064820152608401610780565b60048301546113589085611ee0565b6004840155856001600160a01b03831661137182610cf1565b6001600160a01b03167fda8c6dd3bef4f6eabede38563ec41a960f3fd84ccab769aa77db40494f9eee98888888600101546040516113c2939291909283526020830191909152604082015260600190565b60405180910390a4505050505050565b6113dc338361167f565b6113f85760405162461bcd60e51b815260040161078090612a92565b61140484848484611eec565b50505050565b6060611415826115e9565b600061142c60408051602081019091526000815290565b9050600081511161144c5760405180602001604052806000815250610b2c565b8061145684611f1f565b604051602001611467929190612990565b6040516020818303038152906040529392505050565b611485610e9f565b6114e55760405162461bcd60e51b815260206004820152602b60248201527f4d75737420686176652061646d696e20726f6c6520746f20706572666f726d2060448201526a3a3434b99030b1ba34b7b760a91b6064820152608401610780565b61015f546114fb906001600160a01b0316611fca565b61015f80546001600160a01b0319166001600160a01b0392909216918217905560405133917f8d003bc2e3965bd9d92389a8ae0ef8c601fa211ba9378150dde7dc3cf38c3a369161154c9190612a2e565b60405180910390a2565b6000828152606560205260409020600101546115718161183d565b61082183836118cd565b6001600160a01b039182166000908152609c6020908152604080832093909416825291909152205460ff1690565b60006001600160e01b031982166380ac58cd60e01b14806115da57506001600160e01b03198216635b5e139f60e01b145b8061064c575061064c82611fe2565b6115f281612017565b61160e5760405162461bcd60e51b815260040161078090612bd4565b50565b6000818152609b6020526040902080546001600160a01b0319166001600160a01b038416908117909155819061164682610cf1565b6001600160a01b03167f8c5be1e5ebec7d5bd14f71427d1e84f3dd0314c0f7b2291e5b200ac8c7c3b92560405160405180910390a45050565b60008061168b83610cf1565b9050806001600160a01b0316846001600160a01b031614806116b257506116b2818561157b565b806116d65750836001600160a01b03166116cb846106e4565b6001600160a01b0316145b949350505050565b826001600160a01b03166116f182610cf1565b6001600160a01b0316146117175760405162461bcd60e51b815260040161078090612b31565b6001600160a01b0382166117795760405162461bcd60e51b8152602060048201526024808201527f4552433732313a207472616e7366657220746f20746865207a65726f206164646044820152637265737360e01b6064820152608401610780565b6117868383836001612034565b826001600160a01b031661179982610cf1565b6001600160a01b0316146117bf5760405162461bcd60e51b815260040161078090612b31565b6000818152609b6020908152604080832080546001600160a01b03199081169091556001600160a01b03878116808652609a855283862080546000190190559087168086528386208054600101905586865260999094528285208054909216841790915590518493600080516020612d9e83398151915291a4505050565b61160e8133612040565b6118518282610e4f565b6108f65760008281526065602090815260408083206001600160a01b03851684529091529020805460ff191660011790556118893390565b6001600160a01b0316816001600160a01b0316837f2f8788117e7eff1d82e926ec794901d17c78024a50270940304540a733656f0d60405160405180910390a45050565b6118d78282610e4f565b156108f65760008281526065602090815260408083206001600160a01b0385168085529252808320805460ff1916905551339285917ff6391f5c32d9c69d2a47ea670b442974b53935d1edc7fd64eb21e047a839171b9190a45050565b61193c612099565b60c9805460ff191690557f5db9ee0a495bf2e6ff9c91a7834c1ba4fdd244a5e8aa4e537bd38aeae4b073aa335b6040516119769190612a2e565b60405180910390a1565b60c95460ff161561098e5760405162461bcd60e51b815260206004820152601060248201526f14185d5cd8589b194e881c185d5cd95960821b6044820152606401610780565b6119ce6125cb565b5060009081526101606020908152604091829020825160a08101845281546001600160a01b0316815260018201549281019290925260028101549282019290925260038201546060820152600490910154608082015290565b6001600160a01b03166000908152610161602052604090206002015460ff1690565b60008181526101606020526040812080546001600160a01b03191681556001810182905560028101829055600381018290556004015561160e816120e2565b60006001600160a01b03821663b93f9b0a60025b6040518263ffffffff1660e01b8152600401611aba91815260200190565b60206040518083038186803b158015611ad257600080fd5b505afa158015611ae6573d6000803e3d6000fd5b505050506040513d601f19601f8201168201806040525081019061064c91906126b8565b6001600160a01b038116600090815261016160205260408120611b3261012d80546001019055565b61012d546040805160a0810182526001600160a01b0386811682526020888101358184019081528935848601818152600060608701818152608088018281528a8352610160909652979020955186546001600160a01b031916951694909417855590516001850155915160028401559251600383015591516004909101558254919350611bbf9190611ee0565b905592915050565b6001600160a01b038216611c1d5760405162461bcd60e51b815260206004820181905260248201527f4552433732313a206d696e7420746f20746865207a65726f20616464726573736044820152606401610780565b611c2681612017565b15611c435760405162461bcd60e51b815260040161078090612b76565b611c51600083836001612034565b611c5a81612017565b15611c775760405162461bcd60e51b815260040161078090612b76565b6001600160a01b0382166000818152609a6020908152604080832080546001019055848352609990915280822080546001600160a01b031916841790555183929190600080516020612d9e833981519152908290a45050565b600061064c82612173565b611ce3611980565b60c9805460ff191660011790557f62e78cea01bee320cd4e420270b5ea74000d11b0c9f74754ebdbfc544b05a2586119693390565b816001600160a01b0316836001600160a01b03161415611d765760405162461bcd60e51b815260206004820152601960248201527822a9219b99189d1030b8383937bb32903a379031b0b63632b960391b6044820152606401610780565b6001600160a01b038381166000818152609c6020908152604080832094871680845294825291829020805460ff191686151590811790915591519182527f17307eab39ab6107e8899845ad3d59bd9653f200f220920489ca2b5937696c31910160405180910390a3505050565b600054610100900460ff1661098e5760405162461bcd60e51b815260040161078090612c06565b600054610100900460ff16611e315760405162461bcd60e51b815260040161078090612c06565b8151611e44906097906020850190612603565b508051610821906098906020840190612603565b600054610100900460ff16611e7f5760405162461bcd60e51b815260040161078090612c06565b60c9805460ff19169055565b6108f68282611847565b600082815260656020526040808220600101805490849055905190918391839186917fbd79b86ffe0ab8e8776151514217cd7cacd52c909f66475c3af44e129f0b00ff9190a4505050565b6000610b2c8284612c51565b611ef78484846116de565b611f038484848461218b565b6114045760405162461bcd60e51b815260040161078090612adf565b60606000611f2c83612298565b600101905060008167ffffffffffffffff811115611f5a57634e487b7160e01b600052604160045260246000fd5b6040519080825280601f01601f191660200182016040528015611f84576020820181803683370190505b5090508181016020015b600019016f181899199a1a9b1b9c1cb0b131b232b360811b600a86061a8153600a8504945084611fbd57611fc2565b611f8e565b509392505050565b60006001600160a01b03821663b93f9b0a600b611a9c565b60006001600160e01b03198216637965db0b60e01b148061064c57506301ffc9a760e01b6001600160e01b031983161461064c565b6000908152609960205260409020546001600160a01b0316151590565b61140484848484612370565b61204a8282610e4f565b6108f657612057816123d7565b6120628360206123e9565b6040516020016120739291906129bf565b60408051601f198184030181529082905262461bcd60e51b825261078091600401612a7f565b60c95460ff1661098e5760405162461bcd60e51b815260206004820152601460248201527314185d5cd8589b194e881b9bdd081c185d5cd95960621b6044820152606401610780565b60006120ed82610cf1565b90506120fd816000846001612034565b61210682610cf1565b6000838152609b6020908152604080832080546001600160a01b03199081169091556001600160a01b038516808552609a84528285208054600019019055878552609990935281842080549091169055519293508492600080516020612d9e833981519152908390a45050565b60006001600160a01b03821663b93f9b0a6014611a9c565b60006001600160a01b0384163b1561228d57604051630a85bd0160e11b81526001600160a01b0385169063150b7a02906121cf903390899088908890600401612a42565b602060405180830381600087803b1580156121e957600080fd5b505af1925050508015612219575060408051601f3d908101601f19168201909252612216918101906128eb565b60015b612273573d808015612247576040519150601f19603f3d011682016040523d82523d6000602084013e61224c565b606091505b50805161226b5760405162461bcd60e51b815260040161078090612adf565b805181602001fd5b6001600160e01b031916630a85bd0160e11b1490506116d6565b506001949350505050565b60008072184f03e93ff9f4daa797ed6e38ed64bf6a1f0160401b83106122d75772184f03e93ff9f4daa797ed6e38ed64bf6a1f0160401b830492506040015b6d04ee2d6d415b85acef81000000008310612303576d04ee2d6d415b85acef8100000000830492506020015b662386f26fc10000831061232157662386f26fc10000830492506010015b6305f5e1008310612339576305f5e100830492506008015b612710831061234d57612710830492506004015b6064831061235f576064830492506002015b600a831061064c5760010192915050565b60c95460ff16156114045760405162461bcd60e51b815260206004820152602b60248201527f4552433732315061757361626c653a20746f6b656e207472616e73666572207760448201526a1a1a5b19481c185d5cd95960aa1b6064820152608401610780565b606061064c6001600160a01b03831660145b606060006123f8836002612c69565b612403906002612c51565b67ffffffffffffffff81111561242957634e487b7160e01b600052604160045260246000fd5b6040519080825280601f01601f191660200182016040528015612453576020820181803683370190505b509050600360fc1b8160008151811061247c57634e487b7160e01b600052603260045260246000fd5b60200101906001600160f81b031916908160001a905350600f60fb1b816001815181106124b957634e487b7160e01b600052603260045260246000fd5b60200101906001600160f81b031916908160001a90535060006124dd846002612c69565b6124e8906001612c51565b90505b600181111561257c576f181899199a1a9b1b9c1cb0b131b232b360811b85600f166010811061252a57634e487b7160e01b600052603260045260246000fd5b1a60f81b82828151811061254e57634e487b7160e01b600052603260045260246000fd5b60200101906001600160f81b031916908160001a90535060049490941c9361257581612cb4565b90506124eb565b508315610b2c5760405162461bcd60e51b815260206004820181905260248201527f537472696e67733a20686578206c656e67746820696e73756666696369656e746044820152606401610780565b6040518060a0016040528060006001600160a01b03168152602001600081526020016000815260200160008152602001600081525090565b82805461260f90612ccb565b90600052602060002090601f0160209004810192826126315760008555612677565b82601f1061264a57805160ff1916838001178555612677565b82800160010185558215612677579182015b8281111561267757825182559160200191906001019061265c565b50612683929150612687565b5090565b5b808211156126835760008155600101612688565b6000602082840312156126ad578081fd5b8135610b2c81612d32565b6000602082840312156126c9578081fd5b8151610b2c81612d32565b600080604083850312156126e6578081fd5b82356126f181612d32565b9150602083013561270181612d32565b809150509250929050565b600080600060608486031215612720578081fd5b833561272b81612d32565b9250602084013561273b81612d32565b929592945050506040919091013590565b60008060008060808587031215612761578081fd5b843561276c81612d32565b9350602085013561277c81612d32565b925060408501359150606085013567ffffffffffffffff8082111561279f578283fd5b818701915087601f8301126127b2578283fd5b8135818111156127c4576127c4612d1c565b604051601f8201601f19908116603f011681019083821181831017156127ec576127ec612d1c565b816040528281528a6020848701011115612804578586fd5b82602086016020830137918201602001949094529598949750929550505050565b60008060408385031215612837578182fd5b823561284281612d32565b915060208301358015158114612701578182fd5b600080604083850312156126e6578182fd5b6000806040838503121561287a578182fd5b823561288581612d32565b946020939093013593505050565b6000602082840312156128a4578081fd5b5035919050565b600080604083850312156128bd578182fd5b82359150602083013561270181612d32565b6000602082840312156128e0578081fd5b8135610b2c81612d47565b6000602082840312156128fc578081fd5b8151610b2c81612d47565b600080828403606081121561291a578283fd5b6040811215612927578283fd5b50829150604083013561270181612d32565b60008060006060848603121561294d578081fd5b505081359360208301359350604090920135919050565b6000815180845261297c816020860160208601612c88565b601f01601f19169290920160200192915050565b600083516129a2818460208801612c88565b8351908301906129b6818360208801612c88565b01949350505050565b76020b1b1b2b9b9a1b7b73a3937b61d1030b1b1b7bab73a1604d1b8152600083516129f1816017850160208801612c88565b7001034b99036b4b9b9b4b733903937b6329607d1b6017918401918201528351612a22816028840160208801612c88565b01602801949350505050565b6001600160a01b0391909116815260200190565b6001600160a01b0385811682528416602082015260408101839052608060608201819052600090612a7590830184612964565b9695505050505050565b602081526000610b2c6020830184612964565b6020808252602d908201527f4552433732313a2063616c6c6572206973206e6f7420746f6b656e206f776e6560408201526c1c881bdc88185c1c1c9bdd9959609a1b606082015260800190565b60208082526032908201527f4552433732313a207472616e7366657220746f206e6f6e20455243373231526560408201527131b2b4bb32b91034b6b83632b6b2b73a32b960711b606082015260800190565b60208082526025908201527f4552433732313a207472616e736665722066726f6d20696e636f72726563742060408201526437bbb732b960d91b606082015260800190565b6020808252601c908201527f4552433732313a20746f6b656e20616c7265616479206d696e74656400000000604082015260600190565b6020808252600d908201526c496e76616c696420706f6f6c2160981b604082015260600190565b602080825260189082015277115490cdcc8c4e881a5b9d985b1a59081d1bdad95b88125160421b604082015260600190565b6020808252602b908201527f496e697469616c697a61626c653a20636f6e7472616374206973206e6f74206960408201526a6e697469616c697a696e6760a81b606082015260800190565b60008219821115612c6457612c64612d06565b500190565b6000816000190483118215151615612c8357612c83612d06565b500290565b60005b83811015612ca3578181015183820152602001612c8b565b838111156114045750506000910152565b600081612cc357612cc3612d06565b506000190190565b600181811c90821680612cdf57607f821691505b60208210811415612d0057634e487b7160e01b600052602260045260246000fd5b50919050565b634e487b7160e01b600052601160045260246000fd5b634e487b7160e01b600052604160045260246000fd5b6001600160a01b038116811461160e57600080fd5b6001600160e01b03198116811461160e57600080fdfeb19546dff01e856fb3f010c267a7b1c60363cf8a4664e21cc89c26224620214e65d7a28e3265b37a6474929f336521b332c1681b933f6cb9f3376673440d862addf252ad1be2c89b69c2b068fc378daa952ba7f163c4a11628f55a4df523b3efa2646970667358221220454e0524c922235fb63a3a2157f1a182e2c0474709e92d6d05ff69a87b064eb064736f6c63430008040033",
  "devdoc": {
    "author": "Doberman",
    "kind": "dev",
    "methods": {
      "approve(address,uint256)": {
        "details": "See {IERC721-approve}."
      },
      "balanceOf(address)": {
        "details": "See {IERC721-balanceOf}."
      },
      "burn(uint256)": {
        "details": "Burns a specific ERC721 token, and removes the data from our mappings",
        "params": {
          "tokenId": "uint256 id of the ERC721 token to be burned."
        }
      },
      "getApproved(uint256)": {
        "details": "See {IERC721-getApproved}."
      },
      "getRoleAdmin(bytes32)": {
        "details": "Returns the admin role that controls `role`. See {grantRole} and {revokeRole}. To change a role's admin, use {_setRoleAdmin}."
      },
      "grantRole(bytes32,address)": {
        "details": "Grants `role` to `account`. If `account` had not been already granted `role`, emits a {RoleGranted} event. Requirements: - the caller must have ``role``'s admin role. May emit a {RoleGranted} event."
      },
      "hasRole(bytes32,address)": {
        "details": "Returns `true` if `account` has been granted `role`."
      },
      "isApprovedForAll(address,address)": {
        "details": "See {IERC721-isApprovedForAll}."
      },
      "isApprovedOrOwner(address,uint256)": {
        "params": {
          "spender": "The address to check",
          "tokenId": "The token id to check for"
        },
        "returns": {
          "_0": "True if approved to redeem/transfer/burn the token, false if not"
        }
      },
      "mint((uint256,uint256),address)": {
        "params": {
          "params": "Struct containing the tranche and the amount",
          "to": "The address that should own the position"
        },
        "returns": {
          "tokenId": "The token ID (auto-incrementing integer across all pools)"
        }
      },
      "name()": {
        "details": "See {IERC721Metadata-name}."
      },
      "onPoolCreated(address)": {
        "params": {
          "newPool": "The address of the newly created pool"
        }
      },
      "ownerOf(uint256)": {
        "details": "See {IERC721-ownerOf}."
      },
      "pause()": {
        "details": "Pauses all token transfers. See {ERC721Pausable} and {Pausable-_pause}. Requirements: - the caller must have the `PAUSER_ROLE`."
      },
      "paused()": {
        "details": "Returns true if the contract is paused, and false otherwise."
      },
      "redeem(uint256,uint256,uint256)": {
        "params": {
          "interestRedeemed": "The incremental amount of interest redeemed",
          "principalRedeemed": "The incremental amount of principal redeemed (cannot be more than principal deposited)",
          "tokenId": "The token id to update (must be owned by the pool calling this function)"
        }
      },
      "renounceRole(bytes32,address)": {
        "details": "Revokes `role` from the calling account. Roles are often managed via {grantRole} and {revokeRole}: this function's purpose is to provide a mechanism for accounts to lose their privileges if they are compromised (such as when a trusted device is misplaced). If the calling account had been revoked `role`, emits a {RoleRevoked} event. Requirements: - the caller must be `account`. May emit a {RoleRevoked} event."
      },
      "revokeRole(bytes32,address)": {
        "details": "Revokes `role` from `account`. If `account` had been granted `role`, emits a {RoleRevoked} event. Requirements: - the caller must have ``role``'s admin role. May emit a {RoleRevoked} event."
      },
      "safeTransferFrom(address,address,uint256)": {
        "details": "See {IERC721-safeTransferFrom}."
      },
      "safeTransferFrom(address,address,uint256,bytes)": {
        "details": "See {IERC721-safeTransferFrom}."
      },
      "setApprovalForAll(address,bool)": {
        "details": "See {IERC721-setApprovalForAll}."
      },
      "symbol()": {
        "details": "See {IERC721Metadata-symbol}."
      },
      "tokenURI(uint256)": {
        "details": "See {IERC721Metadata-tokenURI}."
      },
      "transferFrom(address,address,uint256)": {
        "details": "See {IERC721-transferFrom}."
      },
      "unpause()": {
        "details": "Unpauses all token transfers. See {ERC721Pausable} and {Pausable-_unpause}. Requirements: - the caller must have the `PAUSER_ROLE`."
      }
    },
    "title": "PoolTokens",
    "version": 1
  },
  "userdoc": {
    "kind": "user",
    "methods": {
      "isApprovedOrOwner(address,uint256)": {
        "notice": "Returns a boolean representing whether the spender is the owner or the approved spender of the token"
      },
      "mint((uint256,uint256),address)": {
        "notice": "Called by pool to create a debt position in a particular tranche and amount"
      },
      "onPoolCreated(address)": {
        "notice": "Called by the DobermanFactory to register the pool as a valid pool. Only valid pools can mint/redeem tokens"
      },
      "redeem(uint256,uint256,uint256)": {
        "notice": "Updates a token to reflect the principal and interest amounts that have been redeemed."
      },
      "updateDobermanConfig()": {
        "notice": "Migrates to a new Doberman config address"
      }
    },
    "notice": "PoolTokens is an ERC721 compliant contract, which can represent  junior tranche or senior tranche shares of any of the borrower pools.",
    "version": 1
  },
  "storageLayout": {
    "storage": [
      {
        "astId": 588,
        "contract": "contracts/protocol/core/PoolTokens.sol:PoolTokens",
        "label": "_initialized",
        "offset": 0,
        "slot": "0",
        "type": "t_uint8"
      },
      {
        "astId": 591,
        "contract": "contracts/protocol/core/PoolTokens.sol:PoolTokens",
        "label": "_initializing",
        "offset": 1,
        "slot": "0",
        "type": "t_bool"
      },
      {
        "astId": 4964,
        "contract": "contracts/protocol/core/PoolTokens.sol:PoolTokens",
        "label": "__gap",
        "offset": 0,
        "slot": "1",
        "type": "t_array(t_uint256)50_storage"
      },
      {
        "astId": 5544,
        "contract": "contracts/protocol/core/PoolTokens.sol:PoolTokens",
        "label": "__gap",
        "offset": 0,
        "slot": "51",
        "type": "t_array(t_uint256)50_storage"
      },
      {
        "astId": 184,
        "contract": "contracts/protocol/core/PoolTokens.sol:PoolTokens",
        "label": "_roles",
        "offset": 0,
        "slot": "101",
        "type": "t_mapping(t_bytes32,t_struct(RoleData)179_storage)"
      },
      {
        "astId": 479,
        "contract": "contracts/protocol/core/PoolTokens.sol:PoolTokens",
        "label": "__gap",
        "offset": 0,
        "slot": "102",
        "type": "t_array(t_uint256)49_storage"
      },
      {
        "astId": 3492,
        "contract": "contracts/protocol/core/PoolTokens.sol:PoolTokens",
        "label": "_name",
        "offset": 0,
        "slot": "151",
        "type": "t_string_storage"
      },
      {
        "astId": 3494,
        "contract": "contracts/protocol/core/PoolTokens.sol:PoolTokens",
        "label": "_symbol",
        "offset": 0,
        "slot": "152",
        "type": "t_string_storage"
      },
      {
        "astId": 3498,
        "contract": "contracts/protocol/core/PoolTokens.sol:PoolTokens",
        "label": "_owners",
        "offset": 0,
        "slot": "153",
        "type": "t_mapping(t_uint256,t_address)"
      },
      {
        "astId": 3502,
        "contract": "contracts/protocol/core/PoolTokens.sol:PoolTokens",
        "label": "_balances",
        "offset": 0,
        "slot": "154",
        "type": "t_mapping(t_address,t_uint256)"
      },
      {
        "astId": 3506,
        "contract": "contracts/protocol/core/PoolTokens.sol:PoolTokens",
        "label": "_tokenApprovals",
        "offset": 0,
        "slot": "155",
        "type": "t_mapping(t_uint256,t_address)"
      },
      {
        "astId": 3512,
        "contract": "contracts/protocol/core/PoolTokens.sol:PoolTokens",
        "label": "_operatorApprovals",
        "offset": 0,
        "slot": "156",
        "type": "t_mapping(t_address,t_mapping(t_address,t_bool))"
      },
      {
        "astId": 4414,
        "contract": "contracts/protocol/core/PoolTokens.sol:PoolTokens",
        "label": "__gap",
        "offset": 0,
        "slot": "157",
        "type": "t_array(t_uint256)44_storage"
      },
      {
        "astId": 771,
        "contract": "contracts/protocol/core/PoolTokens.sol:PoolTokens",
        "label": "_paused",
        "offset": 0,
        "slot": "201",
        "type": "t_bool"
      },
      {
        "astId": 876,
        "contract": "contracts/protocol/core/PoolTokens.sol:PoolTokens",
        "label": "__gap",
        "offset": 0,
        "slot": "202",
        "type": "t_array(t_uint256)49_storage"
      },
      {
        "astId": 4611,
        "contract": "contracts/protocol/core/PoolTokens.sol:PoolTokens",
        "label": "__gap",
        "offset": 0,
        "slot": "251",
        "type": "t_array(t_uint256)50_storage"
      },
      {
        "astId": 11244,
        "contract": "contracts/protocol/core/PoolTokens.sol:PoolTokens",
        "label": "_tokenIdTracker",
        "offset": 0,
        "slot": "301",
        "type": "t_struct(Counter)8978_storage"
      },
      {
        "astId": 11335,
        "contract": "contracts/protocol/core/PoolTokens.sol:PoolTokens",
        "label": "__gap",
        "offset": 0,
        "slot": "302",
        "type": "t_array(t_uint256)49_storage"
      },
      {
        "astId": 23583,
        "contract": "contracts/protocol/core/PoolTokens.sol:PoolTokens",
        "label": "config",
        "offset": 0,
        "slot": "351",
        "type": "t_contract(DobermanConfig)20001"
      },
      {
        "astId": 23606,
        "contract": "contracts/protocol/core/PoolTokens.sol:PoolTokens",
        "label": "tokens",
        "offset": 0,
        "slot": "352",
        "type": "t_mapping(t_uint256,t_struct(TokenInfo)13844_storage)"
      },
      {
        "astId": 23611,
        "contract": "contracts/protocol/core/PoolTokens.sol:PoolTokens",
        "label": "pools",
        "offset": 0,
        "slot": "353",
        "type": "t_mapping(t_address,t_struct(PoolInfo)23601_storage)"
      }
    ],
    "types": {
      "t_address": {
        "encoding": "inplace",
        "label": "address",
        "numberOfBytes": "20"
      },
      "t_array(t_uint256)44_storage": {
        "base": "t_uint256",
        "encoding": "inplace",
        "label": "uint256[44]",
        "numberOfBytes": "1408"
      },
      "t_array(t_uint256)49_storage": {
        "base": "t_uint256",
        "encoding": "inplace",
        "label": "uint256[49]",
        "numberOfBytes": "1568"
      },
      "t_array(t_uint256)50_storage": {
        "base": "t_uint256",
        "encoding": "inplace",
        "label": "uint256[50]",
        "numberOfBytes": "1600"
      },
      "t_bool": {
        "encoding": "inplace",
        "label": "bool",
        "numberOfBytes": "1"
      },
      "t_bytes32": {
        "encoding": "inplace",
        "label": "bytes32",
        "numberOfBytes": "32"
      },
      "t_contract(DobermanConfig)20001": {
        "encoding": "inplace",
        "label": "contract DobermanConfig",
        "numberOfBytes": "20"
      },
      "t_mapping(t_address,t_bool)": {
        "encoding": "mapping",
        "key": "t_address",
        "label": "mapping(address => bool)",
        "numberOfBytes": "32",
        "value": "t_bool"
      },
      "t_mapping(t_address,t_mapping(t_address,t_bool))": {
        "encoding": "mapping",
        "key": "t_address",
        "label": "mapping(address => mapping(address => bool))",
        "numberOfBytes": "32",
        "value": "t_mapping(t_address,t_bool)"
      },
      "t_mapping(t_address,t_struct(PoolInfo)23601_storage)": {
        "encoding": "mapping",
        "key": "t_address",
        "label": "mapping(address => struct PoolTokens.PoolInfo)",
        "numberOfBytes": "32",
        "value": "t_struct(PoolInfo)23601_storage"
      },
      "t_mapping(t_address,t_uint256)": {
        "encoding": "mapping",
        "key": "t_address",
        "label": "mapping(address => uint256)",
        "numberOfBytes": "32",
        "value": "t_uint256"
      },
      "t_mapping(t_bytes32,t_struct(RoleData)179_storage)": {
        "encoding": "mapping",
        "key": "t_bytes32",
        "label": "mapping(bytes32 => struct AccessControlUpgradeable.RoleData)",
        "numberOfBytes": "32",
        "value": "t_struct(RoleData)179_storage"
      },
      "t_mapping(t_uint256,t_address)": {
        "encoding": "mapping",
        "key": "t_uint256",
        "label": "mapping(uint256 => address)",
        "numberOfBytes": "32",
        "value": "t_address"
      },
      "t_mapping(t_uint256,t_struct(TokenInfo)13844_storage)": {
        "encoding": "mapping",
        "key": "t_uint256",
        "label": "mapping(uint256 => struct IPoolTokens.TokenInfo)",
        "numberOfBytes": "32",
        "value": "t_struct(TokenInfo)13844_storage"
      },
      "t_string_storage": {
        "encoding": "bytes",
        "label": "string",
        "numberOfBytes": "32"
      },
      "t_struct(Counter)8978_storage": {
        "encoding": "inplace",
        "label": "struct Counters.Counter",
        "members": [
          {
            "astId": 8977,
            "contract": "contracts/protocol/core/PoolTokens.sol:PoolTokens",
            "label": "_value",
            "offset": 0,
            "slot": "0",
            "type": "t_uint256"
          }
        ],
        "numberOfBytes": "32"
      },
      "t_struct(PoolInfo)23601_storage": {
        "encoding": "inplace",
        "label": "struct PoolTokens.PoolInfo",
        "members": [
          {
            "astId": 23596,
            "contract": "contracts/protocol/core/PoolTokens.sol:PoolTokens",
            "label": "totalMinted",
            "offset": 0,
            "slot": "0",
            "type": "t_uint256"
          },
          {
            "astId": 23598,
            "contract": "contracts/protocol/core/PoolTokens.sol:PoolTokens",
            "label": "totalPrincipalRedeemed",
            "offset": 0,
            "slot": "1",
            "type": "t_uint256"
          },
          {
            "astId": 23600,
            "contract": "contracts/protocol/core/PoolTokens.sol:PoolTokens",
            "label": "created",
            "offset": 0,
            "slot": "2",
            "type": "t_bool"
          }
        ],
        "numberOfBytes": "96"
      },
      "t_struct(RoleData)179_storage": {
        "encoding": "inplace",
        "label": "struct AccessControlUpgradeable.RoleData",
        "members": [
          {
            "astId": 176,
            "contract": "contracts/protocol/core/PoolTokens.sol:PoolTokens",
            "label": "members",
            "offset": 0,
            "slot": "0",
            "type": "t_mapping(t_address,t_bool)"
          },
          {
            "astId": 178,
            "contract": "contracts/protocol/core/PoolTokens.sol:PoolTokens",
            "label": "adminRole",
            "offset": 0,
            "slot": "1",
            "type": "t_bytes32"
          }
        ],
        "numberOfBytes": "64"
      },
      "t_struct(TokenInfo)13844_storage": {
        "encoding": "inplace",
        "label": "struct IPoolTokens.TokenInfo",
        "members": [
          {
            "astId": 13835,
            "contract": "contracts/protocol/core/PoolTokens.sol:PoolTokens",
            "label": "pool",
            "offset": 0,
            "slot": "0",
            "type": "t_address"
          },
          {
            "astId": 13837,
            "contract": "contracts/protocol/core/PoolTokens.sol:PoolTokens",
            "label": "tranche",
            "offset": 0,
            "slot": "1",
            "type": "t_uint256"
          },
          {
            "astId": 13839,
            "contract": "contracts/protocol/core/PoolTokens.sol:PoolTokens",
            "label": "principalAmount",
            "offset": 0,
            "slot": "2",
            "type": "t_uint256"
          },
          {
            "astId": 13841,
            "contract": "contracts/protocol/core/PoolTokens.sol:PoolTokens",
            "label": "principalRedeemed",
            "offset": 0,
            "slot": "3",
            "type": "t_uint256"
          },
          {
            "astId": 13843,
            "contract": "contracts/protocol/core/PoolTokens.sol:PoolTokens",
            "label": "interestRedeemed",
            "offset": 0,
            "slot": "4",
            "type": "t_uint256"
          }
        ],
        "numberOfBytes": "160"
      },
      "t_uint256": {
        "encoding": "inplace",
        "label": "uint256",
        "numberOfBytes": "32"
      },
      "t_uint8": {
        "encoding": "inplace",
        "label": "uint8",
        "numberOfBytes": "1"
      }
    }
  }
}