{
  "address": "0x38AcCB8158ADb854B281d2A73fC364fFF3d354dA",
  "abi": [
    {
      "anonymous": false,
      "inputs": [
        {
          "indexed": true,
          "internalType": "address",
          "name": "capitalProvider",
          "type": "address"
        },
        {
          "indexed": false,
          "internalType": "uint256",
          "name": "amount",
          "type": "uint256"
        },
        {
          "indexed": false,
          "internalType": "uint256",
          "name": "shares",
          "type": "uint256"
        }
      ],
      "name": "DepositMade",
      "type": "event"
    },
    {
      "anonymous": false,
      "inputs": [
        {
          "indexed": true,
          "internalType": "address",
          "name": "who",
          "type": "address"
        },
        {
          "indexed": false,
          "internalType": "address",
          "name": "configAddress",
          "type": "address"
        }
      ],
      "name": "DobermanConfigUpdated",
      "type": "event"
    },
    {
      "anonymous": false,
      "inputs": [
        {
          "indexed": false,
          "internalType": "uint8",
          "name": "version",
          "type": "uint8"
        }
      ],
      "name": "Initialized",
      "type": "event"
    },
    {
      "anonymous": false,
      "inputs": [
        {
          "indexed": true,
          "internalType": "address",
          "name": "payer",
          "type": "address"
        },
        {
          "indexed": false,
          "internalType": "uint256",
          "name": "poolAmount",
          "type": "uint256"
        },
        {
          "indexed": false,
          "internalType": "uint256",
          "name": "reserveAmount",
          "type": "uint256"
        }
      ],
      "name": "InterestCollected",
      "type": "event"
    },
    {
      "anonymous": false,
      "inputs": [
        {
          "indexed": false,
          "internalType": "address",
          "name": "account",
          "type": "address"
        }
      ],
      "name": "Paused",
      "type": "event"
    },
    {
      "anonymous": false,
      "inputs": [
        {
          "indexed": true,
          "internalType": "address",
          "name": "payer",
          "type": "address"
        },
        {
          "indexed": false,
          "internalType": "uint256",
          "name": "amount",
          "type": "uint256"
        }
      ],
      "name": "PrincipalCollected",
      "type": "event"
    },
    {
      "anonymous": false,
      "inputs": [
        {
          "indexed": true,
          "internalType": "address",
          "name": "creditline",
          "type": "address"
        },
        {
          "indexed": false,
          "internalType": "int256",
          "name": "amount",
          "type": "int256"
        }
      ],
      "name": "PrincipalWrittendown",
      "type": "event"
    },
    {
      "anonymous": false,
      "inputs": [
        {
          "indexed": true,
          "internalType": "address",
          "name": "user",
          "type": "address"
        },
        {
          "indexed": false,
          "internalType": "uint256",
          "name": "amount",
          "type": "uint256"
        }
      ],
      "name": "ReserveFundsCollected",
      "type": "event"
    },
    {
      "anonymous": false,
      "inputs": [
        {
          "indexed": true,
          "internalType": "bytes32",
          "name": "role",
          "type": "bytes32"
        },
        {
          "indexed": true,
          "internalType": "bytes32",
          "name": "previousAdminRole",
          "type": "bytes32"
        },
        {
          "indexed": true,
          "internalType": "bytes32",
          "name": "newAdminRole",
          "type": "bytes32"
        }
      ],
      "name": "RoleAdminChanged",
      "type": "event"
    },
    {
      "anonymous": false,
      "inputs": [
        {
          "indexed": true,
          "internalType": "bytes32",
          "name": "role",
          "type": "bytes32"
        },
        {
          "indexed": true,
          "internalType": "address",
          "name": "account",
          "type": "address"
        },
        {
          "indexed": true,
          "internalType": "address",
          "name": "sender",
          "type": "address"
        }
      ],
      "name": "RoleGranted",
      "type": "event"
    },
    {
      "anonymous": false,
      "inputs": [
        {
          "indexed": true,
          "internalType": "bytes32",
          "name": "role",
          "type": "bytes32"
        },
        {
          "indexed": true,
          "internalType": "address",
          "name": "account",
          "type": "address"
        },
        {
          "indexed": true,
          "internalType": "address",
          "name": "sender",
          "type": "address"
        }
      ],
      "name": "RoleRevoked",
      "type": "event"
    },
    {
      "anonymous": false,
      "inputs": [
        {
          "indexed": true,
          "internalType": "address",
          "name": "from",
          "type": "address"
        },
        {
          "indexed": true,
          "internalType": "address",
          "name": "to",
          "type": "address"
        },
        {
          "indexed": false,
          "internalType": "uint256",
          "name": "amount",
          "type": "uint256"
        }
      ],
      "name": "TransferMade",
      "type": "event"
    },
    {
      "anonymous": false,
      "inputs": [
        {
          "indexed": false,
          "internalType": "address",
          "name": "account",
          "type": "address"
        }
      ],
      "name": "Unpaused",
      "type": "event"
    },
    {
      "anonymous": false,
      "inputs": [
        {
          "indexed": true,
          "internalType": "address",
          "name": "capitalProvider",
          "type": "address"
        },
        {
          "indexed": false,
          "internalType": "uint256",
          "name": "userAmount",
          "type": "uint256"
        },
        {
          "indexed": false,
          "internalType": "uint256",
          "name": "reserveAmount",
          "type": "uint256"
        }
      ],
      "name": "WithdrawalMade",
      "type": "event"
    },
    {
      "inputs": [],
      "name": "DEFAULT_ADMIN_ROLE",
      "outputs": [
        {
          "internalType": "bytes32",
          "name": "",
          "type": "bytes32"
        }
      ],
      "stateMutability": "view",
      "type": "function"
    },
    {
      "inputs": [],
      "name": "OWNER_ROLE",
      "outputs": [
        {
          "internalType": "bytes32",
          "name": "",
          "type": "bytes32"
        }
      ],
      "stateMutability": "view",
      "type": "function"
    },
    {
      "inputs": [],
      "name": "PAUSER_ROLE",
      "outputs": [
        {
          "internalType": "bytes32",
          "name": "",
          "type": "bytes32"
        }
      ],
      "stateMutability": "view",
      "type": "function"
    },
    {
      "inputs": [
        {
          "internalType": "address",
          "name": "owner",
          "type": "address"
        }
      ],
      "name": "__BaseUpgradeablePausable__init",
      "outputs": [],
      "stateMutability": "nonpayable",
      "type": "function"
    },
    {
      "inputs": [],
      "name": "__PauserPausable__init",
      "outputs": [],
      "stateMutability": "nonpayable",
      "type": "function"
    },
    {
      "inputs": [],
      "name": "assets",
      "outputs": [
        {
          "internalType": "uint256",
          "name": "",
          "type": "uint256"
        }
      ],
      "stateMutability": "view",
      "type": "function"
    },
    {
      "inputs": [
        {
          "internalType": "address",
          "name": "from",
          "type": "address"
        },
        {
          "internalType": "uint256",
          "name": "interest",
          "type": "uint256"
        },
        {
          "internalType": "uint256",
          "name": "principal",
          "type": "uint256"
        }
      ],
      "name": "collectInterestAndPrincipal",
      "outputs": [],
      "stateMutability": "nonpayable",
      "type": "function"
    },
    {
      "inputs": [],
      "name": "compoundBalance",
      "outputs": [
        {
          "internalType": "uint256",
          "name": "",
          "type": "uint256"
        }
      ],
      "stateMutability": "view",
      "type": "function"
    },
    {
      "inputs": [],
      "name": "config",
      "outputs": [
        {
          "internalType": "contract DobermanConfig",
          "name": "",
          "type": "address"
        }
      ],
      "stateMutability": "view",
      "type": "function"
    },
    {
      "inputs": [
        {
          "internalType": "uint256",
          "name": "amount",
          "type": "uint256"
        }
      ],
      "name": "deposit",
      "outputs": [],
      "stateMutability": "nonpayable",
      "type": "function"
    },
    {
      "inputs": [
        {
          "internalType": "address",
          "name": "creditlineAddress",
          "type": "address"
        },
        {
          "internalType": "int256",
          "name": "writedownDelta",
          "type": "int256"
        }
      ],
      "name": "distributeLosses",
      "outputs": [],
      "stateMutability": "nonpayable",
      "type": "function"
    },
    {
      "inputs": [
        {
          "internalType": "address",
          "name": "to",
          "type": "address"
        },
        {
          "internalType": "uint256",
          "name": "amount",
          "type": "uint256"
        }
      ],
      "name": "drawdown",
      "outputs": [
        {
          "internalType": "bool",
          "name": "",
          "type": "bool"
        }
      ],
      "stateMutability": "nonpayable",
      "type": "function"
    },
    {
      "inputs": [
        {
          "internalType": "bytes32",
          "name": "role",
          "type": "bytes32"
        }
      ],
      "name": "getRoleAdmin",
      "outputs": [
        {
          "internalType": "bytes32",
          "name": "",
          "type": "bytes32"
        }
      ],
      "stateMutability": "view",
      "type": "function"
    },
    {
      "inputs": [
        {
          "internalType": "bytes32",
          "name": "role",
          "type": "bytes32"
        },
        {
          "internalType": "address",
          "name": "account",
          "type": "address"
        }
      ],
      "name": "grantRole",
      "outputs": [],
      "stateMutability": "nonpayable",
      "type": "function"
    },
    {
      "inputs": [
        {
          "internalType": "bytes32",
          "name": "role",
          "type": "bytes32"
        },
        {
          "internalType": "address",
          "name": "account",
          "type": "address"
        }
      ],
      "name": "hasRole",
      "outputs": [
        {
          "internalType": "bool",
          "name": "",
          "type": "bool"
        }
      ],
      "stateMutability": "view",
      "type": "function"
    },
    {
      "inputs": [
        {
          "internalType": "address",
          "name": "owner",
          "type": "address"
        },
        {
          "internalType": "contract DobermanConfig",
          "name": "_config",
          "type": "address"
        }
      ],
      "name": "initialize",
      "outputs": [],
      "stateMutability": "nonpayable",
      "type": "function"
    },
    {
      "inputs": [],
      "name": "isAdmin",
      "outputs": [
        {
          "internalType": "bool",
          "name": "",
          "type": "bool"
        }
      ],
      "stateMutability": "view",
      "type": "function"
    },
    {
      "inputs": [],
      "name": "migrateToSeniorPool",
      "outputs": [],
      "stateMutability": "nonpayable",
      "type": "function"
    },
    {
      "inputs": [],
      "name": "pause",
      "outputs": [],
      "stateMutability": "nonpayable",
      "type": "function"
    },
    {
      "inputs": [],
      "name": "paused",
      "outputs": [
        {
          "internalType": "bool",
          "name": "",
          "type": "bool"
        }
      ],
      "stateMutability": "view",
      "type": "function"
    },
    {
      "inputs": [
        {
          "internalType": "bytes32",
          "name": "role",
          "type": "bytes32"
        },
        {
          "internalType": "address",
          "name": "account",
          "type": "address"
        }
      ],
      "name": "renounceRole",
      "outputs": [],
      "stateMutability": "nonpayable",
      "type": "function"
    },
    {
      "inputs": [
        {
          "internalType": "bytes32",
          "name": "role",
          "type": "bytes32"
        },
        {
          "internalType": "address",
          "name": "account",
          "type": "address"
        }
      ],
      "name": "revokeRole",
      "outputs": [],
      "stateMutability": "nonpayable",
      "type": "function"
    },
    {
      "inputs": [],
      "name": "sharePrice",
      "outputs": [
        {
          "internalType": "uint256",
          "name": "",
          "type": "uint256"
        }
      ],
      "stateMutability": "view",
      "type": "function"
    },
    {
      "inputs": [
        {
          "internalType": "bytes4",
          "name": "interfaceId",
          "type": "bytes4"
        }
      ],
      "name": "supportsInterface",
      "outputs": [
        {
          "internalType": "bool",
          "name": "",
          "type": "bool"
        }
      ],
      "stateMutability": "view",
      "type": "function"
    },
    {
      "inputs": [],
      "name": "sweepFromCompound",
      "outputs": [],
      "stateMutability": "nonpayable",
      "type": "function"
    },
    {
      "inputs": [],
      "name": "sweepToCompound",
      "outputs": [],
      "stateMutability": "nonpayable",
      "type": "function"
    },
    {
      "inputs": [
        {
          "internalType": "address",
          "name": "from",
          "type": "address"
        },
        {
          "internalType": "address",
          "name": "to",
          "type": "address"
        },
        {
          "internalType": "uint256",
          "name": "amount",
          "type": "uint256"
        }
      ],
      "name": "transferFrom",
      "outputs": [
        {
          "internalType": "bool",
          "name": "",
          "type": "bool"
        }
      ],
      "stateMutability": "nonpayable",
      "type": "function"
    },
    {
      "inputs": [],
      "name": "unpause",
      "outputs": [],
      "stateMutability": "nonpayable",
      "type": "function"
    },
    {
      "inputs": [],
      "name": "updateDobermanConfig",
      "outputs": [],
      "stateMutability": "nonpayable",
      "type": "function"
    },
    {
      "inputs": [
        {
          "internalType": "uint256",
          "name": "usdcAmount",
          "type": "uint256"
        }
      ],
      "name": "withdraw",
      "outputs": [],
      "stateMutability": "nonpayable",
      "type": "function"
    },
    {
      "inputs": [
        {
          "internalType": "uint256",
          "name": "fiduAmount",
          "type": "uint256"
        }
      ],
      "name": "withdrawInFidu",
      "outputs": [],
      "stateMutability": "nonpayable",
      "type": "function"
    }
  ],
  "transactionHash": "0x5d752c0b632668f80e47d63b6f18dffeab8fa5f37d969ed64eb17e821c59517c",
  "args": [],
  "numDeployments": 1,
  "solcInputHash": "6f5b4f598a720440a2a5244b4c8e3cc9",
  "bytecode": "0x608060405234801561001057600080fd5b5061377c806100206000396000f3fe608060405234801561001057600080fd5b50600436106101a55760003560e01c806371a97305116100ef578063a217fddf11610092578063a217fddf14610344578063b6b55f251461034c578063b6db75a01461035f578063d30a091114610367578063d547741f1461036f578063e58378bb14610382578063e63ab1e914610397578063f1a80e62146103ac57600080fd5b806371a97305146102d357806371bb0bab146102db57806379502c55146102ee5780638456cb591461030f57806387269729146103175780638836d9021461032157806391d14854146103295780639e4a88e11461033c57600080fd5b806336568abe1161015757806336568abe146102645780633f4ba83a14610277578063485cc9551461027f5780634cbceb2d14610292578063526d81f61461029a57806358031d12146102a25780635c975abb146102b55780636acab9da146102c057600080fd5b806301ffc9a7146101aa578063097616a3146101d257806323b872dd146101e7578063248a9ca3146101fa5780632e1a7d4d1461022b5780632f2ff15d1461023e578063338744bc14610251575b600080fd5b6101bd6101b83660046130f3565b6103b6565b60405190151581526020015b60405180910390f35b6101e56101e0366004612f88565b6103ed565b005b6101bd6101f5366004612fc0565b610583565b61021d6102083660046130b7565b60009081526065602052604090206001015490565b6040519081526020016101c9565b6101e56102393660046130b7565b61067c565b6101e561024c3660046130cf565b6106e2565b6101e561025f366004613038565b61070c565b6101e56102723660046130cf565b6107fd565b6101e5610877565b6101e561028d366004613000565b6108b5565b6101e5610b72565b6101e56110b6565b6101e56102b03660046130b7565b61116d565b60975460ff166101bd565b6101bd6102ce366004613038565b6111d2565b61021d611246565b6101e56102e9366004613063565b6113fc565b6101c454610302906001600160a01b031681565b6040516101c991906131be565b6101e5611455565b61021d6101c35481565b6101e5611491565b6101bd6103373660046130cf565b6114c5565b6101e56114f0565b61021d600081565b6101e561035a3660046130b7565b611739565b6101bd611963565b6101e5611982565b6101e561037d3660046130cf565b611a17565b61021d6000805160206136e783398151915281565b61021d60008051602061372783398151915281565b61021d6101c55481565b60006001600160e01b03198216637965db0b60e01b14806103e757506301ffc9a760e01b6001600160e01b03198316145b92915050565b600054610100900460ff161580801561040d5750600054600160ff909116105b806104275750303b158015610427575060005460ff166001145b61044c5760405162461bcd60e51b8152600401610443906132e9565b60405180910390fd5b6000805460ff19166001179055801561046f576000805461ff0019166101001790555b6001600160a01b0382166104c55760405162461bcd60e51b815260206004820181905260248201527f4f776e65722063616e6e6f7420626520746865207a65726f20616464726573736044820152606401610443565b6104cd611a3c565b6104d5611a63565b6104dd611a96565b6104f56000805160206136e783398151915283611ac4565b61050d60008051602061372783398151915283611ac4565b6105336000805160206137278339815191526000805160206136e7833981519152611ace565b61054b6000805160206136e783398151915280611ace565b801561057f576000805461ff0019169055604051600181526000805160206137078339815191529060200160405180910390a15b5050565b6101c45460009061059c906001600160a01b0316611b19565b6001600160a01b0316336001600160a01b0316146105cc5760405162461bcd60e51b815260040161044390613337565b6105d4611b9b565b60006105e1858585611be1565b9050806106275760405162461bcd60e51b81526020600482015260146024820152731554d110c8151c985b9cd9995c8819985a5b195960621b6044820152606401610443565b836001600160a01b0316856001600160a01b03167f422971e1d1a7c8b68372f65fe1426aef054f0c6290124a929c843c5c019521d68560405161066c91815260200190565b60405180910390a3949350505050565b610684611b9b565b61068c611ce9565b600081116106ac5760405162461bcd60e51b81526004016104439061338c565b6101c554156106bd576106bd611d43565b60006106c882611de3565b90506106d48282611e0c565b506106df600160c955565b50565b6000828152606560205260409020600101546106fd8161207e565b6107078383612088565b505050565b6101c454610722906001600160a01b0316611b19565b6001600160a01b0316336001600160a01b0316146107525760405162461bcd60e51b815260040161044390613337565b61075a611b9b565b600081131561078957600061076e8261210e565b6101c35490915061077f9082612126565b6101c355506107b6565b600061079f61079a836000196135bf565b61210e565b6101c3549091506107b09082612132565b6101c355505b816001600160a01b03167f8c23a9a70a8448cfed7aae767d71bd68857b79de2d189ee6a770619ada8b857a826040516107f191815260200190565b60405180910390a25050565b6001600160a01b038116331461086d5760405162461bcd60e51b815260206004820152602f60248201527f416363657373436f6e74726f6c3a2063616e206f6e6c792072656e6f756e636560448201526e103937b632b9903337b91039b2b63360891b6064820152608401610443565b61057f828261213e565b61088f600080516020613727833981519152336114c5565b6108ab5760405162461bcd60e51b815260040161044390613255565b6108b36121a5565b565b600054610100900460ff16158080156108d55750600054600160ff909116105b806108ef5750303b1580156108ef575060005460ff166001145b61090b5760405162461bcd60e51b8152600401610443906132e9565b6000805460ff19166001179055801561092e576000805461ff0019166101001790555b6001600160a01b0383161580159061094e57506001600160a01b03821615155b6109ad5760405162461bcd60e51b815260206004820152602a60248201527f4f776e657220616e6420636f6e666967206164647265737365732063616e6e6f6044820152697420626520656d70747960b01b6064820152608401610443565b6109b6836103ed565b6101c480546001600160a01b0319166001600160a01b0384161790556109da6121f1565b6101c3556101c4546000906109f7906001600160a01b03166121ff565b9050806001600160a01b03166318160ddd6040518163ffffffff1660e01b815260040160206040518083038186803b158015610a3257600080fd5b505afa158015610a46573d6000803e3d6000fd5b505050506040513d601f19601f82011682018060405250810190610a6a919061311b565b5060405163095ea7b360e01b81526000906001600160a01b0383169063095ea7b390610a9e903090600019906004016131d2565b602060405180830381600087803b158015610ab857600080fd5b505af1158015610acc573d6000803e3d6000fd5b505050506040513d601f19601f82011682018060405250810190610af09190613097565b905080610b385760405162461bcd60e51b81526020600482015260166024820152754661696c656420746f20617070726f7665205553444360501b6044820152606401610443565b50508015610707576000805461ff0019169055604051600181526000805160206137078339815191529060200160405180910390a1505050565b610b7a611963565b610b965760405162461bcd60e51b815260040161044390613451565b6101c55415610ba757610ba7611491565b60975460ff16610bb957610bb9611455565b6101c4547f9f2df0fed2c77648de5860a4cc508cd0818c85b8b8a1ab4ceeef8d981c8956a69060008051602061372783398151915290610c01906001600160a01b031661220a565b604051631b2b455f60e11b8152600481018490523060248201526001600160a01b0391909116906336568abe90604401600060405180830381600087803b158015610c4b57600080fd5b505af1158015610c5f573d6000803e3d6000fd5b50506101c454610c7a92506001600160a01b0316905061220a565b604051631b2b455f60e11b8152600481018390523060248201526001600160a01b0391909116906336568abe90604401600060405180830381600087803b158015610cc457600080fd5b505af1158015610cd8573d6000803e3d6000fd5b50506101c45460009250610cf591506001600160a01b0316612215565b6101c454909150600090610d11906001600160a01b03166121ff565b6001600160a01b03166370a08231306040518263ffffffff1660e01b8152600401610d3c91906131be565b60206040518083038186803b158015610d5457600080fd5b505afa158015610d68573d6000803e3d6000fd5b505050506040513d601f19601f82011682018060405250810190610d8c919061311b565b90506000610d9b308484611be1565b905080610e055760405162461bcd60e51b815260206004820152603260248201527f4661696c656420746f207472616e7366657220555344432062616c616e6365206044820152711d1bc81d1a19481cd95b9a5bdc881c1bdbdb60721b6064820152608401610443565b604051733d9819210a31b4961b30ef54be2aed79b9c9cd3b90600090610e2f9030906024016131be565b60408051601f198184030181529181526020820180516001600160e01b03166374d7814960e11b179052519091506060906001600160a01b03841690610e76908490613133565b6000604051808303816000865af19150503d8060008114610eb3576040519150601f19603f3d011682016040523d82523d6000602084013e610eb8565b606091505b50909450905083610f025760405162461bcd60e51b815260206004820152601460248201527304661696c656420746f20636c61696d20434f4d560641b6044820152606401610443565b60405173c00e94cb662c3520282e6f5717214004a7f2688890610f299030906024016131be565b60408051601f198184030181529181526020820180516001600160e01b03166370a0823160e01b179052519093506001600160a01b03821690610f6d908590613133565b6000604051808303816000865af19150503d8060008114610faa576040519150601f19603f3d011682016040523d82523d6000602084013e610faf565b606091505b5090955091506000610fc2836020015190565b90508781604051602401610fd79291906131d2565b60408051601f198184030181529181526020820180516001600160e01b031663a9059cbb60e01b179052519094506001600160a01b0383169061101b908690613133565b6000604051808303816000865af19150503d8060008114611058576040519150601f19603f3d011682016040523d82523d6000602084013e61105d565b606091505b509096509250856110aa5760405162461bcd60e51b815260206004820152601760248201527604661696c656420746f207472616e7366657220434f4d5604c1b6044820152606401610443565b50505050505050505050565b600054610100900460ff16158080156110d65750600054600160ff909116105b806110f05750303b1580156110f0575060005460ff166001145b61110c5760405162461bcd60e51b8152600401610443906132e9565b6000805460ff19166001179055801561112f576000805461ff0019166101001790555b611137611a63565b80156106df576000805461ff0019169055604051600181526000805160206137078339815191529060200160405180910390a150565b611175611b9b565b61117d611ce9565b6000811161119d5760405162461bcd60e51b81526004016104439061338c565b6101c554156111ae576111ae611d43565b60006111b98261222d565b9050816111c68282611e0c565b50506106df600160c955565b6101c4546000906111eb906001600160a01b0316611b19565b6001600160a01b0316336001600160a01b03161461121b5760405162461bcd60e51b815260040161044390613337565b611223611b9b565b6101c5541561123457611234611d43565b61123f308484610583565b9392505050565b6101c4546000908190611261906001600160a01b0316612251565b90506113f6816001600160a01b031663a6f4487e6040518163ffffffff1660e01b815260040160206040518083038186803b15801561129f57600080fd5b505afa1580156112b3573d6000803e3d6000fd5b505050506040513d601f19601f820116820180604052508101906112d7919061311b565b6113f0836001600160a01b031663ed80c8506040518163ffffffff1660e01b815260040160206040518083038186803b15801561131357600080fd5b505afa158015611327573d6000803e3d6000fd5b505050506040513d601f19601f8201168201806040525081019061134b919061311b565b6101c4546113ea90611365906001600160a01b03166121ff565b6001600160a01b03166370a08231306040518263ffffffff1660e01b815260040161139091906131be565b60206040518083038186803b1580156113a857600080fd5b505afa1580156113bc573d6000803e3d6000fd5b505050506040513d601f19601f820116820180604052508101906113e0919061311b565b6101c55490612126565b90612126565b90612132565b91505090565b6101c454611412906001600160a01b0316611b19565b6001600160a01b0316336001600160a01b0316146114425760405162461bcd60e51b815260040161044390613337565b61144a611b9b565b61070783838361225c565b61146d600080516020613727833981519152336114c5565b6114895760405162461bcd60e51b815260040161044390613255565b6108b36123e3565b611499611963565b6114b55760405162461bcd60e51b815260040161044390613451565b6114bd611b9b565b6108b3611d43565b60009182526065602090815260408084206001600160a01b0393909316845291905290205460ff1690565b6114f8611963565b6115145760405162461bcd60e51b815260040161044390613451565b61151c611b9b565b6101c454600090611535906001600160a01b03166121ff565b90506000816001600160a01b03166370a08231306040518263ffffffff1660e01b815260040161156591906131be565b60206040518083038186803b15801561157d57600080fd5b505afa158015611591573d6000803e3d6000fd5b505050506040513d601f19601f820116820180604052508101906115b5919061311b565b6101c4549091506000906115d1906001600160a01b0316612420565b90506000836001600160a01b031663095ea7b383856040518363ffffffff1660e01b81526004016116039291906131d2565b602060405180830381600087803b15801561161d57600080fd5b505af1158015611631573d6000803e3d6000fd5b505050506040513d601f19601f820116820180604052508101906116559190613097565b9050806116745760405162461bcd60e51b81526004016104439061340e565b61167e828461242b565b6101c454611694906001600160a01b03166121ff565b6001600160a01b031663095ea7b38360006040518363ffffffff1660e01b81526004016116c29291906131d2565b602060405180830381600087803b1580156116dc57600080fd5b505af11580156116f0573d6000803e3d6000fd5b505050506040513d601f19601f820116820180604052508101906117149190613097565b9050806117335760405162461bcd60e51b81526004016104439061340e565b50505050565b611741611b9b565b8061174b81612586565b6117675760405162461bcd60e51b8152600401610443906132a1565b61176f611ce9565b600082116117bf5760405162461bcd60e51b815260206004820152601b60248201527f4d757374206465706f736974206d6f7265207468616e207a65726f00000000006044820152606401610443565b60006117ca83611de3565b905060006117da826113ea61260d565b90506117e581612696565b61184a5760405162461bcd60e51b815260206004820152603060248201527f4465706f73697420776f756c64207075742074686520506f6f6c206f7665722060448201526f3a3432903a37ba30b6103634b6b4ba1760811b6064820152608401610443565b604080518581526020810184905233917f0b05f0d1cd0819f155b8a61f60baf7767c1ee49d04aeaab701df236140eb93f9910160405180910390a26000611892333087611be1565b9050806118e15760405162461bcd60e51b815260206004820152601e60248201527f4661696c656420746f207472616e7366657220666f72206465706f73697400006044820152606401610443565b6101c4546118f7906001600160a01b031661220a565b6001600160a01b031663449a52f833856040518363ffffffff1660e01b81526004016119249291906131d2565b600060405180830381600087803b15801561193e57600080fd5b505af1158015611952573d6000803e3d6000fd5b5050505050505061057f600160c955565b600061197d6000805160206136e7833981519152336114c5565b905090565b61198a611963565b6119a65760405162461bcd60e51b815260040161044390613451565b6101c4546119bc906001600160a01b0316612732565b6101c480546001600160a01b0319166001600160a01b0392909216918217905560405133917f8d003bc2e3965bd9d92389a8ae0ef8c601fa211ba9378150dde7dc3cf38c3a3691611a0d91906131be565b60405180910390a2565b600082815260656020526040902060010154611a328161207e565b610707838361213e565b600054610100900460ff166108b35760405162461bcd60e51b8152600401610443906133c3565b600054610100900460ff16611a8a5760405162461bcd60e51b8152600401610443906133c3565b6097805460ff19169055565b600054610100900460ff16611abd5760405162461bcd60e51b8152600401610443906133c3565b600160c955565b61057f8282612088565b600082815260656020526040808220600101805490849055905190918391839186917fbd79b86ffe0ab8e8776151514217cd7cacd52c909f66475c3af44e129f0b00ff9190a4505050565b60006001600160a01b03821663b93f9b0a60035b6040518263ffffffff1660e01b8152600401611b4b91815260200190565b60206040518083038186803b158015611b6357600080fd5b505afa158015611b77573d6000803e3d6000fd5b505050506040513d601f19601f820116820180604052508101906103e79190612fa4565b60975460ff16156108b35760405162461bcd60e51b815260206004820152601060248201526f14185d5cd8589b194e881c185d5cd95960821b6044820152606401610443565b60006001600160a01b038316611c395760405162461bcd60e51b815260206004820152601a60248201527f43616e27742073656e6420746f207a65726f20616464726573730000000000006044820152606401610443565b6101c454600090611c52906001600160a01b03166121ff565b6040516323b872dd60e01b81526001600160a01b038781166004830152868116602483015260448201869052919250908216906323b872dd90606401602060405180830381600087803b158015611ca857600080fd5b505af1158015611cbc573d6000803e3d6000fd5b505050506040513d601f19601f82011682018060405250810190611ce09190613097565b95945050505050565b600260c9541415611d3c5760405162461bcd60e51b815260206004820152601f60248201527f5265656e7472616e637947756172643a207265656e7472616e742063616c6c006044820152606401610443565b600260c955565b6101c454600090611d5c906001600160a01b0316612420565b90506106df81826001600160a01b03166370a08231306040518263ffffffff1660e01b8152600401611d8e91906131be565b60206040518083038186803b158015611da657600080fd5b505afa158015611dba573d6000803e3d6000fd5b505050506040513d601f19601f82011682018060405250810190611dde919061311b565b61274a565b60006103e76101c354611e06611df76121f1565b611e0086612a9c565b90612ab7565b90612ac3565b81611e1681612586565b611e325760405162461bcd60e51b8152600401610443906132a1565b6101c454600090611e4b906001600160a01b031661220a565b90506000816001600160a01b03166370a08231336040518263ffffffff1660e01b8152600401611e7b91906131be565b60206040518083038186803b158015611e9357600080fd5b505afa158015611ea7573d6000803e3d6000fd5b505050506040513d601f19601f82011682018060405250810190611ecb919061311b565b905080841115611f3d5760405162461bcd60e51b815260206004820152603760248201527f416d6f756e74207265717565737465642069732067726561746572207468616e604482015276207768617420746869732061646472657373206f776e7360481b6064820152608401610443565b6101c454600090611f6190611f5a906001600160a01b0316612acf565b8790612ac3565b90506000611f6f8783612132565b604080518281526020810185905291925033917f2d4d49c3e017b8235c908cbaa83a2431a08f3b950712696ece2088964fd399f0910160405180910390a26000611fba303384611be1565b9050806120095760405162461bcd60e51b815260206004820152601f60248201527f4661696c656420746f207472616e7366657220666f72207769746864726177006044820152606401610443565b612014308433612b51565b60405163079cc67960e41b81526001600160a01b038616906379cc6790906120429033908b906004016131d2565b600060405180830381600087803b15801561205c57600080fd5b505af1158015612070573d6000803e3d6000fd5b505050505050505050505050565b6106df8133612c14565b61209282826114c5565b61057f5760008281526065602090815260408083206001600160a01b03851684529091529020805460ff191660011790556120ca3390565b6001600160a01b0316816001600160a01b0316837f2f8788117e7eff1d82e926ec794901d17c78024a50270940304540a733656f0d60405160405180910390a45050565b60006103e761211b61260d565b611e06611df76121f1565b600061123f828461349c565b600061123f8284613661565b61214882826114c5565b1561057f5760008281526065602090815260408083206001600160a01b0385168085529252808320805460ff1916905551339285917ff6391f5c32d9c69d2a47ea670b442974b53935d1edc7fd64eb21e047a839171b9190a45050565b6121ad612c6d565b6097805460ff191690557f5db9ee0a495bf2e6ff9c91a7834c1ba4fdd244a5e8aa4e537bd38aeae4b073aa335b6040516121e791906131be565b60405180910390a1565b600061197d6012600a613517565b60006103e782612cb6565b60006103e782612cce565b60006001600160a01b03821663b93f9b0a600e611b2d565b60006103e761224c61223d6121f1565b6101c354611e06908690612ab7565b612ce6565b60006103e782611b19565b6101c45460009061228090612279906001600160a01b0316612d05565b8490612ac3565b9050600061228e8483612132565b9050600061229b8261210e565b6101c3549091506122ac9082612126565b6101c35581156122fb5760408051838152602081018590526001600160a01b038816917f9bbd517758fbae61197f1c1c04c8614064e89512dbaf4350dcdf76fcaa5e2161910160405180910390a25b831561234557856001600160a01b03167f8295ad220549851bab232c2a7ae2e3c53a63d2294602bc85f8d8af108778a37e8560405161233c91815260200190565b60405180910390a25b821561235657612356868488612b51565b6001600160a01b03861630146123db57600061237c87306123778887612126565b611be1565b9050806123d95760405162461bcd60e51b815260206004820152602560248201527f4661696c656420746f20636f6c6c656374207072696e636970616c20726570616044820152641e5b595b9d60da1b6064820152608401610443565b505b505050505050565b6123eb611b9b565b6097805460ff191660011790557f62e78cea01bee320cd4e420270b5ea74000d11b0c9f74754ebdbfc544b05a2586121da3390565b60006103e782612d1d565b6101c554156124995760405162461bcd60e51b815260206004820152603460248201527f43616e6e6f74207377656570207768656e20776520616c72656164792068617660448201527365206120636f6d706f756e642062616c616e636560601b6064820152608401610443565b806124b65760405162461bcd60e51b81526004016104439061321e565b60405163140e25ad60e31b8152600481018290526000906001600160a01b0384169063a0712d6890602401602060405180830381600087803b1580156124fb57600080fd5b505af115801561250f573d6000803e3d6000fd5b505050506040513d601f19601f82011682018060405250810190612533919061311b565b9050801561257e5760405162461bcd60e51b815260206004820152601860248201527714ddd9595c081d1bc818dbdb5c1bdd5b990819985a5b195960421b6044820152606401610443565b506101c55550565b6101c454604051631f8ac6cb60e31b8152600060048201819052916001600160a01b03169063fc5636589060240160206040518083038186803b1580156125cc57600080fd5b505afa1580156125e0573d6000803e3d6000fd5b505050506040513d601f19601f82011682018060405250810190612604919061311b565b90911115919050565b6101c454600090612626906001600160a01b031661220a565b6001600160a01b03166318160ddd6040518163ffffffff1660e01b815260040160206040518083038186803b15801561265e57600080fd5b505afa158015612672573d6000803e3d6000fd5b505050506040513d601f19601f8201168201806040525081019061197d919061311b565b6101c454604051631f8ac6cb60e31b81526001600482015260009161271f916001600160a01b039091169063fc5636589060240160206040518083038186803b1580156126e257600080fd5b505afa1580156126f6573d6000803e3d6000fd5b505050506040513d601f19601f8201168201806040525081019061271a919061311b565b612a9c565b61272a61223d6121f1565b111592915050565b60006001600160a01b03821663b93f9b0a600b611b2d565b6101c554806127925760405162461bcd60e51b8152602060048201526014602482015273139bc8199d5b991cc81bdb8818dbdb5c1bdd5b9960621b6044820152606401610443565b816127af5760405162461bcd60e51b81526004016104439061321e565b6101c4546000906127c8906001600160a01b03166121ff565b90506000816001600160a01b03166370a08231306040518263ffffffff1660e01b81526004016127f891906131be565b60206040518083038186803b15801561281057600080fd5b505afa158015612824573d6000803e3d6000fd5b505050506040513d601f19601f82011682018060405250810190612848919061311b565b90506000856001600160a01b031663bd6d894d6040518163ffffffff1660e01b8152600401602060405180830381600087803b15801561288757600080fd5b505af115801561289b573d6000803e3d6000fd5b505050506040513d601f19601f820116820180604052508101906128bf919061311b565b905060006128cd8287612d35565b60405163db006a7560e01b8152600481018890529091506000906001600160a01b0389169063db006a7590602401602060405180830381600087803b15801561291557600080fd5b505af1158015612929573d6000803e3d6000fd5b505050506040513d601f19601f8201168201806040525081019061294d919061311b565b90506000856001600160a01b03166370a08231306040518263ffffffff1660e01b815260040161297d91906131be565b60206040518083038186803b15801561299557600080fd5b505afa1580156129a9573d6000803e3d6000fd5b505050506040513d601f19601f820116820180604052508101906129cd919061311b565b90508115612a1d5760405162461bcd60e51b815260206004820152601a60248201527f53776565702066726f6d20636f6d706f756e64206661696c65640000000000006044820152606401610443565b82612a288287612132565b14612a705760405162461bcd60e51b8152602060048201526018602482015277155b995e1c1958dd1959081c995919595b48185b5bdd5b9d60421b6044820152606401610443565b6000612a7c8489612132565b9050612a8a3082600061225c565b505060006101c5555050505050505050565b60006103e7612aa9612d6e565b611e06612ab46121f1565b85905b600061123f8284613642565b600061123f82846134b4565b60006001600160a01b03821663fc56365860045b6040518263ffffffff1660e01b8152600401612b0191815260200190565b60206040518083038186803b158015612b1957600080fd5b505afa158015612b2d573d6000803e3d6000fd5b505050506040513d601f19601f820116820180604052508101906103e7919061311b565b806001600160a01b03167ff3583f178a8d4f8888c3683f8e948faf9b6eb701c4f1fab265a6ecad1a1ddebb83604051612b8c91815260200190565b60405180910390a26101c454600090612bb9908590612bb3906001600160a01b0316612d7c565b85611be1565b9050806117335760405162461bcd60e51b815260206004820152602360248201527f52657365727665207472616e7366657220776173206e6f742073756363657373604482015262199d5b60ea1b6064820152608401610443565b612c1e82826114c5565b61057f57612c2b81612d94565b612c36836020612da6565b604051602001612c4792919061314f565b60408051601f198184030181529082905262461bcd60e51b8252610443916004016131eb565b60975460ff166108b35760405162461bcd60e51b815260206004820152601460248201527314185d5cd8589b194e881b9bdd081c185d5cd95960621b6044820152606401610443565b60006001600160a01b03821663b93f9b0a6005611b2d565b60006001600160a01b03821663b93f9b0a6004611b2d565b60006103e7612cfe612cf6612d6e565b611e066121f1565b8390612ac3565b60006001600160a01b03821663fc5636586003612ae3565b60006001600160a01b03821663b93f9b0a600a611b2d565b600060066008611ce06064611e0683612d4f86601261349c565b612d599190613661565b612d6490600a613517565b611e06888a612ab7565b600061197d6006600a613517565b60006001600160a01b03821663b93f9b0a6006611b2d565b60606103e76001600160a01b03831660145b60606000612db5836002613642565b612dc090600261349c565b67ffffffffffffffff811115612de657634e487b7160e01b600052604160045260246000fd5b6040519080825280601f01601f191660200182016040528015612e10576020820181803683370190505b509050600360fc1b81600081518110612e3957634e487b7160e01b600052603260045260246000fd5b60200101906001600160f81b031916908160001a905350600f60fb1b81600181518110612e7657634e487b7160e01b600052603260045260246000fd5b60200101906001600160f81b031916908160001a9053506000612e9a846002613642565b612ea590600161349c565b90505b6001811115612f39576f181899199a1a9b1b9c1cb0b131b232b360811b85600f1660108110612ee757634e487b7160e01b600052603260045260246000fd5b1a60f81b828281518110612f0b57634e487b7160e01b600052603260045260246000fd5b60200101906001600160f81b031916908160001a90535060049490941c93612f32816136a4565b9050612ea8565b50831561123f5760405162461bcd60e51b815260206004820181905260248201527f537472696e67733a20686578206c656e67746820696e73756666696369656e746044820152606401610443565b600060208284031215612f99578081fd5b813561123f816136d1565b600060208284031215612fb5578081fd5b815161123f816136d1565b600080600060608486031215612fd4578182fd5b8335612fdf816136d1565b92506020840135612fef816136d1565b929592945050506040919091013590565b60008060408385031215613012578182fd5b823561301d816136d1565b9150602083013561302d816136d1565b809150509250929050565b6000806040838503121561304a578182fd5b8235613055816136d1565b946020939093013593505050565b600080600060608486031215613077578283fd5b8335613082816136d1565b95602085013595506040909401359392505050565b6000602082840312156130a8578081fd5b8151801515811461123f578182fd5b6000602082840312156130c8578081fd5b5035919050565b600080604083850312156130e1578182fd5b82359150602083013561302d816136d1565b600060208284031215613104578081fd5b81356001600160e01b03198116811461123f578182fd5b60006020828403121561312c578081fd5b5051919050565b60008251613145818460208701613678565b9190910192915050565b76020b1b1b2b9b9a1b7b73a3937b61d1030b1b1b7bab73a1604d1b815260008351613181816017850160208801613678565b7001034b99036b4b9b9b4b733903937b6329607d1b60179184019182015283516131b2816028840160208801613678565b01602801949350505050565b6001600160a01b0391909116815260200190565b6001600160a01b03929092168252602082015260400190565b602081526000825180602084015261320a816040850160208701613678565b601f01601f19169190910160400192915050565b6020808252601e908201527f416d6f756e7420746f2073776565702063616e6e6f74206265207a65726f0000604082015260600190565b6020808252602c908201527f4d75737420686176652070617573657220726f6c6520746f20706572666f726d60408201526b103a3434b99030b1ba34b7b760a11b606082015260800190565b60208082526028908201527f416d6f756e74206973206f76657220746865207065722d7472616e73616374696040820152671bdb881b1a5b5a5d60c21b606082015260800190565b6020808252602e908201527f496e697469616c697a61626c653a20636f6e747261637420697320616c72656160408201526d191e481a5b9a5d1a585b1a5e995960921b606082015260800190565b60208082526035908201527f4f6e6c792074686520637265646974206465736b20697320616c6c6f776564206040820152743a379031b0b636103a3434b990333ab731ba34b7b760591b606082015260800190565b6020808252601c908201527f4d757374207769746864726177206d6f7265207468616e207a65726f00000000604082015260600190565b6020808252602b908201527f496e697469616c697a61626c653a20636f6e7472616374206973206e6f74206960408201526a6e697469616c697a696e6760a81b606082015260800190565b60208082526023908201527f4661696c656420746f20617070726f7665205553444320666f7220636f6d706f6040820152621d5b9960ea1b606082015260800190565b6020808252602b908201527f4d75737420686176652061646d696e20726f6c6520746f20706572666f726d2060408201526a3a3434b99030b1ba34b7b760a91b606082015260800190565b600082198211156134af576134af6136bb565b500190565b6000826134cf57634e487b7160e01b81526012600452602481fd5b500490565b600181815b8085111561350f5781600019048211156134f5576134f56136bb565b8085161561350257918102915b93841c93908002906134d9565b509250929050565b600061123f838360008261352d575060016103e7565b8161353a575060006103e7565b8160018114613550576002811461355a57613576565b60019150506103e7565b60ff84111561356b5761356b6136bb565b50506001821b6103e7565b5060208310610133831016604e8410600b8410161715613599575081810a6103e7565b6135a383836134d4565b80600019048211156135b7576135b76136bb565b029392505050565b60006001600160ff1b03818413828413808216868404861116156135e5576135e56136bb565b600160ff1b84871282811687830589121615613603576136036136bb565b85871292508782058712848416161561361e5761361e6136bb565b87850587128184161615613634576136346136bb565b505050929093029392505050565b600081600019048311821515161561365c5761365c6136bb565b500290565b600082821015613673576136736136bb565b500390565b60005b8381101561369357818101518382015260200161367b565b838111156117335750506000910152565b6000816136b3576136b36136bb565b506000190190565b634e487b7160e01b600052601160045260246000fd5b6001600160a01b03811681146106df57600080fdfeb19546dff01e856fb3f010c267a7b1c60363cf8a4664e21cc89c26224620214e7f26b83ff96e1f2b6a682f133852f6798a09c465da95921460cefb384740249865d7a28e3265b37a6474929f336521b332c1681b933f6cb9f3376673440d862aa26469706673582212200374c6e758a764be18f8d189b4b192ce5626dcfd8ba2b492564336e4f1e313fd64736f6c63430008040033",
  "devdoc": {
    "author": "Doberman",
    "kind": "dev",
    "methods": {
      "collectInterestAndPrincipal(address,uint256,uint256)": {
        "params": {
          "from": "The address to take the USDC from. Implicitly, the Pool  must be authorized to move USDC on behalf of `from`.",
          "interest": "the interest amount of USDC to move to the Pool",
          "principal": "the principal amount of USDC to move to the Pool Requirements:  - The caller must be the Credit Desk. Not even the owner can call this function."
        }
      },
      "deposit(uint256)": {
        "params": {
          "amount": "The amount of USDC to deposit"
        }
      },
      "drawdown(address,uint256)": {
        "params": {
          "amount": "the amount of USDC to move to the Pool Requirements:  - The caller must be the Credit Desk. Not even the owner can call this function.",
          "to": "The address that the USDC should be moved to"
        }
      },
      "getRoleAdmin(bytes32)": {
        "details": "Returns the admin role that controls `role`. See {grantRole} and {revokeRole}. To change a role's admin, use {_setRoleAdmin}."
      },
      "grantRole(bytes32,address)": {
        "details": "Grants `role` to `account`. If `account` had not been already granted `role`, emits a {RoleGranted} event. Requirements: - the caller must have ``role``'s admin role. May emit a {RoleGranted} event."
      },
      "hasRole(bytes32,address)": {
        "details": "Returns `true` if `account` has been granted `role`."
      },
      "initialize(address,address)": {
        "params": {
          "_config": "The address of the DobermanConfig contract",
          "owner": "The address of who should have the \"OWNER_ROLE\" of this contract"
        }
      },
      "pause()": {
        "details": "Pauses all functions guarded by Pause See {Pausable-_pause}. Requirements: - the caller must have the PAUSER_ROLE."
      },
      "paused()": {
        "details": "Returns true if the contract is paused, and false otherwise."
      },
      "renounceRole(bytes32,address)": {
        "details": "Revokes `role` from the calling account. Roles are often managed via {grantRole} and {revokeRole}: this function's purpose is to provide a mechanism for accounts to lose their privileges if they are compromised (such as when a trusted device is misplaced). If the calling account had been revoked `role`, emits a {RoleRevoked} event. Requirements: - the caller must be `account`. May emit a {RoleRevoked} event."
      },
      "revokeRole(bytes32,address)": {
        "details": "Revokes `role` from `account`. If `account` had been granted `role`, emits a {RoleRevoked} event. Requirements: - the caller must have ``role``'s admin role. May emit a {RoleRevoked} event."
      },
      "supportsInterface(bytes4)": {
        "details": "See {IERC165-supportsInterface}."
      },
      "transferFrom(address,address,uint256)": {
        "params": {
          "amount": "the amount of USDC to move to the Pool Requirements:  - The caller must be the Credit Desk. Not even the owner can call this function.",
          "from": "The address to take the USDC from. Implicitly, the Pool  must be authorized to move USDC on behalf of `from`.",
          "to": "The address that the USDC should be moved to"
        }
      },
      "unpause()": {
        "details": "Unpauses the contract See {Pausable-_unpause}. Requirements: - the caller must have the Pauser role"
      },
      "withdraw(uint256)": {
        "params": {
          "usdcAmount": "The amount of USDC to withdraw"
        }
      },
      "withdrawInFidu(uint256)": {
        "params": {
          "fiduAmount": "The amount of USDC to withdraw in terms of fidu shares"
        }
      }
    },
    "title": "Doberman's Pool contract",
    "version": 1
  },
  "userdoc": {
    "kind": "user",
    "methods": {
      "collectInterestAndPrincipal(address,uint256,uint256)": {
        "notice": "Collects `interest` USDC in interest and `principal` in principal from `from` and sends it to the Pool.  This also increases the share price accordingly. A portion is sent to the Doberman Reserve address"
      },
      "deposit(uint256)": {
        "notice": "Deposits `amount` USDC from msg.sender into the Pool, and returns you the equivalent value of FIDU tokens"
      },
      "drawdown(address,uint256)": {
        "notice": "Moves `amount` USDC from the pool, to `to`. This is similar to transferFrom except we sweep any balance we have from compound first and recognize interest. Meant to be called only by the credit desk on drawdown"
      },
      "initialize(address,address)": {
        "notice": "Run only once, on initialization"
      },
      "sweepFromCompound()": {
        "notice": "Moves any USDC from Compound back to the Pool, and recognizes interest earned. This is done automatically on drawdown or withdraw, but can be called manually if necessary. Requirements:  - The caller must be an admin."
      },
      "sweepToCompound()": {
        "notice": "Moves any USDC still in the Pool to Compound, and tracks the amount internally. This is done to earn interest on latent funds until we have other borrowers who can use it. Requirements:  - The caller must be an admin."
      },
      "transferFrom(address,address,uint256)": {
        "notice": "Moves `amount` USDC from `from`, to `to`."
      },
      "withdraw(uint256)": {
        "notice": "Withdraws USDC from the Pool to msg.sender, and burns the equivalent value of FIDU tokens"
      },
      "withdrawInFidu(uint256)": {
        "notice": "Withdraws USDC (denominated in FIDU terms) from the Pool to msg.sender"
      }
    },
    "notice": "Main entry point for LP's (a.k.a. capital providers)  Handles key logic for depositing and withdrawing funds from the Pool",
    "version": 1
  },
  "storageLayout": {
    "storage": [
      {
        "astId": 588,
        "contract": "contracts/protocol/core/Pool.sol:Pool",
        "label": "_initialized",
        "offset": 0,
        "slot": "0",
        "type": "t_uint8"
      },
      {
        "astId": 591,
        "contract": "contracts/protocol/core/Pool.sol:Pool",
        "label": "_initializing",
        "offset": 1,
        "slot": "0",
        "type": "t_bool"
      },
      {
        "astId": 4964,
        "contract": "contracts/protocol/core/Pool.sol:Pool",
        "label": "__gap",
        "offset": 0,
        "slot": "1",
        "type": "t_array(t_uint256)50_storage"
      },
      {
        "astId": 5544,
        "contract": "contracts/protocol/core/Pool.sol:Pool",
        "label": "__gap",
        "offset": 0,
        "slot": "51",
        "type": "t_array(t_uint256)50_storage"
      },
      {
        "astId": 184,
        "contract": "contracts/protocol/core/Pool.sol:Pool",
        "label": "_roles",
        "offset": 0,
        "slot": "101",
        "type": "t_mapping(t_bytes32,t_struct(RoleData)179_storage)"
      },
      {
        "astId": 479,
        "contract": "contracts/protocol/core/Pool.sol:Pool",
        "label": "__gap",
        "offset": 0,
        "slot": "102",
        "type": "t_array(t_uint256)49_storage"
      },
      {
        "astId": 771,
        "contract": "contracts/protocol/core/Pool.sol:Pool",
        "label": "_paused",
        "offset": 0,
        "slot": "151",
        "type": "t_bool"
      },
      {
        "astId": 876,
        "contract": "contracts/protocol/core/Pool.sol:Pool",
        "label": "__gap",
        "offset": 0,
        "slot": "152",
        "type": "t_array(t_uint256)49_storage"
      },
      {
        "astId": 891,
        "contract": "contracts/protocol/core/Pool.sol:Pool",
        "label": "_status",
        "offset": 0,
        "slot": "201",
        "type": "t_uint256"
      },
      {
        "astId": 949,
        "contract": "contracts/protocol/core/Pool.sol:Pool",
        "label": "__gap",
        "offset": 0,
        "slot": "202",
        "type": "t_array(t_uint256)49_storage"
      },
      {
        "astId": 15949,
        "contract": "contracts/protocol/core/Pool.sol:Pool",
        "label": "__gap1",
        "offset": 0,
        "slot": "251",
        "type": "t_array(t_uint256)50_storage"
      },
      {
        "astId": 15953,
        "contract": "contracts/protocol/core/Pool.sol:Pool",
        "label": "__gap2",
        "offset": 0,
        "slot": "301",
        "type": "t_array(t_uint256)50_storage"
      },
      {
        "astId": 15957,
        "contract": "contracts/protocol/core/Pool.sol:Pool",
        "label": "__gap3",
        "offset": 0,
        "slot": "351",
        "type": "t_array(t_uint256)50_storage"
      },
      {
        "astId": 15961,
        "contract": "contracts/protocol/core/Pool.sol:Pool",
        "label": "__gap4",
        "offset": 0,
        "slot": "401",
        "type": "t_array(t_uint256)50_storage"
      },
      {
        "astId": 13731,
        "contract": "contracts/protocol/core/Pool.sol:Pool",
        "label": "sharePrice",
        "offset": 0,
        "slot": "451",
        "type": "t_uint256"
      },
      {
        "astId": 22090,
        "contract": "contracts/protocol/core/Pool.sol:Pool",
        "label": "config",
        "offset": 0,
        "slot": "452",
        "type": "t_contract(DobermanConfig)20001"
      },
      {
        "astId": 22099,
        "contract": "contracts/protocol/core/Pool.sol:Pool",
        "label": "compoundBalance",
        "offset": 0,
        "slot": "453",
        "type": "t_uint256"
      }
    ],
    "types": {
      "t_address": {
        "encoding": "inplace",
        "label": "address",
        "numberOfBytes": "20"
      },
      "t_array(t_uint256)49_storage": {
        "base": "t_uint256",
        "encoding": "inplace",
        "label": "uint256[49]",
        "numberOfBytes": "1568"
      },
      "t_array(t_uint256)50_storage": {
        "base": "t_uint256",
        "encoding": "inplace",
        "label": "uint256[50]",
        "numberOfBytes": "1600"
      },
      "t_bool": {
        "encoding": "inplace",
        "label": "bool",
        "numberOfBytes": "1"
      },
      "t_bytes32": {
        "encoding": "inplace",
        "label": "bytes32",
        "numberOfBytes": "32"
      },
      "t_contract(DobermanConfig)20001": {
        "encoding": "inplace",
        "label": "contract DobermanConfig",
        "numberOfBytes": "20"
      },
      "t_mapping(t_address,t_bool)": {
        "encoding": "mapping",
        "key": "t_address",
        "label": "mapping(address => bool)",
        "numberOfBytes": "32",
        "value": "t_bool"
      },
      "t_mapping(t_bytes32,t_struct(RoleData)179_storage)": {
        "encoding": "mapping",
        "key": "t_bytes32",
        "label": "mapping(bytes32 => struct AccessControlUpgradeable.RoleData)",
        "numberOfBytes": "32",
        "value": "t_struct(RoleData)179_storage"
      },
      "t_struct(RoleData)179_storage": {
        "encoding": "inplace",
        "label": "struct AccessControlUpgradeable.RoleData",
        "members": [
          {
            "astId": 176,
            "contract": "contracts/protocol/core/Pool.sol:Pool",
            "label": "members",
            "offset": 0,
            "slot": "0",
            "type": "t_mapping(t_address,t_bool)"
          },
          {
            "astId": 178,
            "contract": "contracts/protocol/core/Pool.sol:Pool",
            "label": "adminRole",
            "offset": 0,
            "slot": "1",
            "type": "t_bytes32"
          }
        ],
        "numberOfBytes": "64"
      },
      "t_uint256": {
        "encoding": "inplace",
        "label": "uint256",
        "numberOfBytes": "32"
      },
      "t_uint8": {
        "encoding": "inplace",
        "label": "uint8",
        "numberOfBytes": "1"
      }
    }
  }
}