{
  "address": "0xe4911E6818d30BB0Cf0cA88A407AbAF449927162",
  "abi": [
    {
      "anonymous": false,
      "inputs": [
        {
          "indexed": true,
          "internalType": "address",
          "name": "oldCreditLine",
          "type": "address"
        },
        {
          "indexed": true,
          "internalType": "address",
          "name": "newCreditLine",
          "type": "address"
        }
      ],
      "name": "CreditLineMigrated",
      "type": "event"
    },
    {
      "anonymous": false,
      "inputs": [
        {
          "indexed": true,
          "internalType": "address",
          "name": "owner",
          "type": "address"
        },
        {
          "indexed": true,
          "internalType": "uint256",
          "name": "tranche",
          "type": "uint256"
        },
        {
          "indexed": true,
          "internalType": "uint256",
          "name": "tokenId",
          "type": "uint256"
        },
        {
          "indexed": false,
          "internalType": "uint256",
          "name": "amount",
          "type": "uint256"
        }
      ],
      "name": "DepositMade",
      "type": "event"
    },
    {
      "anonymous": false,
      "inputs": [
        {
          "indexed": true,
          "internalType": "address",
          "name": "who",
          "type": "address"
        },
        {
          "indexed": false,
          "internalType": "address",
          "name": "configAddress",
          "type": "address"
        }
      ],
      "name": "DobermanConfigUpdated",
      "type": "event"
    },
    {
      "anonymous": false,
      "inputs": [
        {
          "indexed": true,
          "internalType": "address",
          "name": "borrower",
          "type": "address"
        },
        {
          "indexed": false,
          "internalType": "uint256",
          "name": "amount",
          "type": "uint256"
        }
      ],
      "name": "DrawdownMade",
      "type": "event"
    },
    {
      "anonymous": false,
      "inputs": [
        {
          "indexed": true,
          "internalType": "address",
          "name": "pool",
          "type": "address"
        }
      ],
      "name": "DrawdownsPaused",
      "type": "event"
    },
    {
      "anonymous": false,
      "inputs": [
        {
          "indexed": true,
          "internalType": "address",
          "name": "pool",
          "type": "address"
        }
      ],
      "name": "DrawdownsUnpaused",
      "type": "event"
    },
    {
      "anonymous": false,
      "inputs": [
        {
          "indexed": true,
          "internalType": "address",
          "name": "pool",
          "type": "address"
        }
      ],
      "name": "EmergencyShutdown",
      "type": "event"
    },
    {
      "anonymous": false,
      "inputs": [
        {
          "indexed": false,
          "internalType": "uint8",
          "name": "version",
          "type": "uint8"
        }
      ],
      "name": "Initialized",
      "type": "event"
    },
    {
      "anonymous": false,
      "inputs": [
        {
          "indexed": false,
          "internalType": "address",
          "name": "account",
          "type": "address"
        }
      ],
      "name": "Paused",
      "type": "event"
    },
    {
      "anonymous": false,
      "inputs": [
        {
          "indexed": true,
          "internalType": "address",
          "name": "payer",
          "type": "address"
        },
        {
          "indexed": true,
          "internalType": "address",
          "name": "pool",
          "type": "address"
        },
        {
          "indexed": false,
          "internalType": "uint256",
          "name": "interestAmount",
          "type": "uint256"
        },
        {
          "indexed": false,
          "internalType": "uint256",
          "name": "principalAmount",
          "type": "uint256"
        },
        {
          "indexed": false,
          "internalType": "uint256",
          "name": "remainingAmount",
          "type": "uint256"
        },
        {
          "indexed": false,
          "internalType": "uint256",
          "name": "reserveAmount",
          "type": "uint256"
        }
      ],
      "name": "PaymentApplied",
      "type": "event"
    },
    {
      "anonymous": false,
      "inputs": [
        {
          "indexed": true,
          "internalType": "address",
          "name": "from",
          "type": "address"
        },
        {
          "indexed": false,
          "internalType": "uint256",
          "name": "amount",
          "type": "uint256"
        }
      ],
      "name": "ReserveFundsCollected",
      "type": "event"
    },
    {
      "anonymous": false,
      "inputs": [
        {
          "indexed": true,
          "internalType": "bytes32",
          "name": "role",
          "type": "bytes32"
        },
        {
          "indexed": true,
          "internalType": "bytes32",
          "name": "previousAdminRole",
          "type": "bytes32"
        },
        {
          "indexed": true,
          "internalType": "bytes32",
          "name": "newAdminRole",
          "type": "bytes32"
        }
      ],
      "name": "RoleAdminChanged",
      "type": "event"
    },
    {
      "anonymous": false,
      "inputs": [
        {
          "indexed": true,
          "internalType": "bytes32",
          "name": "role",
          "type": "bytes32"
        },
        {
          "indexed": true,
          "internalType": "address",
          "name": "account",
          "type": "address"
        },
        {
          "indexed": true,
          "internalType": "address",
          "name": "sender",
          "type": "address"
        }
      ],
      "name": "RoleGranted",
      "type": "event"
    },
    {
      "anonymous": false,
      "inputs": [
        {
          "indexed": true,
          "internalType": "bytes32",
          "name": "role",
          "type": "bytes32"
        },
        {
          "indexed": true,
          "internalType": "address",
          "name": "account",
          "type": "address"
        },
        {
          "indexed": true,
          "internalType": "address",
          "name": "sender",
          "type": "address"
        }
      ],
      "name": "RoleRevoked",
      "type": "event"
    },
    {
      "anonymous": false,
      "inputs": [
        {
          "indexed": true,
          "internalType": "address",
          "name": "pool",
          "type": "address"
        },
        {
          "indexed": true,
          "internalType": "uint256",
          "name": "tranche",
          "type": "uint256"
        },
        {
          "indexed": false,
          "internalType": "uint256",
          "name": "principalSharePrice",
          "type": "uint256"
        },
        {
          "indexed": false,
          "internalType": "int256",
          "name": "principalDelta",
          "type": "int256"
        },
        {
          "indexed": false,
          "internalType": "uint256",
          "name": "interestSharePrice",
          "type": "uint256"
        },
        {
          "indexed": false,
          "internalType": "int256",
          "name": "interestDelta",
          "type": "int256"
        }
      ],
      "name": "SharePriceUpdated",
      "type": "event"
    },
    {
      "anonymous": false,
      "inputs": [
        {
          "indexed": true,
          "internalType": "address",
          "name": "pool",
          "type": "address"
        },
        {
          "indexed": false,
          "internalType": "uint256",
          "name": "sliceId",
          "type": "uint256"
        }
      ],
      "name": "SliceCreated",
      "type": "event"
    },
    {
      "anonymous": false,
      "inputs": [
        {
          "indexed": true,
          "internalType": "address",
          "name": "pool",
          "type": "address"
        },
        {
          "indexed": false,
          "internalType": "uint256",
          "name": "trancheId",
          "type": "uint256"
        },
        {
          "indexed": false,
          "internalType": "uint256",
          "name": "lockedUntil",
          "type": "uint256"
        }
      ],
      "name": "TrancheLocked",
      "type": "event"
    },
    {
      "anonymous": false,
      "inputs": [
        {
          "indexed": true,
          "internalType": "address",
          "name": "pool",
          "type": "address"
        }
      ],
      "name": "TranchedPoolAssessed",
      "type": "event"
    },
    {
      "anonymous": false,
      "inputs": [
        {
          "indexed": false,
          "internalType": "address",
          "name": "account",
          "type": "address"
        }
      ],
      "name": "Unpaused",
      "type": "event"
    },
    {
      "anonymous": false,
      "inputs": [
        {
          "indexed": true,
          "internalType": "address",
          "name": "owner",
          "type": "address"
        },
        {
          "indexed": true,
          "internalType": "uint256",
          "name": "tranche",
          "type": "uint256"
        },
        {
          "indexed": true,
          "internalType": "uint256",
          "name": "tokenId",
          "type": "uint256"
        },
        {
          "indexed": false,
          "internalType": "uint256",
          "name": "interestWithdrawn",
          "type": "uint256"
        },
        {
          "indexed": false,
          "internalType": "uint256",
          "name": "principalWithdrawn",
          "type": "uint256"
        }
      ],
      "name": "WithdrawalMade",
      "type": "event"
    },
    {
      "inputs": [],
      "name": "DEFAULT_ADMIN_ROLE",
      "outputs": [
        {
          "internalType": "bytes32",
          "name": "",
          "type": "bytes32"
        }
      ],
      "stateMutability": "view",
      "type": "function"
    },
    {
      "inputs": [],
      "name": "FP_SCALING_FACTOR",
      "outputs": [
        {
          "internalType": "uint256",
          "name": "",
          "type": "uint256"
        }
      ],
      "stateMutability": "view",
      "type": "function"
    },
    {
      "inputs": [],
      "name": "LOCKER_ROLE",
      "outputs": [
        {
          "internalType": "bytes32",
          "name": "",
          "type": "bytes32"
        }
      ],
      "stateMutability": "view",
      "type": "function"
    },
    {
      "inputs": [],
      "name": "NUM_TRANCHES_PER_SLICE",
      "outputs": [
        {
          "internalType": "uint256",
          "name": "",
          "type": "uint256"
        }
      ],
      "stateMutability": "view",
      "type": "function"
    },
    {
      "inputs": [],
      "name": "ONE_HUNDRED",
      "outputs": [
        {
          "internalType": "uint256",
          "name": "",
          "type": "uint256"
        }
      ],
      "stateMutability": "view",
      "type": "function"
    },
    {
      "inputs": [],
      "name": "OWNER_ROLE",
      "outputs": [
        {
          "internalType": "bytes32",
          "name": "",
          "type": "bytes32"
        }
      ],
      "stateMutability": "view",
      "type": "function"
    },
    {
      "inputs": [],
      "name": "PAUSER_ROLE",
      "outputs": [
        {
          "internalType": "bytes32",
          "name": "",
          "type": "bytes32"
        }
      ],
      "stateMutability": "view",
      "type": "function"
    },
    {
      "inputs": [],
      "name": "SECONDS_PER_DAY",
      "outputs": [
        {
          "internalType": "uint256",
          "name": "",
          "type": "uint256"
        }
      ],
      "stateMutability": "view",
      "type": "function"
    },
    {
      "inputs": [],
      "name": "SENIOR_ROLE",
      "outputs": [
        {
          "internalType": "bytes32",
          "name": "",
          "type": "bytes32"
        }
      ],
      "stateMutability": "view",
      "type": "function"
    },
    {
      "inputs": [
        {
          "internalType": "address",
          "name": "owner",
          "type": "address"
        }
      ],
      "name": "__BaseUpgradeablePausable__init",
      "outputs": [],
      "stateMutability": "nonpayable",
      "type": "function"
    },
    {
      "inputs": [],
      "name": "__PauserPausable__init",
      "outputs": [],
      "stateMutability": "nonpayable",
      "type": "function"
    },
    {
      "inputs": [
        {
          "internalType": "uint256",
          "name": "",
          "type": "uint256"
        }
      ],
      "name": "allowedUIDTypes",
      "outputs": [
        {
          "internalType": "uint256",
          "name": "",
          "type": "uint256"
        }
      ],
      "stateMutability": "view",
      "type": "function"
    },
    {
      "inputs": [],
      "name": "assess",
      "outputs": [],
      "stateMutability": "nonpayable",
      "type": "function"
    },
    {
      "inputs": [
        {
          "internalType": "uint256",
          "name": "tokenId",
          "type": "uint256"
        }
      ],
      "name": "availableToWithdraw",
      "outputs": [
        {
          "internalType": "uint256",
          "name": "interestRedeemable",
          "type": "uint256"
        },
        {
          "internalType": "uint256",
          "name": "principalRedeemable",
          "type": "uint256"
        }
      ],
      "stateMutability": "view",
      "type": "function"
    },
    {
      "inputs": [],
      "name": "config",
      "outputs": [
        {
          "internalType": "contract DobermanConfig",
          "name": "",
          "type": "address"
        }
      ],
      "stateMutability": "view",
      "type": "function"
    },
    {
      "inputs": [],
      "name": "createdAt",
      "outputs": [
        {
          "internalType": "uint256",
          "name": "",
          "type": "uint256"
        }
      ],
      "stateMutability": "view",
      "type": "function"
    },
    {
      "inputs": [],
      "name": "creditLine",
      "outputs": [
        {
          "internalType": "contract IV2CreditLine",
          "name": "",
          "type": "address"
        }
      ],
      "stateMutability": "view",
      "type": "function"
    },
    {
      "inputs": [
        {
          "internalType": "uint256",
          "name": "tranche",
          "type": "uint256"
        },
        {
          "internalType": "uint256",
          "name": "amount",
          "type": "uint256"
        }
      ],
      "name": "deposit",
      "outputs": [
        {
          "internalType": "uint256",
          "name": "tokenId",
          "type": "uint256"
        }
      ],
      "stateMutability": "nonpayable",
      "type": "function"
    },
    {
      "inputs": [
        {
          "internalType": "uint256",
          "name": "tranche",
          "type": "uint256"
        },
        {
          "internalType": "uint256",
          "name": "amount",
          "type": "uint256"
        },
        {
          "internalType": "uint256",
          "name": "deadline",
          "type": "uint256"
        },
        {
          "internalType": "uint8",
          "name": "v",
          "type": "uint8"
        },
        {
          "internalType": "bytes32",
          "name": "r",
          "type": "bytes32"
        },
        {
          "internalType": "bytes32",
          "name": "s",
          "type": "bytes32"
        }
      ],
      "name": "depositWithPermit",
      "outputs": [
        {
          "internalType": "uint256",
          "name": "tokenId",
          "type": "uint256"
        }
      ],
      "stateMutability": "nonpayable",
      "type": "function"
    },
    {
      "inputs": [
        {
          "internalType": "uint256",
          "name": "amount",
          "type": "uint256"
        }
      ],
      "name": "drawdown",
      "outputs": [],
      "stateMutability": "nonpayable",
      "type": "function"
    },
    {
      "inputs": [],
      "name": "drawdownsPaused",
      "outputs": [
        {
          "internalType": "bool",
          "name": "",
          "type": "bool"
        }
      ],
      "stateMutability": "view",
      "type": "function"
    },
    {
      "inputs": [],
      "name": "emergencyShutdown",
      "outputs": [],
      "stateMutability": "nonpayable",
      "type": "function"
    },
    {
      "inputs": [],
      "name": "fundableAt",
      "outputs": [
        {
          "internalType": "uint256",
          "name": "",
          "type": "uint256"
        }
      ],
      "stateMutability": "view",
      "type": "function"
    },
    {
      "inputs": [
        {
          "internalType": "bytes32",
          "name": "role",
          "type": "bytes32"
        }
      ],
      "name": "getRoleAdmin",
      "outputs": [
        {
          "internalType": "bytes32",
          "name": "",
          "type": "bytes32"
        }
      ],
      "stateMutability": "view",
      "type": "function"
    },
    {
      "inputs": [
        {
          "internalType": "uint256",
          "name": "tranche",
          "type": "uint256"
        }
      ],
      "name": "getTranche",
      "outputs": [
        {
          "components": [
            {
              "internalType": "uint256",
              "name": "id",
              "type": "uint256"
            },
            {
              "internalType": "uint256",
              "name": "principalDeposited",
              "type": "uint256"
            },
            {
              "internalType": "uint256",
              "name": "principalSharePrice",
              "type": "uint256"
            },
            {
              "internalType": "uint256",
              "name": "interestSharePrice",
              "type": "uint256"
            },
            {
              "internalType": "uint256",
              "name": "lockedUntil",
              "type": "uint256"
            }
          ],
          "internalType": "struct ITranchedPool.TrancheInfo",
          "name": "",
          "type": "tuple"
        }
      ],
      "stateMutability": "view",
      "type": "function"
    },
    {
      "inputs": [
        {
          "internalType": "bytes32",
          "name": "role",
          "type": "bytes32"
        },
        {
          "internalType": "address",
          "name": "account",
          "type": "address"
        }
      ],
      "name": "grantRole",
      "outputs": [],
      "stateMutability": "nonpayable",
      "type": "function"
    },
    {
      "inputs": [
        {
          "internalType": "bytes32",
          "name": "role",
          "type": "bytes32"
        },
        {
          "internalType": "address",
          "name": "account",
          "type": "address"
        }
      ],
      "name": "hasRole",
      "outputs": [
        {
          "internalType": "bool",
          "name": "",
          "type": "bool"
        }
      ],
      "stateMutability": "view",
      "type": "function"
    },
    {
      "inputs": [
        {
          "internalType": "address",
          "name": "_config",
          "type": "address"
        },
        {
          "internalType": "address",
          "name": "_borrower",
          "type": "address"
        },
        {
          "internalType": "uint256",
          "name": "_juniorFeePercent",
          "type": "uint256"
        },
        {
          "internalType": "uint256",
          "name": "_limit",
          "type": "uint256"
        },
        {
          "internalType": "uint256",
          "name": "_interestApr",
          "type": "uint256"
        },
        {
          "internalType": "uint256",
          "name": "_paymentPeriodInDays",
          "type": "uint256"
        },
        {
          "internalType": "uint256",
          "name": "_termInDays",
          "type": "uint256"
        },
        {
          "internalType": "uint256",
          "name": "_lateFeeApr",
          "type": "uint256"
        },
        {
          "internalType": "uint256",
          "name": "_principalGracePeriodInDays",
          "type": "uint256"
        },
        {
          "internalType": "uint256",
          "name": "_fundableAt",
          "type": "uint256"
        },
        {
          "internalType": "uint256[]",
          "name": "_allowedUIDTypes",
          "type": "uint256[]"
        }
      ],
      "name": "initialize",
      "outputs": [],
      "stateMutability": "nonpayable",
      "type": "function"
    },
    {
      "inputs": [
        {
          "internalType": "uint256",
          "name": "_fundableAt",
          "type": "uint256"
        }
      ],
      "name": "initializeNextSlice",
      "outputs": [],
      "stateMutability": "nonpayable",
      "type": "function"
    },
    {
      "inputs": [],
      "name": "isAdmin",
      "outputs": [
        {
          "internalType": "bool",
          "name": "",
          "type": "bool"
        }
      ],
      "stateMutability": "view",
      "type": "function"
    },
    {
      "inputs": [],
      "name": "juniorFeePercent",
      "outputs": [
        {
          "internalType": "uint256",
          "name": "",
          "type": "uint256"
        }
      ],
      "stateMutability": "view",
      "type": "function"
    },
    {
      "inputs": [],
      "name": "lockJuniorCapital",
      "outputs": [],
      "stateMutability": "nonpayable",
      "type": "function"
    },
    {
      "inputs": [],
      "name": "lockPool",
      "outputs": [],
      "stateMutability": "nonpayable",
      "type": "function"
    },
    {
      "inputs": [
        {
          "internalType": "address",
          "name": "newCl",
          "type": "address"
        }
      ],
      "name": "migrateAndSetNewCreditLine",
      "outputs": [],
      "stateMutability": "nonpayable",
      "type": "function"
    },
    {
      "inputs": [
        {
          "internalType": "address",
          "name": "_borrower",
          "type": "address"
        },
        {
          "internalType": "uint256",
          "name": "_maxLimit",
          "type": "uint256"
        },
        {
          "internalType": "uint256",
          "name": "_interestApr",
          "type": "uint256"
        },
        {
          "internalType": "uint256",
          "name": "_paymentPeriodInDays",
          "type": "uint256"
        },
        {
          "internalType": "uint256",
          "name": "_termInDays",
          "type": "uint256"
        },
        {
          "internalType": "uint256",
          "name": "_lateFeeApr",
          "type": "uint256"
        },
        {
          "internalType": "uint256",
          "name": "_principalGracePeriodInDays",
          "type": "uint256"
        }
      ],
      "name": "migrateCreditLine",
      "outputs": [],
      "stateMutability": "nonpayable",
      "type": "function"
    },
    {
      "inputs": [],
      "name": "numSlices",
      "outputs": [
        {
          "internalType": "uint256",
          "name": "",
          "type": "uint256"
        }
      ],
      "stateMutability": "view",
      "type": "function"
    },
    {
      "inputs": [],
      "name": "pause",
      "outputs": [],
      "stateMutability": "nonpayable",
      "type": "function"
    },
    {
      "inputs": [],
      "name": "pauseDrawdowns",
      "outputs": [],
      "stateMutability": "nonpayable",
      "type": "function"
    },
    {
      "inputs": [],
      "name": "paused",
      "outputs": [
        {
          "internalType": "bool",
          "name": "",
          "type": "bool"
        }
      ],
      "stateMutability": "view",
      "type": "function"
    },
    {
      "inputs": [
        {
          "internalType": "uint256",
          "name": "amount",
          "type": "uint256"
        }
      ],
      "name": "pay",
      "outputs": [],
      "stateMutability": "nonpayable",
      "type": "function"
    },
    {
      "inputs": [
        {
          "internalType": "uint256",
          "name": "",
          "type": "uint256"
        }
      ],
      "name": "poolSlices",
      "outputs": [
        {
          "components": [
            {
              "internalType": "uint256",
              "name": "id",
              "type": "uint256"
            },
            {
              "internalType": "uint256",
              "name": "principalDeposited",
              "type": "uint256"
            },
            {
              "internalType": "uint256",
              "name": "principalSharePrice",
              "type": "uint256"
            },
            {
              "internalType": "uint256",
              "name": "interestSharePrice",
              "type": "uint256"
            },
            {
              "internalType": "uint256",
              "name": "lockedUntil",
              "type": "uint256"
            }
          ],
          "internalType": "struct ITranchedPool.TrancheInfo",
          "name": "seniorTranche",
          "type": "tuple"
        },
        {
          "components": [
            {
              "internalType": "uint256",
              "name": "id",
              "type": "uint256"
            },
            {
              "internalType": "uint256",
              "name": "principalDeposited",
              "type": "uint256"
            },
            {
              "internalType": "uint256",
              "name": "principalSharePrice",
              "type": "uint256"
            },
            {
              "internalType": "uint256",
              "name": "interestSharePrice",
              "type": "uint256"
            },
            {
              "internalType": "uint256",
              "name": "lockedUntil",
              "type": "uint256"
            }
          ],
          "internalType": "struct ITranchedPool.TrancheInfo",
          "name": "juniorTranche",
          "type": "tuple"
        },
        {
          "internalType": "uint256",
          "name": "totalInterestAccrued",
          "type": "uint256"
        },
        {
          "internalType": "uint256",
          "name": "principalDeployed",
          "type": "uint256"
        }
      ],
      "stateMutability": "view",
      "type": "function"
    },
    {
      "inputs": [
        {
          "internalType": "bytes32",
          "name": "role",
          "type": "bytes32"
        },
        {
          "internalType": "address",
          "name": "account",
          "type": "address"
        }
      ],
      "name": "renounceRole",
      "outputs": [],
      "stateMutability": "nonpayable",
      "type": "function"
    },
    {
      "inputs": [
        {
          "internalType": "bytes32",
          "name": "role",
          "type": "bytes32"
        },
        {
          "internalType": "address",
          "name": "account",
          "type": "address"
        }
      ],
      "name": "revokeRole",
      "outputs": [],
      "stateMutability": "nonpayable",
      "type": "function"
    },
    {
      "inputs": [
        {
          "internalType": "uint256[]",
          "name": "ids",
          "type": "uint256[]"
        }
      ],
      "name": "setAllowedUIDTypes",
      "outputs": [],
      "stateMutability": "nonpayable",
      "type": "function"
    },
    {
      "inputs": [
        {
          "internalType": "uint256",
          "name": "newFundableAt",
          "type": "uint256"
        }
      ],
      "name": "setFundableAt",
      "outputs": [],
      "stateMutability": "nonpayable",
      "type": "function"
    },
    {
      "inputs": [
        {
          "internalType": "uint256",
          "name": "newAmount",
          "type": "uint256"
        }
      ],
      "name": "setLimit",
      "outputs": [],
      "stateMutability": "nonpayable",
      "type": "function"
    },
    {
      "inputs": [
        {
          "internalType": "uint256",
          "name": "newAmount",
          "type": "uint256"
        }
      ],
      "name": "setMaxLimit",
      "outputs": [],
      "stateMutability": "nonpayable",
      "type": "function"
    },
    {
      "inputs": [
        {
          "internalType": "uint256",
          "name": "sharePrice",
          "type": "uint256"
        },
        {
          "internalType": "uint256",
          "name": "totalShares",
          "type": "uint256"
        }
      ],
      "name": "sharePriceToUsdc",
      "outputs": [
        {
          "internalType": "uint256",
          "name": "",
          "type": "uint256"
        }
      ],
      "stateMutability": "pure",
      "type": "function"
    },
    {
      "inputs": [
        {
          "internalType": "bytes4",
          "name": "interfaceId",
          "type": "bytes4"
        }
      ],
      "name": "supportsInterface",
      "outputs": [
        {
          "internalType": "bool",
          "name": "",
          "type": "bool"
        }
      ],
      "stateMutability": "view",
      "type": "function"
    },
    {
      "inputs": [],
      "name": "totalDeployed",
      "outputs": [
        {
          "internalType": "uint256",
          "name": "",
          "type": "uint256"
        }
      ],
      "stateMutability": "view",
      "type": "function"
    },
    {
      "inputs": [],
      "name": "totalJuniorDeposits",
      "outputs": [
        {
          "internalType": "uint256",
          "name": "",
          "type": "uint256"
        }
      ],
      "stateMutability": "view",
      "type": "function"
    },
    {
      "inputs": [],
      "name": "unpause",
      "outputs": [],
      "stateMutability": "nonpayable",
      "type": "function"
    },
    {
      "inputs": [],
      "name": "unpauseDrawdowns",
      "outputs": [],
      "stateMutability": "nonpayable",
      "type": "function"
    },
    {
      "inputs": [],
      "name": "updateDobermanConfig",
      "outputs": [],
      "stateMutability": "nonpayable",
      "type": "function"
    },
    {
      "inputs": [
        {
          "internalType": "uint256",
          "name": "amount",
          "type": "uint256"
        },
        {
          "internalType": "uint256",
          "name": "totalShares",
          "type": "uint256"
        }
      ],
      "name": "usdcToSharePrice",
      "outputs": [
        {
          "internalType": "uint256",
          "name": "",
          "type": "uint256"
        }
      ],
      "stateMutability": "pure",
      "type": "function"
    },
    {
      "inputs": [
        {
          "internalType": "uint256",
          "name": "tokenId",
          "type": "uint256"
        },
        {
          "internalType": "uint256",
          "name": "amount",
          "type": "uint256"
        }
      ],
      "name": "withdraw",
      "outputs": [
        {
          "internalType": "uint256",
          "name": "interestWithdrawn",
          "type": "uint256"
        },
        {
          "internalType": "uint256",
          "name": "principalWithdrawn",
          "type": "uint256"
        }
      ],
      "stateMutability": "nonpayable",
      "type": "function"
    },
    {
      "inputs": [
        {
          "internalType": "uint256",
          "name": "tokenId",
          "type": "uint256"
        }
      ],
      "name": "withdrawMax",
      "outputs": [
        {
          "internalType": "uint256",
          "name": "interestWithdrawn",
          "type": "uint256"
        },
        {
          "internalType": "uint256",
          "name": "principalWithdrawn",
          "type": "uint256"
        }
      ],
      "stateMutability": "nonpayable",
      "type": "function"
    },
    {
      "inputs": [
        {
          "internalType": "uint256[]",
          "name": "tokenIds",
          "type": "uint256[]"
        },
        {
          "internalType": "uint256[]",
          "name": "amounts",
          "type": "uint256[]"
        }
      ],
      "name": "withdrawMultiple",
      "outputs": [],
      "stateMutability": "nonpayable",
      "type": "function"
    }
  ],
  "transactionHash": "0x8e00c94b5a2fd1dc57535e0ff379d10b4c2ee696a1118858c108d5ad078c1526",
  "args": [],
  "numDeployments": 2,
  "solcInputHash": "b5fe4b7f0c985986b856d2f53b22a42b",
  "bytecode": "0x608060405234801561001057600080fd5b50615ce380620000216000396000f3fe608060405234801561001057600080fd5b506004361061030e5760003560e01c806380b654311161019e578063bf8bcee4116100ef578063d547741f1161009d578063d547741f14610652578063d972e8ad14610665578063dd0ec24114610685578063e2a657f91461068d578063e2bbb158146106a0578063e58378bb146106b3578063e63ab1e9146106c8578063f3621367146106dd57600080fd5b8063bf8bcee4146105f5578063bfaa8cca14610608578063c290d69114610610578063c77d569814610623578063cde888451461062d578063cf09e0d014610640578063d30a09111461064a57600080fd5b8063a8deac0e1161014c578063a8deac0e14610591578063a8f9c4fe146105a4578063aa2a7c4c146105ac578063ae6c857a146105bf578063b6db75a0146105d2578063b9317d86146105da578063bf6c87c7146105ed57600080fd5b806380b654311461051d5780638456cb591461054057806391d14854146105485780639d1105301461055b578063a079a4dd1461056e578063a217fddf14610581578063a6a25e881461058957600080fd5b80634026478e1161026357806356ce15601161021157806356ce1560146104ac5780635c975abb146104bf5780635eb185a2146104ca57806368dcfdc0146104d457806374f0314f146104e357806378bcd604146104ed57806379502c55146105005780637976323d1461051457600080fd5b80634026478e14610425578063441a3e701461042d57806344c08f231461045557806347195e131461045d5780634d02fe6f1461047e578063515bc32314610491578063526d81f6146104a457600080fd5b8063248a9ca3116102c0578063248a9ca3146103a457806327ea6f2b146103c75780632ae754be146103da5780632f2ff15d146103ef5780633403c2fc1461040257806336568abe1461040a5780633f4ba83a1461041d57600080fd5b80630174b4491461031357806301ffc9a7146103395780630881806c1461035c578063097616a3146103665780630cfb14b01461037957806317f76941146103835780631fe032be14610391575b600080fd5b6103266103213660046155ba565b6106f2565b6040519081526020015b60405180910390f35b61034c6103473660046154d1565b610789565b6040519015158152602001610330565b6103646107be565b005b610364610374366004615278565b61081d565b6103266101c95481565b6101c75461034c9060ff1681565b61036461039f36600461536f565b610923565b6103266103b236600461548a565b60009081526065602052604090206001015490565b6103646103d536600461548a565b610d69565b610326600080516020615c6e83398151915281565b6103646103fd3660046154a2565b610df0565b610364610e1a565b6103646104183660046154a2565b610fef565b61036461106d565b6103646110a9565b61044061043b3660046155ba565b6110ed565b60408051928352602083019190915201610330565b610326600281565b6101c354610471906001600160a01b031681565b604051610330919061572c565b61044061048c36600461548a565b6111cc565b61032661049f366004615608565b6112ad565b610364611361565b6103646104ba366004615278565b61142a565b60975460ff1661034c565b6103266101ca5481565b610326670de0b6b3a764000081565b6103266201518081565b6103646104fb36600461548a565b6116a2565b6101c554610471906001600160a01b031681565b6101cb54610326565b61053061052b36600461548a565b61191e565b60405161033094939291906159ba565b6103646119d7565b61034c6105563660046154a2565b611a13565b610364610569366004615402565b611a3e565b61036461057c36600461548a565b611b03565b610326600081565b610364612068565b61036461059f3660046152b0565b612078565b61036461249e565b6104406105ba36600461548a565b6124fd565b6103646105cd36600461548a565b6125fd565b61034c612637565b6103646105e83660046153c3565b612656565b610364612759565b61036461060336600461548a565b6127b5565b610326606481565b61036461061e36600461548a565b61280b565b6103266101c65481565b61032661063b3660046155ba565b61286e565b6103266101c45481565b6103646128b0565b6103646106603660046154a2565b6129a6565b61067861067336600461548a565b6129cb565b60405161033091906159ac565b610326612a45565b61032661069b36600461548a565b612ab0565b6103266106ae3660046155ba565b612ad2565b610326600080516020615c0e83398151915281565b610326600080516020615c4e83398151915281565b610326600080516020615c8e83398151915281565b604051630174b44960e01b815260048101839052602481018290526000907316d3406D386CA5ADE258a9c1577a34f5a7bF32c790630174b449906044015b60206040518083038186803b15801561074857600080fd5b505af415801561075c573d6000803e3d6000fd5b505050506040513d601f19601f8201168201806040525081019061078091906155a2565b90505b92915050565b60006001600160e01b03198216637965db0b60e01b148061078357506301ffc9a760e01b6001600160e01b0319831614610783565b6107d6600080516020615c8e83398151915233611a13565b6107fb5760405162461bcd60e51b81526004016107f2906158e7565b60405180910390fd5b610803612e1c565b6101cb5461081b90610816906001612e62565b612e6e565b565b600054610100900460ff166108445760405162461bcd60e51b81526004016107f290615916565b6001600160a01b03811661089a5760405162461bcd60e51b815260206004820181905260248201527f4f776e65722063616e6e6f7420626520746865207a65726f206164647265737360448201526064016107f2565b6108a2613001565b6108aa613028565b6108b261305b565b6108ca600080516020615c0e83398151915282613089565b6108e2600080516020615c4e83398151915282613089565b610908600080516020615c4e833981519152600080516020615c0e833981519152613093565b610920600080516020615c0e83398151915280613093565b50565b61092b612637565b6109475760405162461bcd60e51b81526004016107f290615961565b6001600160a01b03871661099d5760405162461bcd60e51b815260206004820152601a60248201527f426f72726f776572206d757374206e6f7420626520656d70747900000000000060448201526064016107f2565b836109e35760405162461bcd60e51b815260206004820152601660248201527514185e5b595b9d081c195c9a5bd9081a5b9d985b1a5960521b60448201526064016107f2565b82610a295760405162461bcd60e51b81526020600482015260166024820152755465726d206d757374206e6f7420626520656d70747960501b60448201526064016107f2565b6101c3546001600160a01b0316610a45888888888888886130de565b6101c3546040516001623df69160e21b031981526001600160a01b03838116600483015290911660248201819052907316d3406D386CA5ADE258a9c1577a34f5a7bF32c79063ff0825bc9060440160006040518083038186803b158015610aab57600080fd5b505af4158015610abf573d6000803e3d6000fd5b50506040516302a7e68560e21b81527316d3406D386CA5ADE258a9c1577a34f5a7bF32c79250630a9f9a149150610afa90859060040161572c565b60006040518083038186803b158015610b1257600080fd5b505af4158015610b26573d6000803e3d6000fd5b505050506000826001600160a01b0316637df1f1b96040518163ffffffff1660e01b815260040160206040518083038186803b158015610b6557600080fd5b505afa158015610b79573d6000803e3d6000fd5b505050506040513d601f19601f82011682018060405250810190610b9d9190615294565b90506000826001600160a01b0316637df1f1b96040518163ffffffff1660e01b815260040160206040518083038186803b158015610bda57600080fd5b505afa158015610bee573d6000803e3d6000fd5b505050506040513d601f19601f82011682018060405250810190610c129190615294565b9050806001600160a01b0316826001600160a01b031614610c5d57610c45600080516020615c8e833981519152836129a6565b610c5d600080516020615c8e83398151915282610df0565b6101c554600090610c76906001600160a01b0316613224565b6001600160a01b03166370a08231866040518263ffffffff1660e01b8152600401610ca1919061572c565b60206040518083038186803b158015610cb957600080fd5b505afa158015610ccd573d6000803e3d6000fd5b505050506040513d601f19601f82011682018060405250810190610cf191906155a2565b90508015610d1b576101c554610d1b90610d13906001600160a01b0316613224565b86868461322f565b836001600160a01b0316856001600160a01b03167f987cdba0cba67c68d2c8aba6a4ba6545565eccfb3e2e5ff39579ffd94acaf9bb60405160405180910390a3505050505050505050505050565b610d71612637565b610d8d5760405162461bcd60e51b81526004016107f290615961565b6101c3546040516327ea6f2b60e01b8152600481018390526001600160a01b03909116906327ea6f2b906024015b600060405180830381600087803b158015610dd557600080fd5b505af1158015610de9573d6000803e3d6000fd5b5050505050565b600082815260656020526040902060010154610e0b8161326b565b610e158383613275565b505050565b610e22612637565b610e3e5760405162461bcd60e51b81526004016107f290615961565b60975460ff16610e5057610e506119d7565b6101c554600090610e69906001600160a01b0316613224565b6101c554909150600090610e85906001600160a01b03166132fb565b90506000826001600160a01b03166370a08231306040518263ffffffff1660e01b8152600401610eb5919061572c565b60206040518083038186803b158015610ecd57600080fd5b505afa158015610ee1573d6000803e3d6000fd5b505050506040513d601f19601f82011682018060405250810190610f0591906155a2565b90508015610f1857610f1883838361337d565b6101c3546040516370a0823160e01b81526000916001600160a01b03808716926370a0823192610f4c92169060040161572c565b60206040518083038186803b158015610f6457600080fd5b505afa158015610f78573d6000803e3d6000fd5b505050506040513d601f19601f82011682018060405250810190610f9c91906155a2565b90508015610fbe576101c354610fbe9085906001600160a01b0316858461322f565b60405130907f1fc1e771236d2e93bb9541cdcb4654ba0fd3fb615b48d829b7b365f03998512690600090a250505050565b6001600160a01b038116331461105f5760405162461bcd60e51b815260206004820152602f60248201527f416363657373436f6e74726f6c3a2063616e206f6e6c792072656e6f756e636560448201526e103937b632b9903337b91039b2b63360891b60648201526084016107f2565b61106982826133b9565b5050565b611085600080516020615c4e83398151915233611a13565b6110a15760405162461bcd60e51b81526004016107f29061581e565b61081b613420565b6110c1600080516020615c8e83398151915233611a13565b6110dd5760405162461bcd60e51b81526004016107f2906158e7565b6110e5612e1c565b61081b61346c565b6000806110f861393c565b611100612e1c565b6101c554600090611119906001600160a01b0316613996565b6001600160a01b0316638c7a63ae866040518263ffffffff1660e01b815260040161114691815260200190565b60a06040518083038186803b15801561115e57600080fd5b505afa158015611172573d6000803e3d6000fd5b505050506040513d601f19601f820116820180604052508101906111969190615548565b905060006111a782602001516139a1565b90506111b581838888613a8b565b9350935050506111c5600160c955565b9250929050565b6101c554600090819081906111e9906001600160a01b0316613996565b6001600160a01b0316638c7a63ae856040518263ffffffff1660e01b815260040161121691815260200190565b60a06040518083038186803b15801561122e57600080fd5b505afa158015611242573d6000803e3d6000fd5b505050506040513d601f19601f820116820180604052508101906112669190615548565b9050600061127782602001516139a1565b905080600401546112854290565b11156112a0576112958183613e4d565b935093505050915091565b5060009485945092505050565b6101c5546000906112c6906001600160a01b0316613eb7565b60405163d505accf60e01b8152336004820152306024820152604481018890526064810187905260ff8616608482015260a4810185905260c481018490526001600160a01b03919091169063d505accf9060e401600060405180830381600087803b15801561133457600080fd5b505af1158015611348573d6000803e3d6000fd5b505050506113568787612ad2565b979650505050505050565b600054610100900460ff16158080156113815750600054600160ff909116105b8061139b5750303b15801561139b575060005460ff166001145b6113b75760405162461bcd60e51b81526004016107f29061586a565b6000805460ff1916600117905580156113da576000805461ff0019166101001790555b6113e2613028565b8015610920576000805461ff0019169055604051600181527f7f26b83ff96e1f2b6a682f133852f6798a09c465da95921460cefb38474024989060200160405180910390a150565b611432612637565b61144e5760405162461bcd60e51b81526004016107f290615961565b6001600160a01b0381166114a45760405162461bcd60e51b815260206004820152601a60248201527f4372656469746c696e652063616e6e6f7420626520656d70747900000000000060448201526064016107f2565b6101c3546101c5546001600160a01b03918216916000916114c59116613224565b6001600160a01b03166370a08231836040518263ffffffff1660e01b81526004016114f0919061572c565b60206040518083038186803b15801561150857600080fd5b505afa15801561151c573d6000803e3d6000fd5b505050506040513d601f19601f8201168201806040525081019061154091906155a2565b9050801561156a576101c55461156a90611562906001600160a01b0316613224565b83858461322f565b6040516302a7e68560e21b81527316d3406D386CA5ADE258a9c1577a34f5a7bF32c790630a9f9a14906115a190859060040161572c565b60006040518083038186803b1580156115b957600080fd5b505af41580156115cd573d6000803e3d6000fd5b50506101c380546001600160a01b0319166001600160a01b0387169081179091556040805163a4d66daf60e01b8152905191935063a4d66daf9250600480820192602092909190829003018186803b15801561162857600080fd5b505afa15801561163c573d6000803e3d6000fd5b505050506040513d601f19601f8201168201806040525081019061166091906155a2565b506101c3546040516001600160a01b03918216918416907f987cdba0cba67c68d2c8aba6a4ba6545565eccfb3e2e5ff39579ffd94acaf9bb90600090a3505050565b6116ba600080516020615c8e83398151915233611a13565b6116d65760405162461bcd60e51b81526004016107f2906158e7565b6116de612e1c565b6116e6613ecf565b6117325760405162461bcd60e51b815260206004820152601a60248201527f43757272656e7420736c696365207374696c6c2061637469766500000000000060448201526064016107f2565b6101c360009054906101000a90046001600160a01b03166001600160a01b03166381c17a156040518163ffffffff1660e01b815260040160206040518083038186803b15801561178157600080fd5b505afa158015611795573d6000803e3d6000fd5b505050506040513d601f19601f820116820180604052508101906117b9919061546a565b156117fb5760405162461bcd60e51b81526020600482015260126024820152714372656469746c696e65206973206c61746560701b60448201526064016107f2565b6101c360009054906101000a90046001600160a01b03166001600160a01b031663457147a76040518163ffffffff1660e01b815260040160206040518083038186803b15801561184a57600080fd5b505afa15801561185e573d6000803e3d6000fd5b505050506040513d601f19601f82011682018060405250810190611882919061546a565b6118ce5760405162461bcd60e51b815260206004820152601d60248201527f4265796f6e64207072696e636970616c20677261636520706572696f6400000060448201526064016107f2565b6118d781613f1d565b6101cb5430907f3420dd9c54d6a8846edd2fb39a41c30c31e7bc95b43655dae59f47cc913b60d59061190a906001612e62565b60405190815260200160405180910390a250565b6101cb818154811061192f57600080fd5b90600052602060002090600c0201600091509050806000016040518060a00160405290816000820154815260200160018201548152602001600282015481526020016003820154815260200160048201548152505090806005016040518060a0016040529081600082015481526020016001820154815260200160028201548152602001600382015481526020016004820154815250509080600a01549080600b0154905084565b6119ef600080516020615c4e83398151915233611a13565b611a0b5760405162461bcd60e51b81526004016107f29061581e565b61081b6140ad565b60009182526065602090815260408084206001600160a01b0393909316845291905290205460ff1690565b828114611a8d5760405162461bcd60e51b815260206004820152601e60248201527f546f6b656e7349647320616e6420416d6f756e7473206d69736d61746368000060448201526064016107f2565b60005b81811015610de957611aee858583818110611abb57634e487b7160e01b600052603260045260246000fd5b90506020020135848484818110611ae257634e487b7160e01b600052603260045260246000fd5b905060200201356110ed565b50508080611afb90615b9d565b915050611a90565b611b1b600080516020615c8e83398151915233611a13565b611b375760405162461bcd60e51b81526004016107f2906158e7565b611b3f612e1c565b6101c75460ff1615611b8a5760405162461bcd60e51b8152602060048201526014602482015273111c985dd91bdddb9cc8185c99481c185d5cd95960621b60448201526064016107f2565b611b92613ecf565b611b9e57611b9e61346c565b6101cb805460009190611bb2906001612e62565b81548110611bd057634e487b7160e01b600052603260045260246000fd5b90600052602060002090600c020190506000611bfa826005016002015483600501600101546106f2565b9050611c1e611c17836000016002015484600001600101546106f2565b82906140ea565b905080831115611c705760405162461bcd60e51b815260206004820152601b60248201527f496e73756666696369656e742066756e647320696e20736c696365000000000060448201526064016107f2565b6101c35460405163a079a4dd60e01b8152600481018590526001600160a01b039091169063a079a4dd90602401600060405180830381600087803b158015611cb757600080fd5b505af1158015611ccb573d6000803e3d6000fd5b505050506000611ce48483612e6290919063ffffffff16565b600784015460028501546040805160a081018252600588015481526006880154602082015280820184905260088801546060820152600988015460808201529051634ec167e960e11b8152939450919290917316d3406D386CA5ADE258a9c1577a34f5a7bF32c791639d82cfd291611d629187908a906004016159ea565b60206040518083038186803b158015611d7a57600080fd5b505af4158015611d8e573d6000803e3d6000fd5b505050506040513d601f19601f82011682018060405250810190611db291906155a2565b60078601556040805160a08101825286548152600187015460208201526002870154818301526003870154606082015260048088015460808301529151634ec167e960e11b81527316d3406D386CA5ADE258a9c1577a34f5a7bF32c792639d82cfd292611e2592909188918b91016159ea565b60206040518083038186803b158015611e3d57600080fd5b505af4158015611e51573d6000803e3d6000fd5b505050506040513d601f19601f82011682018060405250810190611e7591906155a2565b6002860155600b850154611e8990876140ea565b600b8601556101c954611e9c90876140ea565b6101c9556101c35460408051637df1f1b960e01b815290516000926001600160a01b031691637df1f1b9916004808301926020929190829003018186803b158015611ee657600080fd5b505afa158015611efa573d6000803e3d6000fd5b505050506040513d601f19601f82011682018060405250810190611f1e9190615294565b6101c554909150611f4390611f3b906001600160a01b0316613224565b30838a61322f565b806001600160a01b03167f7411b87a3c039bdfd8f3510b21e8bd0736265f53513735e1f4aa7b4f306b728d88604051611f7e91815260200190565b60405180910390a26005860154600787015430907f42a55d7508b1c40b53524cf7cc2558b0f6bc7c4f262a3e929b65cd48bec2b68790611fbe8782612e62565b611fca90600019615a9d565b60088b0154604080519384526020840192909252908201526000606082015260800160405180910390a38554600287015430907f42a55d7508b1c40b53524cf7cc2558b0f6bc7c4f262a3e929b65cd48bec2b687906120298682612e62565b61203590600019615a9d565b60038b0154604080519384526020840192909252908201526000606082015260800160405180910390a350505050505050565b612070612e1c565b61081b6140f6565b600054610100900460ff16158080156120985750600054600160ff909116105b806120b25750303b1580156120b2575060005460ff166001145b6120ce5760405162461bcd60e51b81526004016107f29061586a565b6000805460ff1916600117905580156120f1576000805461ff0019166101001790555b6001600160a01b038d161580159061211157506001600160a01b038c1615155b6121575760405162461bcd60e51b815260206004820152601760248201527610dbdb999a59cbd89bdc9c9bddd95c881a5b9d985b1a59604a1b60448201526064016107f2565b6101c580546001600160a01b0319166001600160a01b038f1690811790915560009061218290614868565b90506001600160a01b0381166121ca5760405162461bcd60e51b815260206004820152600d60248201526c13dddb995c881a5b9d985b1a59609a1b60448201526064016107f2565b6121d38161081d565b6121dc85613f1d565b6121eb8d8c8c8c8c8c8c6130de565b426101c4556101c68c9055826122ab5760408051602081019091526101c554600091908190612222906001600160a01b0316614880565b6001600160a01b0316639b56d7886040518163ffffffff1660e01b815260040160206040518083038186803b15801561225a57600080fd5b505afa15801561226e573d6000803e3d6000fd5b505050506040513d601f19601f8201168201806040525081019061229291906155a2565b905290506122a46101c882600161519b565b50506122ba565b6122b86101c885856151e6565b505b6122d2600080516020615c8e8339815191528e613089565b6122ea600080516020615c8e83398151915282613089565b612310600080516020615c8e833981519152600080516020615c0e833981519152613093565b612336600080516020615c6e833981519152600080516020615c0e833981519152613093565b6101c55461236590600080516020615c6e83398151915290612360906001600160a01b031661488b565b613089565b6101c55460009061237e906001600160a01b0316613224565b6001600160a01b031663095ea7b3306000196040518363ffffffff1660e01b81526004016123ad92919061579b565b602060405180830381600087803b1580156123c757600080fd5b505af11580156123db573d6000803e3d6000fd5b505050506040513d601f19601f820116820180604052508101906123ff919061546a565b9050806124475760405162461bcd60e51b81526020600482015260166024820152754661696c656420746f20617070726f7665205553444360501b60448201526064016107f2565b5050801561248f576000805461ff0019169055604051600181527f7f26b83ff96e1f2b6a682f133852f6798a09c465da95921460cefb38474024989060200160405180910390a15b50505050505050505050505050565b6124a6612637565b6124c25760405162461bcd60e51b81526004016107f290615961565b6101c7805460ff1916600117905560405130907f90d9b09c68a7e1312ce22801552b47265d77db9496383d51374b4058545447d790600090a2565b60008061250861393c565b612510612e1c565b6101c554600090612529906001600160a01b0316613996565b6001600160a01b0316638c7a63ae856040518263ffffffff1660e01b815260040161255691815260200190565b60a06040518083038186803b15801561256e57600080fd5b505afa158015612582573d6000803e3d6000fd5b505050506040513d601f19601f820116820180604052508101906125a69190615548565b905060006125b782602001516139a1565b90506000806125c68385613e4d565b909250905060006125d783836140ea565b90506125e584868a84613a8b565b9650965050505050506125f8600160c955565b915091565b612615600080516020615c8e83398151915233611a13565b6126315760405162461bcd60e51b81526004016107f2906158e7565b6101ca55565b6000612651600080516020615c0e83398151915233611a13565b905090565b61266e600080516020615c8e83398151915233611a13565b61268a5760405162461bcd60e51b81526004016107f2906158e7565b6101cb6000815481106126ad57634e487b7160e01b600052603260045260246000fd5b90600052602060002090600c020160050160010154600014801561270857506101cb6000815481106126ef57634e487b7160e01b600052603260045260246000fd5b90600052602060002090600c0201600001600101546000145b61274c5760405162461bcd60e51b81526020600482015260156024820152744d757374206e6f7420686176652062616c616e636560581b60448201526064016107f2565b610e156101c883836151e6565b612761612637565b61277d5760405162461bcd60e51b81526004016107f290615961565b6101c7805460ff1916905560405130907f7184039938737267597232635b117c924371ac877d4329f2dfa5ca674c5cc4a590600090a2565b6127bd612637565b6127d95760405162461bcd60e51b81526004016107f290615961565b6101c354604051632fe2f3b960e21b8152600481018390526001600160a01b039091169063bf8bcee490602401610dbb565b612813612e1c565b6000811161285d5760405162461bcd60e51b81526020600482015260176024820152764d75737420706179206d6f7265207468616e207a65726f60481b60448201526064016107f2565b61286681614896565b6109206140f6565b60405163cde8884560e01b815260048101839052602481018290526000907316d3406D386CA5ADE258a9c1577a34f5a7bF32c79063cde8884590604401610730565b6128b8612637565b6128d45760405162461bcd60e51b81526004016107f290615961565b6101c5546128ea906001600160a01b03166148f7565b6101c580546001600160a01b0319166001600160a01b039283161790556101c3546040805163d30a091160e01b81529051919092169163d30a091191600480830192600092919082900301818387803b15801561294657600080fd5b505af115801561295a573d6000803e3d6000fd5b50506101c5546040513393507f8d003bc2e3965bd9d92389a8ae0ef8c601fa211ba9378150dde7dc3cf38c3a36925061299c916001600160a01b03169061572c565b60405180910390a2565b6000828152606560205260409020600101546129c18161326b565b610e1583836133b9565b6129fd6040518060a0016040528060008152602001600081526020016000815260200160008152602001600081525090565b612a06826139a1565b6040805160a081018252825481526001830154602082015260028301549181019190915260038201546060820152600490910154608082015292915050565b60008060005b6101cb54811015612aaa57612a966101cb8281548110612a7b57634e487b7160e01b600052603260045260246000fd5b600091825260209091206006600c90920201015483906140ea565b915080612aa281615b9d565b915050612a4b565b50919050565b6101c88181548110612ac157600080fd5b600091825260209091200154905081565b6000612adc61393c565b612ae4612e1c565b6000612aef846139a1565b90508060040154600014612b365760405162461bcd60e51b815260206004820152600e60248201526d151c985b98da19481b1bd8dad95960921b60448201526064016107f2565b60008311612b7c5760405162461bcd60e51b81526020600482015260136024820152724d757374206465706f736974203e207a65726f60681b60448201526064016107f2565b6101c554612b92906001600160a01b0316614880565b6001600160a01b0316631852f200336101c86040518363ffffffff1660e01b8152600401612bc1929190615740565b60206040518083038186803b158015612bd957600080fd5b505afa158015612bed573d6000803e3d6000fd5b505050506040513d601f19601f82011682018060405250810190612c11919061546a565b612c2d5760405162461bcd60e51b81526004016107f2906158b8565b6101ca544211612c765760405162461bcd60e51b81526020600482015260146024820152734e6f74206f70656e20666f722066756e64696e6760601b60448201526064016107f2565b8054612c819061490f565b15612cdc57612c9e600080516020615c6e83398151915233611a13565b612cdc5760405162461bcd60e51b815260206004820152600f60248201526e5265712053454e494f525f524f4c4560881b60448201526064016107f2565b6001810154612ceb90846140ea565b600182015560408051808201909152838152602081018590526101c554612d1a906001600160a01b0316613996565b604051632df2bdb560e11b815282516004820152602083015160248201523360448201526001600160a01b039190911690635be57b6a90606401602060405180830381600087803b158015612d6e57600080fd5b505af1158015612d82573d6000803e3d6000fd5b505050506040513d601f19601f82011682018060405250810190612da691906155a2565b6101c554909350612dcb90612dc3906001600160a01b0316613224565b33308761322f565b8285336001600160a01b03167fcb3ef4109dcd006671348924f00aac8398190a5ff283d6e470d74581513e103687604051612e0891815260200190565b60405180910390a45050610783600160c955565b60975460ff161561081b5760405162461bcd60e51b815260206004820152601060248201526f14185d5cd8589b194e881c185d5cd95960821b60448201526064016107f2565b60006107808284615b3f565b612e76613ecf565b15612eb95760405162461bcd60e51b8152602060048201526013602482015272141bdbdb08185b1c9958591e481b1bd8dad959606a1b60448201526064016107f2565b6101cb8181548110612edb57634e487b7160e01b600052603260045260246000fd5b90600052602060002090600c020160050160040154600014612f3f5760405162461bcd60e51b815260206004820152601d60248201527f4a756e696f72207472616e63686520616c7265616479206c6f636b656400000060448201526064016107f2565b6101c554600090612f6490612f5c906001600160a01b0316614925565b425b906140ea565b9050806101cb8381548110612f8957634e487b7160e01b600052603260045260246000fd5b600091825260209091206009600c9092020101556101cb80543091600080516020615c2e8339815191529185908110612fd257634e487b7160e01b600052603260045260246000fd5b60009182526020918290206005600c909202010154604080519182529181018590520160405180910390a25050565b600054610100900460ff1661081b5760405162461bcd60e51b81526004016107f290615916565b600054610100900460ff1661304f5760405162461bcd60e51b81526004016107f290615916565b6097805460ff19169055565b600054610100900460ff166130825760405162461bcd60e51b81526004016107f290615916565b600160c955565b6110698282613275565b600082815260656020526040808220600101805490849055905190918391839186917fbd79b86ffe0ab8e8776151514217cd7cacd52c909f66475c3af44e129f0b00ff9190a4505050565b6101c5546000906130f7906001600160a01b03166149a7565b6001600160a01b03166301b215516040518163ffffffff1660e01b8152600401602060405180830381600087803b15801561313157600080fd5b505af1158015613145573d6000803e3d6000fd5b505050506040513d601f19601f820116820180604052508101906131699190615294565b6101c380546001600160a01b0319166001600160a01b038381169182179092556101c55460405163bb4a250960e01b81529083166004820152306024820152918b166044830152606482018a90526084820189905260a4820188905260c4820187905260e48201869052610104820185905291925063bb4a25099061012401600060405180830381600087803b15801561320257600080fd5b505af1158015613216573d6000803e3d6000fd5b505050505050505050505050565b600061078382613eb7565b60408051808201909152601881527704661696c656420746f207472616e736665722045524332360441b6020820152610de985858585856149b2565b6109208133614a90565b61327f8282611a13565b6110695760008281526065602090815260408083206001600160a01b03851684529091529020805460ff191660011790556132b73390565b6001600160a01b0316816001600160a01b0316837f2f8788117e7eff1d82e926ec794901d17c78024a50270940304540a733656f0d60405160405180910390a45050565b60006001600160a01b03821663b93f9b0a60065b6040518263ffffffff1660e01b815260040161332d91815260200190565b60206040518083038186803b15801561334557600080fd5b505afa158015613359573d6000803e3d6000fd5b505050506040513d601f19601f820116820180604052508101906107839190615294565b610e158383836040518060400160405280601881526020017704661696c656420746f207472616e736665722045524332360441b815250614ae9565b6133c38282611a13565b156110695760008281526065602090815260408083206001600160a01b0385168085529252808320805460ff1916905551339285917ff6391f5c32d9c69d2a47ea670b442974b53935d1edc7fd64eb21e047a839171b9190a45050565b613428614bbb565b6097805460ff191690557f5db9ee0a495bf2e6ff9c91a7834c1ba4fdd244a5e8aa4e537bd38aeae4b073aa335b604051613462919061572c565b60405180910390a1565b6101cb5460009061347e906001612e62565b905060006101cb82815481106134a457634e487b7160e01b600052603260045260246000fd5b90600052602060002090600c020160050160040154116135065760405162461bcd60e51b815260206004820152601d60248201527f4a756e696f72207472616e636865206d757374206265206c6f636b656400000060448201526064016107f2565b6101cb818154811061352857634e487b7160e01b600052603260045260246000fd5b90600052602060002090600c0201600001600401546000146135865760405162461bcd60e51b8152602060048201526017602482015276131bd8dac818d85b9b9bdd08189948195e1d195b991959604a1b60448201526064016107f2565b60006135fe6101cb83815481106135ad57634e487b7160e01b600052603260045260246000fd5b90600052602060002090600c0201600001600101546101cb84815481106135e457634e487b7160e01b600052603260045260246000fd5b600091825260209091206006600c909202010154906140ea565b6101c3546040805163a4d66daf60e01b815290519293506001600160a01b03909116916327ea6f2b9161371c91613690918691869163a4d66daf916004808301926020929190829003018186803b15801561365857600080fd5b505afa15801561366c573d6000803e3d6000fd5b505050506040513d601f19601f82011682018060405250810190612f5e91906155a2565b6101c360009054906101000a90046001600160a01b03166001600160a01b0316631a861d266040518163ffffffff1660e01b815260040160206040518083038186803b1580156136df57600080fd5b505afa1580156136f3573d6000803e3d6000fd5b505050506040513d601f19601f8201168201806040525081019061371791906155a2565b614c04565b6040518263ffffffff1660e01b815260040161373a91815260200190565b600060405180830381600087803b15801561375457600080fd5b505af1158015613768573d6000803e3d6000fd5b50506101c5546000925061378591506001600160a01b0316614925565b90506137918142612f5e565b6101cb84815481106137b357634e487b7160e01b600052603260045260246000fd5b60009182526020909120600c90910201600401556137d18142612f5e565b6101cb84815481106137f357634e487b7160e01b600052603260045260246000fd5b600091825260209091206009600c9092020101556101cb80543091600080516020615c2e833981519152918690811061383c57634e487b7160e01b600052603260045260246000fd5b90600052602060002090600c0201600001600001546101cb868154811061387357634e487b7160e01b600052603260045260246000fd5b60009182526020918290206004600c90920201015460408051938452918301520160405180910390a2306001600160a01b0316600080516020615c2e8339815191526101cb85815481106138d757634e487b7160e01b600052603260045260246000fd5b90600052602060002090600c0201600501600001546101cb868154811061390e57634e487b7160e01b600052603260045260246000fd5b60009182526020918290206009600c90920201015460408051938452918301520160405180910390a2505050565b600260c954141561398f5760405162461bcd60e51b815260206004820152601f60248201527f5265656e7472616e637947756172643a207265656e7472616e742063616c6c0060448201526064016107f2565b600260c955565b600061078382614c1a565b600080821180156139c057506101cb546139bc906002614c32565b8211155b613a025760405162461bcd60e51b8152602060048201526013602482015272556e737570706f72746564207472616e63686560681b60448201526064016107f2565b6000613a2e6001613a286002613a22613a1b8883614c3e565b88906140ea565b90614c4a565b90612e62565b905060006101cb8281548110613a5457634e487b7160e01b600052603260045260246000fd5b600091825260208220600c909102019150613a70856002614c3e565b600114613a805781600501613a82565b815b95945050505050565b6101c5546000908190613aa6906001600160a01b0316613996565b6001600160a01b031663430c208133866040518363ffffffff1660e01b8152600401613ad392919061579b565b60206040518083038186803b158015613aeb57600080fd5b505afa158015613aff573d6000803e3d6000fd5b505050506040513d601f19601f82011682018060405250810190613b23919061546a565b613b615760405162461bcd60e51b815260206004820152600f60248201526e2737ba103a37b5b2b71037bbb732b960891b60448201526064016107f2565b6101c554613b77906001600160a01b0316614880565b6001600160a01b0316631852f200336101c86040518363ffffffff1660e01b8152600401613ba6929190615740565b60206040518083038186803b158015613bbe57600080fd5b505afa158015613bd2573d6000803e3d6000fd5b505050506040513d601f19601f82011682018060405250810190613bf6919061546a565b613c125760405162461bcd60e51b81526004016107f2906158b8565b60008311613c625760405162461bcd60e51b815260206004820152601c60248201527f4d757374207769746864726177206d6f7265207468616e207a65726f0000000060448201526064016107f2565b600080613c6f8888613e4d565b90925090506000613c8083836140ea565b905080861115613cca5760405162461bcd60e51b8152602060048201526015602482015274125b9d985b1a59081c995919595b48185b5bdd5b9d605a1b60448201526064016107f2565b60048901544211613d115760405162461bcd60e51b8152602060048201526011602482015270151c985b98da19481a5cc81b1bd8dad959607a1b60448201526064016107f2565b6004890154613d2f576001890154613d299087612e62565b60018a01555b6000613d3b8488614c04565b90506000613d4d846137178a85612e62565b6101c554909150613d66906001600160a01b0316613996565b60405163b819220560e01b8152600481018b905260248101839052604481018490526001600160a01b03919091169063b819220590606401600060405180830381600087803b158015613db857600080fd5b505af1158015613dcc573d6000803e3d6000fd5b50506101c554613dfb9250613dea91506001600160a01b0316613224565b3033613df685876140ea565b61322f565b6020808b0151604080518581529283018490528b9233917f92f2787b755dae547f1701582fe74c7abf277ec14db316dd01abc69cacf7a259910160405180910390a4909a909950975050505050505050565b6000806000613e64856002015485604001516106f2565b90506000613e7a866003015486604001516106f2565b9050613e93856080015182612e6290919063ffffffff16565b9350613eac856060015183612e6290919063ffffffff16565b925050509250929050565b60006001600160a01b03821663b93f9b0a600561330f565b6101cb80546000918291613ee4906001612e62565b81548110613f0257634e487b7160e01b600052603260045260246000fd5b90600052602060002090600c02016000016004015411905090565b6101cb5460058110613f6a5760405162461bcd60e51b815260206004820152601660248201527543616e6e6f7420657863656564203520736c6963657360501b60448201526064016107f2565b6040805161012081019091526101cb90806080810180613f906001612f5e886002614c32565b815260200160008152602001613fa760018061286e565b815260200160008152602001600081525081526020016040518060a00160405280613fe16002612f5e600289614c3290919063ffffffff16565b815260200160008152602001613ff860018061286e565b81526000602080830182905260409283018290529284528383018190529281018390528454600181810187559584529282902084518051600c90950290910193845580830151958401959095558481015160028401556060808601516003850155608095860151600485015584830151805160058601559283015160068501558282015160078501558281015160088501559190940151600983015592820151600a820155910151600b90910155506101ca55565b6140b5612e1c565b6097805460ff191660011790557f62e78cea01bee320cd4e420270b5ea74000d11b0c9f74754ebdbfc544b05a2586134553390565b60006107808284615a71565b6140fe613ecf565b61413f5760405162461bcd60e51b8152602060048201526012602482015271141bdbdb081a5cc81b9bdd081b1bd8dad95960721b60448201526064016107f2565b6101c35460408051630735c92b60e21b815290516000926001600160a01b031691631cd724ac916004808301926020929190829003018186803b15801561418557600080fd5b505afa158015614199573d6000803e3d6000fd5b505050506040513d601f19601f820116820180604052508101906141bd91906155a2565b905060008060006101c360009054906101000a90046001600160a01b03166001600160a01b031663a6a25e886040518163ffffffff1660e01b8152600401606060405180830381600087803b15801561421557600080fd5b505af1158015614229573d6000803e3d6000fd5b505050506040513d601f19601f8201168201806040525081019061424d91906155db565b9250925092506142de846101c360009054906101000a90046001600160a01b03166001600160a01b0316631cd724ac6040518163ffffffff1660e01b815260040160206040518083038186803b1580156142a657600080fd5b505afa1580156142ba573d6000803e3d6000fd5b505050506040513d601f19601f82011682018060405250810190613a2891906155a2565b6101cb549094506000906001600160401b0381111561430d57634e487b7160e01b600052604160045260246000fd5b604051908082528060200260200182016040528015614336578160200160208202803683370190505b50905060005b6101cb548110156145aa5760007316d3406D386CA5ADE258a9c1577a34f5a7bF32c763cee38ee4886101cb858154811061438657634e487b7160e01b600052603260045260246000fd5b90600052602060002090600c0201600b01546101c9546040518463ffffffff1660e01b81526004016143cb939291909283526020830191909152604082015260600190565b60206040518083038186803b1580156143e357600080fd5b505af41580156143f7573d6000803e3d6000fd5b505050506040513d601f19601f8201168201806040525081019061441b91906155a2565b90507316d3406D386CA5ADE258a9c1577a34f5a7bF32c763cee38ee4856101cb858154811061445a57634e487b7160e01b600052603260045260246000fd5b90600052602060002090600c0201600b01546101c9546040518463ffffffff1660e01b815260040161449f939291909283526020830191909152604082015260600190565b60206040518083038186803b1580156144b757600080fd5b505af41580156144cb573d6000803e3d6000fd5b505050506040513d601f19601f820116820180604052508101906144ef91906155a2565b83838151811061450f57634e487b7160e01b600052603260045260246000fd5b602002602001018181525050614561816101cb848154811061454157634e487b7160e01b600052603260045260246000fd5b90600052602060002090600c0201600a01546140ea90919063ffffffff16565b6101cb838154811061458357634e487b7160e01b600052603260045260246000fd5b60009182526020909120600a600c90920201015550806145a281615b9d565b91505061433c565b5060008311806145ba5750600082115b15614836576101c3546000906145e3906001600160a01b0316856145de86896140ea565b614c56565b905060005b6101cb548110156146ea5761466083828151811061461657634e487b7160e01b600052603260045260246000fd5b60200260200101516101cb838154811061464057634e487b7160e01b600052603260045260246000fd5b90600052602060002090600c0201600b0154612e6290919063ffffffff16565b6101cb828154811061468257634e487b7160e01b600052603260045260246000fd5b90600052602060002090600c0201600b01819055506146d48382815181106146ba57634e487b7160e01b600052603260045260246000fd5b60200260200101516101c954612e6290919063ffffffff16565b6101c955806146e281615b9d565b9150506145e8565b506101c554614701906001600160a01b0316614e86565b6001600160a01b03166328fc33c7856040518263ffffffff1660e01b815260040161472e91815260200190565b600060405180830381600087803b15801561474857600080fd5b505af115801561475c573d6000803e3d6000fd5b50506101c35460408051637df1f1b960e01b815290513094506001600160a01b039092169250637df1f1b9916004808301926020929190829003018186803b1580156147a757600080fd5b505afa1580156147bb573d6000803e3d6000fd5b505050506040513d601f19601f820116820180604052508101906147df9190615294565b6040805187815260208101879052908101889052606081018490526001600160a01b0391909116907fd1055dc2c2a003a83dfacb1c38db776eab5ef89d77a8f05a3512e8cf57f953ce9060800160405180910390a3505b60405130907fa2380b088ee4df06f20f2bbd1971331d0a68504a9f120cc3b029aeb934f87b3c90600090a25050505050565b60006001600160a01b03821663b93f9b0a600761330f565b600061078382614e91565b600061078382614ea9565b6101c554610920906148b0906001600160a01b0316613224565b6101c35460408051808201909152601981527811985a5b1959081d1bc818dbdb1b1958dd081c185e5b595b9d603a1b602082015233916001600160a01b03169085906149b2565b60006001600160a01b03821663b93f9b0a600b61330f565b600061491c826002614c3e565b60011492915050565b60006001600160a01b03821663fc56365860075b6040518263ffffffff1660e01b815260040161495791815260200190565b60206040518083038186803b15801561496f57600080fd5b505afa158015614983573d6000803e3d6000fd5b505050506040513d601f19601f8201168201806040525081019061078391906155a2565b600061078382614ec1565b6001600160a01b0383166149d85760405162461bcd60e51b81526004016107f2906157e7565b6040516323b872dd60e01b81526001600160a01b038581166004830152848116602483015260448201849052600091908716906323b872dd90606401602060405180830381600087803b158015614a2e57600080fd5b505af1158015614a42573d6000803e3d6000fd5b505050506040513d601f19601f82011682018060405250810190614a66919061546a565b90508181614a875760405162461bcd60e51b81526004016107f291906157b4565b50505050505050565b614a9a8282611a13565b61106957614aa781614ed9565b614ab2836020614eeb565b604051602001614ac39291906156bd565b60408051601f198184030181529082905262461bcd60e51b82526107f2916004016157b4565b6001600160a01b038316614b0f5760405162461bcd60e51b81526004016107f2906157e7565b60405163a9059cbb60e01b81526000906001600160a01b0386169063a9059cbb90614b40908790879060040161579b565b602060405180830381600087803b158015614b5a57600080fd5b505af1158015614b6e573d6000803e3d6000fd5b505050506040513d601f19601f82011682018060405250810190614b92919061546a565b90508181614bb35760405162461bcd60e51b81526004016107f291906157b4565b505050505050565b60975460ff1661081b5760405162461bcd60e51b815260206004820152601460248201527314185d5cd8589b194e881b9bdd081c185d5cd95960621b60448201526064016107f2565b6000818310614c135781610780565b5090919050565b60006001600160a01b03821663b93f9b0a600c61330f565b60006107808284615b20565b60006107808284615bb8565b60006107808284615a89565b6101c554600090614cb690614c73906001600160a01b0316613224565b8530614c7f86886140ea565b6040518060400160405280601981526020017811985a5b1959081d1bc818dbdb1b1958dd081c185e5b595b9d603a1b8152506149b2565b6101c554600090614cdb90614cd3906001600160a01b03166150cc565b606490614c4a565b6101c9546101c3546101c6546040516385bd324d60e01b81526101cb600482015260248101899052604481018890526064810185905260848101939093526001600160a01b0390911660a483015260c48201529091506000907316d3406D386CA5ADE258a9c1577a34f5a7bF32c7906385bd324d9060e40160a06040518083038186803b158015614d6b57600080fd5b505af4158015614d7f573d6000803e3d6000fd5b505050506040513d601f19601f82011682018060405250810190614da391906154f9565b805160208201516101c9546101c35460405163060f0a6d60e31b81526101cb6004820152602481019490945260448401929092526064830186905260848301526001600160a01b031660a4820152909150614e72907316d3406D386CA5ADE258a9c1577a34f5a7bF32c79063307853689060c40160206040518083038186803b158015614e2f57600080fd5b505af4158015614e43573d6000803e3d6000fd5b505050506040513d601f19601f82011682018060405250810190614e6791906155a2565b6040830151906140ea565b9250614e7d836150e4565b50509392505050565b600061078382615183565b60006001600160a01b03821663b93f9b0a601361330f565b60006001600160a01b03821663b93f9b0a600e61330f565b60006001600160a01b03821663b93f9b0a600261330f565b60606107836001600160a01b03831660145b60606000614efa836002615b20565b614f05906002615a71565b6001600160401b03811115614f2a57634e487b7160e01b600052604160045260246000fd5b6040519080825280601f01601f191660200182016040528015614f54576020820181803683370190505b509050600360fc1b81600081518110614f7d57634e487b7160e01b600052603260045260246000fd5b60200101906001600160f81b031916908160001a905350600f60fb1b81600181518110614fba57634e487b7160e01b600052603260045260246000fd5b60200101906001600160f81b031916908160001a9053506000614fde846002615b20565b614fe9906001615a71565b90505b600181111561507d576f181899199a1a9b1b9c1cb0b131b232b360811b85600f166010811061502b57634e487b7160e01b600052603260045260246000fd5b1a60f81b82828151811061504f57634e487b7160e01b600052603260045260246000fd5b60200101906001600160f81b031916908160001a90535060049490941c9361507681615b86565b9050614fec565b5083156107805760405162461bcd60e51b815260206004820181905260248201527f537472696e67733a20686578206c656e67746820696e73756666696369656e7460448201526064016107f2565b60006001600160a01b03821663fc5636586003614939565b60405181815230907ff3583f178a8d4f8888c3683f8e948faf9b6eb701c4f1fab265a6ecad1a1ddebb9060200160405180910390a26101c55461092090615133906001600160a01b0316613224565b6101c554309061514b906001600160a01b03166132fb565b84604051806040016040528060198152602001784661696c656420746f2073656e6420746f207265736572766560381b8152506149b2565b60006001600160a01b03821663b93f9b0a601461330f565b8280548282559060005260206000209081019282156151d6579160200282015b828111156151d65782518255916020019190600101906151bb565b506151e2929150615221565b5090565b8280548282559060005260206000209081019282156151d6579160200282015b828111156151d6578235825591602001919060010190615206565b5b808211156151e25760008155600101615222565b60008083601f840112615247578182fd5b5081356001600160401b0381111561525d578182fd5b6020830191508360208260051b85010111156111c557600080fd5b600060208284031215615289578081fd5b813561078081615bf8565b6000602082840312156152a5578081fd5b815161078081615bf8565b6000806000806000806000806000806000806101608d8f0312156152d2578788fd5b6152dc8d35615bf8565b8c359b506152ed60208e0135615bf8565b60208d01359a5060408d0135995060608d0135985060808d0135975060a08d0135965060c08d0135955060e08d013594506101008d013593506101208d013592506001600160401b036101408e01351115615346578081fd5b6153578e6101408f01358f01615236565b81935080925050509295989b509295989b509295989b565b600080600080600080600060e0888a031215615389578283fd5b873561539481615bf8565b9960208901359950604089013598606081013598506080810135975060a0810135965060c00135945092505050565b600080602083850312156153d5578182fd5b82356001600160401b038111156153ea578283fd5b6153f685828601615236565b90969095509350505050565b60008060008060408587031215615417578384fd5b84356001600160401b038082111561542d578586fd5b61543988838901615236565b90965094506020870135915080821115615451578384fd5b5061545e87828801615236565b95989497509550505050565b60006020828403121561547b578081fd5b81518015158114610780578182fd5b60006020828403121561549b578081fd5b5035919050565b600080604083850312156154b4578182fd5b8235915060208301356154c681615bf8565b809150509250929050565b6000602082840312156154e2578081fd5b81356001600160e01b031981168114610780578182fd5b600060a0828403121561550a578081fd5b615512615a3b565b82518152602083015160208201526040830151604082015260608301516060820152608083015160808201528091505092915050565b600060a08284031215615559578081fd5b615561615a3b565b825161556c81615bf8565b80825250602083015160208201526040830151604082015260608301516060820152608083015160808201528091505092915050565b6000602082840312156155b3578081fd5b5051919050565b600080604083850312156155cc578182fd5b50508035926020909101359150565b6000806000606084860312156155ef578081fd5b8351925060208401519150604084015190509250925092565b60008060008060008060c08789031215615620578384fd5b863595506020870135945060408701359350606087013560ff81168114615645578283fd5b9598949750929560808101359460a0909101359350915050565b80518252602081015160208301526040810151604083015260608101516060830152608081015160808301525050565b8054825260018101546020830152600281015460408301526003810154606083015260040154608090910152565b76020b1b1b2b9b9a1b7b73a3937b61d1030b1b1b7bab73a1604d1b8152600083516156ef816017850160208801615b56565b7001034b99036b4b9b9b4b733903937b6329607d1b6017918401918201528351615720816028840160208801615b56565b01602801949350505050565b6001600160a01b0391909116815260200190565b6001600160a01b0383168152604060208083018290528354918301829052600084815281812090929091906060850190845b8181101561578e57845483526001948501949284019201615772565b5090979650505050505050565b6001600160a01b03929092168252602082015260400190565b60208152600082518060208401526157d3816040850160208701615b56565b601f01601f19169190910160400192915050565b6020808252601a908201527f43616e27742073656e6420746f207a65726f2061646472657373000000000000604082015260600190565b6020808252602c908201527f4d75737420686176652070617573657220726f6c6520746f20706572666f726d60408201526b103a3434b99030b1ba34b7b760a11b606082015260800190565b6020808252602e908201527f496e697469616c697a61626c653a20636f6e747261637420697320616c72656160408201526d191e481a5b9a5d1a585b1a5e995960921b606082015260800190565b6020808252601590820152741059191c995cdcc81b9bdd0819dbcb5b1a5cdd1959605a1b604082015260600190565b6020808252601590820152744d7573742068617665206c6f636b657220726f6c6560581b604082015260600190565b6020808252602b908201527f496e697469616c697a61626c653a20636f6e7472616374206973206e6f74206960408201526a6e697469616c697a696e6760a81b606082015260800190565b6020808252602b908201527f4d75737420686176652061646d696e20726f6c6520746f20706572666f726d2060408201526a3a3434b99030b1ba34b7b760a91b606082015260800190565b60a08101610783828461565f565b61018081016159c9828761565f565b6159d660a083018661565f565b610140820193909352610160015292915050565b61024081016159f9828661565f565b8360a0830152615a0c60c083018461568f565b615a1d61016083016005850161568f565b600a830154610200830152600b830154610220830152949350505050565b60405160a081016001600160401b0381118282101715615a6b57634e487b7160e01b600052604160045260246000fd5b60405290565b60008219821115615a8457615a84615bcc565b500190565b600082615a9857615a98615be2565b500490565b60006001600160ff1b0381841382841380821686840486111615615ac357615ac3615bcc565b600160ff1b84871282811687830589121615615ae157615ae1615bcc565b858712925087820587128484161615615afc57615afc615bcc565b87850587128184161615615b1257615b12615bcc565b505050929093029392505050565b6000816000190483118215151615615b3a57615b3a615bcc565b500290565b600082821015615b5157615b51615bcc565b500390565b60005b83811015615b71578181015183820152602001615b59565b83811115615b80576000848401525b50505050565b600081615b9557615b95615bcc565b506000190190565b6000600019821415615bb157615bb1615bcc565b5060010190565b600082615bc757615bc7615be2565b500690565b634e487b7160e01b600052601160045260246000fd5b634e487b7160e01b600052601260045260246000fd5b6001600160a01b038116811461092057600080fdfeb19546dff01e856fb3f010c267a7b1c60363cf8a4664e21cc89c26224620214ef839b119f21fb055e13aebac51bca6b308f52ec2d8db8306ce4d092d964e5bd065d7a28e3265b37a6474929f336521b332c1681b933f6cb9f3376673440d862a956624bfbe09c0e98e645d61eba0de4ce88e8cceabdb00fead208d19a8e1209baf9a8bb3cbd6b84fbccefa71ff73e26e798553c6914585a84886212a46a90279a264697066735822122074e44caa8fa24358053082304a7b6ef18622f7c9f471181d4a8c6ecf1570f4ee64736f6c63430008040033",
  "deployedBytecode": "0x608060405234801561001057600080fd5b506004361061030e5760003560e01c806380b654311161019e578063bf8bcee4116100ef578063d547741f1161009d578063d547741f14610652578063d972e8ad14610665578063dd0ec24114610685578063e2a657f91461068d578063e2bbb158146106a0578063e58378bb146106b3578063e63ab1e9146106c8578063f3621367146106dd57600080fd5b8063bf8bcee4146105f5578063bfaa8cca14610608578063c290d69114610610578063c77d569814610623578063cde888451461062d578063cf09e0d014610640578063d30a09111461064a57600080fd5b8063a8deac0e1161014c578063a8deac0e14610591578063a8f9c4fe146105a4578063aa2a7c4c146105ac578063ae6c857a146105bf578063b6db75a0146105d2578063b9317d86146105da578063bf6c87c7146105ed57600080fd5b806380b654311461051d5780638456cb591461054057806391d14854146105485780639d1105301461055b578063a079a4dd1461056e578063a217fddf14610581578063a6a25e881461058957600080fd5b80634026478e1161026357806356ce15601161021157806356ce1560146104ac5780635c975abb146104bf5780635eb185a2146104ca57806368dcfdc0146104d457806374f0314f146104e357806378bcd604146104ed57806379502c55146105005780637976323d1461051457600080fd5b80634026478e14610425578063441a3e701461042d57806344c08f231461045557806347195e131461045d5780634d02fe6f1461047e578063515bc32314610491578063526d81f6146104a457600080fd5b8063248a9ca3116102c0578063248a9ca3146103a457806327ea6f2b146103c75780632ae754be146103da5780632f2ff15d146103ef5780633403c2fc1461040257806336568abe1461040a5780633f4ba83a1461041d57600080fd5b80630174b4491461031357806301ffc9a7146103395780630881806c1461035c578063097616a3146103665780630cfb14b01461037957806317f76941146103835780631fe032be14610391575b600080fd5b6103266103213660046155ba565b6106f2565b6040519081526020015b60405180910390f35b61034c6103473660046154d1565b610789565b6040519015158152602001610330565b6103646107be565b005b610364610374366004615278565b61081d565b6103266101c95481565b6101c75461034c9060ff1681565b61036461039f36600461536f565b610923565b6103266103b236600461548a565b60009081526065602052604090206001015490565b6103646103d536600461548a565b610d69565b610326600080516020615c6e83398151915281565b6103646103fd3660046154a2565b610df0565b610364610e1a565b6103646104183660046154a2565b610fef565b61036461106d565b6103646110a9565b61044061043b3660046155ba565b6110ed565b60408051928352602083019190915201610330565b610326600281565b6101c354610471906001600160a01b031681565b604051610330919061572c565b61044061048c36600461548a565b6111cc565b61032661049f366004615608565b6112ad565b610364611361565b6103646104ba366004615278565b61142a565b60975460ff1661034c565b6103266101ca5481565b610326670de0b6b3a764000081565b6103266201518081565b6103646104fb36600461548a565b6116a2565b6101c554610471906001600160a01b031681565b6101cb54610326565b61053061052b36600461548a565b61191e565b60405161033094939291906159ba565b6103646119d7565b61034c6105563660046154a2565b611a13565b610364610569366004615402565b611a3e565b61036461057c36600461548a565b611b03565b610326600081565b610364612068565b61036461059f3660046152b0565b612078565b61036461249e565b6104406105ba36600461548a565b6124fd565b6103646105cd36600461548a565b6125fd565b61034c612637565b6103646105e83660046153c3565b612656565b610364612759565b61036461060336600461548a565b6127b5565b610326606481565b61036461061e36600461548a565b61280b565b6103266101c65481565b61032661063b3660046155ba565b61286e565b6103266101c45481565b6103646128b0565b6103646106603660046154a2565b6129a6565b61067861067336600461548a565b6129cb565b60405161033091906159ac565b610326612a45565b61032661069b36600461548a565b612ab0565b6103266106ae3660046155ba565b612ad2565b610326600080516020615c0e83398151915281565b610326600080516020615c4e83398151915281565b610326600080516020615c8e83398151915281565b604051630174b44960e01b8152600481018390526024810182905260009073__$07e8ed413e81d51a5dfb2d8e1b1fa75af5$__90630174b449906044015b60206040518083038186803b15801561074857600080fd5b505af415801561075c573d6000803e3d6000fd5b505050506040513d601f19601f8201168201806040525081019061078091906155a2565b90505b92915050565b60006001600160e01b03198216637965db0b60e01b148061078357506301ffc9a760e01b6001600160e01b0319831614610783565b6107d6600080516020615c8e83398151915233611a13565b6107fb5760405162461bcd60e51b81526004016107f2906158e7565b60405180910390fd5b610803612e1c565b6101cb5461081b90610816906001612e62565b612e6e565b565b600054610100900460ff166108445760405162461bcd60e51b81526004016107f290615916565b6001600160a01b03811661089a5760405162461bcd60e51b815260206004820181905260248201527f4f776e65722063616e6e6f7420626520746865207a65726f206164647265737360448201526064016107f2565b6108a2613001565b6108aa613028565b6108b261305b565b6108ca600080516020615c0e83398151915282613089565b6108e2600080516020615c4e83398151915282613089565b610908600080516020615c4e833981519152600080516020615c0e833981519152613093565b610920600080516020615c0e83398151915280613093565b50565b61092b612637565b6109475760405162461bcd60e51b81526004016107f290615961565b6001600160a01b03871661099d5760405162461bcd60e51b815260206004820152601a60248201527f426f72726f776572206d757374206e6f7420626520656d70747900000000000060448201526064016107f2565b836109e35760405162461bcd60e51b815260206004820152601660248201527514185e5b595b9d081c195c9a5bd9081a5b9d985b1a5960521b60448201526064016107f2565b82610a295760405162461bcd60e51b81526020600482015260166024820152755465726d206d757374206e6f7420626520656d70747960501b60448201526064016107f2565b6101c3546001600160a01b0316610a45888888888888886130de565b6101c3546040516001623df69160e21b031981526001600160a01b038381166004830152909116602482018190529073__$07e8ed413e81d51a5dfb2d8e1b1fa75af5$__9063ff0825bc9060440160006040518083038186803b158015610aab57600080fd5b505af4158015610abf573d6000803e3d6000fd5b50506040516302a7e68560e21b815273__$07e8ed413e81d51a5dfb2d8e1b1fa75af5$__9250630a9f9a149150610afa90859060040161572c565b60006040518083038186803b158015610b1257600080fd5b505af4158015610b26573d6000803e3d6000fd5b505050506000826001600160a01b0316637df1f1b96040518163ffffffff1660e01b815260040160206040518083038186803b158015610b6557600080fd5b505afa158015610b79573d6000803e3d6000fd5b505050506040513d601f19601f82011682018060405250810190610b9d9190615294565b90506000826001600160a01b0316637df1f1b96040518163ffffffff1660e01b815260040160206040518083038186803b158015610bda57600080fd5b505afa158015610bee573d6000803e3d6000fd5b505050506040513d601f19601f82011682018060405250810190610c129190615294565b9050806001600160a01b0316826001600160a01b031614610c5d57610c45600080516020615c8e833981519152836129a6565b610c5d600080516020615c8e83398151915282610df0565b6101c554600090610c76906001600160a01b0316613224565b6001600160a01b03166370a08231866040518263ffffffff1660e01b8152600401610ca1919061572c565b60206040518083038186803b158015610cb957600080fd5b505afa158015610ccd573d6000803e3d6000fd5b505050506040513d601f19601f82011682018060405250810190610cf191906155a2565b90508015610d1b576101c554610d1b90610d13906001600160a01b0316613224565b86868461322f565b836001600160a01b0316856001600160a01b03167f987cdba0cba67c68d2c8aba6a4ba6545565eccfb3e2e5ff39579ffd94acaf9bb60405160405180910390a3505050505050505050505050565b610d71612637565b610d8d5760405162461bcd60e51b81526004016107f290615961565b6101c3546040516327ea6f2b60e01b8152600481018390526001600160a01b03909116906327ea6f2b906024015b600060405180830381600087803b158015610dd557600080fd5b505af1158015610de9573d6000803e3d6000fd5b5050505050565b600082815260656020526040902060010154610e0b8161326b565b610e158383613275565b505050565b610e22612637565b610e3e5760405162461bcd60e51b81526004016107f290615961565b60975460ff16610e5057610e506119d7565b6101c554600090610e69906001600160a01b0316613224565b6101c554909150600090610e85906001600160a01b03166132fb565b90506000826001600160a01b03166370a08231306040518263ffffffff1660e01b8152600401610eb5919061572c565b60206040518083038186803b158015610ecd57600080fd5b505afa158015610ee1573d6000803e3d6000fd5b505050506040513d601f19601f82011682018060405250810190610f0591906155a2565b90508015610f1857610f1883838361337d565b6101c3546040516370a0823160e01b81526000916001600160a01b03808716926370a0823192610f4c92169060040161572c565b60206040518083038186803b158015610f6457600080fd5b505afa158015610f78573d6000803e3d6000fd5b505050506040513d601f19601f82011682018060405250810190610f9c91906155a2565b90508015610fbe576101c354610fbe9085906001600160a01b0316858461322f565b60405130907f1fc1e771236d2e93bb9541cdcb4654ba0fd3fb615b48d829b7b365f03998512690600090a250505050565b6001600160a01b038116331461105f5760405162461bcd60e51b815260206004820152602f60248201527f416363657373436f6e74726f6c3a2063616e206f6e6c792072656e6f756e636560448201526e103937b632b9903337b91039b2b63360891b60648201526084016107f2565b61106982826133b9565b5050565b611085600080516020615c4e83398151915233611a13565b6110a15760405162461bcd60e51b81526004016107f29061581e565b61081b613420565b6110c1600080516020615c8e83398151915233611a13565b6110dd5760405162461bcd60e51b81526004016107f2906158e7565b6110e5612e1c565b61081b61346c565b6000806110f861393c565b611100612e1c565b6101c554600090611119906001600160a01b0316613996565b6001600160a01b0316638c7a63ae866040518263ffffffff1660e01b815260040161114691815260200190565b60a06040518083038186803b15801561115e57600080fd5b505afa158015611172573d6000803e3d6000fd5b505050506040513d601f19601f820116820180604052508101906111969190615548565b905060006111a782602001516139a1565b90506111b581838888613a8b565b9350935050506111c5600160c955565b9250929050565b6101c554600090819081906111e9906001600160a01b0316613996565b6001600160a01b0316638c7a63ae856040518263ffffffff1660e01b815260040161121691815260200190565b60a06040518083038186803b15801561122e57600080fd5b505afa158015611242573d6000803e3d6000fd5b505050506040513d601f19601f820116820180604052508101906112669190615548565b9050600061127782602001516139a1565b905080600401546112854290565b11156112a0576112958183613e4d565b935093505050915091565b5060009485945092505050565b6101c5546000906112c6906001600160a01b0316613eb7565b60405163d505accf60e01b8152336004820152306024820152604481018890526064810187905260ff8616608482015260a4810185905260c481018490526001600160a01b03919091169063d505accf9060e401600060405180830381600087803b15801561133457600080fd5b505af1158015611348573d6000803e3d6000fd5b505050506113568787612ad2565b979650505050505050565b600054610100900460ff16158080156113815750600054600160ff909116105b8061139b5750303b15801561139b575060005460ff166001145b6113b75760405162461bcd60e51b81526004016107f29061586a565b6000805460ff1916600117905580156113da576000805461ff0019166101001790555b6113e2613028565b8015610920576000805461ff0019169055604051600181527f7f26b83ff96e1f2b6a682f133852f6798a09c465da95921460cefb38474024989060200160405180910390a150565b611432612637565b61144e5760405162461bcd60e51b81526004016107f290615961565b6001600160a01b0381166114a45760405162461bcd60e51b815260206004820152601a60248201527f4372656469746c696e652063616e6e6f7420626520656d70747900000000000060448201526064016107f2565b6101c3546101c5546001600160a01b03918216916000916114c59116613224565b6001600160a01b03166370a08231836040518263ffffffff1660e01b81526004016114f0919061572c565b60206040518083038186803b15801561150857600080fd5b505afa15801561151c573d6000803e3d6000fd5b505050506040513d601f19601f8201168201806040525081019061154091906155a2565b9050801561156a576101c55461156a90611562906001600160a01b0316613224565b83858461322f565b6040516302a7e68560e21b815273__$07e8ed413e81d51a5dfb2d8e1b1fa75af5$__90630a9f9a14906115a190859060040161572c565b60006040518083038186803b1580156115b957600080fd5b505af41580156115cd573d6000803e3d6000fd5b50506101c380546001600160a01b0319166001600160a01b0387169081179091556040805163a4d66daf60e01b8152905191935063a4d66daf9250600480820192602092909190829003018186803b15801561162857600080fd5b505afa15801561163c573d6000803e3d6000fd5b505050506040513d601f19601f8201168201806040525081019061166091906155a2565b506101c3546040516001600160a01b03918216918416907f987cdba0cba67c68d2c8aba6a4ba6545565eccfb3e2e5ff39579ffd94acaf9bb90600090a3505050565b6116ba600080516020615c8e83398151915233611a13565b6116d65760405162461bcd60e51b81526004016107f2906158e7565b6116de612e1c565b6116e6613ecf565b6117325760405162461bcd60e51b815260206004820152601a60248201527f43757272656e7420736c696365207374696c6c2061637469766500000000000060448201526064016107f2565b6101c360009054906101000a90046001600160a01b03166001600160a01b03166381c17a156040518163ffffffff1660e01b815260040160206040518083038186803b15801561178157600080fd5b505afa158015611795573d6000803e3d6000fd5b505050506040513d601f19601f820116820180604052508101906117b9919061546a565b156117fb5760405162461bcd60e51b81526020600482015260126024820152714372656469746c696e65206973206c61746560701b60448201526064016107f2565b6101c360009054906101000a90046001600160a01b03166001600160a01b031663457147a76040518163ffffffff1660e01b815260040160206040518083038186803b15801561184a57600080fd5b505afa15801561185e573d6000803e3d6000fd5b505050506040513d601f19601f82011682018060405250810190611882919061546a565b6118ce5760405162461bcd60e51b815260206004820152601d60248201527f4265796f6e64207072696e636970616c20677261636520706572696f6400000060448201526064016107f2565b6118d781613f1d565b6101cb5430907f3420dd9c54d6a8846edd2fb39a41c30c31e7bc95b43655dae59f47cc913b60d59061190a906001612e62565b60405190815260200160405180910390a250565b6101cb818154811061192f57600080fd5b90600052602060002090600c0201600091509050806000016040518060a00160405290816000820154815260200160018201548152602001600282015481526020016003820154815260200160048201548152505090806005016040518060a0016040529081600082015481526020016001820154815260200160028201548152602001600382015481526020016004820154815250509080600a01549080600b0154905084565b6119ef600080516020615c4e83398151915233611a13565b611a0b5760405162461bcd60e51b81526004016107f29061581e565b61081b6140ad565b60009182526065602090815260408084206001600160a01b0393909316845291905290205460ff1690565b828114611a8d5760405162461bcd60e51b815260206004820152601e60248201527f546f6b656e7349647320616e6420416d6f756e7473206d69736d61746368000060448201526064016107f2565b60005b81811015610de957611aee858583818110611abb57634e487b7160e01b600052603260045260246000fd5b90506020020135848484818110611ae257634e487b7160e01b600052603260045260246000fd5b905060200201356110ed565b50508080611afb90615b9d565b915050611a90565b611b1b600080516020615c8e83398151915233611a13565b611b375760405162461bcd60e51b81526004016107f2906158e7565b611b3f612e1c565b6101c75460ff1615611b8a5760405162461bcd60e51b8152602060048201526014602482015273111c985dd91bdddb9cc8185c99481c185d5cd95960621b60448201526064016107f2565b611b92613ecf565b611b9e57611b9e61346c565b6101cb805460009190611bb2906001612e62565b81548110611bd057634e487b7160e01b600052603260045260246000fd5b90600052602060002090600c020190506000611bfa826005016002015483600501600101546106f2565b9050611c1e611c17836000016002015484600001600101546106f2565b82906140ea565b905080831115611c705760405162461bcd60e51b815260206004820152601b60248201527f496e73756666696369656e742066756e647320696e20736c696365000000000060448201526064016107f2565b6101c35460405163a079a4dd60e01b8152600481018590526001600160a01b039091169063a079a4dd90602401600060405180830381600087803b158015611cb757600080fd5b505af1158015611ccb573d6000803e3d6000fd5b505050506000611ce48483612e6290919063ffffffff16565b600784015460028501546040805160a081018252600588015481526006880154602082015280820184905260088801546060820152600988015460808201529051634ec167e960e11b81529394509192909173__$07e8ed413e81d51a5dfb2d8e1b1fa75af5$__91639d82cfd291611d629187908a906004016159ea565b60206040518083038186803b158015611d7a57600080fd5b505af4158015611d8e573d6000803e3d6000fd5b505050506040513d601f19601f82011682018060405250810190611db291906155a2565b60078601556040805160a08101825286548152600187015460208201526002870154818301526003870154606082015260048088015460808301529151634ec167e960e11b815273__$07e8ed413e81d51a5dfb2d8e1b1fa75af5$__92639d82cfd292611e2592909188918b91016159ea565b60206040518083038186803b158015611e3d57600080fd5b505af4158015611e51573d6000803e3d6000fd5b505050506040513d601f19601f82011682018060405250810190611e7591906155a2565b6002860155600b850154611e8990876140ea565b600b8601556101c954611e9c90876140ea565b6101c9556101c35460408051637df1f1b960e01b815290516000926001600160a01b031691637df1f1b9916004808301926020929190829003018186803b158015611ee657600080fd5b505afa158015611efa573d6000803e3d6000fd5b505050506040513d601f19601f82011682018060405250810190611f1e9190615294565b6101c554909150611f4390611f3b906001600160a01b0316613224565b30838a61322f565b806001600160a01b03167f7411b87a3c039bdfd8f3510b21e8bd0736265f53513735e1f4aa7b4f306b728d88604051611f7e91815260200190565b60405180910390a26005860154600787015430907f42a55d7508b1c40b53524cf7cc2558b0f6bc7c4f262a3e929b65cd48bec2b68790611fbe8782612e62565b611fca90600019615a9d565b60088b0154604080519384526020840192909252908201526000606082015260800160405180910390a38554600287015430907f42a55d7508b1c40b53524cf7cc2558b0f6bc7c4f262a3e929b65cd48bec2b687906120298682612e62565b61203590600019615a9d565b60038b0154604080519384526020840192909252908201526000606082015260800160405180910390a350505050505050565b612070612e1c565b61081b6140f6565b600054610100900460ff16158080156120985750600054600160ff909116105b806120b25750303b1580156120b2575060005460ff166001145b6120ce5760405162461bcd60e51b81526004016107f29061586a565b6000805460ff1916600117905580156120f1576000805461ff0019166101001790555b6001600160a01b038d161580159061211157506001600160a01b038c1615155b6121575760405162461bcd60e51b815260206004820152601760248201527610dbdb999a59cbd89bdc9c9bddd95c881a5b9d985b1a59604a1b60448201526064016107f2565b6101c580546001600160a01b0319166001600160a01b038f1690811790915560009061218290614868565b90506001600160a01b0381166121ca5760405162461bcd60e51b815260206004820152600d60248201526c13dddb995c881a5b9d985b1a59609a1b60448201526064016107f2565b6121d38161081d565b6121dc85613f1d565b6121eb8d8c8c8c8c8c8c6130de565b426101c4556101c68c9055826122ab5760408051602081019091526101c554600091908190612222906001600160a01b0316614880565b6001600160a01b0316639b56d7886040518163ffffffff1660e01b815260040160206040518083038186803b15801561225a57600080fd5b505afa15801561226e573d6000803e3d6000fd5b505050506040513d601f19601f8201168201806040525081019061229291906155a2565b905290506122a46101c882600161519b565b50506122ba565b6122b86101c885856151e6565b505b6122d2600080516020615c8e8339815191528e613089565b6122ea600080516020615c8e83398151915282613089565b612310600080516020615c8e833981519152600080516020615c0e833981519152613093565b612336600080516020615c6e833981519152600080516020615c0e833981519152613093565b6101c55461236590600080516020615c6e83398151915290612360906001600160a01b031661488b565b613089565b6101c55460009061237e906001600160a01b0316613224565b6001600160a01b031663095ea7b3306000196040518363ffffffff1660e01b81526004016123ad92919061579b565b602060405180830381600087803b1580156123c757600080fd5b505af11580156123db573d6000803e3d6000fd5b505050506040513d601f19601f820116820180604052508101906123ff919061546a565b9050806124475760405162461bcd60e51b81526020600482015260166024820152754661696c656420746f20617070726f7665205553444360501b60448201526064016107f2565b5050801561248f576000805461ff0019169055604051600181527f7f26b83ff96e1f2b6a682f133852f6798a09c465da95921460cefb38474024989060200160405180910390a15b50505050505050505050505050565b6124a6612637565b6124c25760405162461bcd60e51b81526004016107f290615961565b6101c7805460ff1916600117905560405130907f90d9b09c68a7e1312ce22801552b47265d77db9496383d51374b4058545447d790600090a2565b60008061250861393c565b612510612e1c565b6101c554600090612529906001600160a01b0316613996565b6001600160a01b0316638c7a63ae856040518263ffffffff1660e01b815260040161255691815260200190565b60a06040518083038186803b15801561256e57600080fd5b505afa158015612582573d6000803e3d6000fd5b505050506040513d601f19601f820116820180604052508101906125a69190615548565b905060006125b782602001516139a1565b90506000806125c68385613e4d565b909250905060006125d783836140ea565b90506125e584868a84613a8b565b9650965050505050506125f8600160c955565b915091565b612615600080516020615c8e83398151915233611a13565b6126315760405162461bcd60e51b81526004016107f2906158e7565b6101ca55565b6000612651600080516020615c0e83398151915233611a13565b905090565b61266e600080516020615c8e83398151915233611a13565b61268a5760405162461bcd60e51b81526004016107f2906158e7565b6101cb6000815481106126ad57634e487b7160e01b600052603260045260246000fd5b90600052602060002090600c020160050160010154600014801561270857506101cb6000815481106126ef57634e487b7160e01b600052603260045260246000fd5b90600052602060002090600c0201600001600101546000145b61274c5760405162461bcd60e51b81526020600482015260156024820152744d757374206e6f7420686176652062616c616e636560581b60448201526064016107f2565b610e156101c883836151e6565b612761612637565b61277d5760405162461bcd60e51b81526004016107f290615961565b6101c7805460ff1916905560405130907f7184039938737267597232635b117c924371ac877d4329f2dfa5ca674c5cc4a590600090a2565b6127bd612637565b6127d95760405162461bcd60e51b81526004016107f290615961565b6101c354604051632fe2f3b960e21b8152600481018390526001600160a01b039091169063bf8bcee490602401610dbb565b612813612e1c565b6000811161285d5760405162461bcd60e51b81526020600482015260176024820152764d75737420706179206d6f7265207468616e207a65726f60481b60448201526064016107f2565b61286681614896565b6109206140f6565b60405163cde8884560e01b8152600481018390526024810182905260009073__$07e8ed413e81d51a5dfb2d8e1b1fa75af5$__9063cde8884590604401610730565b6128b8612637565b6128d45760405162461bcd60e51b81526004016107f290615961565b6101c5546128ea906001600160a01b03166148f7565b6101c580546001600160a01b0319166001600160a01b039283161790556101c3546040805163d30a091160e01b81529051919092169163d30a091191600480830192600092919082900301818387803b15801561294657600080fd5b505af115801561295a573d6000803e3d6000fd5b50506101c5546040513393507f8d003bc2e3965bd9d92389a8ae0ef8c601fa211ba9378150dde7dc3cf38c3a36925061299c916001600160a01b03169061572c565b60405180910390a2565b6000828152606560205260409020600101546129c18161326b565b610e1583836133b9565b6129fd6040518060a0016040528060008152602001600081526020016000815260200160008152602001600081525090565b612a06826139a1565b6040805160a081018252825481526001830154602082015260028301549181019190915260038201546060820152600490910154608082015292915050565b60008060005b6101cb54811015612aaa57612a966101cb8281548110612a7b57634e487b7160e01b600052603260045260246000fd5b600091825260209091206006600c90920201015483906140ea565b915080612aa281615b9d565b915050612a4b565b50919050565b6101c88181548110612ac157600080fd5b600091825260209091200154905081565b6000612adc61393c565b612ae4612e1c565b6000612aef846139a1565b90508060040154600014612b365760405162461bcd60e51b815260206004820152600e60248201526d151c985b98da19481b1bd8dad95960921b60448201526064016107f2565b60008311612b7c5760405162461bcd60e51b81526020600482015260136024820152724d757374206465706f736974203e207a65726f60681b60448201526064016107f2565b6101c554612b92906001600160a01b0316614880565b6001600160a01b0316631852f200336101c86040518363ffffffff1660e01b8152600401612bc1929190615740565b60206040518083038186803b158015612bd957600080fd5b505afa158015612bed573d6000803e3d6000fd5b505050506040513d601f19601f82011682018060405250810190612c11919061546a565b612c2d5760405162461bcd60e51b81526004016107f2906158b8565b6101ca544211612c765760405162461bcd60e51b81526020600482015260146024820152734e6f74206f70656e20666f722066756e64696e6760601b60448201526064016107f2565b8054612c819061490f565b15612cdc57612c9e600080516020615c6e83398151915233611a13565b612cdc5760405162461bcd60e51b815260206004820152600f60248201526e5265712053454e494f525f524f4c4560881b60448201526064016107f2565b6001810154612ceb90846140ea565b600182015560408051808201909152838152602081018590526101c554612d1a906001600160a01b0316613996565b604051632df2bdb560e11b815282516004820152602083015160248201523360448201526001600160a01b039190911690635be57b6a90606401602060405180830381600087803b158015612d6e57600080fd5b505af1158015612d82573d6000803e3d6000fd5b505050506040513d601f19601f82011682018060405250810190612da691906155a2565b6101c554909350612dcb90612dc3906001600160a01b0316613224565b33308761322f565b8285336001600160a01b03167fcb3ef4109dcd006671348924f00aac8398190a5ff283d6e470d74581513e103687604051612e0891815260200190565b60405180910390a45050610783600160c955565b60975460ff161561081b5760405162461bcd60e51b815260206004820152601060248201526f14185d5cd8589b194e881c185d5cd95960821b60448201526064016107f2565b60006107808284615b3f565b612e76613ecf565b15612eb95760405162461bcd60e51b8152602060048201526013602482015272141bdbdb08185b1c9958591e481b1bd8dad959606a1b60448201526064016107f2565b6101cb8181548110612edb57634e487b7160e01b600052603260045260246000fd5b90600052602060002090600c020160050160040154600014612f3f5760405162461bcd60e51b815260206004820152601d60248201527f4a756e696f72207472616e63686520616c7265616479206c6f636b656400000060448201526064016107f2565b6101c554600090612f6490612f5c906001600160a01b0316614925565b425b906140ea565b9050806101cb8381548110612f8957634e487b7160e01b600052603260045260246000fd5b600091825260209091206009600c9092020101556101cb80543091600080516020615c2e8339815191529185908110612fd257634e487b7160e01b600052603260045260246000fd5b60009182526020918290206005600c909202010154604080519182529181018590520160405180910390a25050565b600054610100900460ff1661081b5760405162461bcd60e51b81526004016107f290615916565b600054610100900460ff1661304f5760405162461bcd60e51b81526004016107f290615916565b6097805460ff19169055565b600054610100900460ff166130825760405162461bcd60e51b81526004016107f290615916565b600160c955565b6110698282613275565b600082815260656020526040808220600101805490849055905190918391839186917fbd79b86ffe0ab8e8776151514217cd7cacd52c909f66475c3af44e129f0b00ff9190a4505050565b6101c5546000906130f7906001600160a01b03166149a7565b6001600160a01b03166301b215516040518163ffffffff1660e01b8152600401602060405180830381600087803b15801561313157600080fd5b505af1158015613145573d6000803e3d6000fd5b505050506040513d601f19601f820116820180604052508101906131699190615294565b6101c380546001600160a01b0319166001600160a01b038381169182179092556101c55460405163bb4a250960e01b81529083166004820152306024820152918b166044830152606482018a90526084820189905260a4820188905260c4820187905260e48201869052610104820185905291925063bb4a25099061012401600060405180830381600087803b15801561320257600080fd5b505af1158015613216573d6000803e3d6000fd5b505050505050505050505050565b600061078382613eb7565b60408051808201909152601881527704661696c656420746f207472616e736665722045524332360441b6020820152610de985858585856149b2565b6109208133614a90565b61327f8282611a13565b6110695760008281526065602090815260408083206001600160a01b03851684529091529020805460ff191660011790556132b73390565b6001600160a01b0316816001600160a01b0316837f2f8788117e7eff1d82e926ec794901d17c78024a50270940304540a733656f0d60405160405180910390a45050565b60006001600160a01b03821663b93f9b0a60065b6040518263ffffffff1660e01b815260040161332d91815260200190565b60206040518083038186803b15801561334557600080fd5b505afa158015613359573d6000803e3d6000fd5b505050506040513d601f19601f820116820180604052508101906107839190615294565b610e158383836040518060400160405280601881526020017704661696c656420746f207472616e736665722045524332360441b815250614ae9565b6133c38282611a13565b156110695760008281526065602090815260408083206001600160a01b0385168085529252808320805460ff1916905551339285917ff6391f5c32d9c69d2a47ea670b442974b53935d1edc7fd64eb21e047a839171b9190a45050565b613428614bbb565b6097805460ff191690557f5db9ee0a495bf2e6ff9c91a7834c1ba4fdd244a5e8aa4e537bd38aeae4b073aa335b604051613462919061572c565b60405180910390a1565b6101cb5460009061347e906001612e62565b905060006101cb82815481106134a457634e487b7160e01b600052603260045260246000fd5b90600052602060002090600c020160050160040154116135065760405162461bcd60e51b815260206004820152601d60248201527f4a756e696f72207472616e636865206d757374206265206c6f636b656400000060448201526064016107f2565b6101cb818154811061352857634e487b7160e01b600052603260045260246000fd5b90600052602060002090600c0201600001600401546000146135865760405162461bcd60e51b8152602060048201526017602482015276131bd8dac818d85b9b9bdd08189948195e1d195b991959604a1b60448201526064016107f2565b60006135fe6101cb83815481106135ad57634e487b7160e01b600052603260045260246000fd5b90600052602060002090600c0201600001600101546101cb84815481106135e457634e487b7160e01b600052603260045260246000fd5b600091825260209091206006600c909202010154906140ea565b6101c3546040805163a4d66daf60e01b815290519293506001600160a01b03909116916327ea6f2b9161371c91613690918691869163a4d66daf916004808301926020929190829003018186803b15801561365857600080fd5b505afa15801561366c573d6000803e3d6000fd5b505050506040513d601f19601f82011682018060405250810190612f5e91906155a2565b6101c360009054906101000a90046001600160a01b03166001600160a01b0316631a861d266040518163ffffffff1660e01b815260040160206040518083038186803b1580156136df57600080fd5b505afa1580156136f3573d6000803e3d6000fd5b505050506040513d601f19601f8201168201806040525081019061371791906155a2565b614c04565b6040518263ffffffff1660e01b815260040161373a91815260200190565b600060405180830381600087803b15801561375457600080fd5b505af1158015613768573d6000803e3d6000fd5b50506101c5546000925061378591506001600160a01b0316614925565b90506137918142612f5e565b6101cb84815481106137b357634e487b7160e01b600052603260045260246000fd5b60009182526020909120600c90910201600401556137d18142612f5e565b6101cb84815481106137f357634e487b7160e01b600052603260045260246000fd5b600091825260209091206009600c9092020101556101cb80543091600080516020615c2e833981519152918690811061383c57634e487b7160e01b600052603260045260246000fd5b90600052602060002090600c0201600001600001546101cb868154811061387357634e487b7160e01b600052603260045260246000fd5b60009182526020918290206004600c90920201015460408051938452918301520160405180910390a2306001600160a01b0316600080516020615c2e8339815191526101cb85815481106138d757634e487b7160e01b600052603260045260246000fd5b90600052602060002090600c0201600501600001546101cb868154811061390e57634e487b7160e01b600052603260045260246000fd5b60009182526020918290206009600c90920201015460408051938452918301520160405180910390a2505050565b600260c954141561398f5760405162461bcd60e51b815260206004820152601f60248201527f5265656e7472616e637947756172643a207265656e7472616e742063616c6c0060448201526064016107f2565b600260c955565b600061078382614c1a565b600080821180156139c057506101cb546139bc906002614c32565b8211155b613a025760405162461bcd60e51b8152602060048201526013602482015272556e737570706f72746564207472616e63686560681b60448201526064016107f2565b6000613a2e6001613a286002613a22613a1b8883614c3e565b88906140ea565b90614c4a565b90612e62565b905060006101cb8281548110613a5457634e487b7160e01b600052603260045260246000fd5b600091825260208220600c909102019150613a70856002614c3e565b600114613a805781600501613a82565b815b95945050505050565b6101c5546000908190613aa6906001600160a01b0316613996565b6001600160a01b031663430c208133866040518363ffffffff1660e01b8152600401613ad392919061579b565b60206040518083038186803b158015613aeb57600080fd5b505afa158015613aff573d6000803e3d6000fd5b505050506040513d601f19601f82011682018060405250810190613b23919061546a565b613b615760405162461bcd60e51b815260206004820152600f60248201526e2737ba103a37b5b2b71037bbb732b960891b60448201526064016107f2565b6101c554613b77906001600160a01b0316614880565b6001600160a01b0316631852f200336101c86040518363ffffffff1660e01b8152600401613ba6929190615740565b60206040518083038186803b158015613bbe57600080fd5b505afa158015613bd2573d6000803e3d6000fd5b505050506040513d601f19601f82011682018060405250810190613bf6919061546a565b613c125760405162461bcd60e51b81526004016107f2906158b8565b60008311613c625760405162461bcd60e51b815260206004820152601c60248201527f4d757374207769746864726177206d6f7265207468616e207a65726f0000000060448201526064016107f2565b600080613c6f8888613e4d565b90925090506000613c8083836140ea565b905080861115613cca5760405162461bcd60e51b8152602060048201526015602482015274125b9d985b1a59081c995919595b48185b5bdd5b9d605a1b60448201526064016107f2565b60048901544211613d115760405162461bcd60e51b8152602060048201526011602482015270151c985b98da19481a5cc81b1bd8dad959607a1b60448201526064016107f2565b6004890154613d2f576001890154613d299087612e62565b60018a01555b6000613d3b8488614c04565b90506000613d4d846137178a85612e62565b6101c554909150613d66906001600160a01b0316613996565b60405163b819220560e01b8152600481018b905260248101839052604481018490526001600160a01b03919091169063b819220590606401600060405180830381600087803b158015613db857600080fd5b505af1158015613dcc573d6000803e3d6000fd5b50506101c554613dfb9250613dea91506001600160a01b0316613224565b3033613df685876140ea565b61322f565b6020808b0151604080518581529283018490528b9233917f92f2787b755dae547f1701582fe74c7abf277ec14db316dd01abc69cacf7a259910160405180910390a4909a909950975050505050505050565b6000806000613e64856002015485604001516106f2565b90506000613e7a866003015486604001516106f2565b9050613e93856080015182612e6290919063ffffffff16565b9350613eac856060015183612e6290919063ffffffff16565b925050509250929050565b60006001600160a01b03821663b93f9b0a600561330f565b6101cb80546000918291613ee4906001612e62565b81548110613f0257634e487b7160e01b600052603260045260246000fd5b90600052602060002090600c02016000016004015411905090565b6101cb5460058110613f6a5760405162461bcd60e51b815260206004820152601660248201527543616e6e6f7420657863656564203520736c6963657360501b60448201526064016107f2565b6040805161012081019091526101cb90806080810180613f906001612f5e886002614c32565b815260200160008152602001613fa760018061286e565b815260200160008152602001600081525081526020016040518060a00160405280613fe16002612f5e600289614c3290919063ffffffff16565b815260200160008152602001613ff860018061286e565b81526000602080830182905260409283018290529284528383018190529281018390528454600181810187559584529282902084518051600c90950290910193845580830151958401959095558481015160028401556060808601516003850155608095860151600485015584830151805160058601559283015160068501558282015160078501558281015160088501559190940151600983015592820151600a820155910151600b90910155506101ca55565b6140b5612e1c565b6097805460ff191660011790557f62e78cea01bee320cd4e420270b5ea74000d11b0c9f74754ebdbfc544b05a2586134553390565b60006107808284615a71565b6140fe613ecf565b61413f5760405162461bcd60e51b8152602060048201526012602482015271141bdbdb081a5cc81b9bdd081b1bd8dad95960721b60448201526064016107f2565b6101c35460408051630735c92b60e21b815290516000926001600160a01b031691631cd724ac916004808301926020929190829003018186803b15801561418557600080fd5b505afa158015614199573d6000803e3d6000fd5b505050506040513d601f19601f820116820180604052508101906141bd91906155a2565b905060008060006101c360009054906101000a90046001600160a01b03166001600160a01b031663a6a25e886040518163ffffffff1660e01b8152600401606060405180830381600087803b15801561421557600080fd5b505af1158015614229573d6000803e3d6000fd5b505050506040513d601f19601f8201168201806040525081019061424d91906155db565b9250925092506142de846101c360009054906101000a90046001600160a01b03166001600160a01b0316631cd724ac6040518163ffffffff1660e01b815260040160206040518083038186803b1580156142a657600080fd5b505afa1580156142ba573d6000803e3d6000fd5b505050506040513d601f19601f82011682018060405250810190613a2891906155a2565b6101cb549094506000906001600160401b0381111561430d57634e487b7160e01b600052604160045260246000fd5b604051908082528060200260200182016040528015614336578160200160208202803683370190505b50905060005b6101cb548110156145aa57600073__$07e8ed413e81d51a5dfb2d8e1b1fa75af5$__63cee38ee4886101cb858154811061438657634e487b7160e01b600052603260045260246000fd5b90600052602060002090600c0201600b01546101c9546040518463ffffffff1660e01b81526004016143cb939291909283526020830191909152604082015260600190565b60206040518083038186803b1580156143e357600080fd5b505af41580156143f7573d6000803e3d6000fd5b505050506040513d601f19601f8201168201806040525081019061441b91906155a2565b905073__$07e8ed413e81d51a5dfb2d8e1b1fa75af5$__63cee38ee4856101cb858154811061445a57634e487b7160e01b600052603260045260246000fd5b90600052602060002090600c0201600b01546101c9546040518463ffffffff1660e01b815260040161449f939291909283526020830191909152604082015260600190565b60206040518083038186803b1580156144b757600080fd5b505af41580156144cb573d6000803e3d6000fd5b505050506040513d601f19601f820116820180604052508101906144ef91906155a2565b83838151811061450f57634e487b7160e01b600052603260045260246000fd5b602002602001018181525050614561816101cb848154811061454157634e487b7160e01b600052603260045260246000fd5b90600052602060002090600c0201600a01546140ea90919063ffffffff16565b6101cb838154811061458357634e487b7160e01b600052603260045260246000fd5b60009182526020909120600a600c90920201015550806145a281615b9d565b91505061433c565b5060008311806145ba5750600082115b15614836576101c3546000906145e3906001600160a01b0316856145de86896140ea565b614c56565b905060005b6101cb548110156146ea5761466083828151811061461657634e487b7160e01b600052603260045260246000fd5b60200260200101516101cb838154811061464057634e487b7160e01b600052603260045260246000fd5b90600052602060002090600c0201600b0154612e6290919063ffffffff16565b6101cb828154811061468257634e487b7160e01b600052603260045260246000fd5b90600052602060002090600c0201600b01819055506146d48382815181106146ba57634e487b7160e01b600052603260045260246000fd5b60200260200101516101c954612e6290919063ffffffff16565b6101c955806146e281615b9d565b9150506145e8565b506101c554614701906001600160a01b0316614e86565b6001600160a01b03166328fc33c7856040518263ffffffff1660e01b815260040161472e91815260200190565b600060405180830381600087803b15801561474857600080fd5b505af115801561475c573d6000803e3d6000fd5b50506101c35460408051637df1f1b960e01b815290513094506001600160a01b039092169250637df1f1b9916004808301926020929190829003018186803b1580156147a757600080fd5b505afa1580156147bb573d6000803e3d6000fd5b505050506040513d601f19601f820116820180604052508101906147df9190615294565b6040805187815260208101879052908101889052606081018490526001600160a01b0391909116907fd1055dc2c2a003a83dfacb1c38db776eab5ef89d77a8f05a3512e8cf57f953ce9060800160405180910390a3505b60405130907fa2380b088ee4df06f20f2bbd1971331d0a68504a9f120cc3b029aeb934f87b3c90600090a25050505050565b60006001600160a01b03821663b93f9b0a600761330f565b600061078382614e91565b600061078382614ea9565b6101c554610920906148b0906001600160a01b0316613224565b6101c35460408051808201909152601981527811985a5b1959081d1bc818dbdb1b1958dd081c185e5b595b9d603a1b602082015233916001600160a01b03169085906149b2565b60006001600160a01b03821663b93f9b0a600b61330f565b600061491c826002614c3e565b60011492915050565b60006001600160a01b03821663fc56365860075b6040518263ffffffff1660e01b815260040161495791815260200190565b60206040518083038186803b15801561496f57600080fd5b505afa158015614983573d6000803e3d6000fd5b505050506040513d601f19601f8201168201806040525081019061078391906155a2565b600061078382614ec1565b6001600160a01b0383166149d85760405162461bcd60e51b81526004016107f2906157e7565b6040516323b872dd60e01b81526001600160a01b038581166004830152848116602483015260448201849052600091908716906323b872dd90606401602060405180830381600087803b158015614a2e57600080fd5b505af1158015614a42573d6000803e3d6000fd5b505050506040513d601f19601f82011682018060405250810190614a66919061546a565b90508181614a875760405162461bcd60e51b81526004016107f291906157b4565b50505050505050565b614a9a8282611a13565b61106957614aa781614ed9565b614ab2836020614eeb565b604051602001614ac39291906156bd565b60408051601f198184030181529082905262461bcd60e51b82526107f2916004016157b4565b6001600160a01b038316614b0f5760405162461bcd60e51b81526004016107f2906157e7565b60405163a9059cbb60e01b81526000906001600160a01b0386169063a9059cbb90614b40908790879060040161579b565b602060405180830381600087803b158015614b5a57600080fd5b505af1158015614b6e573d6000803e3d6000fd5b505050506040513d601f19601f82011682018060405250810190614b92919061546a565b90508181614bb35760405162461bcd60e51b81526004016107f291906157b4565b505050505050565b60975460ff1661081b5760405162461bcd60e51b815260206004820152601460248201527314185d5cd8589b194e881b9bdd081c185d5cd95960621b60448201526064016107f2565b6000818310614c135781610780565b5090919050565b60006001600160a01b03821663b93f9b0a600c61330f565b60006107808284615b20565b60006107808284615bb8565b60006107808284615a89565b6101c554600090614cb690614c73906001600160a01b0316613224565b8530614c7f86886140ea565b6040518060400160405280601981526020017811985a5b1959081d1bc818dbdb1b1958dd081c185e5b595b9d603a1b8152506149b2565b6101c554600090614cdb90614cd3906001600160a01b03166150cc565b606490614c4a565b6101c9546101c3546101c6546040516385bd324d60e01b81526101cb600482015260248101899052604481018890526064810185905260848101939093526001600160a01b0390911660a483015260c482015290915060009073__$07e8ed413e81d51a5dfb2d8e1b1fa75af5$__906385bd324d9060e40160a06040518083038186803b158015614d6b57600080fd5b505af4158015614d7f573d6000803e3d6000fd5b505050506040513d601f19601f82011682018060405250810190614da391906154f9565b805160208201516101c9546101c35460405163060f0a6d60e31b81526101cb6004820152602481019490945260448401929092526064830186905260848301526001600160a01b031660a4820152909150614e729073__$07e8ed413e81d51a5dfb2d8e1b1fa75af5$__9063307853689060c40160206040518083038186803b158015614e2f57600080fd5b505af4158015614e43573d6000803e3d6000fd5b505050506040513d601f19601f82011682018060405250810190614e6791906155a2565b6040830151906140ea565b9250614e7d836150e4565b50509392505050565b600061078382615183565b60006001600160a01b03821663b93f9b0a601361330f565b60006001600160a01b03821663b93f9b0a600e61330f565b60006001600160a01b03821663b93f9b0a600261330f565b60606107836001600160a01b03831660145b60606000614efa836002615b20565b614f05906002615a71565b6001600160401b03811115614f2a57634e487b7160e01b600052604160045260246000fd5b6040519080825280601f01601f191660200182016040528015614f54576020820181803683370190505b509050600360fc1b81600081518110614f7d57634e487b7160e01b600052603260045260246000fd5b60200101906001600160f81b031916908160001a905350600f60fb1b81600181518110614fba57634e487b7160e01b600052603260045260246000fd5b60200101906001600160f81b031916908160001a9053506000614fde846002615b20565b614fe9906001615a71565b90505b600181111561507d576f181899199a1a9b1b9c1cb0b131b232b360811b85600f166010811061502b57634e487b7160e01b600052603260045260246000fd5b1a60f81b82828151811061504f57634e487b7160e01b600052603260045260246000fd5b60200101906001600160f81b031916908160001a90535060049490941c9361507681615b86565b9050614fec565b5083156107805760405162461bcd60e51b815260206004820181905260248201527f537472696e67733a20686578206c656e67746820696e73756666696369656e7460448201526064016107f2565b60006001600160a01b03821663fc5636586003614939565b60405181815230907ff3583f178a8d4f8888c3683f8e948faf9b6eb701c4f1fab265a6ecad1a1ddebb9060200160405180910390a26101c55461092090615133906001600160a01b0316613224565b6101c554309061514b906001600160a01b03166132fb565b84604051806040016040528060198152602001784661696c656420746f2073656e6420746f207265736572766560381b8152506149b2565b60006001600160a01b03821663b93f9b0a601461330f565b8280548282559060005260206000209081019282156151d6579160200282015b828111156151d65782518255916020019190600101906151bb565b506151e2929150615221565b5090565b8280548282559060005260206000209081019282156151d6579160200282015b828111156151d6578235825591602001919060010190615206565b5b808211156151e25760008155600101615222565b60008083601f840112615247578182fd5b5081356001600160401b0381111561525d578182fd5b6020830191508360208260051b85010111156111c557600080fd5b600060208284031215615289578081fd5b813561078081615bf8565b6000602082840312156152a5578081fd5b815161078081615bf8565b6000806000806000806000806000806000806101608d8f0312156152d2578788fd5b6152dc8d35615bf8565b8c359b506152ed60208e0135615bf8565b60208d01359a5060408d0135995060608d0135985060808d0135975060a08d0135965060c08d0135955060e08d013594506101008d013593506101208d013592506001600160401b036101408e01351115615346578081fd5b6153578e6101408f01358f01615236565b81935080925050509295989b509295989b509295989b565b600080600080600080600060e0888a031215615389578283fd5b873561539481615bf8565b9960208901359950604089013598606081013598506080810135975060a0810135965060c00135945092505050565b600080602083850312156153d5578182fd5b82356001600160401b038111156153ea578283fd5b6153f685828601615236565b90969095509350505050565b60008060008060408587031215615417578384fd5b84356001600160401b038082111561542d578586fd5b61543988838901615236565b90965094506020870135915080821115615451578384fd5b5061545e87828801615236565b95989497509550505050565b60006020828403121561547b578081fd5b81518015158114610780578182fd5b60006020828403121561549b578081fd5b5035919050565b600080604083850312156154b4578182fd5b8235915060208301356154c681615bf8565b809150509250929050565b6000602082840312156154e2578081fd5b81356001600160e01b031981168114610780578182fd5b600060a0828403121561550a578081fd5b615512615a3b565b82518152602083015160208201526040830151604082015260608301516060820152608083015160808201528091505092915050565b600060a08284031215615559578081fd5b615561615a3b565b825161556c81615bf8565b80825250602083015160208201526040830151604082015260608301516060820152608083015160808201528091505092915050565b6000602082840312156155b3578081fd5b5051919050565b600080604083850312156155cc578182fd5b50508035926020909101359150565b6000806000606084860312156155ef578081fd5b8351925060208401519150604084015190509250925092565b60008060008060008060c08789031215615620578384fd5b863595506020870135945060408701359350606087013560ff81168114615645578283fd5b9598949750929560808101359460a0909101359350915050565b80518252602081015160208301526040810151604083015260608101516060830152608081015160808301525050565b8054825260018101546020830152600281015460408301526003810154606083015260040154608090910152565b76020b1b1b2b9b9a1b7b73a3937b61d1030b1b1b7bab73a1604d1b8152600083516156ef816017850160208801615b56565b7001034b99036b4b9b9b4b733903937b6329607d1b6017918401918201528351615720816028840160208801615b56565b01602801949350505050565b6001600160a01b0391909116815260200190565b6001600160a01b0383168152604060208083018290528354918301829052600084815281812090929091906060850190845b8181101561578e57845483526001948501949284019201615772565b5090979650505050505050565b6001600160a01b03929092168252602082015260400190565b60208152600082518060208401526157d3816040850160208701615b56565b601f01601f19169190910160400192915050565b6020808252601a908201527f43616e27742073656e6420746f207a65726f2061646472657373000000000000604082015260600190565b6020808252602c908201527f4d75737420686176652070617573657220726f6c6520746f20706572666f726d60408201526b103a3434b99030b1ba34b7b760a11b606082015260800190565b6020808252602e908201527f496e697469616c697a61626c653a20636f6e747261637420697320616c72656160408201526d191e481a5b9a5d1a585b1a5e995960921b606082015260800190565b6020808252601590820152741059191c995cdcc81b9bdd0819dbcb5b1a5cdd1959605a1b604082015260600190565b6020808252601590820152744d7573742068617665206c6f636b657220726f6c6560581b604082015260600190565b6020808252602b908201527f496e697469616c697a61626c653a20636f6e7472616374206973206e6f74206960408201526a6e697469616c697a696e6760a81b606082015260800190565b6020808252602b908201527f4d75737420686176652061646d696e20726f6c6520746f20706572666f726d2060408201526a3a3434b99030b1ba34b7b760a91b606082015260800190565b60a08101610783828461565f565b61018081016159c9828761565f565b6159d660a083018661565f565b610140820193909352610160015292915050565b61024081016159f9828661565f565b8360a0830152615a0c60c083018461568f565b615a1d61016083016005850161568f565b600a830154610200830152600b830154610220830152949350505050565b60405160a081016001600160401b0381118282101715615a6b57634e487b7160e01b600052604160045260246000fd5b60405290565b60008219821115615a8457615a84615bcc565b500190565b600082615a9857615a98615be2565b500490565b60006001600160ff1b0381841382841380821686840486111615615ac357615ac3615bcc565b600160ff1b84871282811687830589121615615ae157615ae1615bcc565b858712925087820587128484161615615afc57615afc615bcc565b87850587128184161615615b1257615b12615bcc565b505050929093029392505050565b6000816000190483118215151615615b3a57615b3a615bcc565b500290565b600082821015615b5157615b51615bcc565b500390565b60005b83811015615b71578181015183820152602001615b59565b83811115615b80576000848401525b50505050565b600081615b9557615b95615bcc565b506000190190565b6000600019821415615bb157615bb1615bcc565b5060010190565b600082615bc757615bc7615be2565b500690565b634e487b7160e01b600052601160045260246000fd5b634e487b7160e01b600052601260045260246000fd5b6001600160a01b038116811461092057600080fdfeb19546dff01e856fb3f010c267a7b1c60363cf8a4664e21cc89c26224620214ef839b119f21fb055e13aebac51bca6b308f52ec2d8db8306ce4d092d964e5bd065d7a28e3265b37a6474929f336521b332c1681b933f6cb9f3376673440d862a956624bfbe09c0e98e645d61eba0de4ce88e8cceabdb00fead208d19a8e1209baf9a8bb3cbd6b84fbccefa71ff73e26e798553c6914585a84886212a46a90279a264697066735822122074e44caa8fa24358053082304a7b6ef18622f7c9f471181d4a8c6ecf1570f4ee64736f6c63430008040033",
  "libraries": {
    "TranchingLogic": "0x16d3406D386CA5ADE258a9c1577a34f5a7bF32c7"
  },
  "devdoc": {
    "kind": "dev",
    "methods": {
      "availableToWithdraw(uint256)": {
        "params": {
          "tokenId": "The token representing the position"
        },
        "returns": {
          "interestRedeemable": "The interest available to redeem",
          "principalRedeemable": "The principal available to redeem"
        }
      },
      "deposit(uint256,uint256)": {
        "params": {
          "amount": "The USDC amount to tranfer from the caller to the pool",
          "tranche": "The number representing the tranche to deposit into"
        },
        "returns": {
          "tokenId": "The tokenId of the NFT"
        }
      },
      "drawdown(uint256)": {
        "params": {
          "amount": "The amount to drawdown from the creditline (must be < limit)"
        }
      },
      "getRoleAdmin(bytes32)": {
        "details": "Returns the admin role that controls `role`. See {grantRole} and {revokeRole}. To change a role's admin, use {_setRoleAdmin}."
      },
      "grantRole(bytes32,address)": {
        "details": "Grants `role` to `account`. If `account` had not been already granted `role`, emits a {RoleGranted} event. Requirements: - the caller must have ``role``'s admin role. May emit a {RoleGranted} event."
      },
      "hasRole(bytes32,address)": {
        "details": "Returns `true` if `account` has been granted `role`."
      },
      "migrateCreditLine(address,uint256,uint256,uint256,uint256,uint256,uint256)": {
        "params": {
          "_borrower": "The borrower address",
          "_interestApr": "The new interest APR",
          "_lateFeeApr": "The new late fee APR",
          "_maxLimit": "The new max limit",
          "_paymentPeriodInDays": "The new payment period in days",
          "_termInDays": "The new term in days"
        }
      },
      "pause()": {
        "details": "Pauses all functions guarded by Pause See {Pausable-_pause}. Requirements: - the caller must have the PAUSER_ROLE."
      },
      "paused()": {
        "details": "Returns true if the contract is paused, and false otherwise."
      },
      "pay(uint256)": {
        "params": {
          "amount": "The amount to repay"
        }
      },
      "renounceRole(bytes32,address)": {
        "details": "Revokes `role` from the calling account. Roles are often managed via {grantRole} and {revokeRole}: this function's purpose is to provide a mechanism for accounts to lose their privileges if they are compromised (such as when a trusted device is misplaced). If the calling account had been revoked `role`, emits a {RoleRevoked} event. Requirements: - the caller must be `account`. May emit a {RoleRevoked} event."
      },
      "revokeRole(bytes32,address)": {
        "details": "Revokes `role` from `account`. If `account` had been granted `role`, emits a {RoleRevoked} event. Requirements: - the caller must have ``role``'s admin role. May emit a {RoleRevoked} event."
      },
      "sharePriceToUsdc(uint256,uint256)": {
        "params": {
          "sharePrice": "The share price to convert",
          "totalShares": "The total shares outstanding"
        },
        "returns": {
          "_0": "The USDC amount of the input share price"
        }
      },
      "supportsInterface(bytes4)": {
        "details": "See {IERC165-supportsInterface}."
      },
      "totalJuniorDeposits()": {
        "returns": {
          "_0": "The total USDC amount deposited into all junior tranches"
        }
      },
      "unpause()": {
        "details": "Unpauses the contract See {Pausable-_unpause}. Requirements: - the caller must have the Pauser role"
      },
      "usdcToSharePrice(uint256,uint256)": {
        "params": {
          "amount": "The USDC amount to convert",
          "totalShares": "The total shares outstanding"
        },
        "returns": {
          "_0": "The share price of the input amount"
        }
      },
      "withdraw(uint256,uint256)": {
        "params": {
          "amount": "The amount to withdraw (must be <= interest+principal currently available to withdraw)",
          "tokenId": "The NFT representing the position"
        },
        "returns": {
          "interestWithdrawn": "The interest amount that was withdrawn",
          "principalWithdrawn": "The principal amount that was withdrawn"
        }
      },
      "withdrawMax(uint256)": {
        "params": {
          "tokenId": "The NFT representing the position"
        },
        "returns": {
          "interestWithdrawn": "The interest amount that was withdrawn",
          "principalWithdrawn": "The principal amount that was withdrawn"
        }
      },
      "withdrawMultiple(uint256[],uint256[])": {
        "params": {
          "amounts": "An array of amounts to withdraw from the corresponding tokenIds",
          "tokenIds": "An array of tokens ids representing the position"
        }
      }
    },
    "version": 1
  },
  "userdoc": {
    "kind": "user",
    "methods": {
      "assess()": {
        "notice": "Triggers an assessment of the creditline and the applies the payments according the tranche waterfall"
      },
      "availableToWithdraw(uint256)": {
        "notice": "Determines the amount of interest and principal redeemable by a particular tokenId"
      },
      "deposit(uint256,uint256)": {
        "notice": "Deposit a USDC amount into the pool for a tranche. Mints an NFT to the caller representing the position"
      },
      "drawdown(uint256)": {
        "notice": "Draws down the funds (and locks the pool) to the borrower address. Can only be called by the borrower"
      },
      "emergencyShutdown()": {
        "notice": "Pauses the pool and sweeps any remaining funds to the treasury reserve."
      },
      "lockJuniorCapital()": {
        "notice": "Locks the junior tranche, preventing more junior deposits. Gives time for the senior to determine how much to invest (ensure leverage ratio cannot change for the period)"
      },
      "lockPool()": {
        "notice": "Locks the pool (locks both senior and junior tranches and starts the drawdown period). Beyond the drawdown period, any unused capital is available to withdraw by all depositors"
      },
      "migrateAndSetNewCreditLine(address)": {
        "notice": "Migrates to a new creditline without copying the accounting variables"
      },
      "migrateCreditLine(address,uint256,uint256,uint256,uint256,uint256,uint256)": {
        "notice": "Migrates the accounting variables from the current creditline to a brand new one"
      },
      "pauseDrawdowns()": {
        "notice": "Pauses all drawdowns (but not deposits/withdraws)"
      },
      "pay(uint256)": {
        "notice": "Allows repaying the creditline. Collects the USDC amount from the sender and triggers an assess"
      },
      "sharePriceToUsdc(uint256,uint256)": {
        "notice": "Converts share price to USDC amounts"
      },
      "totalJuniorDeposits()": {
        "notice": "Returns the total junior capital deposited"
      },
      "unpauseDrawdowns()": {
        "notice": "Unpause drawdowns"
      },
      "updateDobermanConfig()": {
        "notice": "Migrates to a new Doberman config address"
      },
      "usdcToSharePrice(uint256,uint256)": {
        "notice": "Converts USDC amounts to share price"
      },
      "withdraw(uint256,uint256)": {
        "notice": "Withdraw an already deposited amount if the funds are available"
      },
      "withdrawMax(uint256)": {
        "notice": "Similar to withdraw but will withdraw all available funds"
      },
      "withdrawMultiple(uint256[],uint256[])": {
        "notice": "Withdraw from many tokens (that the sender owns) in a single transaction"
      }
    },
    "version": 1
  },
  "storageLayout": {
    "storage": [
      {
        "astId": 588,
        "contract": "contracts/protocol/core/TranchedPool.sol:TranchedPool",
        "label": "_initialized",
        "offset": 0,
        "slot": "0",
        "type": "t_uint8"
      },
      {
        "astId": 591,
        "contract": "contracts/protocol/core/TranchedPool.sol:TranchedPool",
        "label": "_initializing",
        "offset": 1,
        "slot": "0",
        "type": "t_bool"
      },
      {
        "astId": 4964,
        "contract": "contracts/protocol/core/TranchedPool.sol:TranchedPool",
        "label": "__gap",
        "offset": 0,
        "slot": "1",
        "type": "t_array(t_uint256)50_storage"
      },
      {
        "astId": 5544,
        "contract": "contracts/protocol/core/TranchedPool.sol:TranchedPool",
        "label": "__gap",
        "offset": 0,
        "slot": "51",
        "type": "t_array(t_uint256)50_storage"
      },
      {
        "astId": 184,
        "contract": "contracts/protocol/core/TranchedPool.sol:TranchedPool",
        "label": "_roles",
        "offset": 0,
        "slot": "101",
        "type": "t_mapping(t_bytes32,t_struct(RoleData)179_storage)"
      },
      {
        "astId": 479,
        "contract": "contracts/protocol/core/TranchedPool.sol:TranchedPool",
        "label": "__gap",
        "offset": 0,
        "slot": "102",
        "type": "t_array(t_uint256)49_storage"
      },
      {
        "astId": 771,
        "contract": "contracts/protocol/core/TranchedPool.sol:TranchedPool",
        "label": "_paused",
        "offset": 0,
        "slot": "151",
        "type": "t_bool"
      },
      {
        "astId": 876,
        "contract": "contracts/protocol/core/TranchedPool.sol:TranchedPool",
        "label": "__gap",
        "offset": 0,
        "slot": "152",
        "type": "t_array(t_uint256)49_storage"
      },
      {
        "astId": 891,
        "contract": "contracts/protocol/core/TranchedPool.sol:TranchedPool",
        "label": "_status",
        "offset": 0,
        "slot": "201",
        "type": "t_uint256"
      },
      {
        "astId": 949,
        "contract": "contracts/protocol/core/TranchedPool.sol:TranchedPool",
        "label": "__gap",
        "offset": 0,
        "slot": "202",
        "type": "t_array(t_uint256)49_storage"
      },
      {
        "astId": 15949,
        "contract": "contracts/protocol/core/TranchedPool.sol:TranchedPool",
        "label": "__gap1",
        "offset": 0,
        "slot": "251",
        "type": "t_array(t_uint256)50_storage"
      },
      {
        "astId": 15953,
        "contract": "contracts/protocol/core/TranchedPool.sol:TranchedPool",
        "label": "__gap2",
        "offset": 0,
        "slot": "301",
        "type": "t_array(t_uint256)50_storage"
      },
      {
        "astId": 15957,
        "contract": "contracts/protocol/core/TranchedPool.sol:TranchedPool",
        "label": "__gap3",
        "offset": 0,
        "slot": "351",
        "type": "t_array(t_uint256)50_storage"
      },
      {
        "astId": 15961,
        "contract": "contracts/protocol/core/TranchedPool.sol:TranchedPool",
        "label": "__gap4",
        "offset": 0,
        "slot": "401",
        "type": "t_array(t_uint256)50_storage"
      },
      {
        "astId": 14068,
        "contract": "contracts/protocol/core/TranchedPool.sol:TranchedPool",
        "label": "creditLine",
        "offset": 0,
        "slot": "451",
        "type": "t_contract(IV2CreditLine)14453"
      },
      {
        "astId": 14070,
        "contract": "contracts/protocol/core/TranchedPool.sol:TranchedPool",
        "label": "createdAt",
        "offset": 0,
        "slot": "452",
        "type": "t_uint256"
      },
      {
        "astId": 25861,
        "contract": "contracts/protocol/core/TranchedPool.sol:TranchedPool",
        "label": "config",
        "offset": 0,
        "slot": "453",
        "type": "t_contract(DobermanConfig)20001"
      },
      {
        "astId": 25904,
        "contract": "contracts/protocol/core/TranchedPool.sol:TranchedPool",
        "label": "juniorFeePercent",
        "offset": 0,
        "slot": "454",
        "type": "t_uint256"
      },
      {
        "astId": 25906,
        "contract": "contracts/protocol/core/TranchedPool.sol:TranchedPool",
        "label": "drawdownsPaused",
        "offset": 0,
        "slot": "455",
        "type": "t_bool"
      },
      {
        "astId": 25909,
        "contract": "contracts/protocol/core/TranchedPool.sol:TranchedPool",
        "label": "allowedUIDTypes",
        "offset": 0,
        "slot": "456",
        "type": "t_array(t_uint256)dyn_storage"
      },
      {
        "astId": 25911,
        "contract": "contracts/protocol/core/TranchedPool.sol:TranchedPool",
        "label": "totalDeployed",
        "offset": 0,
        "slot": "457",
        "type": "t_uint256"
      },
      {
        "astId": 25913,
        "contract": "contracts/protocol/core/TranchedPool.sol:TranchedPool",
        "label": "fundableAt",
        "offset": 0,
        "slot": "458",
        "type": "t_uint256"
      },
      {
        "astId": 25917,
        "contract": "contracts/protocol/core/TranchedPool.sol:TranchedPool",
        "label": "poolSlices",
        "offset": 0,
        "slot": "459",
        "type": "t_array(t_struct(PoolSlice)14096_storage)dyn_storage"
      }
    ],
    "types": {
      "t_address": {
        "encoding": "inplace",
        "label": "address",
        "numberOfBytes": "20"
      },
      "t_array(t_struct(PoolSlice)14096_storage)dyn_storage": {
        "base": "t_struct(PoolSlice)14096_storage",
        "encoding": "dynamic_array",
        "label": "struct ITranchedPool.PoolSlice[]",
        "numberOfBytes": "32"
      },
      "t_array(t_uint256)49_storage": {
        "base": "t_uint256",
        "encoding": "inplace",
        "label": "uint256[49]",
        "numberOfBytes": "1568"
      },
      "t_array(t_uint256)50_storage": {
        "base": "t_uint256",
        "encoding": "inplace",
        "label": "uint256[50]",
        "numberOfBytes": "1600"
      },
      "t_array(t_uint256)dyn_storage": {
        "base": "t_uint256",
        "encoding": "dynamic_array",
        "label": "uint256[]",
        "numberOfBytes": "32"
      },
      "t_bool": {
        "encoding": "inplace",
        "label": "bool",
        "numberOfBytes": "1"
      },
      "t_bytes32": {
        "encoding": "inplace",
        "label": "bytes32",
        "numberOfBytes": "32"
      },
      "t_contract(DobermanConfig)20001": {
        "encoding": "inplace",
        "label": "contract DobermanConfig",
        "numberOfBytes": "20"
      },
      "t_contract(IV2CreditLine)14453": {
        "encoding": "inplace",
        "label": "contract IV2CreditLine",
        "numberOfBytes": "20"
      },
      "t_mapping(t_address,t_bool)": {
        "encoding": "mapping",
        "key": "t_address",
        "label": "mapping(address => bool)",
        "numberOfBytes": "32",
        "value": "t_bool"
      },
      "t_mapping(t_bytes32,t_struct(RoleData)179_storage)": {
        "encoding": "mapping",
        "key": "t_bytes32",
        "label": "mapping(bytes32 => struct AccessControlUpgradeable.RoleData)",
        "numberOfBytes": "32",
        "value": "t_struct(RoleData)179_storage"
      },
      "t_struct(PoolSlice)14096_storage": {
        "encoding": "inplace",
        "label": "struct ITranchedPool.PoolSlice",
        "members": [
          {
            "astId": 14088,
            "contract": "contracts/protocol/core/TranchedPool.sol:TranchedPool",
            "label": "seniorTranche",
            "offset": 0,
            "slot": "0",
            "type": "t_struct(TrancheInfo)14085_storage"
          },
          {
            "astId": 14091,
            "contract": "contracts/protocol/core/TranchedPool.sol:TranchedPool",
            "label": "juniorTranche",
            "offset": 0,
            "slot": "5",
            "type": "t_struct(TrancheInfo)14085_storage"
          },
          {
            "astId": 14093,
            "contract": "contracts/protocol/core/TranchedPool.sol:TranchedPool",
            "label": "totalInterestAccrued",
            "offset": 0,
            "slot": "10",
            "type": "t_uint256"
          },
          {
            "astId": 14095,
            "contract": "contracts/protocol/core/TranchedPool.sol:TranchedPool",
            "label": "principalDeployed",
            "offset": 0,
            "slot": "11",
            "type": "t_uint256"
          }
        ],
        "numberOfBytes": "384"
      },
      "t_struct(RoleData)179_storage": {
        "encoding": "inplace",
        "label": "struct AccessControlUpgradeable.RoleData",
        "members": [
          {
            "astId": 176,
            "contract": "contracts/protocol/core/TranchedPool.sol:TranchedPool",
            "label": "members",
            "offset": 0,
            "slot": "0",
            "type": "t_mapping(t_address,t_bool)"
          },
          {
            "astId": 178,
            "contract": "contracts/protocol/core/TranchedPool.sol:TranchedPool",
            "label": "adminRole",
            "offset": 0,
            "slot": "1",
            "type": "t_bytes32"
          }
        ],
        "numberOfBytes": "64"
      },
      "t_struct(TrancheInfo)14085_storage": {
        "encoding": "inplace",
        "label": "struct ITranchedPool.TrancheInfo",
        "members": [
          {
            "astId": 14076,
            "contract": "contracts/protocol/core/TranchedPool.sol:TranchedPool",
            "label": "id",
            "offset": 0,
            "slot": "0",
            "type": "t_uint256"
          },
          {
            "astId": 14078,
            "contract": "contracts/protocol/core/TranchedPool.sol:TranchedPool",
            "label": "principalDeposited",
            "offset": 0,
            "slot": "1",
            "type": "t_uint256"
          },
          {
            "astId": 14080,
            "contract": "contracts/protocol/core/TranchedPool.sol:TranchedPool",
            "label": "principalSharePrice",
            "offset": 0,
            "slot": "2",
            "type": "t_uint256"
          },
          {
            "astId": 14082,
            "contract": "contracts/protocol/core/TranchedPool.sol:TranchedPool",
            "label": "interestSharePrice",
            "offset": 0,
            "slot": "3",
            "type": "t_uint256"
          },
          {
            "astId": 14084,
            "contract": "contracts/protocol/core/TranchedPool.sol:TranchedPool",
            "label": "lockedUntil",
            "offset": 0,
            "slot": "4",
            "type": "t_uint256"
          }
        ],
        "numberOfBytes": "160"
      },
      "t_uint256": {
        "encoding": "inplace",
        "label": "uint256",
        "numberOfBytes": "32"
      },
      "t_uint8": {
        "encoding": "inplace",
        "label": "uint8",
        "numberOfBytes": "1"
      }
    }
  }
}