{
  "address": "0x902b93610e4bd79415aD2D556770a518F17eD156",
  "abi": [
    {
      "anonymous": false,
      "inputs": [
        {
          "indexed": true,
          "internalType": "address",
          "name": "oldCreditLine",
          "type": "address"
        },
        {
          "indexed": true,
          "internalType": "address",
          "name": "newCreditLine",
          "type": "address"
        }
      ],
      "name": "CreditLineMigrated",
      "type": "event"
    },
    {
      "anonymous": false,
      "inputs": [
        {
          "indexed": true,
          "internalType": "address",
          "name": "owner",
          "type": "address"
        },
        {
          "indexed": true,
          "internalType": "uint256",
          "name": "tranche",
          "type": "uint256"
        },
        {
          "indexed": true,
          "internalType": "uint256",
          "name": "tokenId",
          "type": "uint256"
        },
        {
          "indexed": false,
          "internalType": "uint256",
          "name": "amount",
          "type": "uint256"
        }
      ],
      "name": "DepositMade",
      "type": "event"
    },
    {
      "anonymous": false,
      "inputs": [
        {
          "indexed": true,
          "internalType": "address",
          "name": "who",
          "type": "address"
        },
        {
          "indexed": false,
          "internalType": "address",
          "name": "configAddress",
          "type": "address"
        }
      ],
      "name": "DobermanConfigUpdated",
      "type": "event"
    },
    {
      "anonymous": false,
      "inputs": [
        {
          "indexed": true,
          "internalType": "address",
          "name": "borrower",
          "type": "address"
        },
        {
          "indexed": false,
          "internalType": "uint256",
          "name": "amount",
          "type": "uint256"
        }
      ],
      "name": "DrawdownMade",
      "type": "event"
    },
    {
      "anonymous": false,
      "inputs": [
        {
          "indexed": true,
          "internalType": "address",
          "name": "pool",
          "type": "address"
        }
      ],
      "name": "DrawdownsPaused",
      "type": "event"
    },
    {
      "anonymous": false,
      "inputs": [
        {
          "indexed": true,
          "internalType": "address",
          "name": "pool",
          "type": "address"
        }
      ],
      "name": "DrawdownsUnpaused",
      "type": "event"
    },
    {
      "anonymous": false,
      "inputs": [
        {
          "indexed": true,
          "internalType": "address",
          "name": "pool",
          "type": "address"
        }
      ],
      "name": "EmergencyShutdown",
      "type": "event"
    },
    {
      "anonymous": false,
      "inputs": [
        {
          "indexed": false,
          "internalType": "uint8",
          "name": "version",
          "type": "uint8"
        }
      ],
      "name": "Initialized",
      "type": "event"
    },
    {
      "anonymous": false,
      "inputs": [
        {
          "indexed": false,
          "internalType": "address",
          "name": "account",
          "type": "address"
        }
      ],
      "name": "Paused",
      "type": "event"
    },
    {
      "anonymous": false,
      "inputs": [
        {
          "indexed": true,
          "internalType": "address",
          "name": "payer",
          "type": "address"
        },
        {
          "indexed": true,
          "internalType": "address",
          "name": "pool",
          "type": "address"
        },
        {
          "indexed": false,
          "internalType": "uint256",
          "name": "interestAmount",
          "type": "uint256"
        },
        {
          "indexed": false,
          "internalType": "uint256",
          "name": "principalAmount",
          "type": "uint256"
        },
        {
          "indexed": false,
          "internalType": "uint256",
          "name": "remainingAmount",
          "type": "uint256"
        },
        {
          "indexed": false,
          "internalType": "uint256",
          "name": "reserveAmount",
          "type": "uint256"
        }
      ],
      "name": "PaymentApplied",
      "type": "event"
    },
    {
      "anonymous": false,
      "inputs": [
        {
          "indexed": true,
          "internalType": "address",
          "name": "from",
          "type": "address"
        },
        {
          "indexed": false,
          "internalType": "uint256",
          "name": "amount",
          "type": "uint256"
        }
      ],
      "name": "ReserveFundsCollected",
      "type": "event"
    },
    {
      "anonymous": false,
      "inputs": [
        {
          "indexed": true,
          "internalType": "bytes32",
          "name": "role",
          "type": "bytes32"
        },
        {
          "indexed": true,
          "internalType": "bytes32",
          "name": "previousAdminRole",
          "type": "bytes32"
        },
        {
          "indexed": true,
          "internalType": "bytes32",
          "name": "newAdminRole",
          "type": "bytes32"
        }
      ],
      "name": "RoleAdminChanged",
      "type": "event"
    },
    {
      "anonymous": false,
      "inputs": [
        {
          "indexed": true,
          "internalType": "bytes32",
          "name": "role",
          "type": "bytes32"
        },
        {
          "indexed": true,
          "internalType": "address",
          "name": "account",
          "type": "address"
        },
        {
          "indexed": true,
          "internalType": "address",
          "name": "sender",
          "type": "address"
        }
      ],
      "name": "RoleGranted",
      "type": "event"
    },
    {
      "anonymous": false,
      "inputs": [
        {
          "indexed": true,
          "internalType": "bytes32",
          "name": "role",
          "type": "bytes32"
        },
        {
          "indexed": true,
          "internalType": "address",
          "name": "account",
          "type": "address"
        },
        {
          "indexed": true,
          "internalType": "address",
          "name": "sender",
          "type": "address"
        }
      ],
      "name": "RoleRevoked",
      "type": "event"
    },
    {
      "anonymous": false,
      "inputs": [
        {
          "indexed": true,
          "internalType": "address",
          "name": "from",
          "type": "address"
        },
        {
          "indexed": false,
          "internalType": "uint256",
          "name": "amount",
          "type": "uint256"
        }
      ],
      "name": "SeniorPoolFundsCollected",
      "type": "event"
    },
    {
      "anonymous": false,
      "inputs": [
        {
          "indexed": true,
          "internalType": "address",
          "name": "pool",
          "type": "address"
        },
        {
          "indexed": true,
          "internalType": "uint256",
          "name": "tranche",
          "type": "uint256"
        },
        {
          "indexed": false,
          "internalType": "uint256",
          "name": "principalSharePrice",
          "type": "uint256"
        },
        {
          "indexed": false,
          "internalType": "int256",
          "name": "principalDelta",
          "type": "int256"
        },
        {
          "indexed": false,
          "internalType": "uint256",
          "name": "interestSharePrice",
          "type": "uint256"
        },
        {
          "indexed": false,
          "internalType": "int256",
          "name": "interestDelta",
          "type": "int256"
        }
      ],
      "name": "SharePriceUpdated",
      "type": "event"
    },
    {
      "anonymous": false,
      "inputs": [
        {
          "indexed": true,
          "internalType": "address",
          "name": "pool",
          "type": "address"
        },
        {
          "indexed": false,
          "internalType": "uint256",
          "name": "sliceId",
          "type": "uint256"
        }
      ],
      "name": "SliceCreated",
      "type": "event"
    },
    {
      "anonymous": false,
      "inputs": [
        {
          "indexed": true,
          "internalType": "address",
          "name": "pool",
          "type": "address"
        },
        {
          "indexed": false,
          "internalType": "uint256",
          "name": "trancheId",
          "type": "uint256"
        },
        {
          "indexed": false,
          "internalType": "uint256",
          "name": "lockedUntil",
          "type": "uint256"
        }
      ],
      "name": "TrancheLocked",
      "type": "event"
    },
    {
      "anonymous": false,
      "inputs": [
        {
          "indexed": true,
          "internalType": "address",
          "name": "pool",
          "type": "address"
        }
      ],
      "name": "TranchedPoolAssessed",
      "type": "event"
    },
    {
      "anonymous": false,
      "inputs": [
        {
          "indexed": false,
          "internalType": "address",
          "name": "account",
          "type": "address"
        }
      ],
      "name": "Unpaused",
      "type": "event"
    },
    {
      "anonymous": false,
      "inputs": [
        {
          "indexed": true,
          "internalType": "address",
          "name": "owner",
          "type": "address"
        },
        {
          "indexed": true,
          "internalType": "uint256",
          "name": "tranche",
          "type": "uint256"
        },
        {
          "indexed": true,
          "internalType": "uint256",
          "name": "tokenId",
          "type": "uint256"
        },
        {
          "indexed": false,
          "internalType": "uint256",
          "name": "interestWithdrawn",
          "type": "uint256"
        },
        {
          "indexed": false,
          "internalType": "uint256",
          "name": "principalWithdrawn",
          "type": "uint256"
        }
      ],
      "name": "WithdrawalMade",
      "type": "event"
    },
    {
      "inputs": [],
      "name": "DEFAULT_ADMIN_ROLE",
      "outputs": [
        {
          "internalType": "bytes32",
          "name": "",
          "type": "bytes32"
        }
      ],
      "stateMutability": "view",
      "type": "function"
    },
    {
      "inputs": [],
      "name": "FP_SCALING_FACTOR",
      "outputs": [
        {
          "internalType": "uint256",
          "name": "",
          "type": "uint256"
        }
      ],
      "stateMutability": "view",
      "type": "function"
    },
    {
      "inputs": [],
      "name": "LOCKER_ROLE",
      "outputs": [
        {
          "internalType": "bytes32",
          "name": "",
          "type": "bytes32"
        }
      ],
      "stateMutability": "view",
      "type": "function"
    },
    {
      "inputs": [],
      "name": "NUM_TRANCHES_PER_SLICE",
      "outputs": [
        {
          "internalType": "uint256",
          "name": "",
          "type": "uint256"
        }
      ],
      "stateMutability": "view",
      "type": "function"
    },
    {
      "inputs": [],
      "name": "ONE_HUNDRED",
      "outputs": [
        {
          "internalType": "uint256",
          "name": "",
          "type": "uint256"
        }
      ],
      "stateMutability": "view",
      "type": "function"
    },
    {
      "inputs": [],
      "name": "OWNER_ROLE",
      "outputs": [
        {
          "internalType": "bytes32",
          "name": "",
          "type": "bytes32"
        }
      ],
      "stateMutability": "view",
      "type": "function"
    },
    {
      "inputs": [],
      "name": "PAUSER_ROLE",
      "outputs": [
        {
          "internalType": "bytes32",
          "name": "",
          "type": "bytes32"
        }
      ],
      "stateMutability": "view",
      "type": "function"
    },
    {
      "inputs": [],
      "name": "SECONDS_PER_DAY",
      "outputs": [
        {
          "internalType": "uint256",
          "name": "",
          "type": "uint256"
        }
      ],
      "stateMutability": "view",
      "type": "function"
    },
    {
      "inputs": [],
      "name": "SENIOR_ROLE",
      "outputs": [
        {
          "internalType": "bytes32",
          "name": "",
          "type": "bytes32"
        }
      ],
      "stateMutability": "view",
      "type": "function"
    },
    {
      "inputs": [
        {
          "internalType": "address",
          "name": "owner",
          "type": "address"
        }
      ],
      "name": "__BaseUpgradeablePausable__init",
      "outputs": [],
      "stateMutability": "nonpayable",
      "type": "function"
    },
    {
      "inputs": [],
      "name": "__PauserPausable__init",
      "outputs": [],
      "stateMutability": "nonpayable",
      "type": "function"
    },
    {
      "inputs": [
        {
          "internalType": "uint256",
          "name": "",
          "type": "uint256"
        }
      ],
      "name": "allowedUIDTypes",
      "outputs": [
        {
          "internalType": "uint256",
          "name": "",
          "type": "uint256"
        }
      ],
      "stateMutability": "view",
      "type": "function"
    },
    {
      "inputs": [],
      "name": "assess",
      "outputs": [],
      "stateMutability": "nonpayable",
      "type": "function"
    },
    {
      "inputs": [
        {
          "internalType": "uint256",
          "name": "tokenId",
          "type": "uint256"
        }
      ],
      "name": "availableToWithdraw",
      "outputs": [
        {
          "internalType": "uint256",
          "name": "interestRedeemable",
          "type": "uint256"
        },
        {
          "internalType": "uint256",
          "name": "principalRedeemable",
          "type": "uint256"
        }
      ],
      "stateMutability": "view",
      "type": "function"
    },
    {
      "inputs": [
        {
          "internalType": "uint256[]",
          "name": "tokenIds",
          "type": "uint256[]"
        }
      ],
      "name": "availableToWithdrawMultiple",
      "outputs": [
        {
          "internalType": "uint256",
          "name": "interestRedeemableTotal",
          "type": "uint256"
        },
        {
          "internalType": "uint256",
          "name": "principalRedeemableTotal",
          "type": "uint256"
        }
      ],
      "stateMutability": "view",
      "type": "function"
    },
    {
      "inputs": [],
      "name": "config",
      "outputs": [
        {
          "internalType": "contract DobermanConfig",
          "name": "",
          "type": "address"
        }
      ],
      "stateMutability": "view",
      "type": "function"
    },
    {
      "inputs": [],
      "name": "createdAt",
      "outputs": [
        {
          "internalType": "uint256",
          "name": "",
          "type": "uint256"
        }
      ],
      "stateMutability": "view",
      "type": "function"
    },
    {
      "inputs": [],
      "name": "creditLine",
      "outputs": [
        {
          "internalType": "contract IV2CreditLine",
          "name": "",
          "type": "address"
        }
      ],
      "stateMutability": "view",
      "type": "function"
    },
    {
      "inputs": [
        {
          "internalType": "uint256",
          "name": "tranche",
          "type": "uint256"
        },
        {
          "internalType": "uint256",
          "name": "amount",
          "type": "uint256"
        }
      ],
      "name": "deposit",
      "outputs": [
        {
          "internalType": "uint256",
          "name": "tokenId",
          "type": "uint256"
        }
      ],
      "stateMutability": "nonpayable",
      "type": "function"
    },
    {
      "inputs": [
        {
          "internalType": "uint256",
          "name": "tranche",
          "type": "uint256"
        },
        {
          "internalType": "uint256",
          "name": "amount",
          "type": "uint256"
        },
        {
          "internalType": "uint256",
          "name": "deadline",
          "type": "uint256"
        },
        {
          "internalType": "uint8",
          "name": "v",
          "type": "uint8"
        },
        {
          "internalType": "bytes32",
          "name": "r",
          "type": "bytes32"
        },
        {
          "internalType": "bytes32",
          "name": "s",
          "type": "bytes32"
        }
      ],
      "name": "depositWithPermit",
      "outputs": [
        {
          "internalType": "uint256",
          "name": "tokenId",
          "type": "uint256"
        }
      ],
      "stateMutability": "nonpayable",
      "type": "function"
    },
    {
      "inputs": [
        {
          "internalType": "uint256",
          "name": "amount",
          "type": "uint256"
        }
      ],
      "name": "drawdown",
      "outputs": [],
      "stateMutability": "nonpayable",
      "type": "function"
    },
    {
      "inputs": [],
      "name": "drawdownsPaused",
      "outputs": [
        {
          "internalType": "bool",
          "name": "",
          "type": "bool"
        }
      ],
      "stateMutability": "view",
      "type": "function"
    },
    {
      "inputs": [],
      "name": "emergencyShutdown",
      "outputs": [],
      "stateMutability": "nonpayable",
      "type": "function"
    },
    {
      "inputs": [],
      "name": "fundableAt",
      "outputs": [
        {
          "internalType": "uint256",
          "name": "",
          "type": "uint256"
        }
      ],
      "stateMutability": "view",
      "type": "function"
    },
    {
      "inputs": [
        {
          "internalType": "bytes32",
          "name": "role",
          "type": "bytes32"
        }
      ],
      "name": "getRoleAdmin",
      "outputs": [
        {
          "internalType": "bytes32",
          "name": "",
          "type": "bytes32"
        }
      ],
      "stateMutability": "view",
      "type": "function"
    },
    {
      "inputs": [
        {
          "internalType": "uint256",
          "name": "tranche",
          "type": "uint256"
        }
      ],
      "name": "getTranche",
      "outputs": [
        {
          "components": [
            {
              "internalType": "uint256",
              "name": "id",
              "type": "uint256"
            },
            {
              "internalType": "uint256",
              "name": "principalDeposited",
              "type": "uint256"
            },
            {
              "internalType": "uint256",
              "name": "principalSharePrice",
              "type": "uint256"
            },
            {
              "internalType": "uint256",
              "name": "interestSharePrice",
              "type": "uint256"
            },
            {
              "internalType": "uint256",
              "name": "lockedUntil",
              "type": "uint256"
            }
          ],
          "internalType": "struct ITranchedPool.TrancheInfo",
          "name": "",
          "type": "tuple"
        }
      ],
      "stateMutability": "view",
      "type": "function"
    },
    {
      "inputs": [
        {
          "internalType": "bytes32",
          "name": "role",
          "type": "bytes32"
        },
        {
          "internalType": "address",
          "name": "account",
          "type": "address"
        }
      ],
      "name": "grantRole",
      "outputs": [],
      "stateMutability": "nonpayable",
      "type": "function"
    },
    {
      "inputs": [
        {
          "internalType": "bytes32",
          "name": "role",
          "type": "bytes32"
        },
        {
          "internalType": "address",
          "name": "account",
          "type": "address"
        }
      ],
      "name": "hasRole",
      "outputs": [
        {
          "internalType": "bool",
          "name": "",
          "type": "bool"
        }
      ],
      "stateMutability": "view",
      "type": "function"
    },
    {
      "inputs": [
        {
          "internalType": "address",
          "name": "_config",
          "type": "address"
        },
        {
          "internalType": "address",
          "name": "_borrower",
          "type": "address"
        },
        {
          "internalType": "uint256",
          "name": "_juniorFeePercent",
          "type": "uint256"
        },
        {
          "internalType": "uint256",
          "name": "_limit",
          "type": "uint256"
        },
        {
          "internalType": "uint256",
          "name": "_interestApr",
          "type": "uint256"
        },
        {
          "internalType": "uint256",
          "name": "_paymentPeriodInDays",
          "type": "uint256"
        },
        {
          "internalType": "uint256",
          "name": "_termInDays",
          "type": "uint256"
        },
        {
          "internalType": "uint256",
          "name": "_lateFeeApr",
          "type": "uint256"
        },
        {
          "internalType": "uint256",
          "name": "_principalGracePeriodInDays",
          "type": "uint256"
        },
        {
          "internalType": "uint256",
          "name": "_fundableAt",
          "type": "uint256"
        },
        {
          "internalType": "uint256[]",
          "name": "_allowedUIDTypes",
          "type": "uint256[]"
        }
      ],
      "name": "initialize",
      "outputs": [],
      "stateMutability": "nonpayable",
      "type": "function"
    },
    {
      "inputs": [
        {
          "internalType": "uint256",
          "name": "_fundableAt",
          "type": "uint256"
        }
      ],
      "name": "initializeNextSlice",
      "outputs": [],
      "stateMutability": "nonpayable",
      "type": "function"
    },
    {
      "inputs": [],
      "name": "isAdmin",
      "outputs": [
        {
          "internalType": "bool",
          "name": "",
          "type": "bool"
        }
      ],
      "stateMutability": "view",
      "type": "function"
    },
    {
      "inputs": [],
      "name": "juniorFeePercent",
      "outputs": [
        {
          "internalType": "uint256",
          "name": "",
          "type": "uint256"
        }
      ],
      "stateMutability": "view",
      "type": "function"
    },
    {
      "inputs": [],
      "name": "lockJuniorCapital",
      "outputs": [],
      "stateMutability": "nonpayable",
      "type": "function"
    },
    {
      "inputs": [],
      "name": "lockPool",
      "outputs": [],
      "stateMutability": "nonpayable",
      "type": "function"
    },
    {
      "inputs": [
        {
          "internalType": "address",
          "name": "newCl",
          "type": "address"
        }
      ],
      "name": "migrateAndSetNewCreditLine",
      "outputs": [],
      "stateMutability": "nonpayable",
      "type": "function"
    },
    {
      "inputs": [
        {
          "internalType": "address",
          "name": "_borrower",
          "type": "address"
        },
        {
          "internalType": "uint256",
          "name": "_maxLimit",
          "type": "uint256"
        },
        {
          "internalType": "uint256",
          "name": "_interestApr",
          "type": "uint256"
        },
        {
          "internalType": "uint256",
          "name": "_paymentPeriodInDays",
          "type": "uint256"
        },
        {
          "internalType": "uint256",
          "name": "_termInDays",
          "type": "uint256"
        },
        {
          "internalType": "uint256",
          "name": "_lateFeeApr",
          "type": "uint256"
        },
        {
          "internalType": "uint256",
          "name": "_principalGracePeriodInDays",
          "type": "uint256"
        }
      ],
      "name": "migrateCreditLine",
      "outputs": [],
      "stateMutability": "nonpayable",
      "type": "function"
    },
    {
      "inputs": [],
      "name": "numSlices",
      "outputs": [
        {
          "internalType": "uint256",
          "name": "",
          "type": "uint256"
        }
      ],
      "stateMutability": "view",
      "type": "function"
    },
    {
      "inputs": [],
      "name": "pause",
      "outputs": [],
      "stateMutability": "nonpayable",
      "type": "function"
    },
    {
      "inputs": [],
      "name": "pauseDrawdowns",
      "outputs": [],
      "stateMutability": "nonpayable",
      "type": "function"
    },
    {
      "inputs": [],
      "name": "paused",
      "outputs": [
        {
          "internalType": "bool",
          "name": "",
          "type": "bool"
        }
      ],
      "stateMutability": "view",
      "type": "function"
    },
    {
      "inputs": [
        {
          "internalType": "uint256",
          "name": "amount",
          "type": "uint256"
        }
      ],
      "name": "pay",
      "outputs": [],
      "stateMutability": "nonpayable",
      "type": "function"
    },
    {
      "inputs": [
        {
          "internalType": "uint256",
          "name": "",
          "type": "uint256"
        }
      ],
      "name": "poolSlices",
      "outputs": [
        {
          "components": [
            {
              "internalType": "uint256",
              "name": "id",
              "type": "uint256"
            },
            {
              "internalType": "uint256",
              "name": "principalDeposited",
              "type": "uint256"
            },
            {
              "internalType": "uint256",
              "name": "principalSharePrice",
              "type": "uint256"
            },
            {
              "internalType": "uint256",
              "name": "interestSharePrice",
              "type": "uint256"
            },
            {
              "internalType": "uint256",
              "name": "lockedUntil",
              "type": "uint256"
            }
          ],
          "internalType": "struct ITranchedPool.TrancheInfo",
          "name": "seniorTranche",
          "type": "tuple"
        },
        {
          "components": [
            {
              "internalType": "uint256",
              "name": "id",
              "type": "uint256"
            },
            {
              "internalType": "uint256",
              "name": "principalDeposited",
              "type": "uint256"
            },
            {
              "internalType": "uint256",
              "name": "principalSharePrice",
              "type": "uint256"
            },
            {
              "internalType": "uint256",
              "name": "interestSharePrice",
              "type": "uint256"
            },
            {
              "internalType": "uint256",
              "name": "lockedUntil",
              "type": "uint256"
            }
          ],
          "internalType": "struct ITranchedPool.TrancheInfo",
          "name": "juniorTranche",
          "type": "tuple"
        },
        {
          "internalType": "uint256",
          "name": "totalInterestAccrued",
          "type": "uint256"
        },
        {
          "internalType": "uint256",
          "name": "principalDeployed",
          "type": "uint256"
        }
      ],
      "stateMutability": "view",
      "type": "function"
    },
    {
      "inputs": [
        {
          "internalType": "bytes32",
          "name": "role",
          "type": "bytes32"
        },
        {
          "internalType": "address",
          "name": "account",
          "type": "address"
        }
      ],
      "name": "renounceRole",
      "outputs": [],
      "stateMutability": "nonpayable",
      "type": "function"
    },
    {
      "inputs": [
        {
          "internalType": "bytes32",
          "name": "role",
          "type": "bytes32"
        },
        {
          "internalType": "address",
          "name": "account",
          "type": "address"
        }
      ],
      "name": "revokeRole",
      "outputs": [],
      "stateMutability": "nonpayable",
      "type": "function"
    },
    {
      "inputs": [
        {
          "internalType": "uint256[]",
          "name": "ids",
          "type": "uint256[]"
        }
      ],
      "name": "setAllowedUIDTypes",
      "outputs": [],
      "stateMutability": "nonpayable",
      "type": "function"
    },
    {
      "inputs": [
        {
          "internalType": "uint256",
          "name": "newFundableAt",
          "type": "uint256"
        }
      ],
      "name": "setFundableAt",
      "outputs": [],
      "stateMutability": "nonpayable",
      "type": "function"
    },
    {
      "inputs": [
        {
          "internalType": "uint256",
          "name": "newAmount",
          "type": "uint256"
        }
      ],
      "name": "setLimit",
      "outputs": [],
      "stateMutability": "nonpayable",
      "type": "function"
    },
    {
      "inputs": [
        {
          "internalType": "uint256",
          "name": "newAmount",
          "type": "uint256"
        }
      ],
      "name": "setMaxLimit",
      "outputs": [],
      "stateMutability": "nonpayable",
      "type": "function"
    },
    {
      "inputs": [
        {
          "internalType": "uint256",
          "name": "sharePrice",
          "type": "uint256"
        },
        {
          "internalType": "uint256",
          "name": "totalShares",
          "type": "uint256"
        }
      ],
      "name": "sharePriceToUsdc",
      "outputs": [
        {
          "internalType": "uint256",
          "name": "",
          "type": "uint256"
        }
      ],
      "stateMutability": "pure",
      "type": "function"
    },
    {
      "inputs": [
        {
          "internalType": "bytes4",
          "name": "interfaceId",
          "type": "bytes4"
        }
      ],
      "name": "supportsInterface",
      "outputs": [
        {
          "internalType": "bool",
          "name": "",
          "type": "bool"
        }
      ],
      "stateMutability": "view",
      "type": "function"
    },
    {
      "inputs": [],
      "name": "totalDeployed",
      "outputs": [
        {
          "internalType": "uint256",
          "name": "",
          "type": "uint256"
        }
      ],
      "stateMutability": "view",
      "type": "function"
    },
    {
      "inputs": [],
      "name": "totalJuniorDeposits",
      "outputs": [
        {
          "internalType": "uint256",
          "name": "",
          "type": "uint256"
        }
      ],
      "stateMutability": "view",
      "type": "function"
    },
    {
      "inputs": [],
      "name": "unpause",
      "outputs": [],
      "stateMutability": "nonpayable",
      "type": "function"
    },
    {
      "inputs": [],
      "name": "unpauseDrawdowns",
      "outputs": [],
      "stateMutability": "nonpayable",
      "type": "function"
    },
    {
      "inputs": [
        {
          "internalType": "uint256",
          "name": "amount",
          "type": "uint256"
        },
        {
          "internalType": "uint256",
          "name": "totalShares",
          "type": "uint256"
        }
      ],
      "name": "usdcToSharePrice",
      "outputs": [
        {
          "internalType": "uint256",
          "name": "",
          "type": "uint256"
        }
      ],
      "stateMutability": "pure",
      "type": "function"
    },
    {
      "inputs": [
        {
          "internalType": "uint256",
          "name": "tokenId",
          "type": "uint256"
        },
        {
          "internalType": "uint256",
          "name": "amount",
          "type": "uint256"
        }
      ],
      "name": "withdraw",
      "outputs": [
        {
          "internalType": "uint256",
          "name": "interestWithdrawn",
          "type": "uint256"
        },
        {
          "internalType": "uint256",
          "name": "principalWithdrawn",
          "type": "uint256"
        }
      ],
      "stateMutability": "nonpayable",
      "type": "function"
    },
    {
      "inputs": [
        {
          "internalType": "uint256",
          "name": "tokenId",
          "type": "uint256"
        }
      ],
      "name": "withdrawMax",
      "outputs": [
        {
          "internalType": "uint256",
          "name": "interestWithdrawn",
          "type": "uint256"
        },
        {
          "internalType": "uint256",
          "name": "principalWithdrawn",
          "type": "uint256"
        }
      ],
      "stateMutability": "nonpayable",
      "type": "function"
    },
    {
      "inputs": [
        {
          "internalType": "uint256[]",
          "name": "tokenIds",
          "type": "uint256[]"
        }
      ],
      "name": "withdrawMaxMultiple",
      "outputs": [],
      "stateMutability": "nonpayable",
      "type": "function"
    },
    {
      "inputs": [
        {
          "internalType": "uint256[]",
          "name": "tokenIds",
          "type": "uint256[]"
        },
        {
          "internalType": "uint256[]",
          "name": "amounts",
          "type": "uint256[]"
        }
      ],
      "name": "withdrawMultiple",
      "outputs": [],
      "stateMutability": "nonpayable",
      "type": "function"
    }
  ],
  "transactionHash": "0x15ac9807a32f261a2a9b6e1eae2ca42b00aff20ab79e016aec3511d6292a336b",
  "args": [],
  "numDeployments": 6,
  "solcInputHash": "29c07a304f2a14fec4c4f12f86ff1221",
  "bytecode": "0x608060405234801561001057600080fd5b50615ff180620000216000396000f3fe608060405234801561001057600080fd5b50600436106103195760003560e01c80637976323d116101a9578063bf6c87c7116100ef578063d547741f1161009d578063d547741f14610679578063d972e8ad1461068c578063dd0ec241146106ac578063e2a657f9146106b4578063e2bbb158146106c7578063e58378bb146106da578063e63ab1e9146106ef578063f36213671461070457600080fd5b8063bf6c87c71461061c578063bf8bcee414610624578063bfaa8cca14610637578063c290d6911461063f578063c77d569814610652578063cde888451461065c578063cf09e0d01461066f57600080fd5b8063a217fddf11610157578063a217fddf146105b0578063a6a25e88146105b8578063a8deac0e146105c0578063a8f9c4fe146105d3578063aa2a7c4c146105db578063ae6c857a146105ee578063b6db75a014610601578063b9317d861461060957600080fd5b80637976323d1461053057806380b65431146105395780638456cb591461055c57806384cfd4c91461056457806391d14854146105775780639d1105301461058a578063a079a4dd1461059d57600080fd5b80634026478e1161026e57806356ce15601161021c57806356ce1560146104b757806357258094146104ca5780635c975abb146104dd5780635eb185a2146104e857806368dcfdc0146104f257806374f0314f1461050157806378bcd6041461050957806379502c551461051c57600080fd5b80634026478e14610430578063441a3e701461043857806344c08f231461046057806347195e13146104685780634d02fe6f14610489578063515bc3231461049c578063526d81f6146104af57600080fd5b8063248a9ca3116102cb578063248a9ca3146103af57806327ea6f2b146103d25780632ae754be146103e55780632f2ff15d146103fa5780633403c2fc1461040d57806336568abe146104155780633f4ba83a1461042857600080fd5b80630174b4491461031e57806301ffc9a7146103445780630881806c14610367578063097616a3146103715780630cfb14b01461038457806317f769411461038e5780631fe032be1461039c575b600080fd5b61033161032c36600461587b565b610719565b6040519081526020015b60405180910390f35b610357610352366004615792565b6107b0565b604051901515815260200161033b565b61036f6107e5565b005b61036f61037f366004615539565b610844565b6103316101c95481565b6101c7546103579060ff1681565b61036f6103aa366004615630565b61094a565b6103316103bd36600461574b565b60009081526065602052604090206001015490565b61036f6103e036600461574b565b610d90565b610331600080516020615f7c83398151915281565b61036f610408366004615763565b610e17565b61036f610e41565b61036f610423366004615763565b611016565b61036f611094565b61036f6110d0565b61044b61044636600461587b565b611114565b6040805192835260208301919091520161033b565b610331600281565b6101c35461047c906001600160a01b031681565b60405161033b9190615a09565b61044b61049736600461574b565b6111f3565b6103316104aa3660046158c9565b6112d4565b61036f611388565b61036f6104c5366004615539565b611451565b61036f6104d8366004615684565b6116c9565b60975460ff16610357565b6103316101ca5481565b610331670de0b6b3a764000081565b610331603c81565b61036f61051736600461574b565b611735565b6101c55461047c906001600160a01b031681565b6101cb54610331565b61054c61054736600461574b565b6119b1565b60405161033b9493929190615cc8565b61036f611a6a565b61044b610572366004615684565b611aa6565b610357610585366004615763565b611b3d565b61036f6105983660046156c3565b611b68565b61036f6105ab36600461574b565b611c2d565b610331600081565b61036f612192565b61036f6105ce366004615571565b6121a2565b61036f6125c8565b61044b6105e936600461574b565b612627565b61036f6105fc36600461574b565b612727565b610357612761565b61036f610617366004615684565b612780565b61036f612883565b61036f61063236600461574b565b6128df565b610331606481565b61036f61064d36600461574b565b612935565b6103316101c65481565b61033161066a36600461587b565b612998565b6103316101c45481565b61036f610687366004615763565b6129da565b61069f61069a36600461574b565b6129ff565b60405161033b9190615cba565b610331612a79565b6103316106c236600461574b565b612ae4565b6103316106d536600461587b565b612b06565b610331600080516020615f1c83398151915281565b610331600080516020615f5c83398151915281565b610331600080516020615f9c83398151915281565b604051630174b44960e01b815260048101839052602481018290526000907393835ff173f8BfDd52Ae6DCd111fd2DF806600Ca90630174b449906044015b60206040518083038186803b15801561076f57600080fd5b505af4158015610783573d6000803e3d6000fd5b505050506040513d601f19601f820116820180604052508101906107a79190615863565b90505b92915050565b60006001600160e01b03198216637965db0b60e01b14806107aa57506301ffc9a760e01b6001600160e01b03198316146107aa565b6107fd600080516020615f9c83398151915233611b3d565b6108225760405162461bcd60e51b815260040161081990615bf5565b60405180910390fd5b61082a612f2f565b6101cb546108429061083d906001612f75565b612f81565b565b600054610100900460ff1661086b5760405162461bcd60e51b815260040161081990615c24565b6001600160a01b0381166108c15760405162461bcd60e51b815260206004820181905260248201527f4f776e65722063616e6e6f7420626520746865207a65726f20616464726573736044820152606401610819565b6108c9613114565b6108d161313b565b6108d961316e565b6108f1600080516020615f1c8339815191528261319c565b610909600080516020615f5c8339815191528261319c565b61092f600080516020615f5c833981519152600080516020615f1c8339815191526131a6565b610947600080516020615f1c833981519152806131a6565b50565b610952612761565b61096e5760405162461bcd60e51b815260040161081990615c6f565b6001600160a01b0387166109c45760405162461bcd60e51b815260206004820152601a60248201527f426f72726f776572206d757374206e6f7420626520656d7074790000000000006044820152606401610819565b83610a0a5760405162461bcd60e51b815260206004820152601660248201527514185e5b595b9d081c195c9a5bd9081a5b9d985b1a5960521b6044820152606401610819565b82610a505760405162461bcd60e51b81526020600482015260166024820152755465726d206d757374206e6f7420626520656d70747960501b6044820152606401610819565b6101c3546001600160a01b0316610a6c888888888888886131f1565b6101c3546040516001623df69160e21b031981526001600160a01b03838116600483015290911660248201819052907393835ff173f8BfDd52Ae6DCd111fd2DF806600Ca9063ff0825bc9060440160006040518083038186803b158015610ad257600080fd5b505af4158015610ae6573d6000803e3d6000fd5b50506040516302a7e68560e21b81527393835ff173f8BfDd52Ae6DCd111fd2DF806600Ca9250630a9f9a149150610b21908590600401615a09565b60006040518083038186803b158015610b3957600080fd5b505af4158015610b4d573d6000803e3d6000fd5b505050506000826001600160a01b0316637df1f1b96040518163ffffffff1660e01b815260040160206040518083038186803b158015610b8c57600080fd5b505afa158015610ba0573d6000803e3d6000fd5b505050506040513d601f19601f82011682018060405250810190610bc49190615555565b90506000826001600160a01b0316637df1f1b96040518163ffffffff1660e01b815260040160206040518083038186803b158015610c0157600080fd5b505afa158015610c15573d6000803e3d6000fd5b505050506040513d601f19601f82011682018060405250810190610c399190615555565b9050806001600160a01b0316826001600160a01b031614610c8457610c6c600080516020615f9c833981519152836129da565b610c84600080516020615f9c83398151915282610e17565b6101c554600090610c9d906001600160a01b0316613337565b6001600160a01b03166370a08231866040518263ffffffff1660e01b8152600401610cc89190615a09565b60206040518083038186803b158015610ce057600080fd5b505afa158015610cf4573d6000803e3d6000fd5b505050506040513d601f19601f82011682018060405250810190610d189190615863565b90508015610d42576101c554610d4290610d3a906001600160a01b0316613337565b868684613342565b836001600160a01b0316856001600160a01b03167f987cdba0cba67c68d2c8aba6a4ba6545565eccfb3e2e5ff39579ffd94acaf9bb60405160405180910390a3505050505050505050505050565b610d98612761565b610db45760405162461bcd60e51b815260040161081990615c6f565b6101c3546040516327ea6f2b60e01b8152600481018390526001600160a01b03909116906327ea6f2b906024015b600060405180830381600087803b158015610dfc57600080fd5b505af1158015610e10573d6000803e3d6000fd5b5050505050565b600082815260656020526040902060010154610e328161337e565b610e3c8383613388565b505050565b610e49612761565b610e655760405162461bcd60e51b815260040161081990615c6f565b60975460ff16610e7757610e77611a6a565b6101c554600090610e90906001600160a01b0316613337565b6101c554909150600090610eac906001600160a01b031661340e565b90506000826001600160a01b03166370a08231306040518263ffffffff1660e01b8152600401610edc9190615a09565b60206040518083038186803b158015610ef457600080fd5b505afa158015610f08573d6000803e3d6000fd5b505050506040513d601f19601f82011682018060405250810190610f2c9190615863565b90508015610f3f57610f3f838383613490565b6101c3546040516370a0823160e01b81526000916001600160a01b03808716926370a0823192610f73921690600401615a09565b60206040518083038186803b158015610f8b57600080fd5b505afa158015610f9f573d6000803e3d6000fd5b505050506040513d601f19601f82011682018060405250810190610fc39190615863565b90508015610fe5576101c354610fe59085906001600160a01b03168584613342565b60405130907f1fc1e771236d2e93bb9541cdcb4654ba0fd3fb615b48d829b7b365f03998512690600090a250505050565b6001600160a01b03811633146110865760405162461bcd60e51b815260206004820152602f60248201527f416363657373436f6e74726f6c3a2063616e206f6e6c792072656e6f756e636560448201526e103937b632b9903337b91039b2b63360891b6064820152608401610819565b61109082826134cc565b5050565b6110ac600080516020615f5c83398151915233611b3d565b6110c85760405162461bcd60e51b815260040161081990615afb565b610842613533565b6110e8600080516020615f9c83398151915233611b3d565b6111045760405162461bcd60e51b815260040161081990615bf5565b61110c612f2f565b61084261357f565b60008061111f613a4f565b611127612f2f565b6101c554600090611140906001600160a01b0316613aa9565b6001600160a01b0316638c7a63ae866040518263ffffffff1660e01b815260040161116d91815260200190565b60a06040518083038186803b15801561118557600080fd5b505afa158015611199573d6000803e3d6000fd5b505050506040513d601f19601f820116820180604052508101906111bd9190615809565b905060006111ce8260200151613ab4565b90506111dc81838888613b9e565b9350935050506111ec600160c955565b9250929050565b6101c55460009081908190611210906001600160a01b0316613aa9565b6001600160a01b0316638c7a63ae856040518263ffffffff1660e01b815260040161123d91815260200190565b60a06040518083038186803b15801561125557600080fd5b505afa158015611269573d6000803e3d6000fd5b505050506040513d601f19601f8201168201806040525081019061128d9190615809565b9050600061129e8260200151613ab4565b905080600401546112ac4290565b11156112c7576112bc8183613f60565b935093505050915091565b5060009485945092505050565b6101c5546000906112ed906001600160a01b0316613fca565b60405163d505accf60e01b8152336004820152306024820152604481018890526064810187905260ff8616608482015260a4810185905260c481018490526001600160a01b03919091169063d505accf9060e401600060405180830381600087803b15801561135b57600080fd5b505af115801561136f573d6000803e3d6000fd5b5050505061137d8787612b06565b979650505050505050565b600054610100900460ff16158080156113a85750600054600160ff909116105b806113c25750303b1580156113c2575060005460ff166001145b6113de5760405162461bcd60e51b815260040161081990615b78565b6000805460ff191660011790558015611401576000805461ff0019166101001790555b61140961313b565b8015610947576000805461ff0019169055604051600181527f7f26b83ff96e1f2b6a682f133852f6798a09c465da95921460cefb38474024989060200160405180910390a150565b611459612761565b6114755760405162461bcd60e51b815260040161081990615c6f565b6001600160a01b0381166114cb5760405162461bcd60e51b815260206004820152601a60248201527f4372656469746c696e652063616e6e6f7420626520656d7074790000000000006044820152606401610819565b6101c3546101c5546001600160a01b03918216916000916114ec9116613337565b6001600160a01b03166370a08231836040518263ffffffff1660e01b81526004016115179190615a09565b60206040518083038186803b15801561152f57600080fd5b505afa158015611543573d6000803e3d6000fd5b505050506040513d601f19601f820116820180604052508101906115679190615863565b90508015611591576101c55461159190611589906001600160a01b0316613337565b838584613342565b6040516302a7e68560e21b81527393835ff173f8BfDd52Ae6DCd111fd2DF806600Ca90630a9f9a14906115c8908590600401615a09565b60006040518083038186803b1580156115e057600080fd5b505af41580156115f4573d6000803e3d6000fd5b50506101c380546001600160a01b0319166001600160a01b0387169081179091556040805163a4d66daf60e01b8152905191935063a4d66daf9250600480820192602092909190829003018186803b15801561164f57600080fd5b505afa158015611663573d6000803e3d6000fd5b505050506040513d601f19601f820116820180604052508101906116879190615863565b506101c3546040516001600160a01b03918216918416907f987cdba0cba67c68d2c8aba6a4ba6545565eccfb3e2e5ff39579ffd94acaf9bb90600090a3505050565b806116e65760405162461bcd60e51b815260040161081990615b47565b60005b81811015610e3c5761172083838381811061171457634e487b7160e01b600052603260045260246000fd5b90506020020135612627565b5050808061172d90615eab565b9150506116e9565b61174d600080516020615f9c83398151915233611b3d565b6117695760405162461bcd60e51b815260040161081990615bf5565b611771612f2f565b611779613fe2565b6117c55760405162461bcd60e51b815260206004820152601a60248201527f43757272656e7420736c696365207374696c6c206163746976650000000000006044820152606401610819565b6101c360009054906101000a90046001600160a01b03166001600160a01b03166381c17a156040518163ffffffff1660e01b815260040160206040518083038186803b15801561181457600080fd5b505afa158015611828573d6000803e3d6000fd5b505050506040513d601f19601f8201168201806040525081019061184c919061572b565b1561188e5760405162461bcd60e51b81526020600482015260126024820152714372656469746c696e65206973206c61746560701b6044820152606401610819565b6101c360009054906101000a90046001600160a01b03166001600160a01b031663457147a76040518163ffffffff1660e01b815260040160206040518083038186803b1580156118dd57600080fd5b505afa1580156118f1573d6000803e3d6000fd5b505050506040513d601f19601f82011682018060405250810190611915919061572b565b6119615760405162461bcd60e51b815260206004820152601d60248201527f4265796f6e64207072696e636970616c20677261636520706572696f640000006044820152606401610819565b61196a81614030565b6101cb5430907f3420dd9c54d6a8846edd2fb39a41c30c31e7bc95b43655dae59f47cc913b60d59061199d906001612f75565b60405190815260200160405180910390a250565b6101cb81815481106119c257600080fd5b90600052602060002090600c0201600091509050806000016040518060a00160405290816000820154815260200160018201548152602001600282015481526020016003820154815260200160048201548152505090806005016040518060a0016040529081600082015481526020016001820154815260200160028201548152602001600382015481526020016004820154815250509080600a01549080600b0154905084565b611a82600080516020615f5c83398151915233611b3d565b611a9e5760405162461bcd60e51b815260040161081990615afb565b6108426141c0565b60008082611ac65760405162461bcd60e51b815260040161081990615b47565b60005b83811015611b3557600080611b03878785818110611af757634e487b7160e01b600052603260045260246000fd5b905060200201356111f3565b9092509050611b128286615d7f565b9450611b1e8185615d7f565b935050508080611b2d90615eab565b915050611ac9565b509250929050565b60009182526065602090815260408084206001600160a01b0393909316845291905290205460ff1690565b828114611bb75760405162461bcd60e51b815260206004820152601e60248201527f546f6b656e7349647320616e6420416d6f756e7473206d69736d6174636800006044820152606401610819565b60005b81811015610e1057611c18858583818110611be557634e487b7160e01b600052603260045260246000fd5b90506020020135848484818110611c0c57634e487b7160e01b600052603260045260246000fd5b90506020020135611114565b50508080611c2590615eab565b915050611bba565b611c45600080516020615f9c83398151915233611b3d565b611c615760405162461bcd60e51b815260040161081990615bf5565b611c69612f2f565b6101c75460ff1615611cb45760405162461bcd60e51b8152602060048201526014602482015273111c985dd91bdddb9cc8185c99481c185d5cd95960621b6044820152606401610819565b611cbc613fe2565b611cc857611cc861357f565b6101cb805460009190611cdc906001612f75565b81548110611cfa57634e487b7160e01b600052603260045260246000fd5b90600052602060002090600c020190506000611d2482600501600201548360050160010154610719565b9050611d48611d4183600001600201548460000160010154610719565b82906141fd565b905080831115611d9a5760405162461bcd60e51b815260206004820152601b60248201527f496e73756666696369656e742066756e647320696e20736c69636500000000006044820152606401610819565b6101c35460405163a079a4dd60e01b8152600481018590526001600160a01b039091169063a079a4dd90602401600060405180830381600087803b158015611de157600080fd5b505af1158015611df5573d6000803e3d6000fd5b505050506000611e0e8483612f7590919063ffffffff16565b600784015460028501546040805160a081018252600588015481526006880154602082015280820184905260088801546060820152600988015460808201529051634ec167e960e11b8152939450919290917393835ff173f8BfDd52Ae6DCd111fd2DF806600Ca91639d82cfd291611e8c9187908a90600401615cf8565b60206040518083038186803b158015611ea457600080fd5b505af4158015611eb8573d6000803e3d6000fd5b505050506040513d601f19601f82011682018060405250810190611edc9190615863565b60078601556040805160a08101825286548152600187015460208201526002870154818301526003870154606082015260048088015460808301529151634ec167e960e11b81527393835ff173f8BfDd52Ae6DCd111fd2DF806600Ca92639d82cfd292611f4f92909188918b9101615cf8565b60206040518083038186803b158015611f6757600080fd5b505af4158015611f7b573d6000803e3d6000fd5b505050506040513d601f19601f82011682018060405250810190611f9f9190615863565b6002860155600b850154611fb390876141fd565b600b8601556101c954611fc690876141fd565b6101c9556101c35460408051637df1f1b960e01b815290516000926001600160a01b031691637df1f1b9916004808301926020929190829003018186803b15801561201057600080fd5b505afa158015612024573d6000803e3d6000fd5b505050506040513d601f19601f820116820180604052508101906120489190615555565b6101c55490915061206d90612065906001600160a01b0316613337565b30838a613342565b806001600160a01b03167f7411b87a3c039bdfd8f3510b21e8bd0736265f53513735e1f4aa7b4f306b728d886040516120a891815260200190565b60405180910390a26005860154600787015430907f42a55d7508b1c40b53524cf7cc2558b0f6bc7c4f262a3e929b65cd48bec2b687906120e88782612f75565b6120f490600019615dab565b60088b0154604080519384526020840192909252908201526000606082015260800160405180910390a38554600287015430907f42a55d7508b1c40b53524cf7cc2558b0f6bc7c4f262a3e929b65cd48bec2b687906121538682612f75565b61215f90600019615dab565b60038b0154604080519384526020840192909252908201526000606082015260800160405180910390a350505050505050565b61219a612f2f565b610842614209565b600054610100900460ff16158080156121c25750600054600160ff909116105b806121dc5750303b1580156121dc575060005460ff166001145b6121f85760405162461bcd60e51b815260040161081990615b78565b6000805460ff19166001179055801561221b576000805461ff0019166101001790555b6001600160a01b038d161580159061223b57506001600160a01b038c1615155b6122815760405162461bcd60e51b815260206004820152601760248201527610dbdb999a59cbd89bdc9c9bddd95c881a5b9d985b1a59604a1b6044820152606401610819565b6101c580546001600160a01b0319166001600160a01b038f169081179091556000906122ac9061497b565b90506001600160a01b0381166122f45760405162461bcd60e51b815260206004820152600d60248201526c13dddb995c881a5b9d985b1a59609a1b6044820152606401610819565b6122fd81610844565b61230685614030565b6123158d8c8c8c8c8c8c6131f1565b426101c4556101c68c9055826123d55760408051602081019091526101c55460009190819061234c906001600160a01b0316614993565b6001600160a01b0316639b56d7886040518163ffffffff1660e01b815260040160206040518083038186803b15801561238457600080fd5b505afa158015612398573d6000803e3d6000fd5b505050506040513d601f19601f820116820180604052508101906123bc9190615863565b905290506123ce6101c882600161545c565b50506123e4565b6123e26101c885856154a7565b505b6123fc600080516020615f9c8339815191528e61319c565b612414600080516020615f9c8339815191528261319c565b61243a600080516020615f9c833981519152600080516020615f1c8339815191526131a6565b612460600080516020615f7c833981519152600080516020615f1c8339815191526131a6565b6101c55461248f90600080516020615f7c8339815191529061248a906001600160a01b031661499e565b61319c565b6101c5546000906124a8906001600160a01b0316613337565b6001600160a01b031663095ea7b3306000196040518363ffffffff1660e01b81526004016124d7929190615a78565b602060405180830381600087803b1580156124f157600080fd5b505af1158015612505573d6000803e3d6000fd5b505050506040513d601f19601f82011682018060405250810190612529919061572b565b9050806125715760405162461bcd60e51b81526020600482015260166024820152754661696c656420746f20617070726f7665205553444360501b6044820152606401610819565b505080156125b9576000805461ff0019169055604051600181527f7f26b83ff96e1f2b6a682f133852f6798a09c465da95921460cefb38474024989060200160405180910390a15b50505050505050505050505050565b6125d0612761565b6125ec5760405162461bcd60e51b815260040161081990615c6f565b6101c7805460ff1916600117905560405130907f90d9b09c68a7e1312ce22801552b47265d77db9496383d51374b4058545447d790600090a2565b600080612632613a4f565b61263a612f2f565b6101c554600090612653906001600160a01b0316613aa9565b6001600160a01b0316638c7a63ae856040518263ffffffff1660e01b815260040161268091815260200190565b60a06040518083038186803b15801561269857600080fd5b505afa1580156126ac573d6000803e3d6000fd5b505050506040513d601f19601f820116820180604052508101906126d09190615809565b905060006126e18260200151613ab4565b90506000806126f08385613f60565b9092509050600061270183836141fd565b905061270f84868a84613b9e565b965096505050505050612722600160c955565b915091565b61273f600080516020615f9c83398151915233611b3d565b61275b5760405162461bcd60e51b815260040161081990615bf5565b6101ca55565b600061277b600080516020615f1c83398151915233611b3d565b905090565b612798600080516020615f9c83398151915233611b3d565b6127b45760405162461bcd60e51b815260040161081990615bf5565b6101cb6000815481106127d757634e487b7160e01b600052603260045260246000fd5b90600052602060002090600c020160050160010154600014801561283257506101cb60008154811061281957634e487b7160e01b600052603260045260246000fd5b90600052602060002090600c0201600001600101546000145b6128765760405162461bcd60e51b81526020600482015260156024820152744d757374206e6f7420686176652062616c616e636560581b6044820152606401610819565b610e3c6101c883836154a7565b61288b612761565b6128a75760405162461bcd60e51b815260040161081990615c6f565b6101c7805460ff1916905560405130907f7184039938737267597232635b117c924371ac877d4329f2dfa5ca674c5cc4a590600090a2565b6128e7612761565b6129035760405162461bcd60e51b815260040161081990615c6f565b6101c354604051632fe2f3b960e21b8152600481018390526001600160a01b039091169063bf8bcee490602401610de2565b61293d612f2f565b600081116129875760405162461bcd60e51b81526020600482015260176024820152764d75737420706179206d6f7265207468616e207a65726f60481b6044820152606401610819565b612990816149a9565b610947614209565b60405163cde8884560e01b815260048101839052602481018290526000907393835ff173f8BfDd52Ae6DCd111fd2DF806600Ca9063cde8884590604401610757565b6000828152606560205260409020600101546129f58161337e565b610e3c83836134cc565b612a316040518060a0016040528060008152602001600081526020016000815260200160008152602001600081525090565b612a3a82613ab4565b6040805160a081018252825481526001830154602082015260028301549181019190915260038201546060820152600490910154608082015292915050565b60008060005b6101cb54811015612ade57612aca6101cb8281548110612aaf57634e487b7160e01b600052603260045260246000fd5b600091825260209091206006600c90920201015483906141fd565b915080612ad681615eab565b915050612a7f565b50919050565b6101c88181548110612af557600080fd5b600091825260209091200154905081565b6000612b10613a4f565b612b18612f2f565b6000612b2384613ab4565b90508060040154600014612b6a5760405162461bcd60e51b815260206004820152600e60248201526d151c985b98da19481b1bd8dad95960921b6044820152606401610819565b60008311612bb05760405162461bcd60e51b81526020600482015260136024820152724d757374206465706f736974203e207a65726f60681b6044820152606401610819565b6101c554612bc6906001600160a01b0316614993565b6001600160a01b0316631852f200336101c86040518363ffffffff1660e01b8152600401612bf5929190615a1d565b60206040518083038186803b158015612c0d57600080fd5b505afa158015612c21573d6000803e3d6000fd5b505050506040513d601f19601f82011682018060405250810190612c45919061572b565b612c615760405162461bcd60e51b815260040161081990615bc6565b6101ca544211612caa5760405162461bcd60e51b81526020600482015260146024820152734e6f74206f70656e20666f722066756e64696e6760601b6044820152606401610819565b8054612cb590614a0a565b15612d1057612cd2600080516020615f7c83398151915233611b3d565b612d105760405162461bcd60e51b815260206004820152600f60248201526e5265712053454e494f525f524f4c4560881b6044820152606401610819565b6101c360009054906101000a90046001600160a01b03166001600160a01b0316631a861d266040518163ffffffff1660e01b815260040160206040518083038186803b158015612d5f57600080fd5b505afa158015612d73573d6000803e3d6000fd5b505050506040513d601f19601f82011682018060405250810190612d979190615863565b6001820154612da690856141fd565b1115612def5760405162461bcd60e51b8152602060048201526018602482015277115e18d95959081b585e081b1a5b5a5d081bd9881c1bdbdb60421b6044820152606401610819565b6001810154612dfe90846141fd565b600182015560408051808201909152838152602081018590526101c554612e2d906001600160a01b0316613aa9565b604051632df2bdb560e11b815282516004820152602083015160248201523360448201526001600160a01b039190911690635be57b6a90606401602060405180830381600087803b158015612e8157600080fd5b505af1158015612e95573d6000803e3d6000fd5b505050506040513d601f19601f82011682018060405250810190612eb99190615863565b6101c554909350612ede90612ed6906001600160a01b0316613337565b333087613342565b8285336001600160a01b03167fcb3ef4109dcd006671348924f00aac8398190a5ff283d6e470d74581513e103687604051612f1b91815260200190565b60405180910390a450506107aa600160c955565b60975460ff16156108425760405162461bcd60e51b815260206004820152601060248201526f14185d5cd8589b194e881c185d5cd95960821b6044820152606401610819565b60006107a78284615e4d565b612f89613fe2565b15612fcc5760405162461bcd60e51b8152602060048201526013602482015272141bdbdb08185b1c9958591e481b1bd8dad959606a1b6044820152606401610819565b6101cb8181548110612fee57634e487b7160e01b600052603260045260246000fd5b90600052602060002090600c0201600501600401546000146130525760405162461bcd60e51b815260206004820152601d60248201527f4a756e696f72207472616e63686520616c7265616479206c6f636b65640000006044820152606401610819565b6101c5546000906130779061306f906001600160a01b0316614a20565b425b906141fd565b9050806101cb838154811061309c57634e487b7160e01b600052603260045260246000fd5b600091825260209091206009600c9092020101556101cb80543091600080516020615f3c83398151915291859081106130e557634e487b7160e01b600052603260045260246000fd5b60009182526020918290206005600c909202010154604080519182529181018590520160405180910390a25050565b600054610100900460ff166108425760405162461bcd60e51b815260040161081990615c24565b600054610100900460ff166131625760405162461bcd60e51b815260040161081990615c24565b6097805460ff19169055565b600054610100900460ff166131955760405162461bcd60e51b815260040161081990615c24565b600160c955565b6110908282613388565b600082815260656020526040808220600101805490849055905190918391839186917fbd79b86ffe0ab8e8776151514217cd7cacd52c909f66475c3af44e129f0b00ff9190a4505050565b6101c55460009061320a906001600160a01b0316614aa2565b6001600160a01b03166301b215516040518163ffffffff1660e01b8152600401602060405180830381600087803b15801561324457600080fd5b505af1158015613258573d6000803e3d6000fd5b505050506040513d601f19601f8201168201806040525081019061327c9190615555565b6101c380546001600160a01b0319166001600160a01b038381169182179092556101c55460405163bb4a250960e01b81529083166004820152306024820152918b166044830152606482018a90526084820189905260a4820188905260c4820187905260e48201869052610104820185905291925063bb4a25099061012401600060405180830381600087803b15801561331557600080fd5b505af1158015613329573d6000803e3d6000fd5b505050505050505050505050565b60006107aa82613fca565b60408051808201909152601881527704661696c656420746f207472616e736665722045524332360441b6020820152610e108585858585614aad565b6109478133614b8b565b6133928282611b3d565b6110905760008281526065602090815260408083206001600160a01b03851684529091529020805460ff191660011790556133ca3390565b6001600160a01b0316816001600160a01b0316837f2f8788117e7eff1d82e926ec794901d17c78024a50270940304540a733656f0d60405160405180910390a45050565b60006001600160a01b03821663b93f9b0a60065b6040518263ffffffff1660e01b815260040161344091815260200190565b60206040518083038186803b15801561345857600080fd5b505afa15801561346c573d6000803e3d6000fd5b505050506040513d601f19601f820116820180604052508101906107aa9190615555565b610e3c8383836040518060400160405280601881526020017704661696c656420746f207472616e736665722045524332360441b815250614be4565b6134d68282611b3d565b156110905760008281526065602090815260408083206001600160a01b0385168085529252808320805460ff1916905551339285917ff6391f5c32d9c69d2a47ea670b442974b53935d1edc7fd64eb21e047a839171b9190a45050565b61353b614cb6565b6097805460ff191690557f5db9ee0a495bf2e6ff9c91a7834c1ba4fdd244a5e8aa4e537bd38aeae4b073aa335b6040516135759190615a09565b60405180910390a1565b6101cb54600090613591906001612f75565b905060006101cb82815481106135b757634e487b7160e01b600052603260045260246000fd5b90600052602060002090600c020160050160040154116136195760405162461bcd60e51b815260206004820152601d60248201527f4a756e696f72207472616e636865206d757374206265206c6f636b65640000006044820152606401610819565b6101cb818154811061363b57634e487b7160e01b600052603260045260246000fd5b90600052602060002090600c0201600001600401546000146136995760405162461bcd60e51b8152602060048201526017602482015276131bd8dac818d85b9b9bdd08189948195e1d195b991959604a1b6044820152606401610819565b60006137116101cb83815481106136c057634e487b7160e01b600052603260045260246000fd5b90600052602060002090600c0201600001600101546101cb84815481106136f757634e487b7160e01b600052603260045260246000fd5b600091825260209091206006600c909202010154906141fd565b6101c3546040805163a4d66daf60e01b815290519293506001600160a01b03909116916327ea6f2b9161382f916137a3918691869163a4d66daf916004808301926020929190829003018186803b15801561376b57600080fd5b505afa15801561377f573d6000803e3d6000fd5b505050506040513d601f19601f820116820180604052508101906130719190615863565b6101c360009054906101000a90046001600160a01b03166001600160a01b0316631a861d266040518163ffffffff1660e01b815260040160206040518083038186803b1580156137f257600080fd5b505afa158015613806573d6000803e3d6000fd5b505050506040513d601f19601f8201168201806040525081019061382a9190615863565b614cff565b6040518263ffffffff1660e01b815260040161384d91815260200190565b600060405180830381600087803b15801561386757600080fd5b505af115801561387b573d6000803e3d6000fd5b50506101c5546000925061389891506001600160a01b0316614a20565b90506138a48142613071565b6101cb84815481106138c657634e487b7160e01b600052603260045260246000fd5b60009182526020909120600c90910201600401556138e48142613071565b6101cb848154811061390657634e487b7160e01b600052603260045260246000fd5b600091825260209091206009600c9092020101556101cb80543091600080516020615f3c833981519152918690811061394f57634e487b7160e01b600052603260045260246000fd5b90600052602060002090600c0201600001600001546101cb868154811061398657634e487b7160e01b600052603260045260246000fd5b60009182526020918290206004600c90920201015460408051938452918301520160405180910390a2306001600160a01b0316600080516020615f3c8339815191526101cb85815481106139ea57634e487b7160e01b600052603260045260246000fd5b90600052602060002090600c0201600501600001546101cb8681548110613a2157634e487b7160e01b600052603260045260246000fd5b60009182526020918290206009600c90920201015460408051938452918301520160405180910390a2505050565b600260c9541415613aa25760405162461bcd60e51b815260206004820152601f60248201527f5265656e7472616e637947756172643a207265656e7472616e742063616c6c006044820152606401610819565b600260c955565b60006107aa82614d15565b60008082118015613ad357506101cb54613acf906002614d2d565b8211155b613b155760405162461bcd60e51b8152602060048201526013602482015272556e737570706f72746564207472616e63686560681b6044820152606401610819565b6000613b416001613b3b6002613b35613b2e8883614d39565b88906141fd565b90614d45565b90612f75565b905060006101cb8281548110613b6757634e487b7160e01b600052603260045260246000fd5b600091825260208220600c909102019150613b83856002614d39565b600114613b935781600501613b95565b815b95945050505050565b6101c5546000908190613bb9906001600160a01b0316613aa9565b6001600160a01b031663430c208133866040518363ffffffff1660e01b8152600401613be6929190615a78565b60206040518083038186803b158015613bfe57600080fd5b505afa158015613c12573d6000803e3d6000fd5b505050506040513d601f19601f82011682018060405250810190613c36919061572b565b613c745760405162461bcd60e51b815260206004820152600f60248201526e2737ba103a37b5b2b71037bbb732b960891b6044820152606401610819565b6101c554613c8a906001600160a01b0316614993565b6001600160a01b0316631852f200336101c86040518363ffffffff1660e01b8152600401613cb9929190615a1d565b60206040518083038186803b158015613cd157600080fd5b505afa158015613ce5573d6000803e3d6000fd5b505050506040513d601f19601f82011682018060405250810190613d09919061572b565b613d255760405162461bcd60e51b815260040161081990615bc6565b60008311613d755760405162461bcd60e51b815260206004820152601c60248201527f4d757374207769746864726177206d6f7265207468616e207a65726f000000006044820152606401610819565b600080613d828888613f60565b90925090506000613d9383836141fd565b905080861115613ddd5760405162461bcd60e51b8152602060048201526015602482015274125b9d985b1a59081c995919595b48185b5bdd5b9d605a1b6044820152606401610819565b60048901544211613e245760405162461bcd60e51b8152602060048201526011602482015270151c985b98da19481a5cc81b1bd8dad959607a1b6044820152606401610819565b6004890154613e42576001890154613e3c9087612f75565b60018a01555b6000613e4e8488614cff565b90506000613e608461382a8a85612f75565b6101c554909150613e79906001600160a01b0316613aa9565b60405163b819220560e01b8152600481018b905260248101839052604481018490526001600160a01b03919091169063b819220590606401600060405180830381600087803b158015613ecb57600080fd5b505af1158015613edf573d6000803e3d6000fd5b50506101c554613f0e9250613efd91506001600160a01b0316613337565b3033613f0985876141fd565b613342565b6020808b0151604080518581529283018490528b9233917f92f2787b755dae547f1701582fe74c7abf277ec14db316dd01abc69cacf7a259910160405180910390a4909a909950975050505050505050565b6000806000613f7785600201548560400151610719565b90506000613f8d86600301548660400151610719565b9050613fa6856080015182612f7590919063ffffffff16565b9350613fbf856060015183612f7590919063ffffffff16565b925050509250929050565b60006001600160a01b03821663b93f9b0a6005613422565b6101cb80546000918291613ff7906001612f75565b8154811061401557634e487b7160e01b600052603260045260246000fd5b90600052602060002090600c02016000016004015411905090565b6101cb546005811061407d5760405162461bcd60e51b815260206004820152601660248201527543616e6e6f7420657863656564203520736c6963657360501b6044820152606401610819565b6040805161012081019091526101cb908060808101806140a36001613071886002614d2d565b8152602001600081526020016140ba600180612998565b815260200160008152602001600081525081526020016040518060a001604052806140f46002613071600289614d2d90919063ffffffff16565b81526020016000815260200161410b600180612998565b81526000602080830182905260409283018290529284528383018190529281018390528454600181810187559584529282902084518051600c90950290910193845580830151958401959095558481015160028401556060808601516003850155608095860151600485015584830151805160058601559283015160068501558282015160078501558281015160088501559190940151600983015592820151600a820155910151600b90910155506101ca55565b6141c8612f2f565b6097805460ff191660011790557f62e78cea01bee320cd4e420270b5ea74000d11b0c9f74754ebdbfc544b05a2586135683390565b60006107a78284615d7f565b614211613fe2565b6142525760405162461bcd60e51b8152602060048201526012602482015271141bdbdb081a5cc81b9bdd081b1bd8dad95960721b6044820152606401610819565b6101c35460408051630735c92b60e21b815290516000926001600160a01b031691631cd724ac916004808301926020929190829003018186803b15801561429857600080fd5b505afa1580156142ac573d6000803e3d6000fd5b505050506040513d601f19601f820116820180604052508101906142d09190615863565b905060008060006101c360009054906101000a90046001600160a01b03166001600160a01b031663a6a25e886040518163ffffffff1660e01b8152600401606060405180830381600087803b15801561432857600080fd5b505af115801561433c573d6000803e3d6000fd5b505050506040513d601f19601f82011682018060405250810190614360919061589c565b9250925092506143f1846101c360009054906101000a90046001600160a01b03166001600160a01b0316631cd724ac6040518163ffffffff1660e01b815260040160206040518083038186803b1580156143b957600080fd5b505afa1580156143cd573d6000803e3d6000fd5b505050506040513d601f19601f82011682018060405250810190613b3b9190615863565b6101cb549094506000906001600160401b0381111561442057634e487b7160e01b600052604160045260246000fd5b604051908082528060200260200182016040528015614449578160200160208202803683370190505b50905060005b6101cb548110156146bd5760007393835ff173f8BfDd52Ae6DCd111fd2DF806600Ca63cee38ee4886101cb858154811061449957634e487b7160e01b600052603260045260246000fd5b90600052602060002090600c0201600b01546101c9546040518463ffffffff1660e01b81526004016144de939291909283526020830191909152604082015260600190565b60206040518083038186803b1580156144f657600080fd5b505af415801561450a573d6000803e3d6000fd5b505050506040513d601f19601f8201168201806040525081019061452e9190615863565b90507393835ff173f8BfDd52Ae6DCd111fd2DF806600Ca63cee38ee4856101cb858154811061456d57634e487b7160e01b600052603260045260246000fd5b90600052602060002090600c0201600b01546101c9546040518463ffffffff1660e01b81526004016145b2939291909283526020830191909152604082015260600190565b60206040518083038186803b1580156145ca57600080fd5b505af41580156145de573d6000803e3d6000fd5b505050506040513d601f19601f820116820180604052508101906146029190615863565b83838151811061462257634e487b7160e01b600052603260045260246000fd5b602002602001018181525050614674816101cb848154811061465457634e487b7160e01b600052603260045260246000fd5b90600052602060002090600c0201600a01546141fd90919063ffffffff16565b6101cb838154811061469657634e487b7160e01b600052603260045260246000fd5b60009182526020909120600a600c90920201015550806146b581615eab565b91505061444f565b5060008311806146cd5750600082115b15614949576101c3546000906146f6906001600160a01b0316856146f186896141fd565b614d51565b905060005b6101cb548110156147fd5761477383828151811061472957634e487b7160e01b600052603260045260246000fd5b60200260200101516101cb838154811061475357634e487b7160e01b600052603260045260246000fd5b90600052602060002090600c0201600b0154612f7590919063ffffffff16565b6101cb828154811061479557634e487b7160e01b600052603260045260246000fd5b90600052602060002090600c0201600b01819055506147e78382815181106147cd57634e487b7160e01b600052603260045260246000fd5b60200260200101516101c954612f7590919063ffffffff16565b6101c955806147f581615eab565b9150506146fb565b506101c554614814906001600160a01b0316614fa5565b6001600160a01b03166328fc33c7856040518263ffffffff1660e01b815260040161484191815260200190565b600060405180830381600087803b15801561485b57600080fd5b505af115801561486f573d6000803e3d6000fd5b50506101c35460408051637df1f1b960e01b815290513094506001600160a01b039092169250637df1f1b9916004808301926020929190829003018186803b1580156148ba57600080fd5b505afa1580156148ce573d6000803e3d6000fd5b505050506040513d601f19601f820116820180604052508101906148f29190615555565b6040805187815260208101879052908101889052606081018490526001600160a01b0391909116907fd1055dc2c2a003a83dfacb1c38db776eab5ef89d77a8f05a3512e8cf57f953ce9060800160405180910390a3505b60405130907fa2380b088ee4df06f20f2bbd1971331d0a68504a9f120cc3b029aeb934f87b3c90600090a25050505050565b60006001600160a01b03821663b93f9b0a6007613422565b60006107aa82614fb0565b60006107aa82614fc8565b6101c554610947906149c3906001600160a01b0316613337565b6101c35460408051808201909152601981527811985a5b1959081d1bc818dbdb1b1958dd081c185e5b595b9d603a1b602082015233916001600160a01b0316908590614aad565b6000614a17826002614d39565b60011492915050565b60006001600160a01b03821663fc56365860075b6040518263ffffffff1660e01b8152600401614a5291815260200190565b60206040518083038186803b158015614a6a57600080fd5b505afa158015614a7e573d6000803e3d6000fd5b505050506040513d601f19601f820116820180604052508101906107aa9190615863565b60006107aa82614fe0565b6001600160a01b038316614ad35760405162461bcd60e51b815260040161081990615ac4565b6040516323b872dd60e01b81526001600160a01b038581166004830152848116602483015260448201849052600091908716906323b872dd90606401602060405180830381600087803b158015614b2957600080fd5b505af1158015614b3d573d6000803e3d6000fd5b505050506040513d601f19601f82011682018060405250810190614b61919061572b565b90508181614b825760405162461bcd60e51b81526004016108199190615a91565b50505050505050565b614b958282611b3d565b61109057614ba281614ff8565b614bad83602061500a565b604051602001614bbe92919061599a565b60408051601f198184030181529082905262461bcd60e51b825261081991600401615a91565b6001600160a01b038316614c0a5760405162461bcd60e51b815260040161081990615ac4565b60405163a9059cbb60e01b81526000906001600160a01b0386169063a9059cbb90614c3b9087908790600401615a78565b602060405180830381600087803b158015614c5557600080fd5b505af1158015614c69573d6000803e3d6000fd5b505050506040513d601f19601f82011682018060405250810190614c8d919061572b565b90508181614cae5760405162461bcd60e51b81526004016108199190615a91565b505050505050565b60975460ff166108425760405162461bcd60e51b815260206004820152601460248201527314185d5cd8589b194e881b9bdd081c185d5cd95960621b6044820152606401610819565b6000818310614d0e57816107a7565b5090919050565b60006001600160a01b03821663b93f9b0a600c613422565b60006107a78284615e2e565b60006107a78284615ec6565b60006107a78284615d97565b6101c554600090614db190614d6e906001600160a01b0316613337565b8530614d7a86886141fd565b6040518060400160405280601981526020017811985a5b1959081d1bc818dbdb1b1958dd081c185e5b595b9d603a1b815250614aad565b6101c554600090614dd690614dce906001600160a01b03166151eb565b606490614d45565b6101c9546101c3546101c6546040516385bd324d60e01b81526101cb600482015260248101899052604481018890526064810185905260848101939093526001600160a01b0390911660a483015260c48201529091506000907393835ff173f8BfDd52Ae6DCd111fd2DF806600Ca906385bd324d9060e40160a06040518083038186803b158015614e6657600080fd5b505af4158015614e7a573d6000803e3d6000fd5b505050506040513d601f19601f82011682018060405250810190614e9e91906157ba565b805160208201516101c9546101c35460405163060f0a6d60e31b81526101cb6004820152602481019490945260448401929092526064830186905260848301526001600160a01b031660a4820152909150614f6d907393835ff173f8BfDd52Ae6DCd111fd2DF806600Ca9063307853689060c40160206040518083038186803b158015614f2a57600080fd5b505af4158015614f3e573d6000803e3d6000fd5b505050506040513d601f19601f82011682018060405250810190614f629190615863565b6040830151906141fd565b9250614f7883615203565b8051614f9c90614f889087615e4d565b6020830151614f979087615e4d565b6152a2565b50509392505050565b60006107aa82615444565b60006001600160a01b03821663b93f9b0a6013613422565b60006001600160a01b03821663b93f9b0a600e613422565b60006001600160a01b03821663b93f9b0a6002613422565b60606107aa6001600160a01b03831660145b60606000615019836002615e2e565b615024906002615d7f565b6001600160401b0381111561504957634e487b7160e01b600052604160045260246000fd5b6040519080825280601f01601f191660200182016040528015615073576020820181803683370190505b509050600360fc1b8160008151811061509c57634e487b7160e01b600052603260045260246000fd5b60200101906001600160f81b031916908160001a905350600f60fb1b816001815181106150d957634e487b7160e01b600052603260045260246000fd5b60200101906001600160f81b031916908160001a90535060006150fd846002615e2e565b615108906001615d7f565b90505b600181111561519c576f181899199a1a9b1b9c1cb0b131b232b360811b85600f166010811061514a57634e487b7160e01b600052603260045260246000fd5b1a60f81b82828151811061516e57634e487b7160e01b600052603260045260246000fd5b60200101906001600160f81b031916908160001a90535060049490941c9361519581615e94565b905061510b565b5083156107a75760405162461bcd60e51b815260206004820181905260248201527f537472696e67733a20686578206c656e67746820696e73756666696369656e746044820152606401610819565b60006001600160a01b03821663fc5636586003614a34565b60405181815230907ff3583f178a8d4f8888c3683f8e948faf9b6eb701c4f1fab265a6ecad1a1ddebb9060200160405180910390a26101c55461094790615252906001600160a01b0316613337565b6101c554309061526a906001600160a01b031661340e565b84604051806040016040528060198152602001784661696c656420746f2073656e6420746f207265736572766560381b815250614aad565b60006152ae8284615d7f565b6101c5549091506000906152ca906001600160a01b0316614fc8565b60405183815290915030907f7241f0c93850189247f92fdf36388422772af3b1bd80f100e6d3a070e8973d339060200160405180910390a26101c55461535a9061531c906001600160a01b0316613337565b3083856040518060400160405280601d81526020017f4661696c656420746f2073656e6420746f2073656e696f7220706f6f6c000000815250614aad565b60405160248101859052604481018490526000906001600160a01b0383169060640160408051601f198184030181529181526020820180516001600160e01b031663511d1c8760e11b179052516153b1919061597e565b6000604051808303816000865af19150503d80600081146153ee576040519150601f19603f3d011682016040523d82523d6000602084013e6153f3565b606091505b5050905080610e105760405162461bcd60e51b815260206004820181905260248201527f4661696c20746f20636f6c6c6563742066726f6d2073656e696f7220706f6f6c6044820152606401610819565b60006001600160a01b03821663b93f9b0a6014613422565b828054828255906000526020600020908101928215615497579160200282015b8281111561549757825182559160200191906001019061547c565b506154a39291506154e2565b5090565b828054828255906000526020600020908101928215615497579160200282015b828111156154975782358255916020019190600101906154c7565b5b808211156154a357600081556001016154e3565b60008083601f840112615508578182fd5b5081356001600160401b0381111561551e578182fd5b6020830191508360208260051b85010111156111ec57600080fd5b60006020828403121561554a578081fd5b81356107a781615f06565b600060208284031215615566578081fd5b81516107a781615f06565b6000806000806000806000806000806000806101608d8f031215615593578788fd5b61559d8d35615f06565b8c359b506155ae60208e0135615f06565b60208d01359a5060408d0135995060608d0135985060808d0135975060a08d0135965060c08d0135955060e08d013594506101008d013593506101208d013592506001600160401b036101408e01351115615607578081fd5b6156188e6101408f01358f016154f7565b81935080925050509295989b509295989b509295989b565b600080600080600080600060e0888a03121561564a578283fd5b873561565581615f06565b9960208901359950604089013598606081013598506080810135975060a0810135965060c00135945092505050565b60008060208385031215615696578182fd5b82356001600160401b038111156156ab578283fd5b6156b7858286016154f7565b90969095509350505050565b600080600080604085870312156156d8578384fd5b84356001600160401b03808211156156ee578586fd5b6156fa888389016154f7565b90965094506020870135915080821115615712578384fd5b5061571f878288016154f7565b95989497509550505050565b60006020828403121561573c578081fd5b815180151581146107a7578182fd5b60006020828403121561575c578081fd5b5035919050565b60008060408385031215615775578182fd5b82359150602083013561578781615f06565b809150509250929050565b6000602082840312156157a3578081fd5b81356001600160e01b0319811681146107a7578182fd5b600060a082840312156157cb578081fd5b6157d3615d49565b82518152602083015160208201526040830151604082015260608301516060820152608083015160808201528091505092915050565b600060a0828403121561581a578081fd5b615822615d49565b825161582d81615f06565b80825250602083015160208201526040830151604082015260608301516060820152608083015160808201528091505092915050565b600060208284031215615874578081fd5b5051919050565b6000806040838503121561588d578182fd5b50508035926020909101359150565b6000806000606084860312156158b0578081fd5b8351925060208401519150604084015190509250925092565b60008060008060008060c087890312156158e1578384fd5b863595506020870135945060408701359350606087013560ff81168114615906578283fd5b9598949750929560808101359460a0909101359350915050565b80518252602081015160208301526040810151604083015260608101516060830152608081015160808301525050565b8054825260018101546020830152600281015460408301526003810154606083015260040154608090910152565b60008251615990818460208701615e64565b9190910192915050565b76020b1b1b2b9b9a1b7b73a3937b61d1030b1b1b7bab73a1604d1b8152600083516159cc816017850160208801615e64565b7001034b99036b4b9b9b4b733903937b6329607d1b60179184019182015283516159fd816028840160208801615e64565b01602801949350505050565b6001600160a01b0391909116815260200190565b6001600160a01b0383168152604060208083018290528354918301829052600084815281812090929091906060850190845b81811015615a6b57845483526001948501949284019201615a4f565b5090979650505050505050565b6001600160a01b03929092168252602082015260400190565b6020815260008251806020840152615ab0816040850160208701615e64565b601f01601f19169190910160400192915050565b6020808252601a908201527f43616e27742073656e6420746f207a65726f2061646472657373000000000000604082015260600190565b6020808252602c908201527f4d75737420686176652070617573657220726f6c6520746f20706572666f726d60408201526b103a3434b99030b1ba34b7b760a11b606082015260800190565b602080825260179082015276111bc81b9bdd081a185d9948185b9e48195b195b595b9d604a1b604082015260600190565b6020808252602e908201527f496e697469616c697a61626c653a20636f6e747261637420697320616c72656160408201526d191e481a5b9a5d1a585b1a5e995960921b606082015260800190565b6020808252601590820152741059191c995cdcc81b9bdd0819dbcb5b1a5cdd1959605a1b604082015260600190565b6020808252601590820152744d7573742068617665206c6f636b657220726f6c6560581b604082015260600190565b6020808252602b908201527f496e697469616c697a61626c653a20636f6e7472616374206973206e6f74206960408201526a6e697469616c697a696e6760a81b606082015260800190565b6020808252602b908201527f4d75737420686176652061646d696e20726f6c6520746f20706572666f726d2060408201526a3a3434b99030b1ba34b7b760a91b606082015260800190565b60a081016107aa8284615920565b6101808101615cd78287615920565b615ce460a0830186615920565b610140820193909352610160015292915050565b6102408101615d078286615920565b8360a0830152615d1a60c0830184615950565b615d2b610160830160058501615950565b600a830154610200830152600b830154610220830152949350505050565b60405160a081016001600160401b0381118282101715615d7957634e487b7160e01b600052604160045260246000fd5b60405290565b60008219821115615d9257615d92615eda565b500190565b600082615da657615da6615ef0565b500490565b60006001600160ff1b0381841382841380821686840486111615615dd157615dd1615eda565b600160ff1b84871282811687830589121615615def57615def615eda565b858712925087820587128484161615615e0a57615e0a615eda565b87850587128184161615615e2057615e20615eda565b505050929093029392505050565b6000816000190483118215151615615e4857615e48615eda565b500290565b600082821015615e5f57615e5f615eda565b500390565b60005b83811015615e7f578181015183820152602001615e67565b83811115615e8e576000848401525b50505050565b600081615ea357615ea3615eda565b506000190190565b6000600019821415615ebf57615ebf615eda565b5060010190565b600082615ed557615ed5615ef0565b500690565b634e487b7160e01b600052601160045260246000fd5b634e487b7160e01b600052601260045260246000fd5b6001600160a01b038116811461094757600080fdfeb19546dff01e856fb3f010c267a7b1c60363cf8a4664e21cc89c26224620214ef839b119f21fb055e13aebac51bca6b308f52ec2d8db8306ce4d092d964e5bd065d7a28e3265b37a6474929f336521b332c1681b933f6cb9f3376673440d862a956624bfbe09c0e98e645d61eba0de4ce88e8cceabdb00fead208d19a8e1209baf9a8bb3cbd6b84fbccefa71ff73e26e798553c6914585a84886212a46a90279a2646970667358221220c6b30dab25eed04b4606d4b3ca17e85382775aa0af97f8398b81e53eb62ba66e64736f6c63430008040033",
  "deployedBytecode": "0x608060405234801561001057600080fd5b50600436106103195760003560e01c80637976323d116101a9578063bf6c87c7116100ef578063d547741f1161009d578063d547741f14610679578063d972e8ad1461068c578063dd0ec241146106ac578063e2a657f9146106b4578063e2bbb158146106c7578063e58378bb146106da578063e63ab1e9146106ef578063f36213671461070457600080fd5b8063bf6c87c71461061c578063bf8bcee414610624578063bfaa8cca14610637578063c290d6911461063f578063c77d569814610652578063cde888451461065c578063cf09e0d01461066f57600080fd5b8063a217fddf11610157578063a217fddf146105b0578063a6a25e88146105b8578063a8deac0e146105c0578063a8f9c4fe146105d3578063aa2a7c4c146105db578063ae6c857a146105ee578063b6db75a014610601578063b9317d861461060957600080fd5b80637976323d1461053057806380b65431146105395780638456cb591461055c57806384cfd4c91461056457806391d14854146105775780639d1105301461058a578063a079a4dd1461059d57600080fd5b80634026478e1161026e57806356ce15601161021c57806356ce1560146104b757806357258094146104ca5780635c975abb146104dd5780635eb185a2146104e857806368dcfdc0146104f257806374f0314f1461050157806378bcd6041461050957806379502c551461051c57600080fd5b80634026478e14610430578063441a3e701461043857806344c08f231461046057806347195e13146104685780634d02fe6f14610489578063515bc3231461049c578063526d81f6146104af57600080fd5b8063248a9ca3116102cb578063248a9ca3146103af57806327ea6f2b146103d25780632ae754be146103e55780632f2ff15d146103fa5780633403c2fc1461040d57806336568abe146104155780633f4ba83a1461042857600080fd5b80630174b4491461031e57806301ffc9a7146103445780630881806c14610367578063097616a3146103715780630cfb14b01461038457806317f769411461038e5780631fe032be1461039c575b600080fd5b61033161032c36600461587b565b610719565b6040519081526020015b60405180910390f35b610357610352366004615792565b6107b0565b604051901515815260200161033b565b61036f6107e5565b005b61036f61037f366004615539565b610844565b6103316101c95481565b6101c7546103579060ff1681565b61036f6103aa366004615630565b61094a565b6103316103bd36600461574b565b60009081526065602052604090206001015490565b61036f6103e036600461574b565b610d90565b610331600080516020615f7c83398151915281565b61036f610408366004615763565b610e17565b61036f610e41565b61036f610423366004615763565b611016565b61036f611094565b61036f6110d0565b61044b61044636600461587b565b611114565b6040805192835260208301919091520161033b565b610331600281565b6101c35461047c906001600160a01b031681565b60405161033b9190615a09565b61044b61049736600461574b565b6111f3565b6103316104aa3660046158c9565b6112d4565b61036f611388565b61036f6104c5366004615539565b611451565b61036f6104d8366004615684565b6116c9565b60975460ff16610357565b6103316101ca5481565b610331670de0b6b3a764000081565b610331603c81565b61036f61051736600461574b565b611735565b6101c55461047c906001600160a01b031681565b6101cb54610331565b61054c61054736600461574b565b6119b1565b60405161033b9493929190615cc8565b61036f611a6a565b61044b610572366004615684565b611aa6565b610357610585366004615763565b611b3d565b61036f6105983660046156c3565b611b68565b61036f6105ab36600461574b565b611c2d565b610331600081565b61036f612192565b61036f6105ce366004615571565b6121a2565b61036f6125c8565b61044b6105e936600461574b565b612627565b61036f6105fc36600461574b565b612727565b610357612761565b61036f610617366004615684565b612780565b61036f612883565b61036f61063236600461574b565b6128df565b610331606481565b61036f61064d36600461574b565b612935565b6103316101c65481565b61033161066a36600461587b565b612998565b6103316101c45481565b61036f610687366004615763565b6129da565b61069f61069a36600461574b565b6129ff565b60405161033b9190615cba565b610331612a79565b6103316106c236600461574b565b612ae4565b6103316106d536600461587b565b612b06565b610331600080516020615f1c83398151915281565b610331600080516020615f5c83398151915281565b610331600080516020615f9c83398151915281565b604051630174b44960e01b8152600481018390526024810182905260009073__$07e8ed413e81d51a5dfb2d8e1b1fa75af5$__90630174b449906044015b60206040518083038186803b15801561076f57600080fd5b505af4158015610783573d6000803e3d6000fd5b505050506040513d601f19601f820116820180604052508101906107a79190615863565b90505b92915050565b60006001600160e01b03198216637965db0b60e01b14806107aa57506301ffc9a760e01b6001600160e01b03198316146107aa565b6107fd600080516020615f9c83398151915233611b3d565b6108225760405162461bcd60e51b815260040161081990615bf5565b60405180910390fd5b61082a612f2f565b6101cb546108429061083d906001612f75565b612f81565b565b600054610100900460ff1661086b5760405162461bcd60e51b815260040161081990615c24565b6001600160a01b0381166108c15760405162461bcd60e51b815260206004820181905260248201527f4f776e65722063616e6e6f7420626520746865207a65726f20616464726573736044820152606401610819565b6108c9613114565b6108d161313b565b6108d961316e565b6108f1600080516020615f1c8339815191528261319c565b610909600080516020615f5c8339815191528261319c565b61092f600080516020615f5c833981519152600080516020615f1c8339815191526131a6565b610947600080516020615f1c833981519152806131a6565b50565b610952612761565b61096e5760405162461bcd60e51b815260040161081990615c6f565b6001600160a01b0387166109c45760405162461bcd60e51b815260206004820152601a60248201527f426f72726f776572206d757374206e6f7420626520656d7074790000000000006044820152606401610819565b83610a0a5760405162461bcd60e51b815260206004820152601660248201527514185e5b595b9d081c195c9a5bd9081a5b9d985b1a5960521b6044820152606401610819565b82610a505760405162461bcd60e51b81526020600482015260166024820152755465726d206d757374206e6f7420626520656d70747960501b6044820152606401610819565b6101c3546001600160a01b0316610a6c888888888888886131f1565b6101c3546040516001623df69160e21b031981526001600160a01b038381166004830152909116602482018190529073__$07e8ed413e81d51a5dfb2d8e1b1fa75af5$__9063ff0825bc9060440160006040518083038186803b158015610ad257600080fd5b505af4158015610ae6573d6000803e3d6000fd5b50506040516302a7e68560e21b815273__$07e8ed413e81d51a5dfb2d8e1b1fa75af5$__9250630a9f9a149150610b21908590600401615a09565b60006040518083038186803b158015610b3957600080fd5b505af4158015610b4d573d6000803e3d6000fd5b505050506000826001600160a01b0316637df1f1b96040518163ffffffff1660e01b815260040160206040518083038186803b158015610b8c57600080fd5b505afa158015610ba0573d6000803e3d6000fd5b505050506040513d601f19601f82011682018060405250810190610bc49190615555565b90506000826001600160a01b0316637df1f1b96040518163ffffffff1660e01b815260040160206040518083038186803b158015610c0157600080fd5b505afa158015610c15573d6000803e3d6000fd5b505050506040513d601f19601f82011682018060405250810190610c399190615555565b9050806001600160a01b0316826001600160a01b031614610c8457610c6c600080516020615f9c833981519152836129da565b610c84600080516020615f9c83398151915282610e17565b6101c554600090610c9d906001600160a01b0316613337565b6001600160a01b03166370a08231866040518263ffffffff1660e01b8152600401610cc89190615a09565b60206040518083038186803b158015610ce057600080fd5b505afa158015610cf4573d6000803e3d6000fd5b505050506040513d601f19601f82011682018060405250810190610d189190615863565b90508015610d42576101c554610d4290610d3a906001600160a01b0316613337565b868684613342565b836001600160a01b0316856001600160a01b03167f987cdba0cba67c68d2c8aba6a4ba6545565eccfb3e2e5ff39579ffd94acaf9bb60405160405180910390a3505050505050505050505050565b610d98612761565b610db45760405162461bcd60e51b815260040161081990615c6f565b6101c3546040516327ea6f2b60e01b8152600481018390526001600160a01b03909116906327ea6f2b906024015b600060405180830381600087803b158015610dfc57600080fd5b505af1158015610e10573d6000803e3d6000fd5b5050505050565b600082815260656020526040902060010154610e328161337e565b610e3c8383613388565b505050565b610e49612761565b610e655760405162461bcd60e51b815260040161081990615c6f565b60975460ff16610e7757610e77611a6a565b6101c554600090610e90906001600160a01b0316613337565b6101c554909150600090610eac906001600160a01b031661340e565b90506000826001600160a01b03166370a08231306040518263ffffffff1660e01b8152600401610edc9190615a09565b60206040518083038186803b158015610ef457600080fd5b505afa158015610f08573d6000803e3d6000fd5b505050506040513d601f19601f82011682018060405250810190610f2c9190615863565b90508015610f3f57610f3f838383613490565b6101c3546040516370a0823160e01b81526000916001600160a01b03808716926370a0823192610f73921690600401615a09565b60206040518083038186803b158015610f8b57600080fd5b505afa158015610f9f573d6000803e3d6000fd5b505050506040513d601f19601f82011682018060405250810190610fc39190615863565b90508015610fe5576101c354610fe59085906001600160a01b03168584613342565b60405130907f1fc1e771236d2e93bb9541cdcb4654ba0fd3fb615b48d829b7b365f03998512690600090a250505050565b6001600160a01b03811633146110865760405162461bcd60e51b815260206004820152602f60248201527f416363657373436f6e74726f6c3a2063616e206f6e6c792072656e6f756e636560448201526e103937b632b9903337b91039b2b63360891b6064820152608401610819565b61109082826134cc565b5050565b6110ac600080516020615f5c83398151915233611b3d565b6110c85760405162461bcd60e51b815260040161081990615afb565b610842613533565b6110e8600080516020615f9c83398151915233611b3d565b6111045760405162461bcd60e51b815260040161081990615bf5565b61110c612f2f565b61084261357f565b60008061111f613a4f565b611127612f2f565b6101c554600090611140906001600160a01b0316613aa9565b6001600160a01b0316638c7a63ae866040518263ffffffff1660e01b815260040161116d91815260200190565b60a06040518083038186803b15801561118557600080fd5b505afa158015611199573d6000803e3d6000fd5b505050506040513d601f19601f820116820180604052508101906111bd9190615809565b905060006111ce8260200151613ab4565b90506111dc81838888613b9e565b9350935050506111ec600160c955565b9250929050565b6101c55460009081908190611210906001600160a01b0316613aa9565b6001600160a01b0316638c7a63ae856040518263ffffffff1660e01b815260040161123d91815260200190565b60a06040518083038186803b15801561125557600080fd5b505afa158015611269573d6000803e3d6000fd5b505050506040513d601f19601f8201168201806040525081019061128d9190615809565b9050600061129e8260200151613ab4565b905080600401546112ac4290565b11156112c7576112bc8183613f60565b935093505050915091565b5060009485945092505050565b6101c5546000906112ed906001600160a01b0316613fca565b60405163d505accf60e01b8152336004820152306024820152604481018890526064810187905260ff8616608482015260a4810185905260c481018490526001600160a01b03919091169063d505accf9060e401600060405180830381600087803b15801561135b57600080fd5b505af115801561136f573d6000803e3d6000fd5b5050505061137d8787612b06565b979650505050505050565b600054610100900460ff16158080156113a85750600054600160ff909116105b806113c25750303b1580156113c2575060005460ff166001145b6113de5760405162461bcd60e51b815260040161081990615b78565b6000805460ff191660011790558015611401576000805461ff0019166101001790555b61140961313b565b8015610947576000805461ff0019169055604051600181527f7f26b83ff96e1f2b6a682f133852f6798a09c465da95921460cefb38474024989060200160405180910390a150565b611459612761565b6114755760405162461bcd60e51b815260040161081990615c6f565b6001600160a01b0381166114cb5760405162461bcd60e51b815260206004820152601a60248201527f4372656469746c696e652063616e6e6f7420626520656d7074790000000000006044820152606401610819565b6101c3546101c5546001600160a01b03918216916000916114ec9116613337565b6001600160a01b03166370a08231836040518263ffffffff1660e01b81526004016115179190615a09565b60206040518083038186803b15801561152f57600080fd5b505afa158015611543573d6000803e3d6000fd5b505050506040513d601f19601f820116820180604052508101906115679190615863565b90508015611591576101c55461159190611589906001600160a01b0316613337565b838584613342565b6040516302a7e68560e21b815273__$07e8ed413e81d51a5dfb2d8e1b1fa75af5$__90630a9f9a14906115c8908590600401615a09565b60006040518083038186803b1580156115e057600080fd5b505af41580156115f4573d6000803e3d6000fd5b50506101c380546001600160a01b0319166001600160a01b0387169081179091556040805163a4d66daf60e01b8152905191935063a4d66daf9250600480820192602092909190829003018186803b15801561164f57600080fd5b505afa158015611663573d6000803e3d6000fd5b505050506040513d601f19601f820116820180604052508101906116879190615863565b506101c3546040516001600160a01b03918216918416907f987cdba0cba67c68d2c8aba6a4ba6545565eccfb3e2e5ff39579ffd94acaf9bb90600090a3505050565b806116e65760405162461bcd60e51b815260040161081990615b47565b60005b81811015610e3c5761172083838381811061171457634e487b7160e01b600052603260045260246000fd5b90506020020135612627565b5050808061172d90615eab565b9150506116e9565b61174d600080516020615f9c83398151915233611b3d565b6117695760405162461bcd60e51b815260040161081990615bf5565b611771612f2f565b611779613fe2565b6117c55760405162461bcd60e51b815260206004820152601a60248201527f43757272656e7420736c696365207374696c6c206163746976650000000000006044820152606401610819565b6101c360009054906101000a90046001600160a01b03166001600160a01b03166381c17a156040518163ffffffff1660e01b815260040160206040518083038186803b15801561181457600080fd5b505afa158015611828573d6000803e3d6000fd5b505050506040513d601f19601f8201168201806040525081019061184c919061572b565b1561188e5760405162461bcd60e51b81526020600482015260126024820152714372656469746c696e65206973206c61746560701b6044820152606401610819565b6101c360009054906101000a90046001600160a01b03166001600160a01b031663457147a76040518163ffffffff1660e01b815260040160206040518083038186803b1580156118dd57600080fd5b505afa1580156118f1573d6000803e3d6000fd5b505050506040513d601f19601f82011682018060405250810190611915919061572b565b6119615760405162461bcd60e51b815260206004820152601d60248201527f4265796f6e64207072696e636970616c20677261636520706572696f640000006044820152606401610819565b61196a81614030565b6101cb5430907f3420dd9c54d6a8846edd2fb39a41c30c31e7bc95b43655dae59f47cc913b60d59061199d906001612f75565b60405190815260200160405180910390a250565b6101cb81815481106119c257600080fd5b90600052602060002090600c0201600091509050806000016040518060a00160405290816000820154815260200160018201548152602001600282015481526020016003820154815260200160048201548152505090806005016040518060a0016040529081600082015481526020016001820154815260200160028201548152602001600382015481526020016004820154815250509080600a01549080600b0154905084565b611a82600080516020615f5c83398151915233611b3d565b611a9e5760405162461bcd60e51b815260040161081990615afb565b6108426141c0565b60008082611ac65760405162461bcd60e51b815260040161081990615b47565b60005b83811015611b3557600080611b03878785818110611af757634e487b7160e01b600052603260045260246000fd5b905060200201356111f3565b9092509050611b128286615d7f565b9450611b1e8185615d7f565b935050508080611b2d90615eab565b915050611ac9565b509250929050565b60009182526065602090815260408084206001600160a01b0393909316845291905290205460ff1690565b828114611bb75760405162461bcd60e51b815260206004820152601e60248201527f546f6b656e7349647320616e6420416d6f756e7473206d69736d6174636800006044820152606401610819565b60005b81811015610e1057611c18858583818110611be557634e487b7160e01b600052603260045260246000fd5b90506020020135848484818110611c0c57634e487b7160e01b600052603260045260246000fd5b90506020020135611114565b50508080611c2590615eab565b915050611bba565b611c45600080516020615f9c83398151915233611b3d565b611c615760405162461bcd60e51b815260040161081990615bf5565b611c69612f2f565b6101c75460ff1615611cb45760405162461bcd60e51b8152602060048201526014602482015273111c985dd91bdddb9cc8185c99481c185d5cd95960621b6044820152606401610819565b611cbc613fe2565b611cc857611cc861357f565b6101cb805460009190611cdc906001612f75565b81548110611cfa57634e487b7160e01b600052603260045260246000fd5b90600052602060002090600c020190506000611d2482600501600201548360050160010154610719565b9050611d48611d4183600001600201548460000160010154610719565b82906141fd565b905080831115611d9a5760405162461bcd60e51b815260206004820152601b60248201527f496e73756666696369656e742066756e647320696e20736c69636500000000006044820152606401610819565b6101c35460405163a079a4dd60e01b8152600481018590526001600160a01b039091169063a079a4dd90602401600060405180830381600087803b158015611de157600080fd5b505af1158015611df5573d6000803e3d6000fd5b505050506000611e0e8483612f7590919063ffffffff16565b600784015460028501546040805160a081018252600588015481526006880154602082015280820184905260088801546060820152600988015460808201529051634ec167e960e11b81529394509192909173__$07e8ed413e81d51a5dfb2d8e1b1fa75af5$__91639d82cfd291611e8c9187908a90600401615cf8565b60206040518083038186803b158015611ea457600080fd5b505af4158015611eb8573d6000803e3d6000fd5b505050506040513d601f19601f82011682018060405250810190611edc9190615863565b60078601556040805160a08101825286548152600187015460208201526002870154818301526003870154606082015260048088015460808301529151634ec167e960e11b815273__$07e8ed413e81d51a5dfb2d8e1b1fa75af5$__92639d82cfd292611f4f92909188918b9101615cf8565b60206040518083038186803b158015611f6757600080fd5b505af4158015611f7b573d6000803e3d6000fd5b505050506040513d601f19601f82011682018060405250810190611f9f9190615863565b6002860155600b850154611fb390876141fd565b600b8601556101c954611fc690876141fd565b6101c9556101c35460408051637df1f1b960e01b815290516000926001600160a01b031691637df1f1b9916004808301926020929190829003018186803b15801561201057600080fd5b505afa158015612024573d6000803e3d6000fd5b505050506040513d601f19601f820116820180604052508101906120489190615555565b6101c55490915061206d90612065906001600160a01b0316613337565b30838a613342565b806001600160a01b03167f7411b87a3c039bdfd8f3510b21e8bd0736265f53513735e1f4aa7b4f306b728d886040516120a891815260200190565b60405180910390a26005860154600787015430907f42a55d7508b1c40b53524cf7cc2558b0f6bc7c4f262a3e929b65cd48bec2b687906120e88782612f75565b6120f490600019615dab565b60088b0154604080519384526020840192909252908201526000606082015260800160405180910390a38554600287015430907f42a55d7508b1c40b53524cf7cc2558b0f6bc7c4f262a3e929b65cd48bec2b687906121538682612f75565b61215f90600019615dab565b60038b0154604080519384526020840192909252908201526000606082015260800160405180910390a350505050505050565b61219a612f2f565b610842614209565b600054610100900460ff16158080156121c25750600054600160ff909116105b806121dc5750303b1580156121dc575060005460ff166001145b6121f85760405162461bcd60e51b815260040161081990615b78565b6000805460ff19166001179055801561221b576000805461ff0019166101001790555b6001600160a01b038d161580159061223b57506001600160a01b038c1615155b6122815760405162461bcd60e51b815260206004820152601760248201527610dbdb999a59cbd89bdc9c9bddd95c881a5b9d985b1a59604a1b6044820152606401610819565b6101c580546001600160a01b0319166001600160a01b038f169081179091556000906122ac9061497b565b90506001600160a01b0381166122f45760405162461bcd60e51b815260206004820152600d60248201526c13dddb995c881a5b9d985b1a59609a1b6044820152606401610819565b6122fd81610844565b61230685614030565b6123158d8c8c8c8c8c8c6131f1565b426101c4556101c68c9055826123d55760408051602081019091526101c55460009190819061234c906001600160a01b0316614993565b6001600160a01b0316639b56d7886040518163ffffffff1660e01b815260040160206040518083038186803b15801561238457600080fd5b505afa158015612398573d6000803e3d6000fd5b505050506040513d601f19601f820116820180604052508101906123bc9190615863565b905290506123ce6101c882600161545c565b50506123e4565b6123e26101c885856154a7565b505b6123fc600080516020615f9c8339815191528e61319c565b612414600080516020615f9c8339815191528261319c565b61243a600080516020615f9c833981519152600080516020615f1c8339815191526131a6565b612460600080516020615f7c833981519152600080516020615f1c8339815191526131a6565b6101c55461248f90600080516020615f7c8339815191529061248a906001600160a01b031661499e565b61319c565b6101c5546000906124a8906001600160a01b0316613337565b6001600160a01b031663095ea7b3306000196040518363ffffffff1660e01b81526004016124d7929190615a78565b602060405180830381600087803b1580156124f157600080fd5b505af1158015612505573d6000803e3d6000fd5b505050506040513d601f19601f82011682018060405250810190612529919061572b565b9050806125715760405162461bcd60e51b81526020600482015260166024820152754661696c656420746f20617070726f7665205553444360501b6044820152606401610819565b505080156125b9576000805461ff0019169055604051600181527f7f26b83ff96e1f2b6a682f133852f6798a09c465da95921460cefb38474024989060200160405180910390a15b50505050505050505050505050565b6125d0612761565b6125ec5760405162461bcd60e51b815260040161081990615c6f565b6101c7805460ff1916600117905560405130907f90d9b09c68a7e1312ce22801552b47265d77db9496383d51374b4058545447d790600090a2565b600080612632613a4f565b61263a612f2f565b6101c554600090612653906001600160a01b0316613aa9565b6001600160a01b0316638c7a63ae856040518263ffffffff1660e01b815260040161268091815260200190565b60a06040518083038186803b15801561269857600080fd5b505afa1580156126ac573d6000803e3d6000fd5b505050506040513d601f19601f820116820180604052508101906126d09190615809565b905060006126e18260200151613ab4565b90506000806126f08385613f60565b9092509050600061270183836141fd565b905061270f84868a84613b9e565b965096505050505050612722600160c955565b915091565b61273f600080516020615f9c83398151915233611b3d565b61275b5760405162461bcd60e51b815260040161081990615bf5565b6101ca55565b600061277b600080516020615f1c83398151915233611b3d565b905090565b612798600080516020615f9c83398151915233611b3d565b6127b45760405162461bcd60e51b815260040161081990615bf5565b6101cb6000815481106127d757634e487b7160e01b600052603260045260246000fd5b90600052602060002090600c020160050160010154600014801561283257506101cb60008154811061281957634e487b7160e01b600052603260045260246000fd5b90600052602060002090600c0201600001600101546000145b6128765760405162461bcd60e51b81526020600482015260156024820152744d757374206e6f7420686176652062616c616e636560581b6044820152606401610819565b610e3c6101c883836154a7565b61288b612761565b6128a75760405162461bcd60e51b815260040161081990615c6f565b6101c7805460ff1916905560405130907f7184039938737267597232635b117c924371ac877d4329f2dfa5ca674c5cc4a590600090a2565b6128e7612761565b6129035760405162461bcd60e51b815260040161081990615c6f565b6101c354604051632fe2f3b960e21b8152600481018390526001600160a01b039091169063bf8bcee490602401610de2565b61293d612f2f565b600081116129875760405162461bcd60e51b81526020600482015260176024820152764d75737420706179206d6f7265207468616e207a65726f60481b6044820152606401610819565b612990816149a9565b610947614209565b60405163cde8884560e01b8152600481018390526024810182905260009073__$07e8ed413e81d51a5dfb2d8e1b1fa75af5$__9063cde8884590604401610757565b6000828152606560205260409020600101546129f58161337e565b610e3c83836134cc565b612a316040518060a0016040528060008152602001600081526020016000815260200160008152602001600081525090565b612a3a82613ab4565b6040805160a081018252825481526001830154602082015260028301549181019190915260038201546060820152600490910154608082015292915050565b60008060005b6101cb54811015612ade57612aca6101cb8281548110612aaf57634e487b7160e01b600052603260045260246000fd5b600091825260209091206006600c90920201015483906141fd565b915080612ad681615eab565b915050612a7f565b50919050565b6101c88181548110612af557600080fd5b600091825260209091200154905081565b6000612b10613a4f565b612b18612f2f565b6000612b2384613ab4565b90508060040154600014612b6a5760405162461bcd60e51b815260206004820152600e60248201526d151c985b98da19481b1bd8dad95960921b6044820152606401610819565b60008311612bb05760405162461bcd60e51b81526020600482015260136024820152724d757374206465706f736974203e207a65726f60681b6044820152606401610819565b6101c554612bc6906001600160a01b0316614993565b6001600160a01b0316631852f200336101c86040518363ffffffff1660e01b8152600401612bf5929190615a1d565b60206040518083038186803b158015612c0d57600080fd5b505afa158015612c21573d6000803e3d6000fd5b505050506040513d601f19601f82011682018060405250810190612c45919061572b565b612c615760405162461bcd60e51b815260040161081990615bc6565b6101ca544211612caa5760405162461bcd60e51b81526020600482015260146024820152734e6f74206f70656e20666f722066756e64696e6760601b6044820152606401610819565b8054612cb590614a0a565b15612d1057612cd2600080516020615f7c83398151915233611b3d565b612d105760405162461bcd60e51b815260206004820152600f60248201526e5265712053454e494f525f524f4c4560881b6044820152606401610819565b6101c360009054906101000a90046001600160a01b03166001600160a01b0316631a861d266040518163ffffffff1660e01b815260040160206040518083038186803b158015612d5f57600080fd5b505afa158015612d73573d6000803e3d6000fd5b505050506040513d601f19601f82011682018060405250810190612d979190615863565b6001820154612da690856141fd565b1115612def5760405162461bcd60e51b8152602060048201526018602482015277115e18d95959081b585e081b1a5b5a5d081bd9881c1bdbdb60421b6044820152606401610819565b6001810154612dfe90846141fd565b600182015560408051808201909152838152602081018590526101c554612e2d906001600160a01b0316613aa9565b604051632df2bdb560e11b815282516004820152602083015160248201523360448201526001600160a01b039190911690635be57b6a90606401602060405180830381600087803b158015612e8157600080fd5b505af1158015612e95573d6000803e3d6000fd5b505050506040513d601f19601f82011682018060405250810190612eb99190615863565b6101c554909350612ede90612ed6906001600160a01b0316613337565b333087613342565b8285336001600160a01b03167fcb3ef4109dcd006671348924f00aac8398190a5ff283d6e470d74581513e103687604051612f1b91815260200190565b60405180910390a450506107aa600160c955565b60975460ff16156108425760405162461bcd60e51b815260206004820152601060248201526f14185d5cd8589b194e881c185d5cd95960821b6044820152606401610819565b60006107a78284615e4d565b612f89613fe2565b15612fcc5760405162461bcd60e51b8152602060048201526013602482015272141bdbdb08185b1c9958591e481b1bd8dad959606a1b6044820152606401610819565b6101cb8181548110612fee57634e487b7160e01b600052603260045260246000fd5b90600052602060002090600c0201600501600401546000146130525760405162461bcd60e51b815260206004820152601d60248201527f4a756e696f72207472616e63686520616c7265616479206c6f636b65640000006044820152606401610819565b6101c5546000906130779061306f906001600160a01b0316614a20565b425b906141fd565b9050806101cb838154811061309c57634e487b7160e01b600052603260045260246000fd5b600091825260209091206009600c9092020101556101cb80543091600080516020615f3c83398151915291859081106130e557634e487b7160e01b600052603260045260246000fd5b60009182526020918290206005600c909202010154604080519182529181018590520160405180910390a25050565b600054610100900460ff166108425760405162461bcd60e51b815260040161081990615c24565b600054610100900460ff166131625760405162461bcd60e51b815260040161081990615c24565b6097805460ff19169055565b600054610100900460ff166131955760405162461bcd60e51b815260040161081990615c24565b600160c955565b6110908282613388565b600082815260656020526040808220600101805490849055905190918391839186917fbd79b86ffe0ab8e8776151514217cd7cacd52c909f66475c3af44e129f0b00ff9190a4505050565b6101c55460009061320a906001600160a01b0316614aa2565b6001600160a01b03166301b215516040518163ffffffff1660e01b8152600401602060405180830381600087803b15801561324457600080fd5b505af1158015613258573d6000803e3d6000fd5b505050506040513d601f19601f8201168201806040525081019061327c9190615555565b6101c380546001600160a01b0319166001600160a01b038381169182179092556101c55460405163bb4a250960e01b81529083166004820152306024820152918b166044830152606482018a90526084820189905260a4820188905260c4820187905260e48201869052610104820185905291925063bb4a25099061012401600060405180830381600087803b15801561331557600080fd5b505af1158015613329573d6000803e3d6000fd5b505050505050505050505050565b60006107aa82613fca565b60408051808201909152601881527704661696c656420746f207472616e736665722045524332360441b6020820152610e108585858585614aad565b6109478133614b8b565b6133928282611b3d565b6110905760008281526065602090815260408083206001600160a01b03851684529091529020805460ff191660011790556133ca3390565b6001600160a01b0316816001600160a01b0316837f2f8788117e7eff1d82e926ec794901d17c78024a50270940304540a733656f0d60405160405180910390a45050565b60006001600160a01b03821663b93f9b0a60065b6040518263ffffffff1660e01b815260040161344091815260200190565b60206040518083038186803b15801561345857600080fd5b505afa15801561346c573d6000803e3d6000fd5b505050506040513d601f19601f820116820180604052508101906107aa9190615555565b610e3c8383836040518060400160405280601881526020017704661696c656420746f207472616e736665722045524332360441b815250614be4565b6134d68282611b3d565b156110905760008281526065602090815260408083206001600160a01b0385168085529252808320805460ff1916905551339285917ff6391f5c32d9c69d2a47ea670b442974b53935d1edc7fd64eb21e047a839171b9190a45050565b61353b614cb6565b6097805460ff191690557f5db9ee0a495bf2e6ff9c91a7834c1ba4fdd244a5e8aa4e537bd38aeae4b073aa335b6040516135759190615a09565b60405180910390a1565b6101cb54600090613591906001612f75565b905060006101cb82815481106135b757634e487b7160e01b600052603260045260246000fd5b90600052602060002090600c020160050160040154116136195760405162461bcd60e51b815260206004820152601d60248201527f4a756e696f72207472616e636865206d757374206265206c6f636b65640000006044820152606401610819565b6101cb818154811061363b57634e487b7160e01b600052603260045260246000fd5b90600052602060002090600c0201600001600401546000146136995760405162461bcd60e51b8152602060048201526017602482015276131bd8dac818d85b9b9bdd08189948195e1d195b991959604a1b6044820152606401610819565b60006137116101cb83815481106136c057634e487b7160e01b600052603260045260246000fd5b90600052602060002090600c0201600001600101546101cb84815481106136f757634e487b7160e01b600052603260045260246000fd5b600091825260209091206006600c909202010154906141fd565b6101c3546040805163a4d66daf60e01b815290519293506001600160a01b03909116916327ea6f2b9161382f916137a3918691869163a4d66daf916004808301926020929190829003018186803b15801561376b57600080fd5b505afa15801561377f573d6000803e3d6000fd5b505050506040513d601f19601f820116820180604052508101906130719190615863565b6101c360009054906101000a90046001600160a01b03166001600160a01b0316631a861d266040518163ffffffff1660e01b815260040160206040518083038186803b1580156137f257600080fd5b505afa158015613806573d6000803e3d6000fd5b505050506040513d601f19601f8201168201806040525081019061382a9190615863565b614cff565b6040518263ffffffff1660e01b815260040161384d91815260200190565b600060405180830381600087803b15801561386757600080fd5b505af115801561387b573d6000803e3d6000fd5b50506101c5546000925061389891506001600160a01b0316614a20565b90506138a48142613071565b6101cb84815481106138c657634e487b7160e01b600052603260045260246000fd5b60009182526020909120600c90910201600401556138e48142613071565b6101cb848154811061390657634e487b7160e01b600052603260045260246000fd5b600091825260209091206009600c9092020101556101cb80543091600080516020615f3c833981519152918690811061394f57634e487b7160e01b600052603260045260246000fd5b90600052602060002090600c0201600001600001546101cb868154811061398657634e487b7160e01b600052603260045260246000fd5b60009182526020918290206004600c90920201015460408051938452918301520160405180910390a2306001600160a01b0316600080516020615f3c8339815191526101cb85815481106139ea57634e487b7160e01b600052603260045260246000fd5b90600052602060002090600c0201600501600001546101cb8681548110613a2157634e487b7160e01b600052603260045260246000fd5b60009182526020918290206009600c90920201015460408051938452918301520160405180910390a2505050565b600260c9541415613aa25760405162461bcd60e51b815260206004820152601f60248201527f5265656e7472616e637947756172643a207265656e7472616e742063616c6c006044820152606401610819565b600260c955565b60006107aa82614d15565b60008082118015613ad357506101cb54613acf906002614d2d565b8211155b613b155760405162461bcd60e51b8152602060048201526013602482015272556e737570706f72746564207472616e63686560681b6044820152606401610819565b6000613b416001613b3b6002613b35613b2e8883614d39565b88906141fd565b90614d45565b90612f75565b905060006101cb8281548110613b6757634e487b7160e01b600052603260045260246000fd5b600091825260208220600c909102019150613b83856002614d39565b600114613b935781600501613b95565b815b95945050505050565b6101c5546000908190613bb9906001600160a01b0316613aa9565b6001600160a01b031663430c208133866040518363ffffffff1660e01b8152600401613be6929190615a78565b60206040518083038186803b158015613bfe57600080fd5b505afa158015613c12573d6000803e3d6000fd5b505050506040513d601f19601f82011682018060405250810190613c36919061572b565b613c745760405162461bcd60e51b815260206004820152600f60248201526e2737ba103a37b5b2b71037bbb732b960891b6044820152606401610819565b6101c554613c8a906001600160a01b0316614993565b6001600160a01b0316631852f200336101c86040518363ffffffff1660e01b8152600401613cb9929190615a1d565b60206040518083038186803b158015613cd157600080fd5b505afa158015613ce5573d6000803e3d6000fd5b505050506040513d601f19601f82011682018060405250810190613d09919061572b565b613d255760405162461bcd60e51b815260040161081990615bc6565b60008311613d755760405162461bcd60e51b815260206004820152601c60248201527f4d757374207769746864726177206d6f7265207468616e207a65726f000000006044820152606401610819565b600080613d828888613f60565b90925090506000613d9383836141fd565b905080861115613ddd5760405162461bcd60e51b8152602060048201526015602482015274125b9d985b1a59081c995919595b48185b5bdd5b9d605a1b6044820152606401610819565b60048901544211613e245760405162461bcd60e51b8152602060048201526011602482015270151c985b98da19481a5cc81b1bd8dad959607a1b6044820152606401610819565b6004890154613e42576001890154613e3c9087612f75565b60018a01555b6000613e4e8488614cff565b90506000613e608461382a8a85612f75565b6101c554909150613e79906001600160a01b0316613aa9565b60405163b819220560e01b8152600481018b905260248101839052604481018490526001600160a01b03919091169063b819220590606401600060405180830381600087803b158015613ecb57600080fd5b505af1158015613edf573d6000803e3d6000fd5b50506101c554613f0e9250613efd91506001600160a01b0316613337565b3033613f0985876141fd565b613342565b6020808b0151604080518581529283018490528b9233917f92f2787b755dae547f1701582fe74c7abf277ec14db316dd01abc69cacf7a259910160405180910390a4909a909950975050505050505050565b6000806000613f7785600201548560400151610719565b90506000613f8d86600301548660400151610719565b9050613fa6856080015182612f7590919063ffffffff16565b9350613fbf856060015183612f7590919063ffffffff16565b925050509250929050565b60006001600160a01b03821663b93f9b0a6005613422565b6101cb80546000918291613ff7906001612f75565b8154811061401557634e487b7160e01b600052603260045260246000fd5b90600052602060002090600c02016000016004015411905090565b6101cb546005811061407d5760405162461bcd60e51b815260206004820152601660248201527543616e6e6f7420657863656564203520736c6963657360501b6044820152606401610819565b6040805161012081019091526101cb908060808101806140a36001613071886002614d2d565b8152602001600081526020016140ba600180612998565b815260200160008152602001600081525081526020016040518060a001604052806140f46002613071600289614d2d90919063ffffffff16565b81526020016000815260200161410b600180612998565b81526000602080830182905260409283018290529284528383018190529281018390528454600181810187559584529282902084518051600c90950290910193845580830151958401959095558481015160028401556060808601516003850155608095860151600485015584830151805160058601559283015160068501558282015160078501558281015160088501559190940151600983015592820151600a820155910151600b90910155506101ca55565b6141c8612f2f565b6097805460ff191660011790557f62e78cea01bee320cd4e420270b5ea74000d11b0c9f74754ebdbfc544b05a2586135683390565b60006107a78284615d7f565b614211613fe2565b6142525760405162461bcd60e51b8152602060048201526012602482015271141bdbdb081a5cc81b9bdd081b1bd8dad95960721b6044820152606401610819565b6101c35460408051630735c92b60e21b815290516000926001600160a01b031691631cd724ac916004808301926020929190829003018186803b15801561429857600080fd5b505afa1580156142ac573d6000803e3d6000fd5b505050506040513d601f19601f820116820180604052508101906142d09190615863565b905060008060006101c360009054906101000a90046001600160a01b03166001600160a01b031663a6a25e886040518163ffffffff1660e01b8152600401606060405180830381600087803b15801561432857600080fd5b505af115801561433c573d6000803e3d6000fd5b505050506040513d601f19601f82011682018060405250810190614360919061589c565b9250925092506143f1846101c360009054906101000a90046001600160a01b03166001600160a01b0316631cd724ac6040518163ffffffff1660e01b815260040160206040518083038186803b1580156143b957600080fd5b505afa1580156143cd573d6000803e3d6000fd5b505050506040513d601f19601f82011682018060405250810190613b3b9190615863565b6101cb549094506000906001600160401b0381111561442057634e487b7160e01b600052604160045260246000fd5b604051908082528060200260200182016040528015614449578160200160208202803683370190505b50905060005b6101cb548110156146bd57600073__$07e8ed413e81d51a5dfb2d8e1b1fa75af5$__63cee38ee4886101cb858154811061449957634e487b7160e01b600052603260045260246000fd5b90600052602060002090600c0201600b01546101c9546040518463ffffffff1660e01b81526004016144de939291909283526020830191909152604082015260600190565b60206040518083038186803b1580156144f657600080fd5b505af415801561450a573d6000803e3d6000fd5b505050506040513d601f19601f8201168201806040525081019061452e9190615863565b905073__$07e8ed413e81d51a5dfb2d8e1b1fa75af5$__63cee38ee4856101cb858154811061456d57634e487b7160e01b600052603260045260246000fd5b90600052602060002090600c0201600b01546101c9546040518463ffffffff1660e01b81526004016145b2939291909283526020830191909152604082015260600190565b60206040518083038186803b1580156145ca57600080fd5b505af41580156145de573d6000803e3d6000fd5b505050506040513d601f19601f820116820180604052508101906146029190615863565b83838151811061462257634e487b7160e01b600052603260045260246000fd5b602002602001018181525050614674816101cb848154811061465457634e487b7160e01b600052603260045260246000fd5b90600052602060002090600c0201600a01546141fd90919063ffffffff16565b6101cb838154811061469657634e487b7160e01b600052603260045260246000fd5b60009182526020909120600a600c90920201015550806146b581615eab565b91505061444f565b5060008311806146cd5750600082115b15614949576101c3546000906146f6906001600160a01b0316856146f186896141fd565b614d51565b905060005b6101cb548110156147fd5761477383828151811061472957634e487b7160e01b600052603260045260246000fd5b60200260200101516101cb838154811061475357634e487b7160e01b600052603260045260246000fd5b90600052602060002090600c0201600b0154612f7590919063ffffffff16565b6101cb828154811061479557634e487b7160e01b600052603260045260246000fd5b90600052602060002090600c0201600b01819055506147e78382815181106147cd57634e487b7160e01b600052603260045260246000fd5b60200260200101516101c954612f7590919063ffffffff16565b6101c955806147f581615eab565b9150506146fb565b506101c554614814906001600160a01b0316614fa5565b6001600160a01b03166328fc33c7856040518263ffffffff1660e01b815260040161484191815260200190565b600060405180830381600087803b15801561485b57600080fd5b505af115801561486f573d6000803e3d6000fd5b50506101c35460408051637df1f1b960e01b815290513094506001600160a01b039092169250637df1f1b9916004808301926020929190829003018186803b1580156148ba57600080fd5b505afa1580156148ce573d6000803e3d6000fd5b505050506040513d601f19601f820116820180604052508101906148f29190615555565b6040805187815260208101879052908101889052606081018490526001600160a01b0391909116907fd1055dc2c2a003a83dfacb1c38db776eab5ef89d77a8f05a3512e8cf57f953ce9060800160405180910390a3505b60405130907fa2380b088ee4df06f20f2bbd1971331d0a68504a9f120cc3b029aeb934f87b3c90600090a25050505050565b60006001600160a01b03821663b93f9b0a6007613422565b60006107aa82614fb0565b60006107aa82614fc8565b6101c554610947906149c3906001600160a01b0316613337565b6101c35460408051808201909152601981527811985a5b1959081d1bc818dbdb1b1958dd081c185e5b595b9d603a1b602082015233916001600160a01b0316908590614aad565b6000614a17826002614d39565b60011492915050565b60006001600160a01b03821663fc56365860075b6040518263ffffffff1660e01b8152600401614a5291815260200190565b60206040518083038186803b158015614a6a57600080fd5b505afa158015614a7e573d6000803e3d6000fd5b505050506040513d601f19601f820116820180604052508101906107aa9190615863565b60006107aa82614fe0565b6001600160a01b038316614ad35760405162461bcd60e51b815260040161081990615ac4565b6040516323b872dd60e01b81526001600160a01b038581166004830152848116602483015260448201849052600091908716906323b872dd90606401602060405180830381600087803b158015614b2957600080fd5b505af1158015614b3d573d6000803e3d6000fd5b505050506040513d601f19601f82011682018060405250810190614b61919061572b565b90508181614b825760405162461bcd60e51b81526004016108199190615a91565b50505050505050565b614b958282611b3d565b61109057614ba281614ff8565b614bad83602061500a565b604051602001614bbe92919061599a565b60408051601f198184030181529082905262461bcd60e51b825261081991600401615a91565b6001600160a01b038316614c0a5760405162461bcd60e51b815260040161081990615ac4565b60405163a9059cbb60e01b81526000906001600160a01b0386169063a9059cbb90614c3b9087908790600401615a78565b602060405180830381600087803b158015614c5557600080fd5b505af1158015614c69573d6000803e3d6000fd5b505050506040513d601f19601f82011682018060405250810190614c8d919061572b565b90508181614cae5760405162461bcd60e51b81526004016108199190615a91565b505050505050565b60975460ff166108425760405162461bcd60e51b815260206004820152601460248201527314185d5cd8589b194e881b9bdd081c185d5cd95960621b6044820152606401610819565b6000818310614d0e57816107a7565b5090919050565b60006001600160a01b03821663b93f9b0a600c613422565b60006107a78284615e2e565b60006107a78284615ec6565b60006107a78284615d97565b6101c554600090614db190614d6e906001600160a01b0316613337565b8530614d7a86886141fd565b6040518060400160405280601981526020017811985a5b1959081d1bc818dbdb1b1958dd081c185e5b595b9d603a1b815250614aad565b6101c554600090614dd690614dce906001600160a01b03166151eb565b606490614d45565b6101c9546101c3546101c6546040516385bd324d60e01b81526101cb600482015260248101899052604481018890526064810185905260848101939093526001600160a01b0390911660a483015260c482015290915060009073__$07e8ed413e81d51a5dfb2d8e1b1fa75af5$__906385bd324d9060e40160a06040518083038186803b158015614e6657600080fd5b505af4158015614e7a573d6000803e3d6000fd5b505050506040513d601f19601f82011682018060405250810190614e9e91906157ba565b805160208201516101c9546101c35460405163060f0a6d60e31b81526101cb6004820152602481019490945260448401929092526064830186905260848301526001600160a01b031660a4820152909150614f6d9073__$07e8ed413e81d51a5dfb2d8e1b1fa75af5$__9063307853689060c40160206040518083038186803b158015614f2a57600080fd5b505af4158015614f3e573d6000803e3d6000fd5b505050506040513d601f19601f82011682018060405250810190614f629190615863565b6040830151906141fd565b9250614f7883615203565b8051614f9c90614f889087615e4d565b6020830151614f979087615e4d565b6152a2565b50509392505050565b60006107aa82615444565b60006001600160a01b03821663b93f9b0a6013613422565b60006001600160a01b03821663b93f9b0a600e613422565b60006001600160a01b03821663b93f9b0a6002613422565b60606107aa6001600160a01b03831660145b60606000615019836002615e2e565b615024906002615d7f565b6001600160401b0381111561504957634e487b7160e01b600052604160045260246000fd5b6040519080825280601f01601f191660200182016040528015615073576020820181803683370190505b509050600360fc1b8160008151811061509c57634e487b7160e01b600052603260045260246000fd5b60200101906001600160f81b031916908160001a905350600f60fb1b816001815181106150d957634e487b7160e01b600052603260045260246000fd5b60200101906001600160f81b031916908160001a90535060006150fd846002615e2e565b615108906001615d7f565b90505b600181111561519c576f181899199a1a9b1b9c1cb0b131b232b360811b85600f166010811061514a57634e487b7160e01b600052603260045260246000fd5b1a60f81b82828151811061516e57634e487b7160e01b600052603260045260246000fd5b60200101906001600160f81b031916908160001a90535060049490941c9361519581615e94565b905061510b565b5083156107a75760405162461bcd60e51b815260206004820181905260248201527f537472696e67733a20686578206c656e67746820696e73756666696369656e746044820152606401610819565b60006001600160a01b03821663fc5636586003614a34565b60405181815230907ff3583f178a8d4f8888c3683f8e948faf9b6eb701c4f1fab265a6ecad1a1ddebb9060200160405180910390a26101c55461094790615252906001600160a01b0316613337565b6101c554309061526a906001600160a01b031661340e565b84604051806040016040528060198152602001784661696c656420746f2073656e6420746f207265736572766560381b815250614aad565b60006152ae8284615d7f565b6101c5549091506000906152ca906001600160a01b0316614fc8565b60405183815290915030907f7241f0c93850189247f92fdf36388422772af3b1bd80f100e6d3a070e8973d339060200160405180910390a26101c55461535a9061531c906001600160a01b0316613337565b3083856040518060400160405280601d81526020017f4661696c656420746f2073656e6420746f2073656e696f7220706f6f6c000000815250614aad565b60405160248101859052604481018490526000906001600160a01b0383169060640160408051601f198184030181529181526020820180516001600160e01b031663511d1c8760e11b179052516153b1919061597e565b6000604051808303816000865af19150503d80600081146153ee576040519150601f19603f3d011682016040523d82523d6000602084013e6153f3565b606091505b5050905080610e105760405162461bcd60e51b815260206004820181905260248201527f4661696c20746f20636f6c6c6563742066726f6d2073656e696f7220706f6f6c6044820152606401610819565b60006001600160a01b03821663b93f9b0a6014613422565b828054828255906000526020600020908101928215615497579160200282015b8281111561549757825182559160200191906001019061547c565b506154a39291506154e2565b5090565b828054828255906000526020600020908101928215615497579160200282015b828111156154975782358255916020019190600101906154c7565b5b808211156154a357600081556001016154e3565b60008083601f840112615508578182fd5b5081356001600160401b0381111561551e578182fd5b6020830191508360208260051b85010111156111ec57600080fd5b60006020828403121561554a578081fd5b81356107a781615f06565b600060208284031215615566578081fd5b81516107a781615f06565b6000806000806000806000806000806000806101608d8f031215615593578788fd5b61559d8d35615f06565b8c359b506155ae60208e0135615f06565b60208d01359a5060408d0135995060608d0135985060808d0135975060a08d0135965060c08d0135955060e08d013594506101008d013593506101208d013592506001600160401b036101408e01351115615607578081fd5b6156188e6101408f01358f016154f7565b81935080925050509295989b509295989b509295989b565b600080600080600080600060e0888a03121561564a578283fd5b873561565581615f06565b9960208901359950604089013598606081013598506080810135975060a0810135965060c00135945092505050565b60008060208385031215615696578182fd5b82356001600160401b038111156156ab578283fd5b6156b7858286016154f7565b90969095509350505050565b600080600080604085870312156156d8578384fd5b84356001600160401b03808211156156ee578586fd5b6156fa888389016154f7565b90965094506020870135915080821115615712578384fd5b5061571f878288016154f7565b95989497509550505050565b60006020828403121561573c578081fd5b815180151581146107a7578182fd5b60006020828403121561575c578081fd5b5035919050565b60008060408385031215615775578182fd5b82359150602083013561578781615f06565b809150509250929050565b6000602082840312156157a3578081fd5b81356001600160e01b0319811681146107a7578182fd5b600060a082840312156157cb578081fd5b6157d3615d49565b82518152602083015160208201526040830151604082015260608301516060820152608083015160808201528091505092915050565b600060a0828403121561581a578081fd5b615822615d49565b825161582d81615f06565b80825250602083015160208201526040830151604082015260608301516060820152608083015160808201528091505092915050565b600060208284031215615874578081fd5b5051919050565b6000806040838503121561588d578182fd5b50508035926020909101359150565b6000806000606084860312156158b0578081fd5b8351925060208401519150604084015190509250925092565b60008060008060008060c087890312156158e1578384fd5b863595506020870135945060408701359350606087013560ff81168114615906578283fd5b9598949750929560808101359460a0909101359350915050565b80518252602081015160208301526040810151604083015260608101516060830152608081015160808301525050565b8054825260018101546020830152600281015460408301526003810154606083015260040154608090910152565b60008251615990818460208701615e64565b9190910192915050565b76020b1b1b2b9b9a1b7b73a3937b61d1030b1b1b7bab73a1604d1b8152600083516159cc816017850160208801615e64565b7001034b99036b4b9b9b4b733903937b6329607d1b60179184019182015283516159fd816028840160208801615e64565b01602801949350505050565b6001600160a01b0391909116815260200190565b6001600160a01b0383168152604060208083018290528354918301829052600084815281812090929091906060850190845b81811015615a6b57845483526001948501949284019201615a4f565b5090979650505050505050565b6001600160a01b03929092168252602082015260400190565b6020815260008251806020840152615ab0816040850160208701615e64565b601f01601f19169190910160400192915050565b6020808252601a908201527f43616e27742073656e6420746f207a65726f2061646472657373000000000000604082015260600190565b6020808252602c908201527f4d75737420686176652070617573657220726f6c6520746f20706572666f726d60408201526b103a3434b99030b1ba34b7b760a11b606082015260800190565b602080825260179082015276111bc81b9bdd081a185d9948185b9e48195b195b595b9d604a1b604082015260600190565b6020808252602e908201527f496e697469616c697a61626c653a20636f6e747261637420697320616c72656160408201526d191e481a5b9a5d1a585b1a5e995960921b606082015260800190565b6020808252601590820152741059191c995cdcc81b9bdd0819dbcb5b1a5cdd1959605a1b604082015260600190565b6020808252601590820152744d7573742068617665206c6f636b657220726f6c6560581b604082015260600190565b6020808252602b908201527f496e697469616c697a61626c653a20636f6e7472616374206973206e6f74206960408201526a6e697469616c697a696e6760a81b606082015260800190565b6020808252602b908201527f4d75737420686176652061646d696e20726f6c6520746f20706572666f726d2060408201526a3a3434b99030b1ba34b7b760a91b606082015260800190565b60a081016107aa8284615920565b6101808101615cd78287615920565b615ce460a0830186615920565b610140820193909352610160015292915050565b6102408101615d078286615920565b8360a0830152615d1a60c0830184615950565b615d2b610160830160058501615950565b600a830154610200830152600b830154610220830152949350505050565b60405160a081016001600160401b0381118282101715615d7957634e487b7160e01b600052604160045260246000fd5b60405290565b60008219821115615d9257615d92615eda565b500190565b600082615da657615da6615ef0565b500490565b60006001600160ff1b0381841382841380821686840486111615615dd157615dd1615eda565b600160ff1b84871282811687830589121615615def57615def615eda565b858712925087820587128484161615615e0a57615e0a615eda565b87850587128184161615615e2057615e20615eda565b505050929093029392505050565b6000816000190483118215151615615e4857615e48615eda565b500290565b600082821015615e5f57615e5f615eda565b500390565b60005b83811015615e7f578181015183820152602001615e67565b83811115615e8e576000848401525b50505050565b600081615ea357615ea3615eda565b506000190190565b6000600019821415615ebf57615ebf615eda565b5060010190565b600082615ed557615ed5615ef0565b500690565b634e487b7160e01b600052601160045260246000fd5b634e487b7160e01b600052601260045260246000fd5b6001600160a01b038116811461094757600080fdfeb19546dff01e856fb3f010c267a7b1c60363cf8a4664e21cc89c26224620214ef839b119f21fb055e13aebac51bca6b308f52ec2d8db8306ce4d092d964e5bd065d7a28e3265b37a6474929f336521b332c1681b933f6cb9f3376673440d862a956624bfbe09c0e98e645d61eba0de4ce88e8cceabdb00fead208d19a8e1209baf9a8bb3cbd6b84fbccefa71ff73e26e798553c6914585a84886212a46a90279a2646970667358221220c6b30dab25eed04b4606d4b3ca17e85382775aa0af97f8398b81e53eb62ba66e64736f6c63430008040033",
  "libraries": {
    "TranchingLogic": "0x93835ff173f8BfDd52Ae6DCd111fd2DF806600Ca"
  },
  "devdoc": {
    "kind": "dev",
    "methods": {
      "availableToWithdraw(uint256)": {
        "params": {
          "tokenId": "The token representing the position"
        },
        "returns": {
          "interestRedeemable": "The interest available to redeem",
          "principalRedeemable": "The principal available to redeem"
        }
      },
      "deposit(uint256,uint256)": {
        "params": {
          "amount": "The USDC amount to tranfer from the caller to the pool",
          "tranche": "The number representing the tranche to deposit into"
        },
        "returns": {
          "tokenId": "The tokenId of the NFT"
        }
      },
      "drawdown(uint256)": {
        "params": {
          "amount": "The amount to drawdown from the creditline (must be < limit)"
        }
      },
      "getRoleAdmin(bytes32)": {
        "details": "Returns the admin role that controls `role`. See {grantRole} and {revokeRole}. To change a role's admin, use {_setRoleAdmin}."
      },
      "grantRole(bytes32,address)": {
        "details": "Grants `role` to `account`. If `account` had not been already granted `role`, emits a {RoleGranted} event. Requirements: - the caller must have ``role``'s admin role. May emit a {RoleGranted} event."
      },
      "hasRole(bytes32,address)": {
        "details": "Returns `true` if `account` has been granted `role`."
      },
      "migrateCreditLine(address,uint256,uint256,uint256,uint256,uint256,uint256)": {
        "params": {
          "_borrower": "The borrower address",
          "_interestApr": "The new interest APR",
          "_lateFeeApr": "The new late fee APR",
          "_maxLimit": "The new max limit",
          "_paymentPeriodInDays": "The new payment period in days",
          "_termInDays": "The new term in days"
        }
      },
      "pause()": {
        "details": "Pauses all functions guarded by Pause See {Pausable-_pause}. Requirements: - the caller must have the PAUSER_ROLE."
      },
      "paused()": {
        "details": "Returns true if the contract is paused, and false otherwise."
      },
      "pay(uint256)": {
        "params": {
          "amount": "The amount to repay"
        }
      },
      "renounceRole(bytes32,address)": {
        "details": "Revokes `role` from the calling account. Roles are often managed via {grantRole} and {revokeRole}: this function's purpose is to provide a mechanism for accounts to lose their privileges if they are compromised (such as when a trusted device is misplaced). If the calling account had been revoked `role`, emits a {RoleRevoked} event. Requirements: - the caller must be `account`. May emit a {RoleRevoked} event."
      },
      "revokeRole(bytes32,address)": {
        "details": "Revokes `role` from `account`. If `account` had been granted `role`, emits a {RoleRevoked} event. Requirements: - the caller must have ``role``'s admin role. May emit a {RoleRevoked} event."
      },
      "sharePriceToUsdc(uint256,uint256)": {
        "params": {
          "sharePrice": "The share price to convert",
          "totalShares": "The total shares outstanding"
        },
        "returns": {
          "_0": "The USDC amount of the input share price"
        }
      },
      "supportsInterface(bytes4)": {
        "details": "See {IERC165-supportsInterface}."
      },
      "totalJuniorDeposits()": {
        "returns": {
          "_0": "The total USDC amount deposited into all junior tranches"
        }
      },
      "unpause()": {
        "details": "Unpauses the contract See {Pausable-_unpause}. Requirements: - the caller must have the Pauser role"
      },
      "usdcToSharePrice(uint256,uint256)": {
        "params": {
          "amount": "The USDC amount to convert",
          "totalShares": "The total shares outstanding"
        },
        "returns": {
          "_0": "The share price of the input amount"
        }
      },
      "withdraw(uint256,uint256)": {
        "params": {
          "amount": "The amount to withdraw (must be <= interest+principal currently available to withdraw)",
          "tokenId": "The NFT representing the position"
        },
        "returns": {
          "interestWithdrawn": "The interest amount that was withdrawn",
          "principalWithdrawn": "The principal amount that was withdrawn"
        }
      },
      "withdrawMax(uint256)": {
        "params": {
          "tokenId": "The NFT representing the position"
        },
        "returns": {
          "interestWithdrawn": "The interest amount that was withdrawn",
          "principalWithdrawn": "The principal amount that was withdrawn"
        }
      },
      "withdrawMultiple(uint256[],uint256[])": {
        "params": {
          "amounts": "An array of amounts to withdraw from the corresponding tokenIds",
          "tokenIds": "An array of tokens ids representing the position"
        }
      }
    },
    "version": 1
  },
  "userdoc": {
    "kind": "user",
    "methods": {
      "assess()": {
        "notice": "Triggers an assessment of the creditline and the applies the payments according the tranche waterfall"
      },
      "availableToWithdraw(uint256)": {
        "notice": "Determines the amount of interest and principal redeemable by a particular tokenId"
      },
      "deposit(uint256,uint256)": {
        "notice": "Deposit a USDC amount into the pool for a tranche. Mints an NFT to the caller representing the position"
      },
      "drawdown(uint256)": {
        "notice": "Draws down the funds (and locks the pool) to the borrower address. Can only be called by the borrower"
      },
      "emergencyShutdown()": {
        "notice": "Pauses the pool and sweeps any remaining funds to the treasury reserve."
      },
      "lockJuniorCapital()": {
        "notice": "Locks the junior tranche, preventing more junior deposits. Gives time for the senior to determine how much to invest (ensure leverage ratio cannot change for the period)"
      },
      "lockPool()": {
        "notice": "Locks the pool (locks both senior and junior tranches and starts the drawdown period). Beyond the drawdown period, any unused capital is available to withdraw by all depositors"
      },
      "migrateAndSetNewCreditLine(address)": {
        "notice": "Migrates to a new creditline without copying the accounting variables"
      },
      "migrateCreditLine(address,uint256,uint256,uint256,uint256,uint256,uint256)": {
        "notice": "Migrates the accounting variables from the current creditline to a brand new one"
      },
      "pauseDrawdowns()": {
        "notice": "Pauses all drawdowns (but not deposits/withdraws)"
      },
      "pay(uint256)": {
        "notice": "Allows repaying the creditline. Collects the USDC amount from the sender and triggers an assess"
      },
      "sharePriceToUsdc(uint256,uint256)": {
        "notice": "Converts share price to USDC amounts"
      },
      "totalJuniorDeposits()": {
        "notice": "Returns the total junior capital deposited"
      },
      "unpauseDrawdowns()": {
        "notice": "Unpause drawdowns"
      },
      "usdcToSharePrice(uint256,uint256)": {
        "notice": "Converts USDC amounts to share price"
      },
      "withdraw(uint256,uint256)": {
        "notice": "Withdraw an already deposited amount if the funds are available"
      },
      "withdrawMax(uint256)": {
        "notice": "Similar to withdraw but will withdraw all available funds"
      },
      "withdrawMultiple(uint256[],uint256[])": {
        "notice": "Withdraw from many tokens (that the sender owns) in a single transaction"
      }
    },
    "version": 1
  },
  "storageLayout": {
    "storage": [
      {
        "astId": 588,
        "contract": "contracts/protocol/core/TranchedPool.sol:TranchedPool",
        "label": "_initialized",
        "offset": 0,
        "slot": "0",
        "type": "t_uint8"
      },
      {
        "astId": 591,
        "contract": "contracts/protocol/core/TranchedPool.sol:TranchedPool",
        "label": "_initializing",
        "offset": 1,
        "slot": "0",
        "type": "t_bool"
      },
      {
        "astId": 4964,
        "contract": "contracts/protocol/core/TranchedPool.sol:TranchedPool",
        "label": "__gap",
        "offset": 0,
        "slot": "1",
        "type": "t_array(t_uint256)50_storage"
      },
      {
        "astId": 5544,
        "contract": "contracts/protocol/core/TranchedPool.sol:TranchedPool",
        "label": "__gap",
        "offset": 0,
        "slot": "51",
        "type": "t_array(t_uint256)50_storage"
      },
      {
        "astId": 184,
        "contract": "contracts/protocol/core/TranchedPool.sol:TranchedPool",
        "label": "_roles",
        "offset": 0,
        "slot": "101",
        "type": "t_mapping(t_bytes32,t_struct(RoleData)179_storage)"
      },
      {
        "astId": 479,
        "contract": "contracts/protocol/core/TranchedPool.sol:TranchedPool",
        "label": "__gap",
        "offset": 0,
        "slot": "102",
        "type": "t_array(t_uint256)49_storage"
      },
      {
        "astId": 771,
        "contract": "contracts/protocol/core/TranchedPool.sol:TranchedPool",
        "label": "_paused",
        "offset": 0,
        "slot": "151",
        "type": "t_bool"
      },
      {
        "astId": 876,
        "contract": "contracts/protocol/core/TranchedPool.sol:TranchedPool",
        "label": "__gap",
        "offset": 0,
        "slot": "152",
        "type": "t_array(t_uint256)49_storage"
      },
      {
        "astId": 891,
        "contract": "contracts/protocol/core/TranchedPool.sol:TranchedPool",
        "label": "_status",
        "offset": 0,
        "slot": "201",
        "type": "t_uint256"
      },
      {
        "astId": 949,
        "contract": "contracts/protocol/core/TranchedPool.sol:TranchedPool",
        "label": "__gap",
        "offset": 0,
        "slot": "202",
        "type": "t_array(t_uint256)49_storage"
      },
      {
        "astId": 15955,
        "contract": "contracts/protocol/core/TranchedPool.sol:TranchedPool",
        "label": "__gap1",
        "offset": 0,
        "slot": "251",
        "type": "t_array(t_uint256)50_storage"
      },
      {
        "astId": 15959,
        "contract": "contracts/protocol/core/TranchedPool.sol:TranchedPool",
        "label": "__gap2",
        "offset": 0,
        "slot": "301",
        "type": "t_array(t_uint256)50_storage"
      },
      {
        "astId": 15963,
        "contract": "contracts/protocol/core/TranchedPool.sol:TranchedPool",
        "label": "__gap3",
        "offset": 0,
        "slot": "351",
        "type": "t_array(t_uint256)50_storage"
      },
      {
        "astId": 15967,
        "contract": "contracts/protocol/core/TranchedPool.sol:TranchedPool",
        "label": "__gap4",
        "offset": 0,
        "slot": "401",
        "type": "t_array(t_uint256)50_storage"
      },
      {
        "astId": 14072,
        "contract": "contracts/protocol/core/TranchedPool.sol:TranchedPool",
        "label": "creditLine",
        "offset": 0,
        "slot": "451",
        "type": "t_contract(IV2CreditLine)14463"
      },
      {
        "astId": 14074,
        "contract": "contracts/protocol/core/TranchedPool.sol:TranchedPool",
        "label": "createdAt",
        "offset": 0,
        "slot": "452",
        "type": "t_uint256"
      },
      {
        "astId": 25950,
        "contract": "contracts/protocol/core/TranchedPool.sol:TranchedPool",
        "label": "config",
        "offset": 0,
        "slot": "453",
        "type": "t_contract(DobermanConfig)20043"
      },
      {
        "astId": 25989,
        "contract": "contracts/protocol/core/TranchedPool.sol:TranchedPool",
        "label": "juniorFeePercent",
        "offset": 0,
        "slot": "454",
        "type": "t_uint256"
      },
      {
        "astId": 25991,
        "contract": "contracts/protocol/core/TranchedPool.sol:TranchedPool",
        "label": "drawdownsPaused",
        "offset": 0,
        "slot": "455",
        "type": "t_bool"
      },
      {
        "astId": 25994,
        "contract": "contracts/protocol/core/TranchedPool.sol:TranchedPool",
        "label": "allowedUIDTypes",
        "offset": 0,
        "slot": "456",
        "type": "t_array(t_uint256)dyn_storage"
      },
      {
        "astId": 25996,
        "contract": "contracts/protocol/core/TranchedPool.sol:TranchedPool",
        "label": "totalDeployed",
        "offset": 0,
        "slot": "457",
        "type": "t_uint256"
      },
      {
        "astId": 25998,
        "contract": "contracts/protocol/core/TranchedPool.sol:TranchedPool",
        "label": "fundableAt",
        "offset": 0,
        "slot": "458",
        "type": "t_uint256"
      },
      {
        "astId": 26002,
        "contract": "contracts/protocol/core/TranchedPool.sol:TranchedPool",
        "label": "poolSlices",
        "offset": 0,
        "slot": "459",
        "type": "t_array(t_struct(PoolSlice)14100_storage)dyn_storage"
      }
    ],
    "types": {
      "t_address": {
        "encoding": "inplace",
        "label": "address",
        "numberOfBytes": "20"
      },
      "t_array(t_struct(PoolSlice)14100_storage)dyn_storage": {
        "base": "t_struct(PoolSlice)14100_storage",
        "encoding": "dynamic_array",
        "label": "struct ITranchedPool.PoolSlice[]",
        "numberOfBytes": "32"
      },
      "t_array(t_uint256)49_storage": {
        "base": "t_uint256",
        "encoding": "inplace",
        "label": "uint256[49]",
        "numberOfBytes": "1568"
      },
      "t_array(t_uint256)50_storage": {
        "base": "t_uint256",
        "encoding": "inplace",
        "label": "uint256[50]",
        "numberOfBytes": "1600"
      },
      "t_array(t_uint256)dyn_storage": {
        "base": "t_uint256",
        "encoding": "dynamic_array",
        "label": "uint256[]",
        "numberOfBytes": "32"
      },
      "t_bool": {
        "encoding": "inplace",
        "label": "bool",
        "numberOfBytes": "1"
      },
      "t_bytes32": {
        "encoding": "inplace",
        "label": "bytes32",
        "numberOfBytes": "32"
      },
      "t_contract(DobermanConfig)20043": {
        "encoding": "inplace",
        "label": "contract DobermanConfig",
        "numberOfBytes": "20"
      },
      "t_contract(IV2CreditLine)14463": {
        "encoding": "inplace",
        "label": "contract IV2CreditLine",
        "numberOfBytes": "20"
      },
      "t_mapping(t_address,t_bool)": {
        "encoding": "mapping",
        "key": "t_address",
        "label": "mapping(address => bool)",
        "numberOfBytes": "32",
        "value": "t_bool"
      },
      "t_mapping(t_bytes32,t_struct(RoleData)179_storage)": {
        "encoding": "mapping",
        "key": "t_bytes32",
        "label": "mapping(bytes32 => struct AccessControlUpgradeable.RoleData)",
        "numberOfBytes": "32",
        "value": "t_struct(RoleData)179_storage"
      },
      "t_struct(PoolSlice)14100_storage": {
        "encoding": "inplace",
        "label": "struct ITranchedPool.PoolSlice",
        "members": [
          {
            "astId": 14092,
            "contract": "contracts/protocol/core/TranchedPool.sol:TranchedPool",
            "label": "seniorTranche",
            "offset": 0,
            "slot": "0",
            "type": "t_struct(TrancheInfo)14089_storage"
          },
          {
            "astId": 14095,
            "contract": "contracts/protocol/core/TranchedPool.sol:TranchedPool",
            "label": "juniorTranche",
            "offset": 0,
            "slot": "5",
            "type": "t_struct(TrancheInfo)14089_storage"
          },
          {
            "astId": 14097,
            "contract": "contracts/protocol/core/TranchedPool.sol:TranchedPool",
            "label": "totalInterestAccrued",
            "offset": 0,
            "slot": "10",
            "type": "t_uint256"
          },
          {
            "astId": 14099,
            "contract": "contracts/protocol/core/TranchedPool.sol:TranchedPool",
            "label": "principalDeployed",
            "offset": 0,
            "slot": "11",
            "type": "t_uint256"
          }
        ],
        "numberOfBytes": "384"
      },
      "t_struct(RoleData)179_storage": {
        "encoding": "inplace",
        "label": "struct AccessControlUpgradeable.RoleData",
        "members": [
          {
            "astId": 176,
            "contract": "contracts/protocol/core/TranchedPool.sol:TranchedPool",
            "label": "members",
            "offset": 0,
            "slot": "0",
            "type": "t_mapping(t_address,t_bool)"
          },
          {
            "astId": 178,
            "contract": "contracts/protocol/core/TranchedPool.sol:TranchedPool",
            "label": "adminRole",
            "offset": 0,
            "slot": "1",
            "type": "t_bytes32"
          }
        ],
        "numberOfBytes": "64"
      },
      "t_struct(TrancheInfo)14089_storage": {
        "encoding": "inplace",
        "label": "struct ITranchedPool.TrancheInfo",
        "members": [
          {
            "astId": 14080,
            "contract": "contracts/protocol/core/TranchedPool.sol:TranchedPool",
            "label": "id",
            "offset": 0,
            "slot": "0",
            "type": "t_uint256"
          },
          {
            "astId": 14082,
            "contract": "contracts/protocol/core/TranchedPool.sol:TranchedPool",
            "label": "principalDeposited",
            "offset": 0,
            "slot": "1",
            "type": "t_uint256"
          },
          {
            "astId": 14084,
            "contract": "contracts/protocol/core/TranchedPool.sol:TranchedPool",
            "label": "principalSharePrice",
            "offset": 0,
            "slot": "2",
            "type": "t_uint256"
          },
          {
            "astId": 14086,
            "contract": "contracts/protocol/core/TranchedPool.sol:TranchedPool",
            "label": "interestSharePrice",
            "offset": 0,
            "slot": "3",
            "type": "t_uint256"
          },
          {
            "astId": 14088,
            "contract": "contracts/protocol/core/TranchedPool.sol:TranchedPool",
            "label": "lockedUntil",
            "offset": 0,
            "slot": "4",
            "type": "t_uint256"
          }
        ],
        "numberOfBytes": "160"
      },
      "t_uint256": {
        "encoding": "inplace",
        "label": "uint256",
        "numberOfBytes": "32"
      },
      "t_uint8": {
        "encoding": "inplace",
        "label": "uint8",
        "numberOfBytes": "1"
      }
    }
  }
}